{
  "address": "0x9e7E0Beb7EfB18099532aeA0e803Da04281fcc34",
  "abi": [
    {
      "inputs": [
        {
          "internalType": "uint256",
          "name": "_lockTime",
          "type": "uint256"
        },
        {
          "internalType": "address",
          "name": "dataFeedAddr",
          "type": "address"
        }
      ],
      "stateMutability": "nonpayable",
      "type": "constructor"
    },
    {
      "anonymous": false,
      "inputs": [
        {
          "indexed": false,
          "internalType": "uint256",
          "name": "",
          "type": "uint256"
        }
      ],
      "name": "GetFundByOwner",
      "type": "event"
    },
    {
      "anonymous": false,
      "inputs": [
        {
          "indexed": false,
          "internalType": "address",
          "name": "",
          "type": "address"
        },
        {
          "indexed": false,
          "internalType": "uint256",
          "name": "",
          "type": "uint256"
        }
      ],
      "name": "RefundByFunder",
      "type": "event"
    },
    {
      "inputs": [
        {
          "internalType": "address",
          "name": "addr",
          "type": "address"
        }
      ],
      "name": "checkFunderAmount",
      "outputs": [
        {
          "internalType": "uint256",
          "name": "",
          "type": "uint256"
        }
      ],
      "stateMutability": "view",
      "type": "function"
    },
    {
      "inputs": [],
      "name": "checkMyAmount",
      "outputs": [
        {
          "internalType": "uint256",
          "name": "",
          "type": "uint256"
        }
      ],
      "stateMutability": "view",
      "type": "function"
    },
    {
      "inputs": [
        {
          "internalType": "uint256",
          "name": "ethAmount",
          "type": "uint256"
        }
      ],
      "name": "convertEthToUsd",
      "outputs": [
        {
          "internalType": "uint256",
          "name": "",
          "type": "uint256"
        }
      ],
      "stateMutability": "view",
      "type": "function"
    },
    {
      "inputs": [],
      "name": "dataFeed",
      "outputs": [
        {
          "internalType": "contract AggregatorV3Interface",
          "name": "",
          "type": "address"
        }
      ],
      "stateMutability": "view",
      "type": "function"
    },
    {
      "inputs": [],
      "name": "fund",
      "outputs": [],
      "stateMutability": "payable",
      "type": "function"
    },
    {
      "inputs": [
        {
          "internalType": "address",
          "name": "",
          "type": "address"
        }
      ],
      "name": "funderToAmount",
      "outputs": [
        {
          "internalType": "uint256",
          "name": "",
          "type": "uint256"
        }
      ],
      "stateMutability": "view",
      "type": "function"
    },
    {
      "inputs": [],
      "name": "getChainlinkDataFeedLatestAnswer",
      "outputs": [
        {
          "internalType": "int256",
          "name": "",
          "type": "int256"
        }
      ],
      "stateMutability": "view",
      "type": "function"
    },
    {
      "inputs": [],
      "name": "getFund",
      "outputs": [],
      "stateMutability": "nonpayable",
      "type": "function"
    },
    {
      "inputs": [],
      "name": "getFundSuccess",
      "outputs": [
        {
          "internalType": "bool",
          "name": "",
          "type": "bool"
        }
      ],
      "stateMutability": "view",
      "type": "function"
    },
    {
      "inputs": [],
      "name": "owner",
      "outputs": [
        {
          "internalType": "address",
          "name": "",
          "type": "address"
        }
      ],
      "stateMutability": "view",
      "type": "function"
    },
    {
      "inputs": [],
      "name": "refund",
      "outputs": [],
      "stateMutability": "nonpayable",
      "type": "function"
    },
    {
      "inputs": [
        {
          "internalType": "address",
          "name": "_erc20Addr",
          "type": "address"
        }
      ],
      "name": "setErc20Addr",
      "outputs": [],
      "stateMutability": "nonpayable",
      "type": "function"
    },
    {
      "inputs": [
        {
          "internalType": "address",
          "name": "funder",
          "type": "address"
        },
        {
          "internalType": "uint256",
          "name": "amount",
          "type": "uint256"
        }
      ],
      "name": "setFunderToAmount",
      "outputs": [],
      "stateMutability": "nonpayable",
      "type": "function"
    },
    {
      "inputs": [
        {
          "internalType": "address",
          "name": "newOwner",
          "type": "address"
        }
      ],
      "name": "transferOwnership",
      "outputs": [],
      "stateMutability": "nonpayable",
      "type": "function"
    }
  ],
  "transactionHash": "0x54d221fc4de8b502c94fdf89e1e25b9b80cfefe34d7414a923922a1353970528",
  "args": [
    60,
    "0x694AA1769357215DE4FAC081bf1f309aDC325306"
  ],
  "numDeployments": 1,
  "solcInputHash": "f99b29f681b29e02dd2ceb3a67e9024e",
  "bytecode": "0x60806040526000600660006101000a81548160ff02191690831515021790555034801561002b57600080fd5b5060405161186b38038061186b833981810160405281019061004d91906101bf565b60008211610090576040517f08c379a000000000000000000000000000000000000000000000000000000000815260040161008790610282565b60405180910390fd5b33600260006101000a81548173ffffffffffffffffffffffffffffffffffffffff021916908373ffffffffffffffffffffffffffffffffffffffff1602179055504260048190555081600581905550806000806101000a81548173ffffffffffffffffffffffffffffffffffffffff021916908373ffffffffffffffffffffffffffffffffffffffff16021790555050506102a2565b600080fd5b6000819050919050565b61013e8161012b565b811461014957600080fd5b50565b60008151905061015b81610135565b92915050565b600073ffffffffffffffffffffffffffffffffffffffff82169050919050565b600061018c82610161565b9050919050565b61019c81610181565b81146101a757600080fd5b50565b6000815190506101b981610193565b92915050565b600080604083850312156101d6576101d5610126565b5b60006101e48582860161014c565b92505060206101f5858286016101aa565b9150509250929050565b600082825260208201905092915050565b7f4c6f636b2074696d65206d7573742062652067726561746572207468616e207a60008201527f65726f0000000000000000000000000000000000000000000000000000000000602082015250565b600061026c6023836101ff565b915061027782610210565b604082019050919050565b6000602082019050818103600083015261029b8161025f565b9050919050565b6115ba806102b16000396000f3fe6080604052600436106100dd5760003560e01c8063b60d42881161007f578063d39cf00611610059578063d39cf00614610269578063da4658e014610292578063dba244f1146102bd578063f2fde38b146102fa576100dd565b8063b60d4288146101f7578063bea4dfb514610201578063c086381e1461022c576100dd565b80637795dc2a116100bb5780637795dc2a1461015f5780638da5cb5b1461018a5780638edd6eb6146101b55780639e42ff90146101cc576100dd565b806313ffff01146100e25780634407e1e81461010b578063590e1ae314610148575b600080fd5b3480156100ee57600080fd5b5061010960048036038101906101049190610d67565b610323565b005b34801561011757600080fd5b50610132600480360381019061012d9190610d67565b6103f7565b60405161013f9190610dad565b60405180910390f35b34801561015457600080fd5b5061015d61040f565b005b34801561016b57600080fd5b5061017461066c565b6040516101819190610dad565b60405180910390f35b34801561019657600080fd5b5061019f6106b3565b6040516101ac9190610dd7565b60405180910390f35b3480156101c157600080fd5b506101ca6106d9565b005b3480156101d857600080fd5b506101e1610918565b6040516101ee9190610e51565b60405180910390f35b6101ff61093c565b005b34801561020d57600080fd5b50610216610a3c565b6040516102239190610e85565b60405180910390f35b34801561023857600080fd5b50610253600480360381019061024e9190610ecc565b610adb565b6040516102609190610dad565b60405180910390f35b34801561027557600080fd5b50610290600480360381019061028b9190610ef9565b610afc565b005b34801561029e57600080fd5b506102a7610bd4565b6040516102b49190610f54565b60405180910390f35b3480156102c957600080fd5b506102e460048036038101906102df9190610d67565b610be7565b6040516102f19190610dad565b60405180910390f35b34801561030657600080fd5b50610321600480360381019061031c9190610d67565b610c30565b005b3373ffffffffffffffffffffffffffffffffffffffff16600260009054906101000a900473ffffffffffffffffffffffffffffffffffffffff1673ffffffffffffffffffffffffffffffffffffffff16146103b3576040517f08c379a00000000000000000000000000000000000000000000000000000000081526004016103aa90610fcc565b60405180910390fd5b80600360006101000a81548173ffffffffffffffffffffffffffffffffffffffff021916908373ffffffffffffffffffffffffffffffffffffffff16021790555050565b60016020528060005260406000206000915090505481565b60055460045461041f919061101b565b4211610460576040517f08c379a00000000000000000000000000000000000000000000000000000000081526004016104579061109b565b60405180910390fd5b6aa56fa5b99019a5c800000061047547610adb565b106104b5576040517f08c379a00000000000000000000000000000000000000000000000000000000081526004016104ac90611107565b60405180910390fd5b6000600160003373ffffffffffffffffffffffffffffffffffffffff1673ffffffffffffffffffffffffffffffffffffffff1681526020019081526020016000205490506000810361053c576040517f08c379a000000000000000000000000000000000000000000000000000000000815260040161053390611173565b60405180910390fd5b60003373ffffffffffffffffffffffffffffffffffffffff1682604051610562906111c4565b60006040518083038185875af1925050503d806000811461059f576040519150601f19603f3d011682016040523d82523d6000602084013e6105a4565b606091505b505080915050806105ea576040517f08c379a00000000000000000000000000000000000000000000000000000000081526004016105e190611225565b60405180910390fd5b6000600160003373ffffffffffffffffffffffffffffffffffffffff1673ffffffffffffffffffffffffffffffffffffffff168152602001908152602001600020819055507fc69be1ee5ac2aec580fb0927d8d940555d6f0a7bd11eed94b5b597056113da5f3383604051610660929190611245565b60405180910390a15050565b6000600160003373ffffffffffffffffffffffffffffffffffffffff1673ffffffffffffffffffffffffffffffffffffffff16815260200190815260200160002054905090565b600260009054906101000a900473ffffffffffffffffffffffffffffffffffffffff1681565b3373ffffffffffffffffffffffffffffffffffffffff16600260009054906101000a900473ffffffffffffffffffffffffffffffffffffffff1673ffffffffffffffffffffffffffffffffffffffff1614610769576040517f08c379a000000000000000000000000000000000000000000000000000000000815260040161076090610fcc565b60405180910390fd5b600554600454610779919061101b565b42116107ba576040517f08c379a00000000000000000000000000000000000000000000000000000000081526004016107b19061109b565b60405180910390fd5b6aa56fa5b99019a5c80000006107cf47610adb565b1015610810576040517f08c379a0000000000000000000000000000000000000000000000000000000008152600401610807906112ba565b60405180910390fd5b6000804790503373ffffffffffffffffffffffffffffffffffffffff168160405161083a906111c4565b60006040518083038185875af1925050503d8060008114610877576040519150601f19603f3d011682016040523d82523d6000602084013e61087c565b606091505b505080925050816108c2576040517f08c379a00000000000000000000000000000000000000000000000000000000081526004016108b990611225565b60405180910390fd5b6001600660006101000a81548160ff0219169083151502179055507fd7015cef62a0706c5a4e81e97ae5c120532b40e4e9d34486d1c52d7ca765f7048160405161090c9190610dad565b60405180910390a15050565b60008054906101000a900473ffffffffffffffffffffffffffffffffffffffff1681565b60055460045461094c919061101b565b42111561098e576040517f08c379a000000000000000000000000000000000000000000000000000000000815260040161098590611326565b60405180910390fd5b6a52b7d2dcc80cd2e40000006109a334610adb565b10156109e4576040517f08c379a00000000000000000000000000000000000000000000000000000000081526004016109db90611392565b60405180910390fd5b34600160003373ffffffffffffffffffffffffffffffffffffffff1673ffffffffffffffffffffffffffffffffffffffff1681526020019081526020016000206000828254610a33919061101b565b92505081905550565b60008060008054906101000a900473ffffffffffffffffffffffffffffffffffffffff1673ffffffffffffffffffffffffffffffffffffffff1663feaf968c6040518163ffffffff1660e01b815260040160a060405180830381865afa158015610aaa573d6000803e3d6000fd5b505050506040513d601f19601f82011682018060405250810190610ace9190611435565b5050509150508091505090565b600080610ae6610a3c565b90508083610af491906114b0565b915050919050565b600360009054906101000a900473ffffffffffffffffffffffffffffffffffffffff1673ffffffffffffffffffffffffffffffffffffffff163373ffffffffffffffffffffffffffffffffffffffff1614610b8c576040517f08c379a0000000000000000000000000000000000000000000000000000000008152600401610b8390611564565b60405180910390fd5b80600160008473ffffffffffffffffffffffffffffffffffffffff1673ffffffffffffffffffffffffffffffffffffffff168152602001908152602001600020819055505050565b600660009054906101000a900460ff1681565b6000600160008373ffffffffffffffffffffffffffffffffffffffff1673ffffffffffffffffffffffffffffffffffffffff168152602001908152602001600020549050919050565b3373ffffffffffffffffffffffffffffffffffffffff16600260009054906101000a900473ffffffffffffffffffffffffffffffffffffffff1673ffffffffffffffffffffffffffffffffffffffff1614610cc0576040517f08c379a0000000000000000000000000000000000000000000000000000000008152600401610cb790610fcc565b60405180910390fd5b80600260006101000a81548173ffffffffffffffffffffffffffffffffffffffff021916908373ffffffffffffffffffffffffffffffffffffffff16021790555050565b600080fd5b600073ffffffffffffffffffffffffffffffffffffffff82169050919050565b6000610d3482610d09565b9050919050565b610d4481610d29565b8114610d4f57600080fd5b50565b600081359050610d6181610d3b565b92915050565b600060208284031215610d7d57610d7c610d04565b5b6000610d8b84828501610d52565b91505092915050565b6000819050919050565b610da781610d94565b82525050565b6000602082019050610dc26000830184610d9e565b92915050565b610dd181610d29565b82525050565b6000602082019050610dec6000830184610dc8565b92915050565b6000819050919050565b6000610e17610e12610e0d84610d09565b610df2565b610d09565b9050919050565b6000610e2982610dfc565b9050919050565b6000610e3b82610e1e565b9050919050565b610e4b81610e30565b82525050565b6000602082019050610e666000830184610e42565b92915050565b6000819050919050565b610e7f81610e6c565b82525050565b6000602082019050610e9a6000830184610e76565b92915050565b610ea981610d94565b8114610eb457600080fd5b50565b600081359050610ec681610ea0565b92915050565b600060208284031215610ee257610ee1610d04565b5b6000610ef084828501610eb7565b91505092915050565b60008060408385031215610f1057610f0f610d04565b5b6000610f1e85828601610d52565b9250506020610f2f85828601610eb7565b9150509250929050565b60008115159050919050565b610f4e81610f39565b82525050565b6000602082019050610f696000830184610f45565b92915050565b600082825260208201905092915050565b7f4f776e6572206f6e6c7921000000000000000000000000000000000000000000600082015250565b6000610fb6600b83610f6f565b9150610fc182610f80565b602082019050919050565b60006020820190508181036000830152610fe581610fa9565b9050919050565b7f4e487b7100000000000000000000000000000000000000000000000000000000600052601160045260246000fd5b600061102682610d94565b915061103183610d94565b925082820190508082111561104957611048610fec565b5b92915050565b7f57696e646f77206e6f7420636c6f736564210000000000000000000000000000600082015250565b6000611085601283610f6f565b91506110908261104f565b602082019050919050565b600060208201905081810360008301526110b481611078565b9050919050565b7f5461726765742069732072656163686564210000000000000000000000000000600082015250565b60006110f1601283610f6f565b91506110fc826110bb565b602082019050919050565b60006020820190508181036000830152611120816110e4565b9050919050565b7f596f7520686176656e27742066756e6421000000000000000000000000000000600082015250565b600061115d601183610f6f565b915061116882611127565b602082019050919050565b6000602082019050818103600083015261118c81611150565b9050919050565b600081905092915050565b50565b60006111ae600083611193565b91506111b98261119e565b600082019050919050565b60006111cf826111a1565b9150819050919050565b7f5472616e73666572207478206661696c65642100000000000000000000000000600082015250565b600061120f601383610f6f565b915061121a826111d9565b602082019050919050565b6000602082019050818103600083015261123e81611202565b9050919050565b600060408201905061125a6000830185610dc8565b6112676020830184610d9e565b9392505050565b7f546172676574206973206e6f7420726561636865642100000000000000000000600082015250565b60006112a4601683610f6f565b91506112af8261126e565b602082019050919050565b600060208201905081810360008301526112d381611297565b9050919050565b7f57696e646f7720636c6f73656421000000000000000000000000000000000000600082015250565b6000611310600e83610f6f565b915061131b826112da565b602082019050919050565b6000602082019050818103600083015261133f81611303565b9050919050565b7f506c656173652073656e64206d6f726521000000000000000000000000000000600082015250565b600061137c601183610f6f565b915061138782611346565b602082019050919050565b600060208201905081810360008301526113ab8161136f565b9050919050565b600069ffffffffffffffffffff82169050919050565b6113d1816113b2565b81146113dc57600080fd5b50565b6000815190506113ee816113c8565b92915050565b6113fd81610e6c565b811461140857600080fd5b50565b60008151905061141a816113f4565b92915050565b60008151905061142f81610ea0565b92915050565b600080600080600060a0868803121561145157611450610d04565b5b600061145f888289016113df565b95505060206114708882890161140b565b945050604061148188828901611420565b935050606061149288828901611420565b92505060806114a3888289016113df565b9150509295509295909350565b60006114bb82610d94565b91506114c683610d94565b92508282026114d481610d94565b915082820484148315176114eb576114ea610fec565b5b5092915050565b7f596f7520646f6e7427742068617665207065726d697373696f6e20746f20636160008201527f6c6c20746869732066756e6374696f6e21000000000000000000000000000000602082015250565b600061154e603183610f6f565b9150611559826114f2565b604082019050919050565b6000602082019050818103600083015261157d81611541565b905091905056fea2646970667358221220cb730586b1afe55ad2d79932763137549b53920e5fb86755c7de3943775ab75764736f6c634300081b0033",
  "devdoc": {
    "kind": "dev",
    "methods": {},
    "version": 1
  },
  "userdoc": {
    "kind": "user",
    "methods": {},
    "version": 1
  },
  "storageLayout": {
    "storage": [
      {
        "astId": 317,
        "contract": "contracts/FundMe.sol:FundMe",
        "label": "dataFeed",
        "offset": 0,
        "slot": "0",
        "type": "t_contract(AggregatorV3Interface)104"
      },
      {
        "astId": 321,
        "contract": "contracts/FundMe.sol:FundMe",
        "label": "funderToAmount",
        "offset": 0,
        "slot": "1",
        "type": "t_mapping(t_address,t_uint256)"
      },
      {
        "astId": 349,
        "contract": "contracts/FundMe.sol:FundMe",
        "label": "owner",
        "offset": 0,
        "slot": "2",
        "type": "t_address"
      },
      {
        "astId": 351,
        "contract": "contracts/FundMe.sol:FundMe",
        "label": "erc20Addr",
        "offset": 0,
        "slot": "3",
        "type": "t_address"
      },
      {
        "astId": 353,
        "contract": "contracts/FundMe.sol:FundMe",
        "label": "deploymentTime",
        "offset": 0,
        "slot": "4",
        "type": "t_uint256"
      },
      {
        "astId": 355,
        "contract": "contracts/FundMe.sol:FundMe",
        "label": "lockTime",
        "offset": 0,
        "slot": "5",
        "type": "t_uint256"
      },
      {
        "astId": 358,
        "contract": "contracts/FundMe.sol:FundMe",
        "label": "getFundSuccess",
        "offset": 0,
        "slot": "6",
        "type": "t_bool"
      }
    ],
    "types": {
      "t_address": {
        "encoding": "inplace",
        "label": "address",
        "numberOfBytes": "20"
      },
      "t_bool": {
        "encoding": "inplace",
        "label": "bool",
        "numberOfBytes": "1"
      },
      "t_contract(AggregatorV3Interface)104": {
        "encoding": "inplace",
        "label": "contract AggregatorV3Interface",
        "numberOfBytes": "20"
      },
      "t_mapping(t_address,t_uint256)": {
        "encoding": "mapping",
        "key": "t_address",
        "label": "mapping(address => uint256)",
        "numberOfBytes": "32",
        "value": "t_uint256"
      },
      "t_uint256": {
        "encoding": "inplace",
        "label": "uint256",
        "numberOfBytes": "32"
      }
    }
  }
}