{
	"data": {
		"bytecode": {
			"linkReferences": {},
			"object": "6080604052348015600e575f5ffd5b5061166e8061001c5f395ff3fe608060405234801561000f575f5ffd5b506004361061004a575f3560e01c806353bf97dd1461004e5780635e0a94cb1461007e578063867263fb14610088578063a222ff32146100b8575b5f5ffd5b610068600480360381019061006391906103b7565b6100d4565b6040516100759190610465565b60405180910390f35b610086610194565b005b6100a2600480360381019061009d9190610485565b61027a565b6040516100af919061052a565b60405180910390f35b6100d260048036038101906100cd919061066f565b6102be565b005b6060600183815481106100ea576100e96106db565b5b905f5260205f20015f9054906101000a900473ffffffffffffffffffffffffffffffffffffffff1673ffffffffffffffffffffffffffffffffffffffff166342257b31836040518263ffffffff1660e01b815260040161014a9190610717565b5f60405180830381865afa158015610164573d5f5f3e3d5ffd5b505050506040513d5f823e3d601f19601f8201168201806040525081019061018c919061079e565b905092915050565b6040516101a090610366565b604051809103905ff0801580156101b9573d5f5f3e3d5ffd5b505f5f6101000a81548173ffffffffffffffffffffffffffffffffffffffff021916908373ffffffffffffffffffffffffffffffffffffffff16021790555060015f5f9054906101000a900473ffffffffffffffffffffffffffffffffffffffff16908060018154018082558091505060019003905f5260205f20015f9091909190916101000a81548173ffffffffffffffffffffffffffffffffffffffff021916908373ffffffffffffffffffffffffffffffffffffffff160217905550565b5f6001828154811061028f5761028e6106db565b5b905f5260205f20015f9054906101000a900473ffffffffffffffffffffffffffffffffffffffff169050919050565b600183815481106102d2576102d16106db565b5b905f5260205f20015f9054906101000a900473ffffffffffffffffffffffffffffffffffffffff1673ffffffffffffffffffffffffffffffffffffffff1663dc19af1b83836040518363ffffffff1660e01b81526004016103349291906107e5565b5f604051808303815f87803b15801561034b575f5ffd5b505af115801561035d573d5f5f3e3d5ffd5b50505050505050565b610e258061081483390190565b5f604051905090565b5f5ffd5b5f5ffd5b5f819050919050565b61039681610384565b81146103a0575f5ffd5b50565b5f813590506103b18161038d565b92915050565b5f5f604083850312156103cd576103cc61037c565b5b5f6103da858286016103a3565b92505060206103eb858286016103a3565b9150509250929050565b5f81519050919050565b5f82825260208201905092915050565b8281835e5f83830152505050565b5f601f19601f8301169050919050565b5f610437826103f5565b61044181856103ff565b935061045181856020860161040f565b61045a8161041d565b840191505092915050565b5f6020820190508181035f83015261047d818461042d565b905092915050565b5f6020828403121561049a5761049961037c565b5b5f6104a7848285016103a3565b91505092915050565b5f73ffffffffffffffffffffffffffffffffffffffff82169050919050565b5f819050919050565b5f6104f26104ed6104e8846104b0565b6104cf565b6104b0565b9050919050565b5f610503826104d8565b9050919050565b5f610514826104f9565b9050919050565b6105248161050a565b82525050565b5f60208201905061053d5f83018461051b565b92915050565b5f5ffd5b5f5ffd5b7f4e487b71000000000000000000000000000000000000000000000000000000005f52604160045260245ffd5b6105818261041d565b810181811067ffffffffffffffff821117156105a05761059f61054b565b5b80604052505050565b5f6105b2610373565b90506105be8282610578565b919050565b5f67ffffffffffffffff8211156105dd576105dc61054b565b5b6105e68261041d565b9050602081019050919050565b828183375f83830152505050565b5f61061361060e846105c3565b6105a9565b90508281526020810184848401111561062f5761062e610547565b5b61063a8482856105f3565b509392505050565b5f82601f83011261065657610655610543565b5b8135610666848260208601610601565b91505092915050565b5f5f5f606084860312156106865761068561037c565b5b5f610693868287016103a3565b935050602084013567ffffffffffffffff8111156106b4576106b3610380565b5b6106c086828701610642565b92505060406106d1868287016103a3565b9150509250925092565b7f4e487b71000000000000000000000000000000000000000000000000000000005f52603260045260245ffd5b61071181610384565b82525050565b5f60208201905061072a5f830184610708565b92915050565b5f61074261073d846105c3565b6105a9565b90508281526020810184848401111561075e5761075d610547565b5b61076984828561040f565b509392505050565b5f82601f83011261078557610784610543565b5b8151610795848260208601610730565b91505092915050565b5f602082840312156107b3576107b261037c565b5b5f82015167ffffffffffffffff8111156107d0576107cf610380565b5b6107dc84828501610771565b91505092915050565b5f6040820190508181035f8301526107fd818561042d565b905061080c6020830184610708565b939250505056fe608060405260015f5f6101000a81548160ff0219169083151502179055505f5f60016101000a81548160ff02191690831515021790555060ff5f60026101000a81548160ff021916908360ff160217905550643b804c50e360015565702bc785b5556002557fffffffffffffffffffffffffffffffffffffffffffffffffffffffffffffff8060035f6101000a81548160ff02191690835f0b60ff1602179055507fffffffffffffffffffffffffffffffffffffffffffffffffffff8ac6b78ff1c86004557ffffffffffffffffffffffffffffffffffffffffffffffffffffff4c86c0c3aab6005557f48656c6c6f20576f00000000000000000000000000000000000000000000000060065f6101000a81548167ffffffffffffffff021916908360c01c02179055507f48656c6c6f20576f726c642021000000000000000000000000000000000000006007556040518060400160405280600d81526020017f48656c6c6f20576f726c64202100000000000000000000000000000000000000815250600890816101919190610434565b50735b38da6a701c568545dcfcb03fcb875f56beddc460095f6101000a81548173ffffffffffffffffffffffffffffffffffffffff021916908373ffffffffffffffffffffffffffffffffffffffff1602179055503480156101f1575f5ffd5b50610503565b5f81519050919050565b7f4e487b71000000000000000000000000000000000000000000000000000000005f52604160045260245ffd5b7f4e487b71000000000000000000000000000000000000000000000000000000005f52602260045260245ffd5b5f600282049050600182168061027257607f821691505b6020821081036102855761028461022e565b5b50919050565b5f819050815f5260205f209050919050565b5f6020601f8301049050919050565b5f82821b905092915050565b5f600883026102e77fffffffffffffffffffffffffffffffffffffffffffffffffffffffffffffffff826102ac565b6102f186836102ac565b95508019841693508086168417925050509392505050565b5f819050919050565b5f819050919050565b5f61033561033061032b84610309565b610312565b610309565b9050919050565b5f819050919050565b61034e8361031b565b61036261035a8261033c565b8484546102b8565b825550505050565b5f5f905090565b61037961036a565b610384818484610345565b505050565b5b818110156103a75761039c5f82610371565b60018101905061038a565b5050565b601f8211156103ec576103bd8161028b565b6103c68461029d565b810160208510156103d5578190505b6103e96103e18561029d565b830182610389565b50505b505050565b5f82821c905092915050565b5f61040c5f19846008026103f1565b1980831691505092915050565b5f61042483836103fd565b9150826002028217905092915050565b61043d826101f7565b67ffffffffffffffff81111561045657610455610201565b5b610460825461025b565b61046b8282856103ab565b5f60209050601f83116001811461049c575f841561048a578287015190505b6104948582610419565b8655506104fb565b601f1984166104aa8661028b565b5f5b828110156104d1578489015182556001820191506020850194506020810190506104ac565b868310156104ee57848901516104ea601f8916826103fd565b8355505b6001600288020188555050505b505050505050565b610915806105105f395ff3fe608060405234801561000f575f5ffd5b5060043610610034575f3560e01c806342257b3114610038578063dc19af1b14610068575b5f5ffd5b610052600480360381019061004d919061034d565b610084565b60405161005f91906103e8565b60405180910390f35b610082600480360381019061007d9190610534565b61022e565b005b60605f73ffffffffffffffffffffffffffffffffffffffff16600b5f8481526020019081526020015f206002015f9054906101000a900473ffffffffffffffffffffffffffffffffffffffff1673ffffffffffffffffffffffffffffffffffffffff16036101845761017d600880546100fc906105bb565b80601f0160208091040260200160405190810160405280929190818152602001828054610128906105bb565b80156101735780601f1061014a57610100808354040283529160200191610173565b820191905f5260205f20905b81548152906001019060200180831161015657829003601f168201915b50505050506102e0565b9050610229565b610226600b5f8481526020019081526020015f205f0180546101a5906105bb565b80601f01602080910402602001604051908101604052809291908181526020018280546101d1906105bb565b801561021c5780601f106101f35761010080835404028352916020019161021c565b820191905f5260205f20905b8154815290600101906020018083116101ff57829003601f168201915b50505050506102e0565b90505b919050565b5f60405180606001604052808481526020018381526020013373ffffffffffffffffffffffffffffffffffffffff16815250905080600b5f8481526020019081526020015f205f820151815f019081610287919061078b565b50602082015181600101556040820151816002015f6101000a81548173ffffffffffffffffffffffffffffffffffffffff021916908373ffffffffffffffffffffffffffffffffffffffff160217905550905050505050565b6060816040516020016102f391906108ba565b6040516020818303038152906040529050919050565b5f604051905090565b5f5ffd5b5f5ffd5b5f819050919050565b61032c8161031a565b8114610336575f5ffd5b50565b5f8135905061034781610323565b92915050565b5f6020828403121561036257610361610312565b5b5f61036f84828501610339565b91505092915050565b5f81519050919050565b5f82825260208201905092915050565b8281835e5f83830152505050565b5f601f19601f8301169050919050565b5f6103ba82610378565b6103c48185610382565b93506103d4818560208601610392565b6103dd816103a0565b840191505092915050565b5f6020820190508181035f83015261040081846103b0565b905092915050565b5f5ffd5b5f5ffd5b7f4e487b71000000000000000000000000000000000000000000000000000000005f52604160045260245ffd5b610446826103a0565b810181811067ffffffffffffffff8211171561046557610464610410565b5b80604052505050565b5f610477610309565b9050610483828261043d565b919050565b5f67ffffffffffffffff8211156104a2576104a1610410565b5b6104ab826103a0565b9050602081019050919050565b828183375f83830152505050565b5f6104d86104d384610488565b61046e565b9050828152602081018484840111156104f4576104f361040c565b5b6104ff8482856104b8565b509392505050565b5f82601f83011261051b5761051a610408565b5b813561052b8482602086016104c6565b91505092915050565b5f5f6040838503121561054a57610549610312565b5b5f83013567ffffffffffffffff81111561056757610566610316565b5b61057385828601610507565b925050602061058485828601610339565b9150509250929050565b7f4e487b71000000000000000000000000000000000000000000000000000000005f52602260045260245ffd5b5f60028204905060018216806105d257607f821691505b6020821081036105e5576105e461058e565b5b50919050565b5f819050815f5260205f209050919050565b5f6020601f8301049050919050565b5f82821b905092915050565b5f600883026106477fffffffffffffffffffffffffffffffffffffffffffffffffffffffffffffffff8261060c565b610651868361060c565b95508019841693508086168417925050509392505050565b5f819050919050565b5f61068c6106876106828461031a565b610669565b61031a565b9050919050565b5f819050919050565b6106a583610672565b6106b96106b182610693565b848454610618565b825550505050565b5f5f905090565b6106d06106c1565b6106db81848461069c565b505050565b5b818110156106fe576106f35f826106c8565b6001810190506106e1565b5050565b601f82111561074357610714816105eb565b61071d846105fd565b8101602085101561072c578190505b610740610738856105fd565b8301826106e0565b50505b505050565b5f82821c905092915050565b5f6107635f1984600802610748565b1980831691505092915050565b5f61077b8383610754565b9150826002028217905092915050565b61079482610378565b67ffffffffffffffff8111156107ad576107ac610410565b5b6107b782546105bb565b6107c2828285610702565b5f60209050601f8311600181146107f3575f84156107e1578287015190505b6107eb8582610770565b865550610852565b601f198416610801866105eb565b5f5b8281101561082857848901518255600182019150602085019450602081019050610803565b868310156108455784890151610841601f891682610754565b8355505b6001600288020188555050505b505050505050565b5f81905092915050565b5f61086e82610378565b610878818561085a565b9350610888818560208601610392565b80840191505092915050565b7f2066726f6d20787878277320636f6e74726163742e0000000000000000000000815250565b5f6108c58284610864565b91506108d082610894565b6015820191508190509291505056fea2646970667358221220d06e85a8b7fc86d5c0fdb33bc823358c1fd1874abeb75899fc4af478c527a89664736f6c634300081c0033a26469706673582212203eb8fe65fb743bb2d7f3ebc495c2b21b4f56a6f669f0149c45ea0fd6df0b1ae764736f6c634300081c0033",
			"opcodes": "PUSH1 0x80 PUSH1 0x40 MSTORE CALLVALUE DUP1 ISZERO PUSH1 0xE JUMPI PUSH0 PUSH0 REVERT JUMPDEST POP PUSH2 0x166E DUP1 PUSH2 0x1C PUSH0 CODECOPY PUSH0 RETURN INVALID PUSH1 0x80 PUSH1 0x40 MSTORE CALLVALUE DUP1 ISZERO PUSH2 0xF JUMPI PUSH0 PUSH0 REVERT JUMPDEST POP PUSH1 0x4 CALLDATASIZE LT PUSH2 0x4A JUMPI PUSH0 CALLDATALOAD PUSH1 0xE0 SHR DUP1 PUSH4 0x53BF97DD EQ PUSH2 0x4E JUMPI DUP1 PUSH4 0x5E0A94CB EQ PUSH2 0x7E JUMPI DUP1 PUSH4 0x867263FB EQ PUSH2 0x88 JUMPI DUP1 PUSH4 0xA222FF32 EQ PUSH2 0xB8 JUMPI JUMPDEST PUSH0 PUSH0 REVERT JUMPDEST PUSH2 0x68 PUSH1 0x4 DUP1 CALLDATASIZE SUB DUP2 ADD SWAP1 PUSH2 0x63 SWAP2 SWAP1 PUSH2 0x3B7 JUMP JUMPDEST PUSH2 0xD4 JUMP JUMPDEST PUSH1 0x40 MLOAD PUSH2 0x75 SWAP2 SWAP1 PUSH2 0x465 JUMP JUMPDEST PUSH1 0x40 MLOAD DUP1 SWAP2 SUB SWAP1 RETURN JUMPDEST PUSH2 0x86 PUSH2 0x194 JUMP JUMPDEST STOP JUMPDEST PUSH2 0xA2 PUSH1 0x4 DUP1 CALLDATASIZE SUB DUP2 ADD SWAP1 PUSH2 0x9D SWAP2 SWAP1 PUSH2 0x485 JUMP JUMPDEST PUSH2 0x27A JUMP JUMPDEST PUSH1 0x40 MLOAD PUSH2 0xAF SWAP2 SWAP1 PUSH2 0x52A JUMP JUMPDEST PUSH1 0x40 MLOAD DUP1 SWAP2 SUB SWAP1 RETURN JUMPDEST PUSH2 0xD2 PUSH1 0x4 DUP1 CALLDATASIZE SUB DUP2 ADD SWAP1 PUSH2 0xCD SWAP2 SWAP1 PUSH2 0x66F JUMP JUMPDEST PUSH2 0x2BE JUMP JUMPDEST STOP JUMPDEST PUSH1 0x60 PUSH1 0x1 DUP4 DUP2 SLOAD DUP2 LT PUSH2 0xEA JUMPI PUSH2 0xE9 PUSH2 0x6DB JUMP JUMPDEST JUMPDEST SWAP1 PUSH0 MSTORE PUSH1 0x20 PUSH0 KECCAK256 ADD PUSH0 SWAP1 SLOAD SWAP1 PUSH2 0x100 EXP SWAP1 DIV PUSH20 0xFFFFFFFFFFFFFFFFFFFFFFFFFFFFFFFFFFFFFFFF AND PUSH20 0xFFFFFFFFFFFFFFFFFFFFFFFFFFFFFFFFFFFFFFFF AND PUSH4 0x42257B31 DUP4 PUSH1 0x40 MLOAD DUP3 PUSH4 0xFFFFFFFF AND PUSH1 0xE0 SHL DUP2 MSTORE PUSH1 0x4 ADD PUSH2 0x14A SWAP2 SWAP1 PUSH2 0x717 JUMP JUMPDEST PUSH0 PUSH1 0x40 MLOAD DUP1 DUP4 SUB DUP2 DUP7 GAS STATICCALL ISZERO DUP1 ISZERO PUSH2 0x164 JUMPI RETURNDATASIZE PUSH0 PUSH0 RETURNDATACOPY RETURNDATASIZE PUSH0 REVERT JUMPDEST POP POP POP POP PUSH1 0x40 MLOAD RETURNDATASIZE PUSH0 DUP3 RETURNDATACOPY RETURNDATASIZE PUSH1 0x1F NOT PUSH1 0x1F DUP3 ADD AND DUP3 ADD DUP1 PUSH1 0x40 MSTORE POP DUP2 ADD SWAP1 PUSH2 0x18C SWAP2 SWAP1 PUSH2 0x79E JUMP JUMPDEST SWAP1 POP SWAP3 SWAP2 POP POP JUMP JUMPDEST PUSH1 0x40 MLOAD PUSH2 0x1A0 SWAP1 PUSH2 0x366 JUMP JUMPDEST PUSH1 0x40 MLOAD DUP1 SWAP2 SUB SWAP1 PUSH0 CREATE DUP1 ISZERO DUP1 ISZERO PUSH2 0x1B9 JUMPI RETURNDATASIZE PUSH0 PUSH0 RETURNDATACOPY RETURNDATASIZE PUSH0 REVERT JUMPDEST POP PUSH0 PUSH0 PUSH2 0x100 EXP DUP2 SLOAD DUP2 PUSH20 0xFFFFFFFFFFFFFFFFFFFFFFFFFFFFFFFFFFFFFFFF MUL NOT AND SWAP1 DUP4 PUSH20 0xFFFFFFFFFFFFFFFFFFFFFFFFFFFFFFFFFFFFFFFF AND MUL OR SWAP1 SSTORE POP PUSH1 0x1 PUSH0 PUSH0 SWAP1 SLOAD SWAP1 PUSH2 0x100 EXP SWAP1 DIV PUSH20 0xFFFFFFFFFFFFFFFFFFFFFFFFFFFFFFFFFFFFFFFF AND SWAP1 DUP1 PUSH1 0x1 DUP2 SLOAD ADD DUP1 DUP3 SSTORE DUP1 SWAP2 POP POP PUSH1 0x1 SWAP1 SUB SWAP1 PUSH0 MSTORE PUSH1 0x20 PUSH0 KECCAK256 ADD PUSH0 SWAP1 SWAP2 SWAP1 SWAP2 SWAP1 SWAP2 PUSH2 0x100 EXP DUP2 SLOAD DUP2 PUSH20 0xFFFFFFFFFFFFFFFFFFFFFFFFFFFFFFFFFFFFFFFF MUL NOT AND SWAP1 DUP4 PUSH20 0xFFFFFFFFFFFFFFFFFFFFFFFFFFFFFFFFFFFFFFFF AND MUL OR SWAP1 SSTORE POP JUMP JUMPDEST PUSH0 PUSH1 0x1 DUP3 DUP2 SLOAD DUP2 LT PUSH2 0x28F JUMPI PUSH2 0x28E PUSH2 0x6DB JUMP JUMPDEST JUMPDEST SWAP1 PUSH0 MSTORE PUSH1 0x20 PUSH0 KECCAK256 ADD PUSH0 SWAP1 SLOAD SWAP1 PUSH2 0x100 EXP SWAP1 DIV PUSH20 0xFFFFFFFFFFFFFFFFFFFFFFFFFFFFFFFFFFFFFFFF AND SWAP1 POP SWAP2 SWAP1 POP JUMP JUMPDEST PUSH1 0x1 DUP4 DUP2 SLOAD DUP2 LT PUSH2 0x2D2 JUMPI PUSH2 0x2D1 PUSH2 0x6DB JUMP JUMPDEST JUMPDEST SWAP1 PUSH0 MSTORE PUSH1 0x20 PUSH0 KECCAK256 ADD PUSH0 SWAP1 SLOAD SWAP1 PUSH2 0x100 EXP SWAP1 DIV PUSH20 0xFFFFFFFFFFFFFFFFFFFFFFFFFFFFFFFFFFFFFFFF AND PUSH20 0xFFFFFFFFFFFFFFFFFFFFFFFFFFFFFFFFFFFFFFFF AND PUSH4 0xDC19AF1B DUP4 DUP4 PUSH1 0x40 MLOAD DUP4 PUSH4 0xFFFFFFFF AND PUSH1 0xE0 SHL DUP2 MSTORE PUSH1 0x4 ADD PUSH2 0x334 SWAP3 SWAP2 SWAP1 PUSH2 0x7E5 JUMP JUMPDEST PUSH0 PUSH1 0x40 MLOAD DUP1 DUP4 SUB DUP2 PUSH0 DUP8 DUP1 EXTCODESIZE ISZERO DUP1 ISZERO PUSH2 0x34B JUMPI PUSH0 PUSH0 REVERT JUMPDEST POP GAS CALL ISZERO DUP1 ISZERO PUSH2 0x35D JUMPI RETURNDATASIZE PUSH0 PUSH0 RETURNDATACOPY RETURNDATASIZE PUSH0 REVERT JUMPDEST POP POP POP POP POP POP POP JUMP JUMPDEST PUSH2 0xE25 DUP1 PUSH2 0x814 DUP4 CODECOPY ADD SWAP1 JUMP JUMPDEST PUSH0 PUSH1 0x40 MLOAD SWAP1 POP SWAP1 JUMP JUMPDEST PUSH0 PUSH0 REVERT JUMPDEST PUSH0 PUSH0 REVERT JUMPDEST PUSH0 DUP2 SWAP1 POP SWAP2 SWAP1 POP JUMP JUMPDEST PUSH2 0x396 DUP2 PUSH2 0x384 JUMP JUMPDEST DUP2 EQ PUSH2 0x3A0 JUMPI PUSH0 PUSH0 REVERT JUMPDEST POP JUMP JUMPDEST PUSH0 DUP2 CALLDATALOAD SWAP1 POP PUSH2 0x3B1 DUP2 PUSH2 0x38D JUMP JUMPDEST SWAP3 SWAP2 POP POP JUMP JUMPDEST PUSH0 PUSH0 PUSH1 0x40 DUP4 DUP6 SUB SLT ISZERO PUSH2 0x3CD JUMPI PUSH2 0x3CC PUSH2 0x37C JUMP JUMPDEST JUMPDEST PUSH0 PUSH2 0x3DA DUP6 DUP3 DUP7 ADD PUSH2 0x3A3 JUMP JUMPDEST SWAP3 POP POP PUSH1 0x20 PUSH2 0x3EB DUP6 DUP3 DUP7 ADD PUSH2 0x3A3 JUMP JUMPDEST SWAP2 POP POP SWAP3 POP SWAP3 SWAP1 POP JUMP JUMPDEST PUSH0 DUP2 MLOAD SWAP1 POP SWAP2 SWAP1 POP JUMP JUMPDEST PUSH0 DUP3 DUP3 MSTORE PUSH1 0x20 DUP3 ADD SWAP1 POP SWAP3 SWAP2 POP POP JUMP JUMPDEST DUP3 DUP2 DUP4 MCOPY PUSH0 DUP4 DUP4 ADD MSTORE POP POP POP JUMP JUMPDEST PUSH0 PUSH1 0x1F NOT PUSH1 0x1F DUP4 ADD AND SWAP1 POP SWAP2 SWAP1 POP JUMP JUMPDEST PUSH0 PUSH2 0x437 DUP3 PUSH2 0x3F5 JUMP JUMPDEST PUSH2 0x441 DUP2 DUP6 PUSH2 0x3FF JUMP JUMPDEST SWAP4 POP PUSH2 0x451 DUP2 DUP6 PUSH1 0x20 DUP7 ADD PUSH2 0x40F JUMP JUMPDEST PUSH2 0x45A DUP2 PUSH2 0x41D JUMP JUMPDEST DUP5 ADD SWAP2 POP POP SWAP3 SWAP2 POP POP JUMP JUMPDEST PUSH0 PUSH1 0x20 DUP3 ADD SWAP1 POP DUP2 DUP2 SUB PUSH0 DUP4 ADD MSTORE PUSH2 0x47D DUP2 DUP5 PUSH2 0x42D JUMP JUMPDEST SWAP1 POP SWAP3 SWAP2 POP POP JUMP JUMPDEST PUSH0 PUSH1 0x20 DUP3 DUP5 SUB SLT ISZERO PUSH2 0x49A JUMPI PUSH2 0x499 PUSH2 0x37C JUMP JUMPDEST JUMPDEST PUSH0 PUSH2 0x4A7 DUP5 DUP3 DUP6 ADD PUSH2 0x3A3 JUMP JUMPDEST SWAP2 POP POP SWAP3 SWAP2 POP POP JUMP JUMPDEST PUSH0 PUSH20 0xFFFFFFFFFFFFFFFFFFFFFFFFFFFFFFFFFFFFFFFF DUP3 AND SWAP1 POP SWAP2 SWAP1 POP JUMP JUMPDEST PUSH0 DUP2 SWAP1 POP SWAP2 SWAP1 POP JUMP JUMPDEST PUSH0 PUSH2 0x4F2 PUSH2 0x4ED PUSH2 0x4E8 DUP5 PUSH2 0x4B0 JUMP JUMPDEST PUSH2 0x4CF JUMP JUMPDEST PUSH2 0x4B0 JUMP JUMPDEST SWAP1 POP SWAP2 SWAP1 POP JUMP JUMPDEST PUSH0 PUSH2 0x503 DUP3 PUSH2 0x4D8 JUMP JUMPDEST SWAP1 POP SWAP2 SWAP1 POP JUMP JUMPDEST PUSH0 PUSH2 0x514 DUP3 PUSH2 0x4F9 JUMP JUMPDEST SWAP1 POP SWAP2 SWAP1 POP JUMP JUMPDEST PUSH2 0x524 DUP2 PUSH2 0x50A JUMP JUMPDEST DUP3 MSTORE POP POP JUMP JUMPDEST PUSH0 PUSH1 0x20 DUP3 ADD SWAP1 POP PUSH2 0x53D PUSH0 DUP4 ADD DUP5 PUSH2 0x51B JUMP JUMPDEST SWAP3 SWAP2 POP POP JUMP JUMPDEST PUSH0 PUSH0 REVERT JUMPDEST PUSH0 PUSH0 REVERT JUMPDEST PUSH32 0x4E487B7100000000000000000000000000000000000000000000000000000000 PUSH0 MSTORE PUSH1 0x41 PUSH1 0x4 MSTORE PUSH1 0x24 PUSH0 REVERT JUMPDEST PUSH2 0x581 DUP3 PUSH2 0x41D JUMP JUMPDEST DUP2 ADD DUP2 DUP2 LT PUSH8 0xFFFFFFFFFFFFFFFF DUP3 GT OR ISZERO PUSH2 0x5A0 JUMPI PUSH2 0x59F PUSH2 0x54B JUMP JUMPDEST JUMPDEST DUP1 PUSH1 0x40 MSTORE POP POP POP JUMP JUMPDEST PUSH0 PUSH2 0x5B2 PUSH2 0x373 JUMP JUMPDEST SWAP1 POP PUSH2 0x5BE DUP3 DUP3 PUSH2 0x578 JUMP JUMPDEST SWAP2 SWAP1 POP JUMP JUMPDEST PUSH0 PUSH8 0xFFFFFFFFFFFFFFFF DUP3 GT ISZERO PUSH2 0x5DD JUMPI PUSH2 0x5DC PUSH2 0x54B JUMP JUMPDEST JUMPDEST PUSH2 0x5E6 DUP3 PUSH2 0x41D JUMP JUMPDEST SWAP1 POP PUSH1 0x20 DUP2 ADD SWAP1 POP SWAP2 SWAP1 POP JUMP JUMPDEST DUP3 DUP2 DUP4 CALLDATACOPY PUSH0 DUP4 DUP4 ADD MSTORE POP POP POP JUMP JUMPDEST PUSH0 PUSH2 0x613 PUSH2 0x60E DUP5 PUSH2 0x5C3 JUMP JUMPDEST PUSH2 0x5A9 JUMP JUMPDEST SWAP1 POP DUP3 DUP2 MSTORE PUSH1 0x20 DUP2 ADD DUP5 DUP5 DUP5 ADD GT ISZERO PUSH2 0x62F JUMPI PUSH2 0x62E PUSH2 0x547 JUMP JUMPDEST JUMPDEST PUSH2 0x63A DUP5 DUP3 DUP6 PUSH2 0x5F3 JUMP JUMPDEST POP SWAP4 SWAP3 POP POP POP JUMP JUMPDEST PUSH0 DUP3 PUSH1 0x1F DUP4 ADD SLT PUSH2 0x656 JUMPI PUSH2 0x655 PUSH2 0x543 JUMP JUMPDEST JUMPDEST DUP2 CALLDATALOAD PUSH2 0x666 DUP5 DUP3 PUSH1 0x20 DUP7 ADD PUSH2 0x601 JUMP JUMPDEST SWAP2 POP POP SWAP3 SWAP2 POP POP JUMP JUMPDEST PUSH0 PUSH0 PUSH0 PUSH1 0x60 DUP5 DUP7 SUB SLT ISZERO PUSH2 0x686 JUMPI PUSH2 0x685 PUSH2 0x37C JUMP JUMPDEST JUMPDEST PUSH0 PUSH2 0x693 DUP7 DUP3 DUP8 ADD PUSH2 0x3A3 JUMP JUMPDEST SWAP4 POP POP PUSH1 0x20 DUP5 ADD CALLDATALOAD PUSH8 0xFFFFFFFFFFFFFFFF DUP2 GT ISZERO PUSH2 0x6B4 JUMPI PUSH2 0x6B3 PUSH2 0x380 JUMP JUMPDEST JUMPDEST PUSH2 0x6C0 DUP7 DUP3 DUP8 ADD PUSH2 0x642 JUMP JUMPDEST SWAP3 POP POP PUSH1 0x40 PUSH2 0x6D1 DUP7 DUP3 DUP8 ADD PUSH2 0x3A3 JUMP JUMPDEST SWAP2 POP POP SWAP3 POP SWAP3 POP SWAP3 JUMP JUMPDEST PUSH32 0x4E487B7100000000000000000000000000000000000000000000000000000000 PUSH0 MSTORE PUSH1 0x32 PUSH1 0x4 MSTORE PUSH1 0x24 PUSH0 REVERT JUMPDEST PUSH2 0x711 DUP2 PUSH2 0x384 JUMP JUMPDEST DUP3 MSTORE POP POP JUMP JUMPDEST PUSH0 PUSH1 0x20 DUP3 ADD SWAP1 POP PUSH2 0x72A PUSH0 DUP4 ADD DUP5 PUSH2 0x708 JUMP JUMPDEST SWAP3 SWAP2 POP POP JUMP JUMPDEST PUSH0 PUSH2 0x742 PUSH2 0x73D DUP5 PUSH2 0x5C3 JUMP JUMPDEST PUSH2 0x5A9 JUMP JUMPDEST SWAP1 POP DUP3 DUP2 MSTORE PUSH1 0x20 DUP2 ADD DUP5 DUP5 DUP5 ADD GT ISZERO PUSH2 0x75E JUMPI PUSH2 0x75D PUSH2 0x547 JUMP JUMPDEST JUMPDEST PUSH2 0x769 DUP5 DUP3 DUP6 PUSH2 0x40F JUMP JUMPDEST POP SWAP4 SWAP3 POP POP POP JUMP JUMPDEST PUSH0 DUP3 PUSH1 0x1F DUP4 ADD SLT PUSH2 0x785 JUMPI PUSH2 0x784 PUSH2 0x543 JUMP JUMPDEST JUMPDEST DUP2 MLOAD PUSH2 0x795 DUP5 DUP3 PUSH1 0x20 DUP7 ADD PUSH2 0x730 JUMP JUMPDEST SWAP2 POP POP SWAP3 SWAP2 POP POP JUMP JUMPDEST PUSH0 PUSH1 0x20 DUP3 DUP5 SUB SLT ISZERO PUSH2 0x7B3 JUMPI PUSH2 0x7B2 PUSH2 0x37C JUMP JUMPDEST JUMPDEST PUSH0 DUP3 ADD MLOAD PUSH8 0xFFFFFFFFFFFFFFFF DUP2 GT ISZERO PUSH2 0x7D0 JUMPI PUSH2 0x7CF PUSH2 0x380 JUMP JUMPDEST JUMPDEST PUSH2 0x7DC DUP5 DUP3 DUP6 ADD PUSH2 0x771 JUMP JUMPDEST SWAP2 POP POP SWAP3 SWAP2 POP POP JUMP JUMPDEST PUSH0 PUSH1 0x40 DUP3 ADD SWAP1 POP DUP2 DUP2 SUB PUSH0 DUP4 ADD MSTORE PUSH2 0x7FD DUP2 DUP6 PUSH2 0x42D JUMP JUMPDEST SWAP1 POP PUSH2 0x80C PUSH1 0x20 DUP4 ADD DUP5 PUSH2 0x708 JUMP JUMPDEST SWAP4 SWAP3 POP POP POP JUMP INVALID PUSH1 0x80 PUSH1 0x40 MSTORE PUSH1 0x1 PUSH0 PUSH0 PUSH2 0x100 EXP DUP2 SLOAD DUP2 PUSH1 0xFF MUL NOT AND SWAP1 DUP4 ISZERO ISZERO MUL OR SWAP1 SSTORE POP PUSH0 PUSH0 PUSH1 0x1 PUSH2 0x100 EXP DUP2 SLOAD DUP2 PUSH1 0xFF MUL NOT AND SWAP1 DUP4 ISZERO ISZERO MUL OR SWAP1 SSTORE POP PUSH1 0xFF PUSH0 PUSH1 0x2 PUSH2 0x100 EXP DUP2 SLOAD DUP2 PUSH1 0xFF MUL NOT AND SWAP1 DUP4 PUSH1 0xFF AND MUL OR SWAP1 SSTORE POP PUSH5 0x3B804C50E3 PUSH1 0x1 SSTORE PUSH6 0x702BC785B555 PUSH1 0x2 SSTORE PUSH32 0xFFFFFFFFFFFFFFFFFFFFFFFFFFFFFFFFFFFFFFFFFFFFFFFFFFFFFFFFFFFFFF80 PUSH1 0x3 PUSH0 PUSH2 0x100 EXP DUP2 SLOAD DUP2 PUSH1 0xFF MUL NOT AND SWAP1 DUP4 PUSH0 SIGNEXTEND PUSH1 0xFF AND MUL OR SWAP1 SSTORE POP PUSH32 0xFFFFFFFFFFFFFFFFFFFFFFFFFFFFFFFFFFFFFFFFFFFFFFFFFFFF8AC6B78FF1C8 PUSH1 0x4 SSTORE PUSH32 0xFFFFFFFFFFFFFFFFFFFFFFFFFFFFFFFFFFFFFFFFFFFFFFFFFFFFF4C86C0C3AAB PUSH1 0x5 SSTORE PUSH32 0x48656C6C6F20576F000000000000000000000000000000000000000000000000 PUSH1 0x6 PUSH0 PUSH2 0x100 EXP DUP2 SLOAD DUP2 PUSH8 0xFFFFFFFFFFFFFFFF MUL NOT AND SWAP1 DUP4 PUSH1 0xC0 SHR MUL OR SWAP1 SSTORE POP PUSH32 0x48656C6C6F20576F726C64202100000000000000000000000000000000000000 PUSH1 0x7 SSTORE PUSH1 0x40 MLOAD DUP1 PUSH1 0x40 ADD PUSH1 0x40 MSTORE DUP1 PUSH1 0xD DUP2 MSTORE PUSH1 0x20 ADD PUSH32 0x48656C6C6F20576F726C64202100000000000000000000000000000000000000 DUP2 MSTORE POP PUSH1 0x8 SWAP1 DUP2 PUSH2 0x191 SWAP2 SWAP1 PUSH2 0x434 JUMP JUMPDEST POP PUSH20 0x5B38DA6A701C568545DCFCB03FCB875F56BEDDC4 PUSH1 0x9 PUSH0 PUSH2 0x100 EXP DUP2 SLOAD DUP2 PUSH20 0xFFFFFFFFFFFFFFFFFFFFFFFFFFFFFFFFFFFFFFFF MUL NOT AND SWAP1 DUP4 PUSH20 0xFFFFFFFFFFFFFFFFFFFFFFFFFFFFFFFFFFFFFFFF AND MUL OR SWAP1 SSTORE POP CALLVALUE DUP1 ISZERO PUSH2 0x1F1 JUMPI PUSH0 PUSH0 REVERT JUMPDEST POP PUSH2 0x503 JUMP JUMPDEST PUSH0 DUP2 MLOAD SWAP1 POP SWAP2 SWAP1 POP JUMP JUMPDEST PUSH32 0x4E487B7100000000000000000000000000000000000000000000000000000000 PUSH0 MSTORE PUSH1 0x41 PUSH1 0x4 MSTORE PUSH1 0x24 PUSH0 REVERT JUMPDEST PUSH32 0x4E487B7100000000000000000000000000000000000000000000000000000000 PUSH0 MSTORE PUSH1 0x22 PUSH1 0x4 MSTORE PUSH1 0x24 PUSH0 REVERT JUMPDEST PUSH0 PUSH1 0x2 DUP3 DIV SWAP1 POP PUSH1 0x1 DUP3 AND DUP1 PUSH2 0x272 JUMPI PUSH1 0x7F DUP3 AND SWAP2 POP JUMPDEST PUSH1 0x20 DUP3 LT DUP2 SUB PUSH2 0x285 JUMPI PUSH2 0x284 PUSH2 0x22E JUMP JUMPDEST JUMPDEST POP SWAP2 SWAP1 POP JUMP JUMPDEST PUSH0 DUP2 SWAP1 POP DUP2 PUSH0 MSTORE PUSH1 0x20 PUSH0 KECCAK256 SWAP1 POP SWAP2 SWAP1 POP JUMP JUMPDEST PUSH0 PUSH1 0x20 PUSH1 0x1F DUP4 ADD DIV SWAP1 POP SWAP2 SWAP1 POP JUMP JUMPDEST PUSH0 DUP3 DUP3 SHL SWAP1 POP SWAP3 SWAP2 POP POP JUMP JUMPDEST PUSH0 PUSH1 0x8 DUP4 MUL PUSH2 0x2E7 PUSH32 0xFFFFFFFFFFFFFFFFFFFFFFFFFFFFFFFFFFFFFFFFFFFFFFFFFFFFFFFFFFFFFFFF DUP3 PUSH2 0x2AC JUMP JUMPDEST PUSH2 0x2F1 DUP7 DUP4 PUSH2 0x2AC JUMP JUMPDEST SWAP6 POP DUP1 NOT DUP5 AND SWAP4 POP DUP1 DUP7 AND DUP5 OR SWAP3 POP POP POP SWAP4 SWAP3 POP POP POP JUMP JUMPDEST PUSH0 DUP2 SWAP1 POP SWAP2 SWAP1 POP JUMP JUMPDEST PUSH0 DUP2 SWAP1 POP SWAP2 SWAP1 POP JUMP JUMPDEST PUSH0 PUSH2 0x335 PUSH2 0x330 PUSH2 0x32B DUP5 PUSH2 0x309 JUMP JUMPDEST PUSH2 0x312 JUMP JUMPDEST PUSH2 0x309 JUMP JUMPDEST SWAP1 POP SWAP2 SWAP1 POP JUMP JUMPDEST PUSH0 DUP2 SWAP1 POP SWAP2 SWAP1 POP JUMP JUMPDEST PUSH2 0x34E DUP4 PUSH2 0x31B JUMP JUMPDEST PUSH2 0x362 PUSH2 0x35A DUP3 PUSH2 0x33C JUMP JUMPDEST DUP5 DUP5 SLOAD PUSH2 0x2B8 JUMP JUMPDEST DUP3 SSTORE POP POP POP POP JUMP JUMPDEST PUSH0 PUSH0 SWAP1 POP SWAP1 JUMP JUMPDEST PUSH2 0x379 PUSH2 0x36A JUMP JUMPDEST PUSH2 0x384 DUP2 DUP5 DUP5 PUSH2 0x345 JUMP JUMPDEST POP POP POP JUMP JUMPDEST JUMPDEST DUP2 DUP2 LT ISZERO PUSH2 0x3A7 JUMPI PUSH2 0x39C PUSH0 DUP3 PUSH2 0x371 JUMP JUMPDEST PUSH1 0x1 DUP2 ADD SWAP1 POP PUSH2 0x38A JUMP JUMPDEST POP POP JUMP JUMPDEST PUSH1 0x1F DUP3 GT ISZERO PUSH2 0x3EC JUMPI PUSH2 0x3BD DUP2 PUSH2 0x28B JUMP JUMPDEST PUSH2 0x3C6 DUP5 PUSH2 0x29D JUMP JUMPDEST DUP2 ADD PUSH1 0x20 DUP6 LT ISZERO PUSH2 0x3D5 JUMPI DUP2 SWAP1 POP JUMPDEST PUSH2 0x3E9 PUSH2 0x3E1 DUP6 PUSH2 0x29D JUMP JUMPDEST DUP4 ADD DUP3 PUSH2 0x389 JUMP JUMPDEST POP POP JUMPDEST POP POP POP JUMP JUMPDEST PUSH0 DUP3 DUP3 SHR SWAP1 POP SWAP3 SWAP2 POP POP JUMP JUMPDEST PUSH0 PUSH2 0x40C PUSH0 NOT DUP5 PUSH1 0x8 MUL PUSH2 0x3F1 JUMP JUMPDEST NOT DUP1 DUP4 AND SWAP2 POP POP SWAP3 SWAP2 POP POP JUMP JUMPDEST PUSH0 PUSH2 0x424 DUP4 DUP4 PUSH2 0x3FD JUMP JUMPDEST SWAP2 POP DUP3 PUSH1 0x2 MUL DUP3 OR SWAP1 POP SWAP3 SWAP2 POP POP JUMP JUMPDEST PUSH2 0x43D DUP3 PUSH2 0x1F7 JUMP JUMPDEST PUSH8 0xFFFFFFFFFFFFFFFF DUP2 GT ISZERO PUSH2 0x456 JUMPI PUSH2 0x455 PUSH2 0x201 JUMP JUMPDEST JUMPDEST PUSH2 0x460 DUP3 SLOAD PUSH2 0x25B JUMP JUMPDEST PUSH2 0x46B DUP3 DUP3 DUP6 PUSH2 0x3AB JUMP JUMPDEST PUSH0 PUSH1 0x20 SWAP1 POP PUSH1 0x1F DUP4 GT PUSH1 0x1 DUP2 EQ PUSH2 0x49C JUMPI PUSH0 DUP5 ISZERO PUSH2 0x48A JUMPI DUP3 DUP8 ADD MLOAD SWAP1 POP JUMPDEST PUSH2 0x494 DUP6 DUP3 PUSH2 0x419 JUMP JUMPDEST DUP7 SSTORE POP PUSH2 0x4FB JUMP JUMPDEST PUSH1 0x1F NOT DUP5 AND PUSH2 0x4AA DUP7 PUSH2 0x28B JUMP JUMPDEST PUSH0 JUMPDEST DUP3 DUP2 LT ISZERO PUSH2 0x4D1 JUMPI DUP5 DUP10 ADD MLOAD DUP3 SSTORE PUSH1 0x1 DUP3 ADD SWAP2 POP PUSH1 0x20 DUP6 ADD SWAP5 POP PUSH1 0x20 DUP2 ADD SWAP1 POP PUSH2 0x4AC JUMP JUMPDEST DUP7 DUP4 LT ISZERO PUSH2 0x4EE JUMPI DUP5 DUP10 ADD MLOAD PUSH2 0x4EA PUSH1 0x1F DUP10 AND DUP3 PUSH2 0x3FD JUMP JUMPDEST DUP4 SSTORE POP JUMPDEST PUSH1 0x1 PUSH1 0x2 DUP9 MUL ADD DUP9 SSTORE POP POP POP JUMPDEST POP POP POP POP POP POP JUMP JUMPDEST PUSH2 0x915 DUP1 PUSH2 0x510 PUSH0 CODECOPY PUSH0 RETURN INVALID PUSH1 0x80 PUSH1 0x40 MSTORE CALLVALUE DUP1 ISZERO PUSH2 0xF JUMPI PUSH0 PUSH0 REVERT JUMPDEST POP PUSH1 0x4 CALLDATASIZE LT PUSH2 0x34 JUMPI PUSH0 CALLDATALOAD PUSH1 0xE0 SHR DUP1 PUSH4 0x42257B31 EQ PUSH2 0x38 JUMPI DUP1 PUSH4 0xDC19AF1B EQ PUSH2 0x68 JUMPI JUMPDEST PUSH0 PUSH0 REVERT JUMPDEST PUSH2 0x52 PUSH1 0x4 DUP1 CALLDATASIZE SUB DUP2 ADD SWAP1 PUSH2 0x4D SWAP2 SWAP1 PUSH2 0x34D JUMP JUMPDEST PUSH2 0x84 JUMP JUMPDEST PUSH1 0x40 MLOAD PUSH2 0x5F SWAP2 SWAP1 PUSH2 0x3E8 JUMP JUMPDEST PUSH1 0x40 MLOAD DUP1 SWAP2 SUB SWAP1 RETURN JUMPDEST PUSH2 0x82 PUSH1 0x4 DUP1 CALLDATASIZE SUB DUP2 ADD SWAP1 PUSH2 0x7D SWAP2 SWAP1 PUSH2 0x534 JUMP JUMPDEST PUSH2 0x22E JUMP JUMPDEST STOP JUMPDEST PUSH1 0x60 PUSH0 PUSH20 0xFFFFFFFFFFFFFFFFFFFFFFFFFFFFFFFFFFFFFFFF AND PUSH1 0xB PUSH0 DUP5 DUP2 MSTORE PUSH1 0x20 ADD SWAP1 DUP2 MSTORE PUSH1 0x20 ADD PUSH0 KECCAK256 PUSH1 0x2 ADD PUSH0 SWAP1 SLOAD SWAP1 PUSH2 0x100 EXP SWAP1 DIV PUSH20 0xFFFFFFFFFFFFFFFFFFFFFFFFFFFFFFFFFFFFFFFF AND PUSH20 0xFFFFFFFFFFFFFFFFFFFFFFFFFFFFFFFFFFFFFFFF AND SUB PUSH2 0x184 JUMPI PUSH2 0x17D PUSH1 0x8 DUP1 SLOAD PUSH2 0xFC SWAP1 PUSH2 0x5BB JUMP JUMPDEST DUP1 PUSH1 0x1F ADD PUSH1 0x20 DUP1 SWAP2 DIV MUL PUSH1 0x20 ADD PUSH1 0x40 MLOAD SWAP1 DUP2 ADD PUSH1 0x40 MSTORE DUP1 SWAP3 SWAP2 SWAP1 DUP2 DUP2 MSTORE PUSH1 0x20 ADD DUP3 DUP1 SLOAD PUSH2 0x128 SWAP1 PUSH2 0x5BB JUMP JUMPDEST DUP1 ISZERO PUSH2 0x173 JUMPI DUP1 PUSH1 0x1F LT PUSH2 0x14A JUMPI PUSH2 0x100 DUP1 DUP4 SLOAD DIV MUL DUP4 MSTORE SWAP2 PUSH1 0x20 ADD SWAP2 PUSH2 0x173 JUMP JUMPDEST DUP3 ADD SWAP2 SWAP1 PUSH0 MSTORE PUSH1 0x20 PUSH0 KECCAK256 SWAP1 JUMPDEST DUP2 SLOAD DUP2 MSTORE SWAP1 PUSH1 0x1 ADD SWAP1 PUSH1 0x20 ADD DUP1 DUP4 GT PUSH2 0x156 JUMPI DUP3 SWAP1 SUB PUSH1 0x1F AND DUP3 ADD SWAP2 JUMPDEST POP POP POP POP POP PUSH2 0x2E0 JUMP JUMPDEST SWAP1 POP PUSH2 0x229 JUMP JUMPDEST PUSH2 0x226 PUSH1 0xB PUSH0 DUP5 DUP2 MSTORE PUSH1 0x20 ADD SWAP1 DUP2 MSTORE PUSH1 0x20 ADD PUSH0 KECCAK256 PUSH0 ADD DUP1 SLOAD PUSH2 0x1A5 SWAP1 PUSH2 0x5BB JUMP JUMPDEST DUP1 PUSH1 0x1F ADD PUSH1 0x20 DUP1 SWAP2 DIV MUL PUSH1 0x20 ADD PUSH1 0x40 MLOAD SWAP1 DUP2 ADD PUSH1 0x40 MSTORE DUP1 SWAP3 SWAP2 SWAP1 DUP2 DUP2 MSTORE PUSH1 0x20 ADD DUP3 DUP1 SLOAD PUSH2 0x1D1 SWAP1 PUSH2 0x5BB JUMP JUMPDEST DUP1 ISZERO PUSH2 0x21C JUMPI DUP1 PUSH1 0x1F LT PUSH2 0x1F3 JUMPI PUSH2 0x100 DUP1 DUP4 SLOAD DIV MUL DUP4 MSTORE SWAP2 PUSH1 0x20 ADD SWAP2 PUSH2 0x21C JUMP JUMPDEST DUP3 ADD SWAP2 SWAP1 PUSH0 MSTORE PUSH1 0x20 PUSH0 KECCAK256 SWAP1 JUMPDEST DUP2 SLOAD DUP2 MSTORE SWAP1 PUSH1 0x1 ADD SWAP1 PUSH1 0x20 ADD DUP1 DUP4 GT PUSH2 0x1FF JUMPI DUP3 SWAP1 SUB PUSH1 0x1F AND DUP3 ADD SWAP2 JUMPDEST POP POP POP POP POP PUSH2 0x2E0 JUMP JUMPDEST SWAP1 POP JUMPDEST SWAP2 SWAP1 POP JUMP JUMPDEST PUSH0 PUSH1 0x40 MLOAD DUP1 PUSH1 0x60 ADD PUSH1 0x40 MSTORE DUP1 DUP5 DUP2 MSTORE PUSH1 0x20 ADD DUP4 DUP2 MSTORE PUSH1 0x20 ADD CALLER PUSH20 0xFFFFFFFFFFFFFFFFFFFFFFFFFFFFFFFFFFFFFFFF AND DUP2 MSTORE POP SWAP1 POP DUP1 PUSH1 0xB PUSH0 DUP5 DUP2 MSTORE PUSH1 0x20 ADD SWAP1 DUP2 MSTORE PUSH1 0x20 ADD PUSH0 KECCAK256 PUSH0 DUP3 ADD MLOAD DUP2 PUSH0 ADD SWAP1 DUP2 PUSH2 0x287 SWAP2 SWAP1 PUSH2 0x78B JUMP JUMPDEST POP PUSH1 0x20 DUP3 ADD MLOAD DUP2 PUSH1 0x1 ADD SSTORE PUSH1 0x40 DUP3 ADD MLOAD DUP2 PUSH1 0x2 ADD PUSH0 PUSH2 0x100 EXP DUP2 SLOAD DUP2 PUSH20 0xFFFFFFFFFFFFFFFFFFFFFFFFFFFFFFFFFFFFFFFF MUL NOT AND SWAP1 DUP4 PUSH20 0xFFFFFFFFFFFFFFFFFFFFFFFFFFFFFFFFFFFFFFFF AND MUL OR SWAP1 SSTORE POP SWAP1 POP POP POP POP POP JUMP JUMPDEST PUSH1 0x60 DUP2 PUSH1 0x40 MLOAD PUSH1 0x20 ADD PUSH2 0x2F3 SWAP2 SWAP1 PUSH2 0x8BA JUMP JUMPDEST PUSH1 0x40 MLOAD PUSH1 0x20 DUP2 DUP4 SUB SUB DUP2 MSTORE SWAP1 PUSH1 0x40 MSTORE SWAP1 POP SWAP2 SWAP1 POP JUMP JUMPDEST PUSH0 PUSH1 0x40 MLOAD SWAP1 POP SWAP1 JUMP JUMPDEST PUSH0 PUSH0 REVERT JUMPDEST PUSH0 PUSH0 REVERT JUMPDEST PUSH0 DUP2 SWAP1 POP SWAP2 SWAP1 POP JUMP JUMPDEST PUSH2 0x32C DUP2 PUSH2 0x31A JUMP JUMPDEST DUP2 EQ PUSH2 0x336 JUMPI PUSH0 PUSH0 REVERT JUMPDEST POP JUMP JUMPDEST PUSH0 DUP2 CALLDATALOAD SWAP1 POP PUSH2 0x347 DUP2 PUSH2 0x323 JUMP JUMPDEST SWAP3 SWAP2 POP POP JUMP JUMPDEST PUSH0 PUSH1 0x20 DUP3 DUP5 SUB SLT ISZERO PUSH2 0x362 JUMPI PUSH2 0x361 PUSH2 0x312 JUMP JUMPDEST JUMPDEST PUSH0 PUSH2 0x36F DUP5 DUP3 DUP6 ADD PUSH2 0x339 JUMP JUMPDEST SWAP2 POP POP SWAP3 SWAP2 POP POP JUMP JUMPDEST PUSH0 DUP2 MLOAD SWAP1 POP SWAP2 SWAP1 POP JUMP JUMPDEST PUSH0 DUP3 DUP3 MSTORE PUSH1 0x20 DUP3 ADD SWAP1 POP SWAP3 SWAP2 POP POP JUMP JUMPDEST DUP3 DUP2 DUP4 MCOPY PUSH0 DUP4 DUP4 ADD MSTORE POP POP POP JUMP JUMPDEST PUSH0 PUSH1 0x1F NOT PUSH1 0x1F DUP4 ADD AND SWAP1 POP SWAP2 SWAP1 POP JUMP JUMPDEST PUSH0 PUSH2 0x3BA DUP3 PUSH2 0x378 JUMP JUMPDEST PUSH2 0x3C4 DUP2 DUP6 PUSH2 0x382 JUMP JUMPDEST SWAP4 POP PUSH2 0x3D4 DUP2 DUP6 PUSH1 0x20 DUP7 ADD PUSH2 0x392 JUMP JUMPDEST PUSH2 0x3DD DUP2 PUSH2 0x3A0 JUMP JUMPDEST DUP5 ADD SWAP2 POP POP SWAP3 SWAP2 POP POP JUMP JUMPDEST PUSH0 PUSH1 0x20 DUP3 ADD SWAP1 POP DUP2 DUP2 SUB PUSH0 DUP4 ADD MSTORE PUSH2 0x400 DUP2 DUP5 PUSH2 0x3B0 JUMP JUMPDEST SWAP1 POP SWAP3 SWAP2 POP POP JUMP JUMPDEST PUSH0 PUSH0 REVERT JUMPDEST PUSH0 PUSH0 REVERT JUMPDEST PUSH32 0x4E487B7100000000000000000000000000000000000000000000000000000000 PUSH0 MSTORE PUSH1 0x41 PUSH1 0x4 MSTORE PUSH1 0x24 PUSH0 REVERT JUMPDEST PUSH2 0x446 DUP3 PUSH2 0x3A0 JUMP JUMPDEST DUP2 ADD DUP2 DUP2 LT PUSH8 0xFFFFFFFFFFFFFFFF DUP3 GT OR ISZERO PUSH2 0x465 JUMPI PUSH2 0x464 PUSH2 0x410 JUMP JUMPDEST JUMPDEST DUP1 PUSH1 0x40 MSTORE POP POP POP JUMP JUMPDEST PUSH0 PUSH2 0x477 PUSH2 0x309 JUMP JUMPDEST SWAP1 POP PUSH2 0x483 DUP3 DUP3 PUSH2 0x43D JUMP JUMPDEST SWAP2 SWAP1 POP JUMP JUMPDEST PUSH0 PUSH8 0xFFFFFFFFFFFFFFFF DUP3 GT ISZERO PUSH2 0x4A2 JUMPI PUSH2 0x4A1 PUSH2 0x410 JUMP JUMPDEST JUMPDEST PUSH2 0x4AB DUP3 PUSH2 0x3A0 JUMP JUMPDEST SWAP1 POP PUSH1 0x20 DUP2 ADD SWAP1 POP SWAP2 SWAP1 POP JUMP JUMPDEST DUP3 DUP2 DUP4 CALLDATACOPY PUSH0 DUP4 DUP4 ADD MSTORE POP POP POP JUMP JUMPDEST PUSH0 PUSH2 0x4D8 PUSH2 0x4D3 DUP5 PUSH2 0x488 JUMP JUMPDEST PUSH2 0x46E JUMP JUMPDEST SWAP1 POP DUP3 DUP2 MSTORE PUSH1 0x20 DUP2 ADD DUP5 DUP5 DUP5 ADD GT ISZERO PUSH2 0x4F4 JUMPI PUSH2 0x4F3 PUSH2 0x40C JUMP JUMPDEST JUMPDEST PUSH2 0x4FF DUP5 DUP3 DUP6 PUSH2 0x4B8 JUMP JUMPDEST POP SWAP4 SWAP3 POP POP POP JUMP JUMPDEST PUSH0 DUP3 PUSH1 0x1F DUP4 ADD SLT PUSH2 0x51B JUMPI PUSH2 0x51A PUSH2 0x408 JUMP JUMPDEST JUMPDEST DUP2 CALLDATALOAD PUSH2 0x52B DUP5 DUP3 PUSH1 0x20 DUP7 ADD PUSH2 0x4C6 JUMP JUMPDEST SWAP2 POP POP SWAP3 SWAP2 POP POP JUMP JUMPDEST PUSH0 PUSH0 PUSH1 0x40 DUP4 DUP6 SUB SLT ISZERO PUSH2 0x54A JUMPI PUSH2 0x549 PUSH2 0x312 JUMP JUMPDEST JUMPDEST PUSH0 DUP4 ADD CALLDATALOAD PUSH8 0xFFFFFFFFFFFFFFFF DUP2 GT ISZERO PUSH2 0x567 JUMPI PUSH2 0x566 PUSH2 0x316 JUMP JUMPDEST JUMPDEST PUSH2 0x573 DUP6 DUP3 DUP7 ADD PUSH2 0x507 JUMP JUMPDEST SWAP3 POP POP PUSH1 0x20 PUSH2 0x584 DUP6 DUP3 DUP7 ADD PUSH2 0x339 JUMP JUMPDEST SWAP2 POP POP SWAP3 POP SWAP3 SWAP1 POP JUMP JUMPDEST PUSH32 0x4E487B7100000000000000000000000000000000000000000000000000000000 PUSH0 MSTORE PUSH1 0x22 PUSH1 0x4 MSTORE PUSH1 0x24 PUSH0 REVERT JUMPDEST PUSH0 PUSH1 0x2 DUP3 DIV SWAP1 POP PUSH1 0x1 DUP3 AND DUP1 PUSH2 0x5D2 JUMPI PUSH1 0x7F DUP3 AND SWAP2 POP JUMPDEST PUSH1 0x20 DUP3 LT DUP2 SUB PUSH2 0x5E5 JUMPI PUSH2 0x5E4 PUSH2 0x58E JUMP JUMPDEST JUMPDEST POP SWAP2 SWAP1 POP JUMP JUMPDEST PUSH0 DUP2 SWAP1 POP DUP2 PUSH0 MSTORE PUSH1 0x20 PUSH0 KECCAK256 SWAP1 POP SWAP2 SWAP1 POP JUMP JUMPDEST PUSH0 PUSH1 0x20 PUSH1 0x1F DUP4 ADD DIV SWAP1 POP SWAP2 SWAP1 POP JUMP JUMPDEST PUSH0 DUP3 DUP3 SHL SWAP1 POP SWAP3 SWAP2 POP POP JUMP JUMPDEST PUSH0 PUSH1 0x8 DUP4 MUL PUSH2 0x647 PUSH32 0xFFFFFFFFFFFFFFFFFFFFFFFFFFFFFFFFFFFFFFFFFFFFFFFFFFFFFFFFFFFFFFFF DUP3 PUSH2 0x60C JUMP JUMPDEST PUSH2 0x651 DUP7 DUP4 PUSH2 0x60C JUMP JUMPDEST SWAP6 POP DUP1 NOT DUP5 AND SWAP4 POP DUP1 DUP7 AND DUP5 OR SWAP3 POP POP POP SWAP4 SWAP3 POP POP POP JUMP JUMPDEST PUSH0 DUP2 SWAP1 POP SWAP2 SWAP1 POP JUMP JUMPDEST PUSH0 PUSH2 0x68C PUSH2 0x687 PUSH2 0x682 DUP5 PUSH2 0x31A JUMP JUMPDEST PUSH2 0x669 JUMP JUMPDEST PUSH2 0x31A JUMP JUMPDEST SWAP1 POP SWAP2 SWAP1 POP JUMP JUMPDEST PUSH0 DUP2 SWAP1 POP SWAP2 SWAP1 POP JUMP JUMPDEST PUSH2 0x6A5 DUP4 PUSH2 0x672 JUMP JUMPDEST PUSH2 0x6B9 PUSH2 0x6B1 DUP3 PUSH2 0x693 JUMP JUMPDEST DUP5 DUP5 SLOAD PUSH2 0x618 JUMP JUMPDEST DUP3 SSTORE POP POP POP POP JUMP JUMPDEST PUSH0 PUSH0 SWAP1 POP SWAP1 JUMP JUMPDEST PUSH2 0x6D0 PUSH2 0x6C1 JUMP JUMPDEST PUSH2 0x6DB DUP2 DUP5 DUP5 PUSH2 0x69C JUMP JUMPDEST POP POP POP JUMP JUMPDEST JUMPDEST DUP2 DUP2 LT ISZERO PUSH2 0x6FE JUMPI PUSH2 0x6F3 PUSH0 DUP3 PUSH2 0x6C8 JUMP JUMPDEST PUSH1 0x1 DUP2 ADD SWAP1 POP PUSH2 0x6E1 JUMP JUMPDEST POP POP JUMP JUMPDEST PUSH1 0x1F DUP3 GT ISZERO PUSH2 0x743 JUMPI PUSH2 0x714 DUP2 PUSH2 0x5EB JUMP JUMPDEST PUSH2 0x71D DUP5 PUSH2 0x5FD JUMP JUMPDEST DUP2 ADD PUSH1 0x20 DUP6 LT ISZERO PUSH2 0x72C JUMPI DUP2 SWAP1 POP JUMPDEST PUSH2 0x740 PUSH2 0x738 DUP6 PUSH2 0x5FD JUMP JUMPDEST DUP4 ADD DUP3 PUSH2 0x6E0 JUMP JUMPDEST POP POP JUMPDEST POP POP POP JUMP JUMPDEST PUSH0 DUP3 DUP3 SHR SWAP1 POP SWAP3 SWAP2 POP POP JUMP JUMPDEST PUSH0 PUSH2 0x763 PUSH0 NOT DUP5 PUSH1 0x8 MUL PUSH2 0x748 JUMP JUMPDEST NOT DUP1 DUP4 AND SWAP2 POP POP SWAP3 SWAP2 POP POP JUMP JUMPDEST PUSH0 PUSH2 0x77B DUP4 DUP4 PUSH2 0x754 JUMP JUMPDEST SWAP2 POP DUP3 PUSH1 0x2 MUL DUP3 OR SWAP1 POP SWAP3 SWAP2 POP POP JUMP JUMPDEST PUSH2 0x794 DUP3 PUSH2 0x378 JUMP JUMPDEST PUSH8 0xFFFFFFFFFFFFFFFF DUP2 GT ISZERO PUSH2 0x7AD JUMPI PUSH2 0x7AC PUSH2 0x410 JUMP JUMPDEST JUMPDEST PUSH2 0x7B7 DUP3 SLOAD PUSH2 0x5BB JUMP JUMPDEST PUSH2 0x7C2 DUP3 DUP3 DUP6 PUSH2 0x702 JUMP JUMPDEST PUSH0 PUSH1 0x20 SWAP1 POP PUSH1 0x1F DUP4 GT PUSH1 0x1 DUP2 EQ PUSH2 0x7F3 JUMPI PUSH0 DUP5 ISZERO PUSH2 0x7E1 JUMPI DUP3 DUP8 ADD MLOAD SWAP1 POP JUMPDEST PUSH2 0x7EB DUP6 DUP3 PUSH2 0x770 JUMP JUMPDEST DUP7 SSTORE POP PUSH2 0x852 JUMP JUMPDEST PUSH1 0x1F NOT DUP5 AND PUSH2 0x801 DUP7 PUSH2 0x5EB JUMP JUMPDEST PUSH0 JUMPDEST DUP3 DUP2 LT ISZERO PUSH2 0x828 JUMPI DUP5 DUP10 ADD MLOAD DUP3 SSTORE PUSH1 0x1 DUP3 ADD SWAP2 POP PUSH1 0x20 DUP6 ADD SWAP5 POP PUSH1 0x20 DUP2 ADD SWAP1 POP PUSH2 0x803 JUMP JUMPDEST DUP7 DUP4 LT ISZERO PUSH2 0x845 JUMPI DUP5 DUP10 ADD MLOAD PUSH2 0x841 PUSH1 0x1F DUP10 AND DUP3 PUSH2 0x754 JUMP JUMPDEST DUP4 SSTORE POP JUMPDEST PUSH1 0x1 PUSH1 0x2 DUP9 MUL ADD DUP9 SSTORE POP POP POP JUMPDEST POP POP POP POP POP POP JUMP JUMPDEST PUSH0 DUP2 SWAP1 POP SWAP3 SWAP2 POP POP JUMP JUMPDEST PUSH0 PUSH2 0x86E DUP3 PUSH2 0x378 JUMP JUMPDEST PUSH2 0x878 DUP2 DUP6 PUSH2 0x85A JUMP JUMPDEST SWAP4 POP PUSH2 0x888 DUP2 DUP6 PUSH1 0x20 DUP7 ADD PUSH2 0x392 JUMP JUMPDEST DUP1 DUP5 ADD SWAP2 POP POP SWAP3 SWAP2 POP POP JUMP JUMPDEST PUSH32 0x2066726F6D20787878277320636F6E74726163742E0000000000000000000000 DUP2 MSTORE POP JUMP JUMPDEST PUSH0 PUSH2 0x8C5 DUP3 DUP5 PUSH2 0x864 JUMP JUMPDEST SWAP2 POP PUSH2 0x8D0 DUP3 PUSH2 0x894 JUMP JUMPDEST PUSH1 0x15 DUP3 ADD SWAP2 POP DUP2 SWAP1 POP SWAP3 SWAP2 POP POP JUMP INVALID LOG2 PUSH5 0x6970667358 0x22 SLT KECCAK256 0xD0 PUSH15 0x85A8B7FC86D5C0FDB33BC823358C1F 0xD1 DUP8 BLOBBASEFEE 0xBE 0xB7 PC SWAP10 0xFC BLOBBASEFEE DELEGATECALL PUSH25 0xC527A89664736F6C634300081C0033A2646970667358221220 RETURNDATACOPY 0xB8 INVALID PUSH6 0xFB743BB2D7F3 0xEB 0xC4 SWAP6 0xC2 0xB2 SHL 0x4F JUMP 0xA6 0xF6 PUSH10 0xF0149C45EA0FD6DF0B1A 0xE7 PUSH5 0x736F6C6343 STOP ADDMOD SHR STOP CALLER "
		},
		"gasEstimates": {
			"creation": {
				"codeDepositCost": "1148400",
				"executionCost": "1192",
				"totalCost": "1149592"
			},
			"external": {
				"callSayHelloFromFactory(uint256,uint256)": "infinite",
				"callSetHelloFromFactory(uint256,string,uint256)": "infinite",
				"createHelloWorld()": "infinite",
				"getHelloWorldByIndex(uint256)": "infinite"
			}
		},
		"methodIdentifiers": {
			"callSayHelloFromFactory(uint256,uint256)": "53bf97dd",
			"callSetHelloFromFactory(uint256,string,uint256)": "a222ff32",
			"createHelloWorld()": "5e0a94cb",
			"getHelloWorldByIndex(uint256)": "867263fb"
		}
	},
	"abi": [
		{
			"inputs": [
				{
					"internalType": "uint256",
					"name": "_index",
					"type": "uint256"
				},
				{
					"internalType": "uint256",
					"name": "_id",
					"type": "uint256"
				}
			],
			"name": "callSayHelloFromFactory",
			"outputs": [
				{
					"internalType": "string",
					"name": "",
					"type": "string"
				}
			],
			"stateMutability": "view",
			"type": "function"
		},
		{
			"inputs": [
				{
					"internalType": "uint256",
					"name": "_index",
					"type": "uint256"
				},
				{
					"internalType": "string",
					"name": "newString",
					"type": "string"
				},
				{
					"internalType": "uint256",
					"name": "_id",
					"type": "uint256"
				}
			],
			"name": "callSetHelloFromFactory",
			"outputs": [],
			"stateMutability": "nonpayable",
			"type": "function"
		},
		{
			"inputs": [],
			"name": "createHelloWorld",
			"outputs": [],
			"stateMutability": "nonpayable",
			"type": "function"
		},
		{
			"inputs": [
				{
					"internalType": "uint256",
					"name": "_index",
					"type": "uint256"
				}
			],
			"name": "getHelloWorldByIndex",
			"outputs": [
				{
					"internalType": "contract HelloWorld",
					"name": "",
					"type": "address"
				}
			],
			"stateMutability": "view",
			"type": "function"
		}
	]
}