{
	"FundMe/FundMe.sol": {
		"FundMe": {
			"abi": [
				{
					"inputs": [
						{
							"internalType": "uint256",
							"name": "_lockTime",
							"type": "uint256"
						}
					],
					"stateMutability": "nonpayable",
					"type": "constructor"
				},
				{
					"inputs": [],
					"name": "fund",
					"outputs": [],
					"stateMutability": "payable",
					"type": "function"
				},
				{
					"inputs": [
						{
							"internalType": "address",
							"name": "",
							"type": "address"
						}
					],
					"name": "funderToAmount",
					"outputs": [
						{
							"internalType": "uint256",
							"name": "",
							"type": "uint256"
						}
					],
					"stateMutability": "view",
					"type": "function"
				},
				{
					"inputs": [],
					"name": "getChainlinkDataFeedLatestAnswer",
					"outputs": [
						{
							"internalType": "int256",
							"name": "",
							"type": "int256"
						}
					],
					"stateMutability": "view",
					"type": "function"
				},
				{
					"inputs": [],
					"name": "getFund",
					"outputs": [],
					"stateMutability": "nonpayable",
					"type": "function"
				},
				{
					"inputs": [],
					"name": "owner",
					"outputs": [
						{
							"internalType": "address",
							"name": "",
							"type": "address"
						}
					],
					"stateMutability": "view",
					"type": "function"
				},
				{
					"inputs": [],
					"name": "refund",
					"outputs": [],
					"stateMutability": "nonpayable",
					"type": "function"
				},
				{
					"inputs": [
						{
							"internalType": "address",
							"name": "newOwner",
							"type": "address"
						}
					],
					"name": "transferOwnership",
					"outputs": [],
					"stateMutability": "nonpayable",
					"type": "function"
				}
			],
			"devdoc": {
				"kind": "dev",
				"methods": {},
				"version": 1
			},
			"evm": {
				"assembly": "    /* \"FundMe/FundMe.sol\":172:2886  contract FundMe {... */\n  mstore(0x40, 0x80)\n    /* \"FundMe/FundMe.sol\":505:767  constructor(uint256 _lockTime) {... */\n  callvalue\n  dup1\n  iszero\n  tag_1\n  jumpi\n  revert(0x00, 0x00)\ntag_1:\n  pop\n  mload(0x40)\n  sub(codesize, bytecodeSize)\n  dup1\n  bytecodeSize\n  dup4\n  codecopy\n  dup2\n  dup2\n  add\n  0x40\n  mstore\n  dup2\n  add\n  swap1\n  tag_2\n  swap2\n  swap1\n  tag_3\n  jump\t// in\ntag_2:\n    /* \"FundMe/FundMe.sol\":554:564  msg.sender */\n  caller\n    /* \"FundMe/FundMe.sol\":546:551  owner */\n  0x02\n  0x00\n    /* \"FundMe/FundMe.sol\":546:564  owner = msg.sender */\n  0x0100\n  exp\n  dup2\n  sload\n  dup2\n  0xffffffffffffffffffffffffffffffffffffffff\n  mul\n  not\n  and\n  swap1\n  dup4\n  0xffffffffffffffffffffffffffffffffffffffff\n  and\n  mul\n  or\n  swap1\n  sstore\n  pop\n    /* \"FundMe/FundMe.sol\":591:606  block.timestamp */\n  timestamp\n    /* \"FundMe/FundMe.sol\":574:588  deploymentTime */\n  0x03\n    /* \"FundMe/FundMe.sol\":574:606  deploymentTime = block.timestamp */\n  dup2\n  swap1\n  sstore\n  pop\n    /* \"FundMe/FundMe.sol\":643:652  _lockTime */\n  dup1\n    /* \"FundMe/FundMe.sol\":632:640  lockTime */\n  0x04\n    /* \"FundMe/FundMe.sol\":632:652  lockTime = _lockTime */\n  dup2\n  swap1\n  sstore\n  pop\n    /* \"FundMe/FundMe.sol\":695:737  0x694AA1769357215DE4FAC081bf1f309aDC325306 */\n  0x694aa1769357215de4fac081bf1f309adc325306\n    /* \"FundMe/FundMe.sol\":662:670  dataFeed */\n  0x00\n  0x00\n    /* \"FundMe/FundMe.sol\":662:738  dataFeed = AggregatorV3Interface(0x694AA1769357215DE4FAC081bf1f309aDC325306) */\n  0x0100\n  exp\n  dup2\n  sload\n  dup2\n  0xffffffffffffffffffffffffffffffffffffffff\n  mul\n  not\n  and\n  swap1\n  dup4\n  0xffffffffffffffffffffffffffffffffffffffff\n  and\n  mul\n  or\n  swap1\n  sstore\n  pop\n    /* \"FundMe/FundMe.sol\":505:767  constructor(uint256 _lockTime) {... */\n  pop\n    /* \"FundMe/FundMe.sol\":172:2886  contract FundMe {... */\n  jump(tag_6)\n    /* \"#utility.yul\":88:205   */\ntag_8:\n    /* \"#utility.yul\":197:198   */\n  0x00\n    /* \"#utility.yul\":194:195   */\n  0x00\n    /* \"#utility.yul\":187:199   */\n  revert\n    /* \"#utility.yul\":334:411   */\ntag_10:\n    /* \"#utility.yul\":371:378   */\n  0x00\n    /* \"#utility.yul\":400:405   */\n  dup2\n    /* \"#utility.yul\":389:405   */\n  swap1\n  pop\n    /* \"#utility.yul\":334:411   */\n  swap2\n  swap1\n  pop\n  jump\t// out\n    /* \"#utility.yul\":417:539   */\ntag_11:\n    /* \"#utility.yul\":490:514   */\n  tag_19\n    /* \"#utility.yul\":508:513   */\n  dup2\n    /* \"#utility.yul\":490:514   */\n  tag_10\n  jump\t// in\ntag_19:\n    /* \"#utility.yul\":483:488   */\n  dup2\n    /* \"#utility.yul\":480:515   */\n  eq\n    /* \"#utility.yul\":470:533   */\n  tag_20\n  jumpi\n    /* \"#utility.yul\":529:530   */\n  0x00\n    /* \"#utility.yul\":526:527   */\n  0x00\n    /* \"#utility.yul\":519:531   */\n  revert\n    /* \"#utility.yul\":470:533   */\ntag_20:\n    /* \"#utility.yul\":417:539   */\n  pop\n  jump\t// out\n    /* \"#utility.yul\":545:688   */\ntag_12:\n    /* \"#utility.yul\":602:607   */\n  0x00\n    /* \"#utility.yul\":633:639   */\n  dup2\n    /* \"#utility.yul\":627:640   */\n  mload\n    /* \"#utility.yul\":618:640   */\n  swap1\n  pop\n    /* \"#utility.yul\":649:682   */\n  tag_22\n    /* \"#utility.yul\":676:681   */\n  dup2\n    /* \"#utility.yul\":649:682   */\n  tag_11\n  jump\t// in\ntag_22:\n    /* \"#utility.yul\":545:688   */\n  swap3\n  swap2\n  pop\n  pop\n  jump\t// out\n    /* \"#utility.yul\":694:1045   */\ntag_3:\n    /* \"#utility.yul\":764:770   */\n  0x00\n    /* \"#utility.yul\":813:815   */\n  0x20\n    /* \"#utility.yul\":801:810   */\n  dup3\n    /* \"#utility.yul\":792:799   */\n  dup5\n    /* \"#utility.yul\":788:811   */\n  sub\n    /* \"#utility.yul\":784:816   */\n  slt\n    /* \"#utility.yul\":781:900   */\n  iszero\n  tag_24\n  jumpi\n    /* \"#utility.yul\":819:898   */\n  tag_25\n  tag_8\n  jump\t// in\ntag_25:\n    /* \"#utility.yul\":781:900   */\ntag_24:\n    /* \"#utility.yul\":939:940   */\n  0x00\n    /* \"#utility.yul\":964:1028   */\n  tag_26\n    /* \"#utility.yul\":1020:1027   */\n  dup5\n    /* \"#utility.yul\":1011:1017   */\n  dup3\n    /* \"#utility.yul\":1000:1009   */\n  dup6\n    /* \"#utility.yul\":996:1018   */\n  add\n    /* \"#utility.yul\":964:1028   */\n  tag_12\n  jump\t// in\ntag_26:\n    /* \"#utility.yul\":954:1028   */\n  swap2\n  pop\n    /* \"#utility.yul\":910:1038   */\n  pop\n    /* \"#utility.yul\":694:1045   */\n  swap3\n  swap2\n  pop\n  pop\n  jump\t// out\n    /* \"FundMe/FundMe.sol\":172:2886  contract FundMe {... */\ntag_6:\n  dataSize(sub_0)\n  dup1\n  dataOffset(sub_0)\n  0x00\n  codecopy\n  0x00\n  return\nstop\n\nsub_0: assembly {\n        /* \"FundMe/FundMe.sol\":172:2886  contract FundMe {... */\n      mstore(0x40, 0x80)\n      jumpi(tag_1, lt(calldatasize, 0x04))\n      shr(0xe0, calldataload(0x00))\n      dup1\n      0x8edd6eb6\n      gt\n      tag_9\n      jumpi\n      dup1\n      0x8edd6eb6\n      eq\n      tag_5\n      jumpi\n      dup1\n      0xb60d4288\n      eq\n      tag_6\n      jumpi\n      dup1\n      0xbea4dfb5\n      eq\n      tag_7\n      jumpi\n      dup1\n      0xf2fde38b\n      eq\n      tag_8\n      jumpi\n      jump(tag_1)\n    tag_9:\n      dup1\n      0x4407e1e8\n      eq\n      tag_2\n      jumpi\n      dup1\n      0x590e1ae3\n      eq\n      tag_3\n      jumpi\n      dup1\n      0x8da5cb5b\n      eq\n      tag_4\n      jumpi\n    tag_1:\n      revert(0x00, 0x00)\n        /* \"FundMe/FundMe.sol\":240:290  mapping (address => uint256) public funderToAmount */\n    tag_2:\n      callvalue\n      dup1\n      iszero\n      tag_10\n      jumpi\n      revert(0x00, 0x00)\n    tag_10:\n      pop\n      tag_11\n      0x04\n      dup1\n      calldatasize\n      sub\n      dup2\n      add\n      swap1\n      tag_12\n      swap2\n      swap1\n      tag_13\n      jump\t// in\n    tag_12:\n      tag_14\n      jump\t// in\n    tag_11:\n      mload(0x40)\n      tag_15\n      swap2\n      swap1\n      tag_16\n      jump\t// in\n    tag_15:\n      mload(0x40)\n      dup1\n      swap2\n      sub\n      swap1\n      return\n        /* \"FundMe/FundMe.sol\":2236:2654  function refund() external windowClosed {... */\n    tag_3:\n      callvalue\n      dup1\n      iszero\n      tag_17\n      jumpi\n      revert(0x00, 0x00)\n    tag_17:\n      pop\n      tag_18\n      tag_19\n      jump\t// in\n    tag_18:\n      stop\n        /* \"FundMe/FundMe.sol\":427:447  address public owner */\n    tag_4:\n      callvalue\n      dup1\n      iszero\n      tag_20\n      jumpi\n      revert(0x00, 0x00)\n    tag_20:\n      pop\n      tag_21\n      tag_22\n      jump\t// in\n    tag_21:\n      mload(0x40)\n      tag_23\n      swap2\n      swap1\n      tag_24\n      jump\t// in\n    tag_23:\n      mload(0x40)\n      dup1\n      swap2\n      sub\n      swap1\n      return\n        /* \"FundMe/FundMe.sol\":1724:2230  function getFund() external onlyOwner windowClosed {... */\n    tag_5:\n      callvalue\n      dup1\n      iszero\n      tag_25\n      jumpi\n      revert(0x00, 0x00)\n    tag_25:\n      pop\n      tag_26\n      tag_27\n      jump\t// in\n    tag_26:\n      stop\n        /* \"FundMe/FundMe.sol\":773:1022  function fund() external payable {... */\n    tag_6:\n      tag_28\n      tag_29\n      jump\t// in\n    tag_28:\n      stop\n        /* \"FundMe/FundMe.sol\":1081:1419  function getChainlinkDataFeedLatestAnswer() public view returns (int) {... */\n    tag_7:\n      callvalue\n      dup1\n      iszero\n      tag_30\n      jumpi\n      revert(0x00, 0x00)\n    tag_30:\n      pop\n      tag_31\n      tag_32\n      jump\t// in\n    tag_31:\n      mload(0x40)\n      tag_33\n      swap2\n      swap1\n      tag_34\n      jump\t// in\n    tag_33:\n      mload(0x40)\n      dup1\n      swap2\n      sub\n      swap1\n      return\n        /* \"FundMe/FundMe.sol\":1623:1718  function transferOwnership(address newOwner) public onlyOwner {... */\n    tag_8:\n      callvalue\n      dup1\n      iszero\n      tag_35\n      jumpi\n      revert(0x00, 0x00)\n    tag_35:\n      pop\n      tag_36\n      0x04\n      dup1\n      calldatasize\n      sub\n      dup2\n      add\n      swap1\n      tag_37\n      swap2\n      swap1\n      tag_13\n      jump\t// in\n    tag_37:\n      tag_38\n      jump\t// in\n    tag_36:\n      stop\n        /* \"FundMe/FundMe.sol\":240:290  mapping (address => uint256) public funderToAmount */\n    tag_14:\n      mstore(0x20, 0x01)\n      dup1\n      0x00\n      mstore\n      keccak256(0x00, 0x40)\n      0x00\n      swap2\n      pop\n      swap1\n      pop\n      sload\n      dup2\n      jump\t// out\n        /* \"FundMe/FundMe.sol\":2236:2654  function refund() external windowClosed {... */\n    tag_19:\n        /* \"FundMe/FundMe.sol\":2835:2843  lockTime */\n      sload(0x04)\n        /* \"FundMe/FundMe.sol\":2818:2832  deploymentTime */\n      sload(0x03)\n        /* \"FundMe/FundMe.sol\":2818:2843  deploymentTime + lockTime */\n      tag_40\n      swap2\n      swap1\n      tag_41\n      jump\t// in\n    tag_40:\n        /* \"FundMe/FundMe.sol\":2800:2815  block.timestamp */\n      timestamp\n        /* \"FundMe/FundMe.sol\":2800:2843  block.timestamp > deploymentTime + lockTime */\n      gt\n        /* \"FundMe/FundMe.sol\":2792:2866  require(block.timestamp > deploymentTime + lockTime, \"Window not closed!\") */\n      tag_42\n      jumpi\n      mload(0x40)\n      0x08c379a000000000000000000000000000000000000000000000000000000000\n      dup2\n      mstore\n      0x04\n      add\n      tag_43\n      swap1\n      tag_44\n      jump\t// in\n    tag_43:\n      mload(0x40)\n      dup1\n      swap2\n      sub\n      swap1\n      revert\n    tag_42:\n        /* \"FundMe/FundMe.sol\":394:420  2 * (10 ** 18) * (10 ** 8) */\n      0xa56fa5b99019a5c8000000\n        /* \"FundMe/FundMe.sol\":2294:2332  convertEthToUsd(address(this).balance) */\n      tag_46\n        /* \"FundMe/FundMe.sol\":2310:2331  address(this).balance */\n      selfbalance\n        /* \"FundMe/FundMe.sol\":2294:2309  convertEthToUsd */\n      tag_47\n        /* \"FundMe/FundMe.sol\":2294:2332  convertEthToUsd(address(this).balance) */\n      jump\t// in\n    tag_46:\n        /* \"FundMe/FundMe.sol\":2294:2341  convertEthToUsd(address(this).balance) < TARGET */\n      lt\n        /* \"FundMe/FundMe.sol\":2286:2364  require(convertEthToUsd(address(this).balance) < TARGET, \"Target is reached!\") */\n      tag_48\n      jumpi\n      mload(0x40)\n      0x08c379a000000000000000000000000000000000000000000000000000000000\n      dup2\n      mstore\n      0x04\n      add\n      tag_49\n      swap1\n      tag_50\n      jump\t// in\n    tag_49:\n      mload(0x40)\n      dup1\n      swap2\n      sub\n      swap1\n      revert\n    tag_48:\n        /* \"FundMe/FundMe.sol\":2374:2388  uint256 amount */\n      0x00\n        /* \"FundMe/FundMe.sol\":2391:2405  funderToAmount */\n      0x01\n        /* \"FundMe/FundMe.sol\":2391:2417  funderToAmount[msg.sender] */\n      0x00\n        /* \"FundMe/FundMe.sol\":2406:2416  msg.sender */\n      caller\n        /* \"FundMe/FundMe.sol\":2391:2417  funderToAmount[msg.sender] */\n      0xffffffffffffffffffffffffffffffffffffffff\n      and\n      0xffffffffffffffffffffffffffffffffffffffff\n      and\n      dup2\n      mstore\n      0x20\n      add\n      swap1\n      dup2\n      mstore\n      0x20\n      add\n      0x00\n      keccak256\n      sload\n        /* \"FundMe/FundMe.sol\":2374:2417  uint256 amount = funderToAmount[msg.sender] */\n      swap1\n      pop\n        /* \"FundMe/FundMe.sol\":2445:2446  0 */\n      0x00\n        /* \"FundMe/FundMe.sol\":2435:2441  amount */\n      dup2\n        /* \"FundMe/FundMe.sol\":2435:2446  amount != 0 */\n      sub\n        /* \"FundMe/FundMe.sol\":2427:2468  require(amount != 0, \"You haven't fund!\") */\n      tag_51\n      jumpi\n      mload(0x40)\n      0x08c379a000000000000000000000000000000000000000000000000000000000\n      dup2\n      mstore\n      0x04\n      add\n      tag_52\n      swap1\n      tag_53\n      jump\t// in\n    tag_52:\n      mload(0x40)\n      dup1\n      swap2\n      sub\n      swap1\n      revert\n    tag_51:\n        /* \"FundMe/FundMe.sol\":2479:2491  bool success */\n      0x00\n        /* \"FundMe/FundMe.sol\":2523:2533  msg.sender */\n      caller\n        /* \"FundMe/FundMe.sol\":2515:2539  payable(msg.sender).call */\n      0xffffffffffffffffffffffffffffffffffffffff\n      and\n        /* \"FundMe/FundMe.sol\":2547:2553  amount */\n      dup3\n        /* \"FundMe/FundMe.sol\":2515:2558  payable(msg.sender).call{value: amount}(\"\") */\n      mload(0x40)\n      tag_54\n      swap1\n      tag_55\n      jump\t// in\n    tag_54:\n      0x00\n      mload(0x40)\n      dup1\n      dup4\n      sub\n      dup2\n      dup6\n      dup8\n      gas\n      call\n      swap3\n      pop\n      pop\n      pop\n      returndatasize\n      dup1\n      0x00\n      dup2\n      eq\n      tag_58\n      jumpi\n      mload(0x40)\n      swap2\n      pop\n      and(add(returndatasize, 0x3f), not(0x1f))\n      dup3\n      add\n      0x40\n      mstore\n      returndatasize\n      dup3\n      mstore\n      returndatasize\n      0x00\n      0x20\n      dup5\n      add\n      returndatacopy\n      jump(tag_57)\n    tag_58:\n      0x60\n      swap2\n      pop\n    tag_57:\n      pop\n        /* \"FundMe/FundMe.sol\":2501:2558  (success, ) = payable(msg.sender).call{value: amount}(\"\") */\n      pop\n      dup1\n      swap2\n      pop\n      pop\n        /* \"FundMe/FundMe.sol\":2576:2583  success */\n      dup1\n        /* \"FundMe/FundMe.sol\":2568:2607  require(success, \"Transfer tx failed!\") */\n      tag_59\n      jumpi\n      mload(0x40)\n      0x08c379a000000000000000000000000000000000000000000000000000000000\n      dup2\n      mstore\n      0x04\n      add\n      tag_60\n      swap1\n      tag_61\n      jump\t// in\n    tag_60:\n      mload(0x40)\n      dup1\n      swap2\n      sub\n      swap1\n      revert\n    tag_59:\n        /* \"FundMe/FundMe.sol\":2646:2647  0 */\n      0x00\n        /* \"FundMe/FundMe.sol\":2617:2631  funderToAmount */\n      0x01\n        /* \"FundMe/FundMe.sol\":2617:2643  funderToAmount[msg.sender] */\n      0x00\n        /* \"FundMe/FundMe.sol\":2632:2642  msg.sender */\n      caller\n        /* \"FundMe/FundMe.sol\":2617:2643  funderToAmount[msg.sender] */\n      0xffffffffffffffffffffffffffffffffffffffff\n      and\n      0xffffffffffffffffffffffffffffffffffffffff\n      and\n      dup2\n      mstore\n      0x20\n      add\n      swap1\n      dup2\n      mstore\n      0x20\n      add\n      0x00\n      keccak256\n        /* \"FundMe/FundMe.sol\":2617:2647  funderToAmount[msg.sender] = 0 */\n      dup2\n      swap1\n      sstore\n      pop\n        /* \"FundMe/FundMe.sol\":2276:2654  {... */\n      pop\n      pop\n        /* \"FundMe/FundMe.sol\":2236:2654  function refund() external windowClosed {... */\n      jump\t// out\n        /* \"FundMe/FundMe.sol\":427:447  address public owner */\n    tag_22:\n      0x02\n      0x00\n      swap1\n      sload\n      swap1\n      0x0100\n      exp\n      swap1\n      div\n      0xffffffffffffffffffffffffffffffffffffffff\n      and\n      dup2\n      jump\t// out\n        /* \"FundMe/FundMe.sol\":1724:2230  function getFund() external onlyOwner windowClosed {... */\n    tag_27:\n        /* \"FundMe/FundMe.sol\":2708:2718  msg.sender */\n      caller\n        /* \"FundMe/FundMe.sol\":2699:2718  owner == msg.sender */\n      0xffffffffffffffffffffffffffffffffffffffff\n      and\n        /* \"FundMe/FundMe.sol\":2699:2704  owner */\n      0x02\n      0x00\n      swap1\n      sload\n      swap1\n      0x0100\n      exp\n      swap1\n      div\n      0xffffffffffffffffffffffffffffffffffffffff\n      and\n        /* \"FundMe/FundMe.sol\":2699:2718  owner == msg.sender */\n      0xffffffffffffffffffffffffffffffffffffffff\n      and\n      eq\n        /* \"FundMe/FundMe.sol\":2691:2734  require(owner == msg.sender, \"Owner only!\") */\n      tag_63\n      jumpi\n      mload(0x40)\n      0x08c379a000000000000000000000000000000000000000000000000000000000\n      dup2\n      mstore\n      0x04\n      add\n      tag_64\n      swap1\n      tag_65\n      jump\t// in\n    tag_64:\n      mload(0x40)\n      dup1\n      swap2\n      sub\n      swap1\n      revert\n    tag_63:\n        /* \"FundMe/FundMe.sol\":2835:2843  lockTime */\n      sload(0x04)\n        /* \"FundMe/FundMe.sol\":2818:2832  deploymentTime */\n      sload(0x03)\n        /* \"FundMe/FundMe.sol\":2818:2843  deploymentTime + lockTime */\n      tag_67\n      swap2\n      swap1\n      tag_41\n      jump\t// in\n    tag_67:\n        /* \"FundMe/FundMe.sol\":2800:2815  block.timestamp */\n      timestamp\n        /* \"FundMe/FundMe.sol\":2800:2843  block.timestamp > deploymentTime + lockTime */\n      gt\n        /* \"FundMe/FundMe.sol\":2792:2866  require(block.timestamp > deploymentTime + lockTime, \"Window not closed!\") */\n      tag_68\n      jumpi\n      mload(0x40)\n      0x08c379a000000000000000000000000000000000000000000000000000000000\n      dup2\n      mstore\n      0x04\n      add\n      tag_69\n      swap1\n      tag_44\n      jump\t// in\n    tag_69:\n      mload(0x40)\n      dup1\n      swap2\n      sub\n      swap1\n      revert\n    tag_68:\n        /* \"FundMe/FundMe.sol\":394:420  2 * (10 ** 18) * (10 ** 8) */\n      0xa56fa5b99019a5c8000000\n        /* \"FundMe/FundMe.sol\":1793:1831  convertEthToUsd(address(this).balance) */\n      tag_71\n        /* \"FundMe/FundMe.sol\":1809:1830  address(this).balance */\n      selfbalance\n        /* \"FundMe/FundMe.sol\":1793:1808  convertEthToUsd */\n      tag_47\n        /* \"FundMe/FundMe.sol\":1793:1831  convertEthToUsd(address(this).balance) */\n      jump\t// in\n    tag_71:\n        /* \"FundMe/FundMe.sol\":1793:1841  convertEthToUsd(address(this).balance) >= TARGET */\n      lt\n      iszero\n        /* \"FundMe/FundMe.sol\":1785:1868  require(convertEthToUsd(address(this).balance) >= TARGET, \"Target is not reached!\") */\n      tag_72\n      jumpi\n      mload(0x40)\n      0x08c379a000000000000000000000000000000000000000000000000000000000\n      dup2\n      mstore\n      0x04\n      add\n      tag_73\n      swap1\n      tag_74\n      jump\t// in\n    tag_73:\n      mload(0x40)\n      dup1\n      swap2\n      sub\n      swap1\n      revert\n    tag_72:\n        /* \"FundMe/FundMe.sol\":2080:2092  bool success */\n      0x00\n        /* \"FundMe/FundMe.sol\":2124:2134  msg.sender */\n      caller\n        /* \"FundMe/FundMe.sol\":2116:2140  payable(msg.sender).call */\n      0xffffffffffffffffffffffffffffffffffffffff\n      and\n        /* \"FundMe/FundMe.sol\":2148:2169  address(this).balance */\n      selfbalance\n        /* \"FundMe/FundMe.sol\":2116:2174  payable(msg.sender).call{value: address(this).balance}(\"\") */\n      mload(0x40)\n      tag_75\n      swap1\n      tag_55\n      jump\t// in\n    tag_75:\n      0x00\n      mload(0x40)\n      dup1\n      dup4\n      sub\n      dup2\n      dup6\n      dup8\n      gas\n      call\n      swap3\n      pop\n      pop\n      pop\n      returndatasize\n      dup1\n      0x00\n      dup2\n      eq\n      tag_78\n      jumpi\n      mload(0x40)\n      swap2\n      pop\n      and(add(returndatasize, 0x3f), not(0x1f))\n      dup3\n      add\n      0x40\n      mstore\n      returndatasize\n      dup3\n      mstore\n      returndatasize\n      0x00\n      0x20\n      dup5\n      add\n      returndatacopy\n      jump(tag_77)\n    tag_78:\n      0x60\n      swap2\n      pop\n    tag_77:\n      pop\n        /* \"FundMe/FundMe.sol\":2102:2174  (success, ) = payable(msg.sender).call{value: address(this).balance}(\"\") */\n      pop\n      dup1\n      swap2\n      pop\n      pop\n        /* \"FundMe/FundMe.sol\":2192:2199  success */\n      dup1\n        /* \"FundMe/FundMe.sol\":2184:2223  require(success, \"Transfer tx failed!\") */\n      tag_79\n      jumpi\n      mload(0x40)\n      0x08c379a000000000000000000000000000000000000000000000000000000000\n      dup2\n      mstore\n      0x04\n      add\n      tag_80\n      swap1\n      tag_61\n      jump\t// in\n    tag_80:\n      mload(0x40)\n      dup1\n      swap2\n      sub\n      swap1\n      revert\n    tag_79:\n        /* \"FundMe/FundMe.sol\":1775:2230  {... */\n      pop\n        /* \"FundMe/FundMe.sol\":1724:2230  function getFund() external onlyOwner windowClosed {... */\n      jump\t// out\n        /* \"FundMe/FundMe.sol\":773:1022  function fund() external payable {... */\n    tag_29:\n        /* \"FundMe/FundMe.sol\":860:868  lockTime */\n      sload(0x04)\n        /* \"FundMe/FundMe.sol\":843:857  deploymentTime */\n      sload(0x03)\n        /* \"FundMe/FundMe.sol\":843:868  deploymentTime + lockTime */\n      tag_82\n      swap2\n      swap1\n      tag_41\n      jump\t// in\n    tag_82:\n        /* \"FundMe/FundMe.sol\":824:839  block.timestamp */\n      timestamp\n        /* \"FundMe/FundMe.sol\":824:868  block.timestamp <= deploymentTime + lockTime */\n      gt\n      iszero\n        /* \"FundMe/FundMe.sol\":816:887  require(block.timestamp <= deploymentTime + lockTime, \"Window closed!\") */\n      tag_83\n      jumpi\n      mload(0x40)\n      0x08c379a000000000000000000000000000000000000000000000000000000000\n      dup2\n      mstore\n      0x04\n      add\n      tag_84\n      swap1\n      tag_85\n      jump\t// in\n    tag_84:\n      mload(0x40)\n      dup1\n      swap2\n      sub\n      swap1\n      revert\n    tag_83:\n        /* \"FundMe/FundMe.sol\":325:351  1 * (10 ** 18) * (10 ** 8) */\n      0x52b7d2dcc80cd2e4000000\n        /* \"FundMe/FundMe.sol\":905:931  convertEthToUsd(msg.value) */\n      tag_86\n        /* \"FundMe/FundMe.sol\":921:930  msg.value */\n      callvalue\n        /* \"FundMe/FundMe.sol\":905:920  convertEthToUsd */\n      tag_47\n        /* \"FundMe/FundMe.sol\":905:931  convertEthToUsd(msg.value) */\n      jump\t// in\n    tag_86:\n        /* \"FundMe/FundMe.sol\":905:944  convertEthToUsd(msg.value) >= MIN_VALUE */\n      lt\n      iszero\n        /* \"FundMe/FundMe.sol\":897:966  require(convertEthToUsd(msg.value) >= MIN_VALUE, \"Please send more!\") */\n      tag_87\n      jumpi\n      mload(0x40)\n      0x08c379a000000000000000000000000000000000000000000000000000000000\n      dup2\n      mstore\n      0x04\n      add\n      tag_88\n      swap1\n      tag_89\n      jump\t// in\n    tag_88:\n      mload(0x40)\n      dup1\n      swap2\n      sub\n      swap1\n      revert\n    tag_87:\n        /* \"FundMe/FundMe.sol\":1006:1015  msg.value */\n      callvalue\n        /* \"FundMe/FundMe.sol\":976:990  funderToAmount */\n      0x01\n        /* \"FundMe/FundMe.sol\":976:1002  funderToAmount[msg.sender] */\n      0x00\n        /* \"FundMe/FundMe.sol\":991:1001  msg.sender */\n      caller\n        /* \"FundMe/FundMe.sol\":976:1002  funderToAmount[msg.sender] */\n      0xffffffffffffffffffffffffffffffffffffffff\n      and\n      0xffffffffffffffffffffffffffffffffffffffff\n      and\n      dup2\n      mstore\n      0x20\n      add\n      swap1\n      dup2\n      mstore\n      0x20\n      add\n      0x00\n      keccak256\n      0x00\n        /* \"FundMe/FundMe.sol\":976:1015  funderToAmount[msg.sender] += msg.value */\n      dup3\n      dup3\n      sload\n      tag_90\n      swap2\n      swap1\n      tag_41\n      jump\t// in\n    tag_90:\n      swap3\n      pop\n      pop\n      dup2\n      swap1\n      sstore\n      pop\n        /* \"FundMe/FundMe.sol\":773:1022  function fund() external payable {... */\n      jump\t// out\n        /* \"FundMe/FundMe.sol\":1081:1419  function getChainlinkDataFeedLatestAnswer() public view returns (int) {... */\n    tag_32:\n        /* \"FundMe/FundMe.sol\":1146:1149  int */\n      0x00\n        /* \"FundMe/FundMe.sol\":1236:1246  int answer */\n      0x00\n        /* \"FundMe/FundMe.sol\":1363:1371  dataFeed */\n      0x00\n      0x00\n      swap1\n      sload\n      swap1\n      0x0100\n      exp\n      swap1\n      div\n      0xffffffffffffffffffffffffffffffffffffffff\n      and\n        /* \"FundMe/FundMe.sol\":1363:1387  dataFeed.latestRoundData */\n      0xffffffffffffffffffffffffffffffffffffffff\n      and\n      0xfeaf968c\n        /* \"FundMe/FundMe.sol\":1363:1389  dataFeed.latestRoundData() */\n      mload(0x40)\n      dup2\n      0xffffffff\n      and\n      0xe0\n      shl\n      dup2\n      mstore\n      0x04\n      add\n      0xa0\n      mload(0x40)\n      dup1\n      dup4\n      sub\n      dup2\n      dup7\n      gas\n      staticcall\n      iszero\n      dup1\n      iszero\n      tag_93\n      jumpi\n      returndatacopy(0x00, 0x00, returndatasize)\n      revert(0x00, returndatasize)\n    tag_93:\n      pop\n      pop\n      pop\n      pop\n      mload(0x40)\n      returndatasize\n      not(0x1f)\n      0x1f\n      dup3\n      add\n      and\n      dup3\n      add\n      dup1\n      0x40\n      mstore\n      pop\n      dup2\n      add\n      swap1\n      tag_94\n      swap2\n      swap1\n      tag_95\n      jump\t// in\n    tag_94:\n        /* \"FundMe/FundMe.sol\":1188:1389  (... */\n      pop\n      pop\n      pop\n      swap2\n      pop\n      pop\n        /* \"FundMe/FundMe.sol\":1406:1412  answer */\n      dup1\n        /* \"FundMe/FundMe.sol\":1399:1412  return answer */\n      swap2\n      pop\n      pop\n        /* \"FundMe/FundMe.sol\":1081:1419  function getChainlinkDataFeedLatestAnswer() public view returns (int) {... */\n      swap1\n      jump\t// out\n        /* \"FundMe/FundMe.sol\":1623:1718  function transferOwnership(address newOwner) public onlyOwner {... */\n    tag_38:\n        /* \"FundMe/FundMe.sol\":2708:2718  msg.sender */\n      caller\n        /* \"FundMe/FundMe.sol\":2699:2718  owner == msg.sender */\n      0xffffffffffffffffffffffffffffffffffffffff\n      and\n        /* \"FundMe/FundMe.sol\":2699:2704  owner */\n      0x02\n      0x00\n      swap1\n      sload\n      swap1\n      0x0100\n      exp\n      swap1\n      div\n      0xffffffffffffffffffffffffffffffffffffffff\n      and\n        /* \"FundMe/FundMe.sol\":2699:2718  owner == msg.sender */\n      0xffffffffffffffffffffffffffffffffffffffff\n      and\n      eq\n        /* \"FundMe/FundMe.sol\":2691:2734  require(owner == msg.sender, \"Owner only!\") */\n      tag_97\n      jumpi\n      mload(0x40)\n      0x08c379a000000000000000000000000000000000000000000000000000000000\n      dup2\n      mstore\n      0x04\n      add\n      tag_98\n      swap1\n      tag_65\n      jump\t// in\n    tag_98:\n      mload(0x40)\n      dup1\n      swap2\n      sub\n      swap1\n      revert\n    tag_97:\n        /* \"FundMe/FundMe.sol\":1703:1711  newOwner */\n      dup1\n        /* \"FundMe/FundMe.sol\":1695:1700  owner */\n      0x02\n      0x00\n        /* \"FundMe/FundMe.sol\":1695:1711  owner = newOwner */\n      0x0100\n      exp\n      dup2\n      sload\n      dup2\n      0xffffffffffffffffffffffffffffffffffffffff\n      mul\n      not\n      and\n      swap1\n      dup4\n      0xffffffffffffffffffffffffffffffffffffffff\n      and\n      mul\n      or\n      swap1\n      sstore\n      pop\n        /* \"FundMe/FundMe.sol\":1623:1718  function transferOwnership(address newOwner) public onlyOwner {... */\n      pop\n      jump\t// out\n        /* \"FundMe/FundMe.sol\":1425:1617  function convertEthToUsd(uint256 ethAmount) internal view returns (uint256) {... */\n    tag_47:\n        /* \"FundMe/FundMe.sol\":1492:1499  uint256 */\n      0x00\n        /* \"FundMe/FundMe.sol\":1511:1527  uint256 ethPrice */\n      0x00\n        /* \"FundMe/FundMe.sol\":1538:1572  getChainlinkDataFeedLatestAnswer() */\n      tag_101\n        /* \"FundMe/FundMe.sol\":1538:1570  getChainlinkDataFeedLatestAnswer */\n      tag_32\n        /* \"FundMe/FundMe.sol\":1538:1572  getChainlinkDataFeedLatestAnswer() */\n      jump\t// in\n    tag_101:\n        /* \"FundMe/FundMe.sol\":1511:1573  uint256 ethPrice = uint256(getChainlinkDataFeedLatestAnswer()) */\n      swap1\n      pop\n        /* \"FundMe/FundMe.sol\":1602:1610  ethPrice */\n      dup1\n        /* \"FundMe/FundMe.sol\":1590:1599  ethAmount */\n      dup4\n        /* \"FundMe/FundMe.sol\":1590:1610  ethAmount * ethPrice */\n      tag_102\n      swap2\n      swap1\n      tag_103\n      jump\t// in\n    tag_102:\n        /* \"FundMe/FundMe.sol\":1583:1610  return ethAmount * ethPrice */\n      swap2\n      pop\n      pop\n        /* \"FundMe/FundMe.sol\":1425:1617  function convertEthToUsd(uint256 ethAmount) internal view returns (uint256) {... */\n      swap2\n      swap1\n      pop\n      jump\t// out\n        /* \"#utility.yul\":88:205   */\n    tag_105:\n        /* \"#utility.yul\":197:198   */\n      0x00\n        /* \"#utility.yul\":194:195   */\n      0x00\n        /* \"#utility.yul\":187:199   */\n      revert\n        /* \"#utility.yul\":334:460   */\n    tag_107:\n        /* \"#utility.yul\":371:378   */\n      0x00\n        /* \"#utility.yul\":411:453   */\n      0xffffffffffffffffffffffffffffffffffffffff\n        /* \"#utility.yul\":404:409   */\n      dup3\n        /* \"#utility.yul\":400:454   */\n      and\n        /* \"#utility.yul\":389:454   */\n      swap1\n      pop\n        /* \"#utility.yul\":334:460   */\n      swap2\n      swap1\n      pop\n      jump\t// out\n        /* \"#utility.yul\":466:562   */\n    tag_108:\n        /* \"#utility.yul\":503:510   */\n      0x00\n        /* \"#utility.yul\":532:556   */\n      tag_150\n        /* \"#utility.yul\":550:555   */\n      dup3\n        /* \"#utility.yul\":532:556   */\n      tag_107\n      jump\t// in\n    tag_150:\n        /* \"#utility.yul\":521:556   */\n      swap1\n      pop\n        /* \"#utility.yul\":466:562   */\n      swap2\n      swap1\n      pop\n      jump\t// out\n        /* \"#utility.yul\":568:690   */\n    tag_109:\n        /* \"#utility.yul\":641:665   */\n      tag_152\n        /* \"#utility.yul\":659:664   */\n      dup2\n        /* \"#utility.yul\":641:665   */\n      tag_108\n      jump\t// in\n    tag_152:\n        /* \"#utility.yul\":634:639   */\n      dup2\n        /* \"#utility.yul\":631:666   */\n      eq\n        /* \"#utility.yul\":621:684   */\n      tag_153\n      jumpi\n        /* \"#utility.yul\":680:681   */\n      0x00\n        /* \"#utility.yul\":677:678   */\n      0x00\n        /* \"#utility.yul\":670:682   */\n      revert\n        /* \"#utility.yul\":621:684   */\n    tag_153:\n        /* \"#utility.yul\":568:690   */\n      pop\n      jump\t// out\n        /* \"#utility.yul\":696:835   */\n    tag_110:\n        /* \"#utility.yul\":742:747   */\n      0x00\n        /* \"#utility.yul\":780:786   */\n      dup2\n        /* \"#utility.yul\":767:787   */\n      calldataload\n        /* \"#utility.yul\":758:787   */\n      swap1\n      pop\n        /* \"#utility.yul\":796:829   */\n      tag_155\n        /* \"#utility.yul\":823:828   */\n      dup2\n        /* \"#utility.yul\":796:829   */\n      tag_109\n      jump\t// in\n    tag_155:\n        /* \"#utility.yul\":696:835   */\n      swap3\n      swap2\n      pop\n      pop\n      jump\t// out\n        /* \"#utility.yul\":841:1170   */\n    tag_13:\n        /* \"#utility.yul\":900:906   */\n      0x00\n        /* \"#utility.yul\":949:951   */\n      0x20\n        /* \"#utility.yul\":937:946   */\n      dup3\n        /* \"#utility.yul\":928:935   */\n      dup5\n        /* \"#utility.yul\":924:947   */\n      sub\n        /* \"#utility.yul\":920:952   */\n      slt\n        /* \"#utility.yul\":917:1036   */\n      iszero\n      tag_157\n      jumpi\n        /* \"#utility.yul\":955:1034   */\n      tag_158\n      tag_105\n      jump\t// in\n    tag_158:\n        /* \"#utility.yul\":917:1036   */\n    tag_157:\n        /* \"#utility.yul\":1075:1076   */\n      0x00\n        /* \"#utility.yul\":1100:1153   */\n      tag_159\n        /* \"#utility.yul\":1145:1152   */\n      dup5\n        /* \"#utility.yul\":1136:1142   */\n      dup3\n        /* \"#utility.yul\":1125:1134   */\n      dup6\n        /* \"#utility.yul\":1121:1143   */\n      add\n        /* \"#utility.yul\":1100:1153   */\n      tag_110\n      jump\t// in\n    tag_159:\n        /* \"#utility.yul\":1090:1153   */\n      swap2\n      pop\n        /* \"#utility.yul\":1046:1163   */\n      pop\n        /* \"#utility.yul\":841:1170   */\n      swap3\n      swap2\n      pop\n      pop\n      jump\t// out\n        /* \"#utility.yul\":1176:1253   */\n    tag_111:\n        /* \"#utility.yul\":1213:1220   */\n      0x00\n        /* \"#utility.yul\":1242:1247   */\n      dup2\n        /* \"#utility.yul\":1231:1247   */\n      swap1\n      pop\n        /* \"#utility.yul\":1176:1253   */\n      swap2\n      swap1\n      pop\n      jump\t// out\n        /* \"#utility.yul\":1259:1377   */\n    tag_112:\n        /* \"#utility.yul\":1346:1370   */\n      tag_162\n        /* \"#utility.yul\":1364:1369   */\n      dup2\n        /* \"#utility.yul\":1346:1370   */\n      tag_111\n      jump\t// in\n    tag_162:\n        /* \"#utility.yul\":1341:1344   */\n      dup3\n        /* \"#utility.yul\":1334:1371   */\n      mstore\n        /* \"#utility.yul\":1259:1377   */\n      pop\n      pop\n      jump\t// out\n        /* \"#utility.yul\":1383:1605   */\n    tag_16:\n        /* \"#utility.yul\":1476:1480   */\n      0x00\n        /* \"#utility.yul\":1514:1516   */\n      0x20\n        /* \"#utility.yul\":1503:1512   */\n      dup3\n        /* \"#utility.yul\":1499:1517   */\n      add\n        /* \"#utility.yul\":1491:1517   */\n      swap1\n      pop\n        /* \"#utility.yul\":1527:1598   */\n      tag_164\n        /* \"#utility.yul\":1595:1596   */\n      0x00\n        /* \"#utility.yul\":1584:1593   */\n      dup4\n        /* \"#utility.yul\":1580:1597   */\n      add\n        /* \"#utility.yul\":1571:1577   */\n      dup5\n        /* \"#utility.yul\":1527:1598   */\n      tag_112\n      jump\t// in\n    tag_164:\n        /* \"#utility.yul\":1383:1605   */\n      swap3\n      swap2\n      pop\n      pop\n      jump\t// out\n        /* \"#utility.yul\":1611:1729   */\n    tag_113:\n        /* \"#utility.yul\":1698:1722   */\n      tag_166\n        /* \"#utility.yul\":1716:1721   */\n      dup2\n        /* \"#utility.yul\":1698:1722   */\n      tag_108\n      jump\t// in\n    tag_166:\n        /* \"#utility.yul\":1693:1696   */\n      dup3\n        /* \"#utility.yul\":1686:1723   */\n      mstore\n        /* \"#utility.yul\":1611:1729   */\n      pop\n      pop\n      jump\t// out\n        /* \"#utility.yul\":1735:1957   */\n    tag_24:\n        /* \"#utility.yul\":1828:1832   */\n      0x00\n        /* \"#utility.yul\":1866:1868   */\n      0x20\n        /* \"#utility.yul\":1855:1864   */\n      dup3\n        /* \"#utility.yul\":1851:1869   */\n      add\n        /* \"#utility.yul\":1843:1869   */\n      swap1\n      pop\n        /* \"#utility.yul\":1879:1950   */\n      tag_168\n        /* \"#utility.yul\":1947:1948   */\n      0x00\n        /* \"#utility.yul\":1936:1945   */\n      dup4\n        /* \"#utility.yul\":1932:1949   */\n      add\n        /* \"#utility.yul\":1923:1929   */\n      dup5\n        /* \"#utility.yul\":1879:1950   */\n      tag_113\n      jump\t// in\n    tag_168:\n        /* \"#utility.yul\":1735:1957   */\n      swap3\n      swap2\n      pop\n      pop\n      jump\t// out\n        /* \"#utility.yul\":1963:2039   */\n    tag_114:\n        /* \"#utility.yul\":1999:2006   */\n      0x00\n        /* \"#utility.yul\":2028:2033   */\n      dup2\n        /* \"#utility.yul\":2017:2033   */\n      swap1\n      pop\n        /* \"#utility.yul\":1963:2039   */\n      swap2\n      swap1\n      pop\n      jump\t// out\n        /* \"#utility.yul\":2045:2160   */\n    tag_115:\n        /* \"#utility.yul\":2130:2153   */\n      tag_171\n        /* \"#utility.yul\":2147:2152   */\n      dup2\n        /* \"#utility.yul\":2130:2153   */\n      tag_114\n      jump\t// in\n    tag_171:\n        /* \"#utility.yul\":2125:2128   */\n      dup3\n        /* \"#utility.yul\":2118:2154   */\n      mstore\n        /* \"#utility.yul\":2045:2160   */\n      pop\n      pop\n      jump\t// out\n        /* \"#utility.yul\":2166:2384   */\n    tag_34:\n        /* \"#utility.yul\":2257:2261   */\n      0x00\n        /* \"#utility.yul\":2295:2297   */\n      0x20\n        /* \"#utility.yul\":2284:2293   */\n      dup3\n        /* \"#utility.yul\":2280:2298   */\n      add\n        /* \"#utility.yul\":2272:2298   */\n      swap1\n      pop\n        /* \"#utility.yul\":2308:2377   */\n      tag_173\n        /* \"#utility.yul\":2374:2375   */\n      0x00\n        /* \"#utility.yul\":2363:2372   */\n      dup4\n        /* \"#utility.yul\":2359:2376   */\n      add\n        /* \"#utility.yul\":2350:2356   */\n      dup5\n        /* \"#utility.yul\":2308:2377   */\n      tag_115\n      jump\t// in\n    tag_173:\n        /* \"#utility.yul\":2166:2384   */\n      swap3\n      swap2\n      pop\n      pop\n      jump\t// out\n        /* \"#utility.yul\":2390:2570   */\n    tag_116:\n        /* \"#utility.yul\":2438:2515   */\n      0x4e487b7100000000000000000000000000000000000000000000000000000000\n        /* \"#utility.yul\":2435:2436   */\n      0x00\n        /* \"#utility.yul\":2428:2516   */\n      mstore\n        /* \"#utility.yul\":2535:2539   */\n      0x11\n        /* \"#utility.yul\":2532:2533   */\n      0x04\n        /* \"#utility.yul\":2525:2540   */\n      mstore\n        /* \"#utility.yul\":2559:2563   */\n      0x24\n        /* \"#utility.yul\":2556:2557   */\n      0x00\n        /* \"#utility.yul\":2549:2564   */\n      revert\n        /* \"#utility.yul\":2576:2767   */\n    tag_41:\n        /* \"#utility.yul\":2616:2619   */\n      0x00\n        /* \"#utility.yul\":2635:2655   */\n      tag_176\n        /* \"#utility.yul\":2653:2654   */\n      dup3\n        /* \"#utility.yul\":2635:2655   */\n      tag_111\n      jump\t// in\n    tag_176:\n        /* \"#utility.yul\":2630:2655   */\n      swap2\n      pop\n        /* \"#utility.yul\":2669:2689   */\n      tag_177\n        /* \"#utility.yul\":2687:2688   */\n      dup4\n        /* \"#utility.yul\":2669:2689   */\n      tag_111\n      jump\t// in\n    tag_177:\n        /* \"#utility.yul\":2664:2689   */\n      swap3\n      pop\n        /* \"#utility.yul\":2712:2713   */\n      dup3\n        /* \"#utility.yul\":2709:2710   */\n      dup3\n        /* \"#utility.yul\":2705:2714   */\n      add\n        /* \"#utility.yul\":2698:2714   */\n      swap1\n      pop\n        /* \"#utility.yul\":2733:2736   */\n      dup1\n        /* \"#utility.yul\":2730:2731   */\n      dup3\n        /* \"#utility.yul\":2727:2737   */\n      gt\n        /* \"#utility.yul\":2724:2760   */\n      iszero\n      tag_178\n      jumpi\n        /* \"#utility.yul\":2740:2758   */\n      tag_179\n      tag_116\n      jump\t// in\n    tag_179:\n        /* \"#utility.yul\":2724:2760   */\n    tag_178:\n        /* \"#utility.yul\":2576:2767   */\n      swap3\n      swap2\n      pop\n      pop\n      jump\t// out\n        /* \"#utility.yul\":2773:2942   */\n    tag_117:\n        /* \"#utility.yul\":2857:2868   */\n      0x00\n        /* \"#utility.yul\":2891:2897   */\n      dup3\n        /* \"#utility.yul\":2886:2889   */\n      dup3\n        /* \"#utility.yul\":2879:2898   */\n      mstore\n        /* \"#utility.yul\":2931:2935   */\n      0x20\n        /* \"#utility.yul\":2926:2929   */\n      dup3\n        /* \"#utility.yul\":2922:2936   */\n      add\n        /* \"#utility.yul\":2907:2936   */\n      swap1\n      pop\n        /* \"#utility.yul\":2773:2942   */\n      swap3\n      swap2\n      pop\n      pop\n      jump\t// out\n        /* \"#utility.yul\":2948:3116   */\n    tag_118:\n        /* \"#utility.yul\":3088:3108   */\n      0x57696e646f77206e6f7420636c6f736564210000000000000000000000000000\n        /* \"#utility.yul\":3084:3085   */\n      0x00\n        /* \"#utility.yul\":3076:3082   */\n      dup3\n        /* \"#utility.yul\":3072:3086   */\n      add\n        /* \"#utility.yul\":3065:3109   */\n      mstore\n        /* \"#utility.yul\":2948:3116   */\n      pop\n      jump\t// out\n        /* \"#utility.yul\":3122:3488   */\n    tag_119:\n        /* \"#utility.yul\":3264:3267   */\n      0x00\n        /* \"#utility.yul\":3285:3352   */\n      tag_183\n        /* \"#utility.yul\":3349:3351   */\n      0x12\n        /* \"#utility.yul\":3344:3347   */\n      dup4\n        /* \"#utility.yul\":3285:3352   */\n      tag_117\n      jump\t// in\n    tag_183:\n        /* \"#utility.yul\":3278:3352   */\n      swap2\n      pop\n        /* \"#utility.yul\":3361:3454   */\n      tag_184\n        /* \"#utility.yul\":3450:3453   */\n      dup3\n        /* \"#utility.yul\":3361:3454   */\n      tag_118\n      jump\t// in\n    tag_184:\n        /* \"#utility.yul\":3479:3481   */\n      0x20\n        /* \"#utility.yul\":3474:3477   */\n      dup3\n        /* \"#utility.yul\":3470:3482   */\n      add\n        /* \"#utility.yul\":3463:3482   */\n      swap1\n      pop\n        /* \"#utility.yul\":3122:3488   */\n      swap2\n      swap1\n      pop\n      jump\t// out\n        /* \"#utility.yul\":3494:3913   */\n    tag_44:\n        /* \"#utility.yul\":3660:3664   */\n      0x00\n        /* \"#utility.yul\":3698:3700   */\n      0x20\n        /* \"#utility.yul\":3687:3696   */\n      dup3\n        /* \"#utility.yul\":3683:3701   */\n      add\n        /* \"#utility.yul\":3675:3701   */\n      swap1\n      pop\n        /* \"#utility.yul\":3747:3756   */\n      dup2\n        /* \"#utility.yul\":3741:3745   */\n      dup2\n        /* \"#utility.yul\":3737:3757   */\n      sub\n        /* \"#utility.yul\":3733:3734   */\n      0x00\n        /* \"#utility.yul\":3722:3731   */\n      dup4\n        /* \"#utility.yul\":3718:3735   */\n      add\n        /* \"#utility.yul\":3711:3758   */\n      mstore\n        /* \"#utility.yul\":3775:3906   */\n      tag_186\n        /* \"#utility.yul\":3901:3905   */\n      dup2\n        /* \"#utility.yul\":3775:3906   */\n      tag_119\n      jump\t// in\n    tag_186:\n        /* \"#utility.yul\":3767:3906   */\n      swap1\n      pop\n        /* \"#utility.yul\":3494:3913   */\n      swap2\n      swap1\n      pop\n      jump\t// out\n        /* \"#utility.yul\":3919:4087   */\n    tag_120:\n        /* \"#utility.yul\":4059:4079   */\n      0x5461726765742069732072656163686564210000000000000000000000000000\n        /* \"#utility.yul\":4055:4056   */\n      0x00\n        /* \"#utility.yul\":4047:4053   */\n      dup3\n        /* \"#utility.yul\":4043:4057   */\n      add\n        /* \"#utility.yul\":4036:4080   */\n      mstore\n        /* \"#utility.yul\":3919:4087   */\n      pop\n      jump\t// out\n        /* \"#utility.yul\":4093:4459   */\n    tag_121:\n        /* \"#utility.yul\":4235:4238   */\n      0x00\n        /* \"#utility.yul\":4256:4323   */\n      tag_189\n        /* \"#utility.yul\":4320:4322   */\n      0x12\n        /* \"#utility.yul\":4315:4318   */\n      dup4\n        /* \"#utility.yul\":4256:4323   */\n      tag_117\n      jump\t// in\n    tag_189:\n        /* \"#utility.yul\":4249:4323   */\n      swap2\n      pop\n        /* \"#utility.yul\":4332:4425   */\n      tag_190\n        /* \"#utility.yul\":4421:4424   */\n      dup3\n        /* \"#utility.yul\":4332:4425   */\n      tag_120\n      jump\t// in\n    tag_190:\n        /* \"#utility.yul\":4450:4452   */\n      0x20\n        /* \"#utility.yul\":4445:4448   */\n      dup3\n        /* \"#utility.yul\":4441:4453   */\n      add\n        /* \"#utility.yul\":4434:4453   */\n      swap1\n      pop\n        /* \"#utility.yul\":4093:4459   */\n      swap2\n      swap1\n      pop\n      jump\t// out\n        /* \"#utility.yul\":4465:4884   */\n    tag_50:\n        /* \"#utility.yul\":4631:4635   */\n      0x00\n        /* \"#utility.yul\":4669:4671   */\n      0x20\n        /* \"#utility.yul\":4658:4667   */\n      dup3\n        /* \"#utility.yul\":4654:4672   */\n      add\n        /* \"#utility.yul\":4646:4672   */\n      swap1\n      pop\n        /* \"#utility.yul\":4718:4727   */\n      dup2\n        /* \"#utility.yul\":4712:4716   */\n      dup2\n        /* \"#utility.yul\":4708:4728   */\n      sub\n        /* \"#utility.yul\":4704:4705   */\n      0x00\n        /* \"#utility.yul\":4693:4702   */\n      dup4\n        /* \"#utility.yul\":4689:4706   */\n      add\n        /* \"#utility.yul\":4682:4729   */\n      mstore\n        /* \"#utility.yul\":4746:4877   */\n      tag_192\n        /* \"#utility.yul\":4872:4876   */\n      dup2\n        /* \"#utility.yul\":4746:4877   */\n      tag_121\n      jump\t// in\n    tag_192:\n        /* \"#utility.yul\":4738:4877   */\n      swap1\n      pop\n        /* \"#utility.yul\":4465:4884   */\n      swap2\n      swap1\n      pop\n      jump\t// out\n        /* \"#utility.yul\":4890:5057   */\n    tag_122:\n        /* \"#utility.yul\":5030:5049   */\n      0x596f7520686176656e27742066756e6421000000000000000000000000000000\n        /* \"#utility.yul\":5026:5027   */\n      0x00\n        /* \"#utility.yul\":5018:5024   */\n      dup3\n        /* \"#utility.yul\":5014:5028   */\n      add\n        /* \"#utility.yul\":5007:5050   */\n      mstore\n        /* \"#utility.yul\":4890:5057   */\n      pop\n      jump\t// out\n        /* \"#utility.yul\":5063:5429   */\n    tag_123:\n        /* \"#utility.yul\":5205:5208   */\n      0x00\n        /* \"#utility.yul\":5226:5293   */\n      tag_195\n        /* \"#utility.yul\":5290:5292   */\n      0x11\n        /* \"#utility.yul\":5285:5288   */\n      dup4\n        /* \"#utility.yul\":5226:5293   */\n      tag_117\n      jump\t// in\n    tag_195:\n        /* \"#utility.yul\":5219:5293   */\n      swap2\n      pop\n        /* \"#utility.yul\":5302:5395   */\n      tag_196\n        /* \"#utility.yul\":5391:5394   */\n      dup3\n        /* \"#utility.yul\":5302:5395   */\n      tag_122\n      jump\t// in\n    tag_196:\n        /* \"#utility.yul\":5420:5422   */\n      0x20\n        /* \"#utility.yul\":5415:5418   */\n      dup3\n        /* \"#utility.yul\":5411:5423   */\n      add\n        /* \"#utility.yul\":5404:5423   */\n      swap1\n      pop\n        /* \"#utility.yul\":5063:5429   */\n      swap2\n      swap1\n      pop\n      jump\t// out\n        /* \"#utility.yul\":5435:5854   */\n    tag_53:\n        /* \"#utility.yul\":5601:5605   */\n      0x00\n        /* \"#utility.yul\":5639:5641   */\n      0x20\n        /* \"#utility.yul\":5628:5637   */\n      dup3\n        /* \"#utility.yul\":5624:5642   */\n      add\n        /* \"#utility.yul\":5616:5642   */\n      swap1\n      pop\n        /* \"#utility.yul\":5688:5697   */\n      dup2\n        /* \"#utility.yul\":5682:5686   */\n      dup2\n        /* \"#utility.yul\":5678:5698   */\n      sub\n        /* \"#utility.yul\":5674:5675   */\n      0x00\n        /* \"#utility.yul\":5663:5672   */\n      dup4\n        /* \"#utility.yul\":5659:5676   */\n      add\n        /* \"#utility.yul\":5652:5699   */\n      mstore\n        /* \"#utility.yul\":5716:5847   */\n      tag_198\n        /* \"#utility.yul\":5842:5846   */\n      dup2\n        /* \"#utility.yul\":5716:5847   */\n      tag_123\n      jump\t// in\n    tag_198:\n        /* \"#utility.yul\":5708:5847   */\n      swap1\n      pop\n        /* \"#utility.yul\":5435:5854   */\n      swap2\n      swap1\n      pop\n      jump\t// out\n        /* \"#utility.yul\":5860:6007   */\n    tag_124:\n        /* \"#utility.yul\":5961:5972   */\n      0x00\n        /* \"#utility.yul\":5998:6001   */\n      dup2\n        /* \"#utility.yul\":5983:6001   */\n      swap1\n      pop\n        /* \"#utility.yul\":5860:6007   */\n      swap3\n      swap2\n      pop\n      pop\n      jump\t// out\n        /* \"#utility.yul\":6013:6127   */\n    tag_125:\n      pop\n      jump\t// out\n        /* \"#utility.yul\":6133:6531   */\n    tag_126:\n        /* \"#utility.yul\":6292:6295   */\n      0x00\n        /* \"#utility.yul\":6313:6396   */\n      tag_202\n        /* \"#utility.yul\":6394:6395   */\n      0x00\n        /* \"#utility.yul\":6389:6392   */\n      dup4\n        /* \"#utility.yul\":6313:6396   */\n      tag_124\n      jump\t// in\n    tag_202:\n        /* \"#utility.yul\":6306:6396   */\n      swap2\n      pop\n        /* \"#utility.yul\":6405:6498   */\n      tag_203\n        /* \"#utility.yul\":6494:6497   */\n      dup3\n        /* \"#utility.yul\":6405:6498   */\n      tag_125\n      jump\t// in\n    tag_203:\n        /* \"#utility.yul\":6523:6524   */\n      0x00\n        /* \"#utility.yul\":6518:6521   */\n      dup3\n        /* \"#utility.yul\":6514:6525   */\n      add\n        /* \"#utility.yul\":6507:6525   */\n      swap1\n      pop\n        /* \"#utility.yul\":6133:6531   */\n      swap2\n      swap1\n      pop\n      jump\t// out\n        /* \"#utility.yul\":6537:6916   */\n    tag_55:\n        /* \"#utility.yul\":6721:6724   */\n      0x00\n        /* \"#utility.yul\":6743:6890   */\n      tag_205\n        /* \"#utility.yul\":6886:6889   */\n      dup3\n        /* \"#utility.yul\":6743:6890   */\n      tag_126\n      jump\t// in\n    tag_205:\n        /* \"#utility.yul\":6736:6890   */\n      swap2\n      pop\n        /* \"#utility.yul\":6907:6910   */\n      dup2\n        /* \"#utility.yul\":6900:6910   */\n      swap1\n      pop\n        /* \"#utility.yul\":6537:6916   */\n      swap2\n      swap1\n      pop\n      jump\t// out\n        /* \"#utility.yul\":6922:7091   */\n    tag_127:\n        /* \"#utility.yul\":7062:7083   */\n      0x5472616e73666572207478206661696c65642100000000000000000000000000\n        /* \"#utility.yul\":7058:7059   */\n      0x00\n        /* \"#utility.yul\":7050:7056   */\n      dup3\n        /* \"#utility.yul\":7046:7060   */\n      add\n        /* \"#utility.yul\":7039:7084   */\n      mstore\n        /* \"#utility.yul\":6922:7091   */\n      pop\n      jump\t// out\n        /* \"#utility.yul\":7097:7463   */\n    tag_128:\n        /* \"#utility.yul\":7239:7242   */\n      0x00\n        /* \"#utility.yul\":7260:7327   */\n      tag_208\n        /* \"#utility.yul\":7324:7326   */\n      0x13\n        /* \"#utility.yul\":7319:7322   */\n      dup4\n        /* \"#utility.yul\":7260:7327   */\n      tag_117\n      jump\t// in\n    tag_208:\n        /* \"#utility.yul\":7253:7327   */\n      swap2\n      pop\n        /* \"#utility.yul\":7336:7429   */\n      tag_209\n        /* \"#utility.yul\":7425:7428   */\n      dup3\n        /* \"#utility.yul\":7336:7429   */\n      tag_127\n      jump\t// in\n    tag_209:\n        /* \"#utility.yul\":7454:7456   */\n      0x20\n        /* \"#utility.yul\":7449:7452   */\n      dup3\n        /* \"#utility.yul\":7445:7457   */\n      add\n        /* \"#utility.yul\":7438:7457   */\n      swap1\n      pop\n        /* \"#utility.yul\":7097:7463   */\n      swap2\n      swap1\n      pop\n      jump\t// out\n        /* \"#utility.yul\":7469:7888   */\n    tag_61:\n        /* \"#utility.yul\":7635:7639   */\n      0x00\n        /* \"#utility.yul\":7673:7675   */\n      0x20\n        /* \"#utility.yul\":7662:7671   */\n      dup3\n        /* \"#utility.yul\":7658:7676   */\n      add\n        /* \"#utility.yul\":7650:7676   */\n      swap1\n      pop\n        /* \"#utility.yul\":7722:7731   */\n      dup2\n        /* \"#utility.yul\":7716:7720   */\n      dup2\n        /* \"#utility.yul\":7712:7732   */\n      sub\n        /* \"#utility.yul\":7708:7709   */\n      0x00\n        /* \"#utility.yul\":7697:7706   */\n      dup4\n        /* \"#utility.yul\":7693:7710   */\n      add\n        /* \"#utility.yul\":7686:7733   */\n      mstore\n        /* \"#utility.yul\":7750:7881   */\n      tag_211\n        /* \"#utility.yul\":7876:7880   */\n      dup2\n        /* \"#utility.yul\":7750:7881   */\n      tag_128\n      jump\t// in\n    tag_211:\n        /* \"#utility.yul\":7742:7881   */\n      swap1\n      pop\n        /* \"#utility.yul\":7469:7888   */\n      swap2\n      swap1\n      pop\n      jump\t// out\n        /* \"#utility.yul\":7894:8055   */\n    tag_129:\n        /* \"#utility.yul\":8034:8047   */\n      0x4f776e6572206f6e6c7921000000000000000000000000000000000000000000\n        /* \"#utility.yul\":8030:8031   */\n      0x00\n        /* \"#utility.yul\":8022:8028   */\n      dup3\n        /* \"#utility.yul\":8018:8032   */\n      add\n        /* \"#utility.yul\":8011:8048   */\n      mstore\n        /* \"#utility.yul\":7894:8055   */\n      pop\n      jump\t// out\n        /* \"#utility.yul\":8061:8427   */\n    tag_130:\n        /* \"#utility.yul\":8203:8206   */\n      0x00\n        /* \"#utility.yul\":8224:8291   */\n      tag_214\n        /* \"#utility.yul\":8288:8290   */\n      0x0b\n        /* \"#utility.yul\":8283:8286   */\n      dup4\n        /* \"#utility.yul\":8224:8291   */\n      tag_117\n      jump\t// in\n    tag_214:\n        /* \"#utility.yul\":8217:8291   */\n      swap2\n      pop\n        /* \"#utility.yul\":8300:8393   */\n      tag_215\n        /* \"#utility.yul\":8389:8392   */\n      dup3\n        /* \"#utility.yul\":8300:8393   */\n      tag_129\n      jump\t// in\n    tag_215:\n        /* \"#utility.yul\":8418:8420   */\n      0x20\n        /* \"#utility.yul\":8413:8416   */\n      dup3\n        /* \"#utility.yul\":8409:8421   */\n      add\n        /* \"#utility.yul\":8402:8421   */\n      swap1\n      pop\n        /* \"#utility.yul\":8061:8427   */\n      swap2\n      swap1\n      pop\n      jump\t// out\n        /* \"#utility.yul\":8433:8852   */\n    tag_65:\n        /* \"#utility.yul\":8599:8603   */\n      0x00\n        /* \"#utility.yul\":8637:8639   */\n      0x20\n        /* \"#utility.yul\":8626:8635   */\n      dup3\n        /* \"#utility.yul\":8622:8640   */\n      add\n        /* \"#utility.yul\":8614:8640   */\n      swap1\n      pop\n        /* \"#utility.yul\":8686:8695   */\n      dup2\n        /* \"#utility.yul\":8680:8684   */\n      dup2\n        /* \"#utility.yul\":8676:8696   */\n      sub\n        /* \"#utility.yul\":8672:8673   */\n      0x00\n        /* \"#utility.yul\":8661:8670   */\n      dup4\n        /* \"#utility.yul\":8657:8674   */\n      add\n        /* \"#utility.yul\":8650:8697   */\n      mstore\n        /* \"#utility.yul\":8714:8845   */\n      tag_217\n        /* \"#utility.yul\":8840:8844   */\n      dup2\n        /* \"#utility.yul\":8714:8845   */\n      tag_130\n      jump\t// in\n    tag_217:\n        /* \"#utility.yul\":8706:8845   */\n      swap1\n      pop\n        /* \"#utility.yul\":8433:8852   */\n      swap2\n      swap1\n      pop\n      jump\t// out\n        /* \"#utility.yul\":8858:9030   */\n    tag_131:\n        /* \"#utility.yul\":8998:9022   */\n      0x546172676574206973206e6f7420726561636865642100000000000000000000\n        /* \"#utility.yul\":8994:8995   */\n      0x00\n        /* \"#utility.yul\":8986:8992   */\n      dup3\n        /* \"#utility.yul\":8982:8996   */\n      add\n        /* \"#utility.yul\":8975:9023   */\n      mstore\n        /* \"#utility.yul\":8858:9030   */\n      pop\n      jump\t// out\n        /* \"#utility.yul\":9036:9402   */\n    tag_132:\n        /* \"#utility.yul\":9178:9181   */\n      0x00\n        /* \"#utility.yul\":9199:9266   */\n      tag_220\n        /* \"#utility.yul\":9263:9265   */\n      0x16\n        /* \"#utility.yul\":9258:9261   */\n      dup4\n        /* \"#utility.yul\":9199:9266   */\n      tag_117\n      jump\t// in\n    tag_220:\n        /* \"#utility.yul\":9192:9266   */\n      swap2\n      pop\n        /* \"#utility.yul\":9275:9368   */\n      tag_221\n        /* \"#utility.yul\":9364:9367   */\n      dup3\n        /* \"#utility.yul\":9275:9368   */\n      tag_131\n      jump\t// in\n    tag_221:\n        /* \"#utility.yul\":9393:9395   */\n      0x20\n        /* \"#utility.yul\":9388:9391   */\n      dup3\n        /* \"#utility.yul\":9384:9396   */\n      add\n        /* \"#utility.yul\":9377:9396   */\n      swap1\n      pop\n        /* \"#utility.yul\":9036:9402   */\n      swap2\n      swap1\n      pop\n      jump\t// out\n        /* \"#utility.yul\":9408:9827   */\n    tag_74:\n        /* \"#utility.yul\":9574:9578   */\n      0x00\n        /* \"#utility.yul\":9612:9614   */\n      0x20\n        /* \"#utility.yul\":9601:9610   */\n      dup3\n        /* \"#utility.yul\":9597:9615   */\n      add\n        /* \"#utility.yul\":9589:9615   */\n      swap1\n      pop\n        /* \"#utility.yul\":9661:9670   */\n      dup2\n        /* \"#utility.yul\":9655:9659   */\n      dup2\n        /* \"#utility.yul\":9651:9671   */\n      sub\n        /* \"#utility.yul\":9647:9648   */\n      0x00\n        /* \"#utility.yul\":9636:9645   */\n      dup4\n        /* \"#utility.yul\":9632:9649   */\n      add\n        /* \"#utility.yul\":9625:9672   */\n      mstore\n        /* \"#utility.yul\":9689:9820   */\n      tag_223\n        /* \"#utility.yul\":9815:9819   */\n      dup2\n        /* \"#utility.yul\":9689:9820   */\n      tag_132\n      jump\t// in\n    tag_223:\n        /* \"#utility.yul\":9681:9820   */\n      swap1\n      pop\n        /* \"#utility.yul\":9408:9827   */\n      swap2\n      swap1\n      pop\n      jump\t// out\n        /* \"#utility.yul\":9833:9997   */\n    tag_133:\n        /* \"#utility.yul\":9973:9989   */\n      0x57696e646f7720636c6f73656421000000000000000000000000000000000000\n        /* \"#utility.yul\":9969:9970   */\n      0x00\n        /* \"#utility.yul\":9961:9967   */\n      dup3\n        /* \"#utility.yul\":9957:9971   */\n      add\n        /* \"#utility.yul\":9950:9990   */\n      mstore\n        /* \"#utility.yul\":9833:9997   */\n      pop\n      jump\t// out\n        /* \"#utility.yul\":10003:10369   */\n    tag_134:\n        /* \"#utility.yul\":10145:10148   */\n      0x00\n        /* \"#utility.yul\":10166:10233   */\n      tag_226\n        /* \"#utility.yul\":10230:10232   */\n      0x0e\n        /* \"#utility.yul\":10225:10228   */\n      dup4\n        /* \"#utility.yul\":10166:10233   */\n      tag_117\n      jump\t// in\n    tag_226:\n        /* \"#utility.yul\":10159:10233   */\n      swap2\n      pop\n        /* \"#utility.yul\":10242:10335   */\n      tag_227\n        /* \"#utility.yul\":10331:10334   */\n      dup3\n        /* \"#utility.yul\":10242:10335   */\n      tag_133\n      jump\t// in\n    tag_227:\n        /* \"#utility.yul\":10360:10362   */\n      0x20\n        /* \"#utility.yul\":10355:10358   */\n      dup3\n        /* \"#utility.yul\":10351:10363   */\n      add\n        /* \"#utility.yul\":10344:10363   */\n      swap1\n      pop\n        /* \"#utility.yul\":10003:10369   */\n      swap2\n      swap1\n      pop\n      jump\t// out\n        /* \"#utility.yul\":10375:10794   */\n    tag_85:\n        /* \"#utility.yul\":10541:10545   */\n      0x00\n        /* \"#utility.yul\":10579:10581   */\n      0x20\n        /* \"#utility.yul\":10568:10577   */\n      dup3\n        /* \"#utility.yul\":10564:10582   */\n      add\n        /* \"#utility.yul\":10556:10582   */\n      swap1\n      pop\n        /* \"#utility.yul\":10628:10637   */\n      dup2\n        /* \"#utility.yul\":10622:10626   */\n      dup2\n        /* \"#utility.yul\":10618:10638   */\n      sub\n        /* \"#utility.yul\":10614:10615   */\n      0x00\n        /* \"#utility.yul\":10603:10612   */\n      dup4\n        /* \"#utility.yul\":10599:10616   */\n      add\n        /* \"#utility.yul\":10592:10639   */\n      mstore\n        /* \"#utility.yul\":10656:10787   */\n      tag_229\n        /* \"#utility.yul\":10782:10786   */\n      dup2\n        /* \"#utility.yul\":10656:10787   */\n      tag_134\n      jump\t// in\n    tag_229:\n        /* \"#utility.yul\":10648:10787   */\n      swap1\n      pop\n        /* \"#utility.yul\":10375:10794   */\n      swap2\n      swap1\n      pop\n      jump\t// out\n        /* \"#utility.yul\":10800:10967   */\n    tag_135:\n        /* \"#utility.yul\":10940:10959   */\n      0x506c656173652073656e64206d6f726521000000000000000000000000000000\n        /* \"#utility.yul\":10936:10937   */\n      0x00\n        /* \"#utility.yul\":10928:10934   */\n      dup3\n        /* \"#utility.yul\":10924:10938   */\n      add\n        /* \"#utility.yul\":10917:10960   */\n      mstore\n        /* \"#utility.yul\":10800:10967   */\n      pop\n      jump\t// out\n        /* \"#utility.yul\":10973:11339   */\n    tag_136:\n        /* \"#utility.yul\":11115:11118   */\n      0x00\n        /* \"#utility.yul\":11136:11203   */\n      tag_232\n        /* \"#utility.yul\":11200:11202   */\n      0x11\n        /* \"#utility.yul\":11195:11198   */\n      dup4\n        /* \"#utility.yul\":11136:11203   */\n      tag_117\n      jump\t// in\n    tag_232:\n        /* \"#utility.yul\":11129:11203   */\n      swap2\n      pop\n        /* \"#utility.yul\":11212:11305   */\n      tag_233\n        /* \"#utility.yul\":11301:11304   */\n      dup3\n        /* \"#utility.yul\":11212:11305   */\n      tag_135\n      jump\t// in\n    tag_233:\n        /* \"#utility.yul\":11330:11332   */\n      0x20\n        /* \"#utility.yul\":11325:11328   */\n      dup3\n        /* \"#utility.yul\":11321:11333   */\n      add\n        /* \"#utility.yul\":11314:11333   */\n      swap1\n      pop\n        /* \"#utility.yul\":10973:11339   */\n      swap2\n      swap1\n      pop\n      jump\t// out\n        /* \"#utility.yul\":11345:11764   */\n    tag_89:\n        /* \"#utility.yul\":11511:11515   */\n      0x00\n        /* \"#utility.yul\":11549:11551   */\n      0x20\n        /* \"#utility.yul\":11538:11547   */\n      dup3\n        /* \"#utility.yul\":11534:11552   */\n      add\n        /* \"#utility.yul\":11526:11552   */\n      swap1\n      pop\n        /* \"#utility.yul\":11598:11607   */\n      dup2\n        /* \"#utility.yul\":11592:11596   */\n      dup2\n        /* \"#utility.yul\":11588:11608   */\n      sub\n        /* \"#utility.yul\":11584:11585   */\n      0x00\n        /* \"#utility.yul\":11573:11582   */\n      dup4\n        /* \"#utility.yul\":11569:11586   */\n      add\n        /* \"#utility.yul\":11562:11609   */\n      mstore\n        /* \"#utility.yul\":11626:11757   */\n      tag_235\n        /* \"#utility.yul\":11752:11756   */\n      dup2\n        /* \"#utility.yul\":11626:11757   */\n      tag_136\n      jump\t// in\n    tag_235:\n        /* \"#utility.yul\":11618:11757   */\n      swap1\n      pop\n        /* \"#utility.yul\":11345:11764   */\n      swap2\n      swap1\n      pop\n      jump\t// out\n        /* \"#utility.yul\":11770:11875   */\n    tag_137:\n        /* \"#utility.yul\":11806:11813   */\n      0x00\n        /* \"#utility.yul\":11846:11868   */\n      0xffffffffffffffffffff\n        /* \"#utility.yul\":11839:11844   */\n      dup3\n        /* \"#utility.yul\":11835:11869   */\n      and\n        /* \"#utility.yul\":11824:11869   */\n      swap1\n      pop\n        /* \"#utility.yul\":11770:11875   */\n      swap2\n      swap1\n      pop\n      jump\t// out\n        /* \"#utility.yul\":11881:12001   */\n    tag_138:\n        /* \"#utility.yul\":11953:11976   */\n      tag_238\n        /* \"#utility.yul\":11970:11975   */\n      dup2\n        /* \"#utility.yul\":11953:11976   */\n      tag_137\n      jump\t// in\n    tag_238:\n        /* \"#utility.yul\":11946:11951   */\n      dup2\n        /* \"#utility.yul\":11943:11977   */\n      eq\n        /* \"#utility.yul\":11933:11995   */\n      tag_239\n      jumpi\n        /* \"#utility.yul\":11991:11992   */\n      0x00\n        /* \"#utility.yul\":11988:11989   */\n      0x00\n        /* \"#utility.yul\":11981:11993   */\n      revert\n        /* \"#utility.yul\":11933:11995   */\n    tag_239:\n        /* \"#utility.yul\":11881:12001   */\n      pop\n      jump\t// out\n        /* \"#utility.yul\":12007:12148   */\n    tag_139:\n        /* \"#utility.yul\":12063:12068   */\n      0x00\n        /* \"#utility.yul\":12094:12100   */\n      dup2\n        /* \"#utility.yul\":12088:12101   */\n      mload\n        /* \"#utility.yul\":12079:12101   */\n      swap1\n      pop\n        /* \"#utility.yul\":12110:12142   */\n      tag_241\n        /* \"#utility.yul\":12136:12141   */\n      dup2\n        /* \"#utility.yul\":12110:12142   */\n      tag_138\n      jump\t// in\n    tag_241:\n        /* \"#utility.yul\":12007:12148   */\n      swap3\n      swap2\n      pop\n      pop\n      jump\t// out\n        /* \"#utility.yul\":12154:12274   */\n    tag_140:\n        /* \"#utility.yul\":12226:12249   */\n      tag_243\n        /* \"#utility.yul\":12243:12248   */\n      dup2\n        /* \"#utility.yul\":12226:12249   */\n      tag_114\n      jump\t// in\n    tag_243:\n        /* \"#utility.yul\":12219:12224   */\n      dup2\n        /* \"#utility.yul\":12216:12250   */\n      eq\n        /* \"#utility.yul\":12206:12268   */\n      tag_244\n      jumpi\n        /* \"#utility.yul\":12264:12265   */\n      0x00\n        /* \"#utility.yul\":12261:12262   */\n      0x00\n        /* \"#utility.yul\":12254:12266   */\n      revert\n        /* \"#utility.yul\":12206:12268   */\n    tag_244:\n        /* \"#utility.yul\":12154:12274   */\n      pop\n      jump\t// out\n        /* \"#utility.yul\":12280:12421   */\n    tag_141:\n        /* \"#utility.yul\":12336:12341   */\n      0x00\n        /* \"#utility.yul\":12367:12373   */\n      dup2\n        /* \"#utility.yul\":12361:12374   */\n      mload\n        /* \"#utility.yul\":12352:12374   */\n      swap1\n      pop\n        /* \"#utility.yul\":12383:12415   */\n      tag_246\n        /* \"#utility.yul\":12409:12414   */\n      dup2\n        /* \"#utility.yul\":12383:12415   */\n      tag_140\n      jump\t// in\n    tag_246:\n        /* \"#utility.yul\":12280:12421   */\n      swap3\n      swap2\n      pop\n      pop\n      jump\t// out\n        /* \"#utility.yul\":12427:12549   */\n    tag_142:\n        /* \"#utility.yul\":12500:12524   */\n      tag_248\n        /* \"#utility.yul\":12518:12523   */\n      dup2\n        /* \"#utility.yul\":12500:12524   */\n      tag_111\n      jump\t// in\n    tag_248:\n        /* \"#utility.yul\":12493:12498   */\n      dup2\n        /* \"#utility.yul\":12490:12525   */\n      eq\n        /* \"#utility.yul\":12480:12543   */\n      tag_249\n      jumpi\n        /* \"#utility.yul\":12539:12540   */\n      0x00\n        /* \"#utility.yul\":12536:12537   */\n      0x00\n        /* \"#utility.yul\":12529:12541   */\n      revert\n        /* \"#utility.yul\":12480:12543   */\n    tag_249:\n        /* \"#utility.yul\":12427:12549   */\n      pop\n      jump\t// out\n        /* \"#utility.yul\":12555:12698   */\n    tag_143:\n        /* \"#utility.yul\":12612:12617   */\n      0x00\n        /* \"#utility.yul\":12643:12649   */\n      dup2\n        /* \"#utility.yul\":12637:12650   */\n      mload\n        /* \"#utility.yul\":12628:12650   */\n      swap1\n      pop\n        /* \"#utility.yul\":12659:12692   */\n      tag_251\n        /* \"#utility.yul\":12686:12691   */\n      dup2\n        /* \"#utility.yul\":12659:12692   */\n      tag_142\n      jump\t// in\n    tag_251:\n        /* \"#utility.yul\":12555:12698   */\n      swap3\n      swap2\n      pop\n      pop\n      jump\t// out\n        /* \"#utility.yul\":12704:13675   */\n    tag_95:\n        /* \"#utility.yul\":12807:12813   */\n      0x00\n        /* \"#utility.yul\":12815:12821   */\n      0x00\n        /* \"#utility.yul\":12823:12829   */\n      0x00\n        /* \"#utility.yul\":12831:12837   */\n      0x00\n        /* \"#utility.yul\":12839:12845   */\n      0x00\n        /* \"#utility.yul\":12888:12891   */\n      0xa0\n        /* \"#utility.yul\":12876:12885   */\n      dup7\n        /* \"#utility.yul\":12867:12874   */\n      dup9\n        /* \"#utility.yul\":12863:12886   */\n      sub\n        /* \"#utility.yul\":12859:12892   */\n      slt\n        /* \"#utility.yul\":12856:12976   */\n      iszero\n      tag_253\n      jumpi\n        /* \"#utility.yul\":12895:12974   */\n      tag_254\n      tag_105\n      jump\t// in\n    tag_254:\n        /* \"#utility.yul\":12856:12976   */\n    tag_253:\n        /* \"#utility.yul\":13015:13016   */\n      0x00\n        /* \"#utility.yul\":13040:13103   */\n      tag_255\n        /* \"#utility.yul\":13095:13102   */\n      dup9\n        /* \"#utility.yul\":13086:13092   */\n      dup3\n        /* \"#utility.yul\":13075:13084   */\n      dup10\n        /* \"#utility.yul\":13071:13093   */\n      add\n        /* \"#utility.yul\":13040:13103   */\n      tag_139\n      jump\t// in\n    tag_255:\n        /* \"#utility.yul\":13030:13103   */\n      swap6\n      pop\n        /* \"#utility.yul\":12986:13113   */\n      pop\n        /* \"#utility.yul\":13152:13154   */\n      0x20\n        /* \"#utility.yul\":13178:13241   */\n      tag_256\n        /* \"#utility.yul\":13233:13240   */\n      dup9\n        /* \"#utility.yul\":13224:13230   */\n      dup3\n        /* \"#utility.yul\":13213:13222   */\n      dup10\n        /* \"#utility.yul\":13209:13231   */\n      add\n        /* \"#utility.yul\":13178:13241   */\n      tag_141\n      jump\t// in\n    tag_256:\n        /* \"#utility.yul\":13168:13241   */\n      swap5\n      pop\n        /* \"#utility.yul\":13123:13251   */\n      pop\n        /* \"#utility.yul\":13290:13292   */\n      0x40\n        /* \"#utility.yul\":13316:13380   */\n      tag_257\n        /* \"#utility.yul\":13372:13379   */\n      dup9\n        /* \"#utility.yul\":13363:13369   */\n      dup3\n        /* \"#utility.yul\":13352:13361   */\n      dup10\n        /* \"#utility.yul\":13348:13370   */\n      add\n        /* \"#utility.yul\":13316:13380   */\n      tag_143\n      jump\t// in\n    tag_257:\n        /* \"#utility.yul\":13306:13380   */\n      swap4\n      pop\n        /* \"#utility.yul\":13261:13390   */\n      pop\n        /* \"#utility.yul\":13429:13431   */\n      0x60\n        /* \"#utility.yul\":13455:13519   */\n      tag_258\n        /* \"#utility.yul\":13511:13518   */\n      dup9\n        /* \"#utility.yul\":13502:13508   */\n      dup3\n        /* \"#utility.yul\":13491:13500   */\n      dup10\n        /* \"#utility.yul\":13487:13509   */\n      add\n        /* \"#utility.yul\":13455:13519   */\n      tag_143\n      jump\t// in\n    tag_258:\n        /* \"#utility.yul\":13445:13519   */\n      swap3\n      pop\n        /* \"#utility.yul\":13400:13529   */\n      pop\n        /* \"#utility.yul\":13568:13571   */\n      0x80\n        /* \"#utility.yul\":13595:13658   */\n      tag_259\n        /* \"#utility.yul\":13650:13657   */\n      dup9\n        /* \"#utility.yul\":13641:13647   */\n      dup3\n        /* \"#utility.yul\":13630:13639   */\n      dup10\n        /* \"#utility.yul\":13626:13648   */\n      add\n        /* \"#utility.yul\":13595:13658   */\n      tag_139\n      jump\t// in\n    tag_259:\n        /* \"#utility.yul\":13585:13658   */\n      swap2\n      pop\n        /* \"#utility.yul\":13539:13668   */\n      pop\n        /* \"#utility.yul\":12704:13675   */\n      swap3\n      swap6\n      pop\n      swap3\n      swap6\n      swap1\n      swap4\n      pop\n      jump\t// out\n        /* \"#utility.yul\":13681:14091   */\n    tag_103:\n        /* \"#utility.yul\":13721:13728   */\n      0x00\n        /* \"#utility.yul\":13744:13764   */\n      tag_261\n        /* \"#utility.yul\":13762:13763   */\n      dup3\n        /* \"#utility.yul\":13744:13764   */\n      tag_111\n      jump\t// in\n    tag_261:\n        /* \"#utility.yul\":13739:13764   */\n      swap2\n      pop\n        /* \"#utility.yul\":13778:13798   */\n      tag_262\n        /* \"#utility.yul\":13796:13797   */\n      dup4\n        /* \"#utility.yul\":13778:13798   */\n      tag_111\n      jump\t// in\n    tag_262:\n        /* \"#utility.yul\":13773:13798   */\n      swap3\n      pop\n        /* \"#utility.yul\":13833:13834   */\n      dup3\n        /* \"#utility.yul\":13830:13831   */\n      dup3\n        /* \"#utility.yul\":13826:13835   */\n      mul\n        /* \"#utility.yul\":13855:13885   */\n      tag_263\n        /* \"#utility.yul\":13873:13884   */\n      dup2\n        /* \"#utility.yul\":13855:13885   */\n      tag_111\n      jump\t// in\n    tag_263:\n        /* \"#utility.yul\":13844:13885   */\n      swap2\n      pop\n        /* \"#utility.yul\":14034:14035   */\n      dup3\n        /* \"#utility.yul\":14025:14032   */\n      dup3\n        /* \"#utility.yul\":14021:14036   */\n      div\n        /* \"#utility.yul\":14018:14019   */\n      dup5\n        /* \"#utility.yul\":14015:14037   */\n      eq\n        /* \"#utility.yul\":13995:13996   */\n      dup4\n        /* \"#utility.yul\":13988:13997   */\n      iszero\n        /* \"#utility.yul\":13968:14051   */\n      or\n        /* \"#utility.yul\":13945:14084   */\n      tag_264\n      jumpi\n        /* \"#utility.yul\":14064:14082   */\n      tag_265\n      tag_116\n      jump\t// in\n    tag_265:\n        /* \"#utility.yul\":13945:14084   */\n    tag_264:\n        /* \"#utility.yul\":13729:14091   */\n      pop\n        /* \"#utility.yul\":13681:14091   */\n      swap3\n      swap2\n      pop\n      pop\n      jump\t// out\n\n    auxdata: 0xa2646970667358221220aa140874470b68d7159d05b6dfa0da9a38cd5c6ade972b83dc4ab23433b102f664736f6c634300081c0033\n}\n",
				"bytecode": {
					"linkReferences": {},
					"object": "608060405234801561000f575f5ffd5b50604051610fee380380610fee8339818101604052810190610031919061010f565b3360025f6101000a81548173ffffffffffffffffffffffffffffffffffffffff021916908373ffffffffffffffffffffffffffffffffffffffff160217905550426003819055508060048190555073694aa1769357215de4fac081bf1f309adc3253065f5f6101000a81548173ffffffffffffffffffffffffffffffffffffffff021916908373ffffffffffffffffffffffffffffffffffffffff1602179055505061013a565b5f5ffd5b5f819050919050565b6100ee816100dc565b81146100f8575f5ffd5b50565b5f81519050610109816100e5565b92915050565b5f60208284031215610124576101236100d8565b5b5f610131848285016100fb565b91505092915050565b610ea7806101475f395ff3fe60806040526004361061006f575f3560e01c80638edd6eb61161004d5780638edd6eb6146100ef578063b60d428814610105578063bea4dfb51461010f578063f2fde38b146101395761006f565b80634407e1e814610073578063590e1ae3146100af5780638da5cb5b146100c5575b5f5ffd5b34801561007e575f5ffd5b5061009960048036038101906100949190610880565b610161565b6040516100a691906108c3565b60405180910390f35b3480156100ba575f5ffd5b506100c3610176565b005b3480156100d0575f5ffd5b506100d961038f565b6040516100e691906108eb565b60405180910390f35b3480156100fa575f5ffd5b506101036103b4565b005b61010d610597565b005b34801561011a575f5ffd5b50610123610694565b604051610130919061091c565b60405180910390f35b348015610144575f5ffd5b5061015f600480360381019061015a9190610880565b610730565b005b6001602052805f5260405f205f915090505481565b6004546003546101869190610962565b42116101c7576040517f08c379a00000000000000000000000000000000000000000000000000000000081526004016101be906109ef565b60405180910390fd5b6aa56fa5b99019a5c80000006101dc47610802565b1061021c576040517f08c379a000000000000000000000000000000000000000000000000000000000815260040161021390610a57565b60405180910390fd5b5f60015f3373ffffffffffffffffffffffffffffffffffffffff1673ffffffffffffffffffffffffffffffffffffffff1681526020019081526020015f205490505f810361029f576040517f08c379a000000000000000000000000000000000000000000000000000000000815260040161029690610abf565b60405180910390fd5b5f3373ffffffffffffffffffffffffffffffffffffffff16826040516102c490610b0a565b5f6040518083038185875af1925050503d805f81146102fe576040519150601f19603f3d011682016040523d82523d5f602084013e610303565b606091505b50508091505080610349576040517f08c379a000000000000000000000000000000000000000000000000000000000815260040161034090610b68565b60405180910390fd5b5f60015f3373ffffffffffffffffffffffffffffffffffffffff1673ffffffffffffffffffffffffffffffffffffffff1681526020019081526020015f20819055505050565b60025f9054906101000a900473ffffffffffffffffffffffffffffffffffffffff1681565b3373ffffffffffffffffffffffffffffffffffffffff1660025f9054906101000a900473ffffffffffffffffffffffffffffffffffffffff1673ffffffffffffffffffffffffffffffffffffffff1614610443576040517f08c379a000000000000000000000000000000000000000000000000000000000815260040161043a90610bd0565b60405180910390fd5b6004546003546104539190610962565b4211610494576040517f08c379a000000000000000000000000000000000000000000000000000000000815260040161048b906109ef565b60405180910390fd5b6aa56fa5b99019a5c80000006104a947610802565b10156104ea576040517f08c379a00000000000000000000000000000000000000000000000000000000081526004016104e190610c38565b60405180910390fd5b5f3373ffffffffffffffffffffffffffffffffffffffff164760405161050f90610b0a565b5f6040518083038185875af1925050503d805f8114610549576040519150601f19603f3d011682016040523d82523d5f602084013e61054e565b606091505b50508091505080610594576040517f08c379a000000000000000000000000000000000000000000000000000000000815260040161058b90610b68565b60405180910390fd5b50565b6004546003546105a79190610962565b4211156105e9576040517f08c379a00000000000000000000000000000000000000000000000000000000081526004016105e090610ca0565b60405180910390fd5b6a52b7d2dcc80cd2e40000006105fe34610802565b101561063f576040517f08c379a000000000000000000000000000000000000000000000000000000000815260040161063690610d08565b60405180910390fd5b3460015f3373ffffffffffffffffffffffffffffffffffffffff1673ffffffffffffffffffffffffffffffffffffffff1681526020019081526020015f205f82825461068b9190610962565b92505081905550565b5f5f5f5f9054906101000a900473ffffffffffffffffffffffffffffffffffffffff1673ffffffffffffffffffffffffffffffffffffffff1663feaf968c6040518163ffffffff1660e01b815260040160a060405180830381865afa1580156106ff573d5f5f3e3d5ffd5b505050506040513d601f19601f820116820180604052508101906107239190610db9565b5050509150508091505090565b3373ffffffffffffffffffffffffffffffffffffffff1660025f9054906101000a900473ffffffffffffffffffffffffffffffffffffffff1673ffffffffffffffffffffffffffffffffffffffff16146107bf576040517f08c379a00000000000000000000000000000000000000000000000000000000081526004016107b690610bd0565b60405180910390fd5b8060025f6101000a81548173ffffffffffffffffffffffffffffffffffffffff021916908373ffffffffffffffffffffffffffffffffffffffff16021790555050565b5f5f61080c610694565b9050808361081a9190610e30565b915050919050565b5f5ffd5b5f73ffffffffffffffffffffffffffffffffffffffff82169050919050565b5f61084f82610826565b9050919050565b61085f81610845565b8114610869575f5ffd5b50565b5f8135905061087a81610856565b92915050565b5f6020828403121561089557610894610822565b5b5f6108a28482850161086c565b91505092915050565b5f819050919050565b6108bd816108ab565b82525050565b5f6020820190506108d65f8301846108b4565b92915050565b6108e581610845565b82525050565b5f6020820190506108fe5f8301846108dc565b92915050565b5f819050919050565b61091681610904565b82525050565b5f60208201905061092f5f83018461090d565b92915050565b7f4e487b71000000000000000000000000000000000000000000000000000000005f52601160045260245ffd5b5f61096c826108ab565b9150610977836108ab565b925082820190508082111561098f5761098e610935565b5b92915050565b5f82825260208201905092915050565b7f57696e646f77206e6f7420636c6f7365642100000000000000000000000000005f82015250565b5f6109d9601283610995565b91506109e4826109a5565b602082019050919050565b5f6020820190508181035f830152610a06816109cd565b9050919050565b7f54617267657420697320726561636865642100000000000000000000000000005f82015250565b5f610a41601283610995565b9150610a4c82610a0d565b602082019050919050565b5f6020820190508181035f830152610a6e81610a35565b9050919050565b7f596f7520686176656e27742066756e64210000000000000000000000000000005f82015250565b5f610aa9601183610995565b9150610ab482610a75565b602082019050919050565b5f6020820190508181035f830152610ad681610a9d565b9050919050565b5f81905092915050565b50565b5f610af55f83610add565b9150610b0082610ae7565b5f82019050919050565b5f610b1482610aea565b9150819050919050565b7f5472616e73666572207478206661696c656421000000000000000000000000005f82015250565b5f610b52601383610995565b9150610b5d82610b1e565b602082019050919050565b5f6020820190508181035f830152610b7f81610b46565b9050919050565b7f4f776e6572206f6e6c79210000000000000000000000000000000000000000005f82015250565b5f610bba600b83610995565b9150610bc582610b86565b602082019050919050565b5f6020820190508181035f830152610be781610bae565b9050919050565b7f546172676574206973206e6f74207265616368656421000000000000000000005f82015250565b5f610c22601683610995565b9150610c2d82610bee565b602082019050919050565b5f6020820190508181035f830152610c4f81610c16565b9050919050565b7f57696e646f7720636c6f736564210000000000000000000000000000000000005f82015250565b5f610c8a600e83610995565b9150610c9582610c56565b602082019050919050565b5f6020820190508181035f830152610cb781610c7e565b9050919050565b7f506c656173652073656e64206d6f7265210000000000000000000000000000005f82015250565b5f610cf2601183610995565b9150610cfd82610cbe565b602082019050919050565b5f6020820190508181035f830152610d1f81610ce6565b9050919050565b5f69ffffffffffffffffffff82169050919050565b610d4481610d26565b8114610d4e575f5ffd5b50565b5f81519050610d5f81610d3b565b92915050565b610d6e81610904565b8114610d78575f5ffd5b50565b5f81519050610d8981610d65565b92915050565b610d98816108ab565b8114610da2575f5ffd5b50565b5f81519050610db381610d8f565b92915050565b5f5f5f5f5f60a08688031215610dd257610dd1610822565b5b5f610ddf88828901610d51565b9550506020610df088828901610d7b565b9450506040610e0188828901610da5565b9350506060610e1288828901610da5565b9250506080610e2388828901610d51565b9150509295509295909350565b5f610e3a826108ab565b9150610e45836108ab565b9250828202610e53816108ab565b91508282048414831517610e6a57610e69610935565b5b509291505056fea2646970667358221220aa140874470b68d7159d05b6dfa0da9a38cd5c6ade972b83dc4ab23433b102f664736f6c634300081c0033",
					"opcodes": "PUSH1 0x80 PUSH1 0x40 MSTORE CALLVALUE DUP1 ISZERO PUSH2 0xF JUMPI PUSH0 PUSH0 REVERT JUMPDEST POP PUSH1 0x40 MLOAD PUSH2 0xFEE CODESIZE SUB DUP1 PUSH2 0xFEE DUP4 CODECOPY DUP2 DUP2 ADD PUSH1 0x40 MSTORE DUP2 ADD SWAP1 PUSH2 0x31 SWAP2 SWAP1 PUSH2 0x10F JUMP JUMPDEST CALLER PUSH1 0x2 PUSH0 PUSH2 0x100 EXP DUP2 SLOAD DUP2 PUSH20 0xFFFFFFFFFFFFFFFFFFFFFFFFFFFFFFFFFFFFFFFF MUL NOT AND SWAP1 DUP4 PUSH20 0xFFFFFFFFFFFFFFFFFFFFFFFFFFFFFFFFFFFFFFFF AND MUL OR SWAP1 SSTORE POP TIMESTAMP PUSH1 0x3 DUP2 SWAP1 SSTORE POP DUP1 PUSH1 0x4 DUP2 SWAP1 SSTORE POP PUSH20 0x694AA1769357215DE4FAC081BF1F309ADC325306 PUSH0 PUSH0 PUSH2 0x100 EXP DUP2 SLOAD DUP2 PUSH20 0xFFFFFFFFFFFFFFFFFFFFFFFFFFFFFFFFFFFFFFFF MUL NOT AND SWAP1 DUP4 PUSH20 0xFFFFFFFFFFFFFFFFFFFFFFFFFFFFFFFFFFFFFFFF AND MUL OR SWAP1 SSTORE POP POP PUSH2 0x13A JUMP JUMPDEST PUSH0 PUSH0 REVERT JUMPDEST PUSH0 DUP2 SWAP1 POP SWAP2 SWAP1 POP JUMP JUMPDEST PUSH2 0xEE DUP2 PUSH2 0xDC JUMP JUMPDEST DUP2 EQ PUSH2 0xF8 JUMPI PUSH0 PUSH0 REVERT JUMPDEST POP JUMP JUMPDEST PUSH0 DUP2 MLOAD SWAP1 POP PUSH2 0x109 DUP2 PUSH2 0xE5 JUMP JUMPDEST SWAP3 SWAP2 POP POP JUMP JUMPDEST PUSH0 PUSH1 0x20 DUP3 DUP5 SUB SLT ISZERO PUSH2 0x124 JUMPI PUSH2 0x123 PUSH2 0xD8 JUMP JUMPDEST JUMPDEST PUSH0 PUSH2 0x131 DUP5 DUP3 DUP6 ADD PUSH2 0xFB JUMP JUMPDEST SWAP2 POP POP SWAP3 SWAP2 POP POP JUMP JUMPDEST PUSH2 0xEA7 DUP1 PUSH2 0x147 PUSH0 CODECOPY PUSH0 RETURN INVALID PUSH1 0x80 PUSH1 0x40 MSTORE PUSH1 0x4 CALLDATASIZE LT PUSH2 0x6F JUMPI PUSH0 CALLDATALOAD PUSH1 0xE0 SHR DUP1 PUSH4 0x8EDD6EB6 GT PUSH2 0x4D JUMPI DUP1 PUSH4 0x8EDD6EB6 EQ PUSH2 0xEF JUMPI DUP1 PUSH4 0xB60D4288 EQ PUSH2 0x105 JUMPI DUP1 PUSH4 0xBEA4DFB5 EQ PUSH2 0x10F JUMPI DUP1 PUSH4 0xF2FDE38B EQ PUSH2 0x139 JUMPI PUSH2 0x6F JUMP JUMPDEST DUP1 PUSH4 0x4407E1E8 EQ PUSH2 0x73 JUMPI DUP1 PUSH4 0x590E1AE3 EQ PUSH2 0xAF JUMPI DUP1 PUSH4 0x8DA5CB5B EQ PUSH2 0xC5 JUMPI JUMPDEST PUSH0 PUSH0 REVERT JUMPDEST CALLVALUE DUP1 ISZERO PUSH2 0x7E JUMPI PUSH0 PUSH0 REVERT JUMPDEST POP PUSH2 0x99 PUSH1 0x4 DUP1 CALLDATASIZE SUB DUP2 ADD SWAP1 PUSH2 0x94 SWAP2 SWAP1 PUSH2 0x880 JUMP JUMPDEST PUSH2 0x161 JUMP JUMPDEST PUSH1 0x40 MLOAD PUSH2 0xA6 SWAP2 SWAP1 PUSH2 0x8C3 JUMP JUMPDEST PUSH1 0x40 MLOAD DUP1 SWAP2 SUB SWAP1 RETURN JUMPDEST CALLVALUE DUP1 ISZERO PUSH2 0xBA JUMPI PUSH0 PUSH0 REVERT JUMPDEST POP PUSH2 0xC3 PUSH2 0x176 JUMP JUMPDEST STOP JUMPDEST CALLVALUE DUP1 ISZERO PUSH2 0xD0 JUMPI PUSH0 PUSH0 REVERT JUMPDEST POP PUSH2 0xD9 PUSH2 0x38F JUMP JUMPDEST PUSH1 0x40 MLOAD PUSH2 0xE6 SWAP2 SWAP1 PUSH2 0x8EB JUMP JUMPDEST PUSH1 0x40 MLOAD DUP1 SWAP2 SUB SWAP1 RETURN JUMPDEST CALLVALUE DUP1 ISZERO PUSH2 0xFA JUMPI PUSH0 PUSH0 REVERT JUMPDEST POP PUSH2 0x103 PUSH2 0x3B4 JUMP JUMPDEST STOP JUMPDEST PUSH2 0x10D PUSH2 0x597 JUMP JUMPDEST STOP JUMPDEST CALLVALUE DUP1 ISZERO PUSH2 0x11A JUMPI PUSH0 PUSH0 REVERT JUMPDEST POP PUSH2 0x123 PUSH2 0x694 JUMP JUMPDEST PUSH1 0x40 MLOAD PUSH2 0x130 SWAP2 SWAP1 PUSH2 0x91C JUMP JUMPDEST PUSH1 0x40 MLOAD DUP1 SWAP2 SUB SWAP1 RETURN JUMPDEST CALLVALUE DUP1 ISZERO PUSH2 0x144 JUMPI PUSH0 PUSH0 REVERT JUMPDEST POP PUSH2 0x15F PUSH1 0x4 DUP1 CALLDATASIZE SUB DUP2 ADD SWAP1 PUSH2 0x15A SWAP2 SWAP1 PUSH2 0x880 JUMP JUMPDEST PUSH2 0x730 JUMP JUMPDEST STOP JUMPDEST PUSH1 0x1 PUSH1 0x20 MSTORE DUP1 PUSH0 MSTORE PUSH1 0x40 PUSH0 KECCAK256 PUSH0 SWAP2 POP SWAP1 POP SLOAD DUP2 JUMP JUMPDEST PUSH1 0x4 SLOAD PUSH1 0x3 SLOAD PUSH2 0x186 SWAP2 SWAP1 PUSH2 0x962 JUMP JUMPDEST TIMESTAMP GT PUSH2 0x1C7 JUMPI PUSH1 0x40 MLOAD PUSH32 0x8C379A000000000000000000000000000000000000000000000000000000000 DUP2 MSTORE PUSH1 0x4 ADD PUSH2 0x1BE SWAP1 PUSH2 0x9EF JUMP JUMPDEST PUSH1 0x40 MLOAD DUP1 SWAP2 SUB SWAP1 REVERT JUMPDEST PUSH11 0xA56FA5B99019A5C8000000 PUSH2 0x1DC SELFBALANCE PUSH2 0x802 JUMP JUMPDEST LT PUSH2 0x21C JUMPI PUSH1 0x40 MLOAD PUSH32 0x8C379A000000000000000000000000000000000000000000000000000000000 DUP2 MSTORE PUSH1 0x4 ADD PUSH2 0x213 SWAP1 PUSH2 0xA57 JUMP JUMPDEST PUSH1 0x40 MLOAD DUP1 SWAP2 SUB SWAP1 REVERT JUMPDEST PUSH0 PUSH1 0x1 PUSH0 CALLER PUSH20 0xFFFFFFFFFFFFFFFFFFFFFFFFFFFFFFFFFFFFFFFF AND PUSH20 0xFFFFFFFFFFFFFFFFFFFFFFFFFFFFFFFFFFFFFFFF AND DUP2 MSTORE PUSH1 0x20 ADD SWAP1 DUP2 MSTORE PUSH1 0x20 ADD PUSH0 KECCAK256 SLOAD SWAP1 POP PUSH0 DUP2 SUB PUSH2 0x29F JUMPI PUSH1 0x40 MLOAD PUSH32 0x8C379A000000000000000000000000000000000000000000000000000000000 DUP2 MSTORE PUSH1 0x4 ADD PUSH2 0x296 SWAP1 PUSH2 0xABF JUMP JUMPDEST PUSH1 0x40 MLOAD DUP1 SWAP2 SUB SWAP1 REVERT JUMPDEST PUSH0 CALLER PUSH20 0xFFFFFFFFFFFFFFFFFFFFFFFFFFFFFFFFFFFFFFFF AND DUP3 PUSH1 0x40 MLOAD PUSH2 0x2C4 SWAP1 PUSH2 0xB0A JUMP JUMPDEST PUSH0 PUSH1 0x40 MLOAD DUP1 DUP4 SUB DUP2 DUP6 DUP8 GAS CALL SWAP3 POP POP POP RETURNDATASIZE DUP1 PUSH0 DUP2 EQ PUSH2 0x2FE JUMPI PUSH1 0x40 MLOAD SWAP2 POP PUSH1 0x1F NOT PUSH1 0x3F RETURNDATASIZE ADD AND DUP3 ADD PUSH1 0x40 MSTORE RETURNDATASIZE DUP3 MSTORE RETURNDATASIZE PUSH0 PUSH1 0x20 DUP5 ADD RETURNDATACOPY PUSH2 0x303 JUMP JUMPDEST PUSH1 0x60 SWAP2 POP JUMPDEST POP POP DUP1 SWAP2 POP POP DUP1 PUSH2 0x349 JUMPI PUSH1 0x40 MLOAD PUSH32 0x8C379A000000000000000000000000000000000000000000000000000000000 DUP2 MSTORE PUSH1 0x4 ADD PUSH2 0x340 SWAP1 PUSH2 0xB68 JUMP JUMPDEST PUSH1 0x40 MLOAD DUP1 SWAP2 SUB SWAP1 REVERT JUMPDEST PUSH0 PUSH1 0x1 PUSH0 CALLER PUSH20 0xFFFFFFFFFFFFFFFFFFFFFFFFFFFFFFFFFFFFFFFF AND PUSH20 0xFFFFFFFFFFFFFFFFFFFFFFFFFFFFFFFFFFFFFFFF AND DUP2 MSTORE PUSH1 0x20 ADD SWAP1 DUP2 MSTORE PUSH1 0x20 ADD PUSH0 KECCAK256 DUP2 SWAP1 SSTORE POP POP POP JUMP JUMPDEST PUSH1 0x2 PUSH0 SWAP1 SLOAD SWAP1 PUSH2 0x100 EXP SWAP1 DIV PUSH20 0xFFFFFFFFFFFFFFFFFFFFFFFFFFFFFFFFFFFFFFFF AND DUP2 JUMP JUMPDEST CALLER PUSH20 0xFFFFFFFFFFFFFFFFFFFFFFFFFFFFFFFFFFFFFFFF AND PUSH1 0x2 PUSH0 SWAP1 SLOAD SWAP1 PUSH2 0x100 EXP SWAP1 DIV PUSH20 0xFFFFFFFFFFFFFFFFFFFFFFFFFFFFFFFFFFFFFFFF AND PUSH20 0xFFFFFFFFFFFFFFFFFFFFFFFFFFFFFFFFFFFFFFFF AND EQ PUSH2 0x443 JUMPI PUSH1 0x40 MLOAD PUSH32 0x8C379A000000000000000000000000000000000000000000000000000000000 DUP2 MSTORE PUSH1 0x4 ADD PUSH2 0x43A SWAP1 PUSH2 0xBD0 JUMP JUMPDEST PUSH1 0x40 MLOAD DUP1 SWAP2 SUB SWAP1 REVERT JUMPDEST PUSH1 0x4 SLOAD PUSH1 0x3 SLOAD PUSH2 0x453 SWAP2 SWAP1 PUSH2 0x962 JUMP JUMPDEST TIMESTAMP GT PUSH2 0x494 JUMPI PUSH1 0x40 MLOAD PUSH32 0x8C379A000000000000000000000000000000000000000000000000000000000 DUP2 MSTORE PUSH1 0x4 ADD PUSH2 0x48B SWAP1 PUSH2 0x9EF JUMP JUMPDEST PUSH1 0x40 MLOAD DUP1 SWAP2 SUB SWAP1 REVERT JUMPDEST PUSH11 0xA56FA5B99019A5C8000000 PUSH2 0x4A9 SELFBALANCE PUSH2 0x802 JUMP JUMPDEST LT ISZERO PUSH2 0x4EA JUMPI PUSH1 0x40 MLOAD PUSH32 0x8C379A000000000000000000000000000000000000000000000000000000000 DUP2 MSTORE PUSH1 0x4 ADD PUSH2 0x4E1 SWAP1 PUSH2 0xC38 JUMP JUMPDEST PUSH1 0x40 MLOAD DUP1 SWAP2 SUB SWAP1 REVERT JUMPDEST PUSH0 CALLER PUSH20 0xFFFFFFFFFFFFFFFFFFFFFFFFFFFFFFFFFFFFFFFF AND SELFBALANCE PUSH1 0x40 MLOAD PUSH2 0x50F SWAP1 PUSH2 0xB0A JUMP JUMPDEST PUSH0 PUSH1 0x40 MLOAD DUP1 DUP4 SUB DUP2 DUP6 DUP8 GAS CALL SWAP3 POP POP POP RETURNDATASIZE DUP1 PUSH0 DUP2 EQ PUSH2 0x549 JUMPI PUSH1 0x40 MLOAD SWAP2 POP PUSH1 0x1F NOT PUSH1 0x3F RETURNDATASIZE ADD AND DUP3 ADD PUSH1 0x40 MSTORE RETURNDATASIZE DUP3 MSTORE RETURNDATASIZE PUSH0 PUSH1 0x20 DUP5 ADD RETURNDATACOPY PUSH2 0x54E JUMP JUMPDEST PUSH1 0x60 SWAP2 POP JUMPDEST POP POP DUP1 SWAP2 POP POP DUP1 PUSH2 0x594 JUMPI PUSH1 0x40 MLOAD PUSH32 0x8C379A000000000000000000000000000000000000000000000000000000000 DUP2 MSTORE PUSH1 0x4 ADD PUSH2 0x58B SWAP1 PUSH2 0xB68 JUMP JUMPDEST PUSH1 0x40 MLOAD DUP1 SWAP2 SUB SWAP1 REVERT JUMPDEST POP JUMP JUMPDEST PUSH1 0x4 SLOAD PUSH1 0x3 SLOAD PUSH2 0x5A7 SWAP2 SWAP1 PUSH2 0x962 JUMP JUMPDEST TIMESTAMP GT ISZERO PUSH2 0x5E9 JUMPI PUSH1 0x40 MLOAD PUSH32 0x8C379A000000000000000000000000000000000000000000000000000000000 DUP2 MSTORE PUSH1 0x4 ADD PUSH2 0x5E0 SWAP1 PUSH2 0xCA0 JUMP JUMPDEST PUSH1 0x40 MLOAD DUP1 SWAP2 SUB SWAP1 REVERT JUMPDEST PUSH11 0x52B7D2DCC80CD2E4000000 PUSH2 0x5FE CALLVALUE PUSH2 0x802 JUMP JUMPDEST LT ISZERO PUSH2 0x63F JUMPI PUSH1 0x40 MLOAD PUSH32 0x8C379A000000000000000000000000000000000000000000000000000000000 DUP2 MSTORE PUSH1 0x4 ADD PUSH2 0x636 SWAP1 PUSH2 0xD08 JUMP JUMPDEST PUSH1 0x40 MLOAD DUP1 SWAP2 SUB SWAP1 REVERT JUMPDEST CALLVALUE PUSH1 0x1 PUSH0 CALLER PUSH20 0xFFFFFFFFFFFFFFFFFFFFFFFFFFFFFFFFFFFFFFFF AND PUSH20 0xFFFFFFFFFFFFFFFFFFFFFFFFFFFFFFFFFFFFFFFF AND DUP2 MSTORE PUSH1 0x20 ADD SWAP1 DUP2 MSTORE PUSH1 0x20 ADD PUSH0 KECCAK256 PUSH0 DUP3 DUP3 SLOAD PUSH2 0x68B SWAP2 SWAP1 PUSH2 0x962 JUMP JUMPDEST SWAP3 POP POP DUP2 SWAP1 SSTORE POP JUMP JUMPDEST PUSH0 PUSH0 PUSH0 PUSH0 SWAP1 SLOAD SWAP1 PUSH2 0x100 EXP SWAP1 DIV PUSH20 0xFFFFFFFFFFFFFFFFFFFFFFFFFFFFFFFFFFFFFFFF AND PUSH20 0xFFFFFFFFFFFFFFFFFFFFFFFFFFFFFFFFFFFFFFFF AND PUSH4 0xFEAF968C PUSH1 0x40 MLOAD DUP2 PUSH4 0xFFFFFFFF AND PUSH1 0xE0 SHL DUP2 MSTORE PUSH1 0x4 ADD PUSH1 0xA0 PUSH1 0x40 MLOAD DUP1 DUP4 SUB DUP2 DUP7 GAS STATICCALL ISZERO DUP1 ISZERO PUSH2 0x6FF JUMPI RETURNDATASIZE PUSH0 PUSH0 RETURNDATACOPY RETURNDATASIZE PUSH0 REVERT JUMPDEST POP POP POP POP PUSH1 0x40 MLOAD RETURNDATASIZE PUSH1 0x1F NOT PUSH1 0x1F DUP3 ADD AND DUP3 ADD DUP1 PUSH1 0x40 MSTORE POP DUP2 ADD SWAP1 PUSH2 0x723 SWAP2 SWAP1 PUSH2 0xDB9 JUMP JUMPDEST POP POP POP SWAP2 POP POP DUP1 SWAP2 POP POP SWAP1 JUMP JUMPDEST CALLER PUSH20 0xFFFFFFFFFFFFFFFFFFFFFFFFFFFFFFFFFFFFFFFF AND PUSH1 0x2 PUSH0 SWAP1 SLOAD SWAP1 PUSH2 0x100 EXP SWAP1 DIV PUSH20 0xFFFFFFFFFFFFFFFFFFFFFFFFFFFFFFFFFFFFFFFF AND PUSH20 0xFFFFFFFFFFFFFFFFFFFFFFFFFFFFFFFFFFFFFFFF AND EQ PUSH2 0x7BF JUMPI PUSH1 0x40 MLOAD PUSH32 0x8C379A000000000000000000000000000000000000000000000000000000000 DUP2 MSTORE PUSH1 0x4 ADD PUSH2 0x7B6 SWAP1 PUSH2 0xBD0 JUMP JUMPDEST PUSH1 0x40 MLOAD DUP1 SWAP2 SUB SWAP1 REVERT JUMPDEST DUP1 PUSH1 0x2 PUSH0 PUSH2 0x100 EXP DUP2 SLOAD DUP2 PUSH20 0xFFFFFFFFFFFFFFFFFFFFFFFFFFFFFFFFFFFFFFFF MUL NOT AND SWAP1 DUP4 PUSH20 0xFFFFFFFFFFFFFFFFFFFFFFFFFFFFFFFFFFFFFFFF AND MUL OR SWAP1 SSTORE POP POP JUMP JUMPDEST PUSH0 PUSH0 PUSH2 0x80C PUSH2 0x694 JUMP JUMPDEST SWAP1 POP DUP1 DUP4 PUSH2 0x81A SWAP2 SWAP1 PUSH2 0xE30 JUMP JUMPDEST SWAP2 POP POP SWAP2 SWAP1 POP JUMP JUMPDEST PUSH0 PUSH0 REVERT JUMPDEST PUSH0 PUSH20 0xFFFFFFFFFFFFFFFFFFFFFFFFFFFFFFFFFFFFFFFF DUP3 AND SWAP1 POP SWAP2 SWAP1 POP JUMP JUMPDEST PUSH0 PUSH2 0x84F DUP3 PUSH2 0x826 JUMP JUMPDEST SWAP1 POP SWAP2 SWAP1 POP JUMP JUMPDEST PUSH2 0x85F DUP2 PUSH2 0x845 JUMP JUMPDEST DUP2 EQ PUSH2 0x869 JUMPI PUSH0 PUSH0 REVERT JUMPDEST POP JUMP JUMPDEST PUSH0 DUP2 CALLDATALOAD SWAP1 POP PUSH2 0x87A DUP2 PUSH2 0x856 JUMP JUMPDEST SWAP3 SWAP2 POP POP JUMP JUMPDEST PUSH0 PUSH1 0x20 DUP3 DUP5 SUB SLT ISZERO PUSH2 0x895 JUMPI PUSH2 0x894 PUSH2 0x822 JUMP JUMPDEST JUMPDEST PUSH0 PUSH2 0x8A2 DUP5 DUP3 DUP6 ADD PUSH2 0x86C JUMP JUMPDEST SWAP2 POP POP SWAP3 SWAP2 POP POP JUMP JUMPDEST PUSH0 DUP2 SWAP1 POP SWAP2 SWAP1 POP JUMP JUMPDEST PUSH2 0x8BD DUP2 PUSH2 0x8AB JUMP JUMPDEST DUP3 MSTORE POP POP JUMP JUMPDEST PUSH0 PUSH1 0x20 DUP3 ADD SWAP1 POP PUSH2 0x8D6 PUSH0 DUP4 ADD DUP5 PUSH2 0x8B4 JUMP JUMPDEST SWAP3 SWAP2 POP POP JUMP JUMPDEST PUSH2 0x8E5 DUP2 PUSH2 0x845 JUMP JUMPDEST DUP3 MSTORE POP POP JUMP JUMPDEST PUSH0 PUSH1 0x20 DUP3 ADD SWAP1 POP PUSH2 0x8FE PUSH0 DUP4 ADD DUP5 PUSH2 0x8DC JUMP JUMPDEST SWAP3 SWAP2 POP POP JUMP JUMPDEST PUSH0 DUP2 SWAP1 POP SWAP2 SWAP1 POP JUMP JUMPDEST PUSH2 0x916 DUP2 PUSH2 0x904 JUMP JUMPDEST DUP3 MSTORE POP POP JUMP JUMPDEST PUSH0 PUSH1 0x20 DUP3 ADD SWAP1 POP PUSH2 0x92F PUSH0 DUP4 ADD DUP5 PUSH2 0x90D JUMP JUMPDEST SWAP3 SWAP2 POP POP JUMP JUMPDEST PUSH32 0x4E487B7100000000000000000000000000000000000000000000000000000000 PUSH0 MSTORE PUSH1 0x11 PUSH1 0x4 MSTORE PUSH1 0x24 PUSH0 REVERT JUMPDEST PUSH0 PUSH2 0x96C DUP3 PUSH2 0x8AB JUMP JUMPDEST SWAP2 POP PUSH2 0x977 DUP4 PUSH2 0x8AB JUMP JUMPDEST SWAP3 POP DUP3 DUP3 ADD SWAP1 POP DUP1 DUP3 GT ISZERO PUSH2 0x98F JUMPI PUSH2 0x98E PUSH2 0x935 JUMP JUMPDEST JUMPDEST SWAP3 SWAP2 POP POP JUMP JUMPDEST PUSH0 DUP3 DUP3 MSTORE PUSH1 0x20 DUP3 ADD SWAP1 POP SWAP3 SWAP2 POP POP JUMP JUMPDEST PUSH32 0x57696E646F77206E6F7420636C6F736564210000000000000000000000000000 PUSH0 DUP3 ADD MSTORE POP JUMP JUMPDEST PUSH0 PUSH2 0x9D9 PUSH1 0x12 DUP4 PUSH2 0x995 JUMP JUMPDEST SWAP2 POP PUSH2 0x9E4 DUP3 PUSH2 0x9A5 JUMP JUMPDEST PUSH1 0x20 DUP3 ADD SWAP1 POP SWAP2 SWAP1 POP JUMP JUMPDEST PUSH0 PUSH1 0x20 DUP3 ADD SWAP1 POP DUP2 DUP2 SUB PUSH0 DUP4 ADD MSTORE PUSH2 0xA06 DUP2 PUSH2 0x9CD JUMP JUMPDEST SWAP1 POP SWAP2 SWAP1 POP JUMP JUMPDEST PUSH32 0x5461726765742069732072656163686564210000000000000000000000000000 PUSH0 DUP3 ADD MSTORE POP JUMP JUMPDEST PUSH0 PUSH2 0xA41 PUSH1 0x12 DUP4 PUSH2 0x995 JUMP JUMPDEST SWAP2 POP PUSH2 0xA4C DUP3 PUSH2 0xA0D JUMP JUMPDEST PUSH1 0x20 DUP3 ADD SWAP1 POP SWAP2 SWAP1 POP JUMP JUMPDEST PUSH0 PUSH1 0x20 DUP3 ADD SWAP1 POP DUP2 DUP2 SUB PUSH0 DUP4 ADD MSTORE PUSH2 0xA6E DUP2 PUSH2 0xA35 JUMP JUMPDEST SWAP1 POP SWAP2 SWAP1 POP JUMP JUMPDEST PUSH32 0x596F7520686176656E27742066756E6421000000000000000000000000000000 PUSH0 DUP3 ADD MSTORE POP JUMP JUMPDEST PUSH0 PUSH2 0xAA9 PUSH1 0x11 DUP4 PUSH2 0x995 JUMP JUMPDEST SWAP2 POP PUSH2 0xAB4 DUP3 PUSH2 0xA75 JUMP JUMPDEST PUSH1 0x20 DUP3 ADD SWAP1 POP SWAP2 SWAP1 POP JUMP JUMPDEST PUSH0 PUSH1 0x20 DUP3 ADD SWAP1 POP DUP2 DUP2 SUB PUSH0 DUP4 ADD MSTORE PUSH2 0xAD6 DUP2 PUSH2 0xA9D JUMP JUMPDEST SWAP1 POP SWAP2 SWAP1 POP JUMP JUMPDEST PUSH0 DUP2 SWAP1 POP SWAP3 SWAP2 POP POP JUMP JUMPDEST POP JUMP JUMPDEST PUSH0 PUSH2 0xAF5 PUSH0 DUP4 PUSH2 0xADD JUMP JUMPDEST SWAP2 POP PUSH2 0xB00 DUP3 PUSH2 0xAE7 JUMP JUMPDEST PUSH0 DUP3 ADD SWAP1 POP SWAP2 SWAP1 POP JUMP JUMPDEST PUSH0 PUSH2 0xB14 DUP3 PUSH2 0xAEA JUMP JUMPDEST SWAP2 POP DUP2 SWAP1 POP SWAP2 SWAP1 POP JUMP JUMPDEST PUSH32 0x5472616E73666572207478206661696C65642100000000000000000000000000 PUSH0 DUP3 ADD MSTORE POP JUMP JUMPDEST PUSH0 PUSH2 0xB52 PUSH1 0x13 DUP4 PUSH2 0x995 JUMP JUMPDEST SWAP2 POP PUSH2 0xB5D DUP3 PUSH2 0xB1E JUMP JUMPDEST PUSH1 0x20 DUP3 ADD SWAP1 POP SWAP2 SWAP1 POP JUMP JUMPDEST PUSH0 PUSH1 0x20 DUP3 ADD SWAP1 POP DUP2 DUP2 SUB PUSH0 DUP4 ADD MSTORE PUSH2 0xB7F DUP2 PUSH2 0xB46 JUMP JUMPDEST SWAP1 POP SWAP2 SWAP1 POP JUMP JUMPDEST PUSH32 0x4F776E6572206F6E6C7921000000000000000000000000000000000000000000 PUSH0 DUP3 ADD MSTORE POP JUMP JUMPDEST PUSH0 PUSH2 0xBBA PUSH1 0xB DUP4 PUSH2 0x995 JUMP JUMPDEST SWAP2 POP PUSH2 0xBC5 DUP3 PUSH2 0xB86 JUMP JUMPDEST PUSH1 0x20 DUP3 ADD SWAP1 POP SWAP2 SWAP1 POP JUMP JUMPDEST PUSH0 PUSH1 0x20 DUP3 ADD SWAP1 POP DUP2 DUP2 SUB PUSH0 DUP4 ADD MSTORE PUSH2 0xBE7 DUP2 PUSH2 0xBAE JUMP JUMPDEST SWAP1 POP SWAP2 SWAP1 POP JUMP JUMPDEST PUSH32 0x546172676574206973206E6F7420726561636865642100000000000000000000 PUSH0 DUP3 ADD MSTORE POP JUMP JUMPDEST PUSH0 PUSH2 0xC22 PUSH1 0x16 DUP4 PUSH2 0x995 JUMP JUMPDEST SWAP2 POP PUSH2 0xC2D DUP3 PUSH2 0xBEE JUMP JUMPDEST PUSH1 0x20 DUP3 ADD SWAP1 POP SWAP2 SWAP1 POP JUMP JUMPDEST PUSH0 PUSH1 0x20 DUP3 ADD SWAP1 POP DUP2 DUP2 SUB PUSH0 DUP4 ADD MSTORE PUSH2 0xC4F DUP2 PUSH2 0xC16 JUMP JUMPDEST SWAP1 POP SWAP2 SWAP1 POP JUMP JUMPDEST PUSH32 0x57696E646F7720636C6F73656421000000000000000000000000000000000000 PUSH0 DUP3 ADD MSTORE POP JUMP JUMPDEST PUSH0 PUSH2 0xC8A PUSH1 0xE DUP4 PUSH2 0x995 JUMP JUMPDEST SWAP2 POP PUSH2 0xC95 DUP3 PUSH2 0xC56 JUMP JUMPDEST PUSH1 0x20 DUP3 ADD SWAP1 POP SWAP2 SWAP1 POP JUMP JUMPDEST PUSH0 PUSH1 0x20 DUP3 ADD SWAP1 POP DUP2 DUP2 SUB PUSH0 DUP4 ADD MSTORE PUSH2 0xCB7 DUP2 PUSH2 0xC7E JUMP JUMPDEST SWAP1 POP SWAP2 SWAP1 POP JUMP JUMPDEST PUSH32 0x506C656173652073656E64206D6F726521000000000000000000000000000000 PUSH0 DUP3 ADD MSTORE POP JUMP JUMPDEST PUSH0 PUSH2 0xCF2 PUSH1 0x11 DUP4 PUSH2 0x995 JUMP JUMPDEST SWAP2 POP PUSH2 0xCFD DUP3 PUSH2 0xCBE JUMP JUMPDEST PUSH1 0x20 DUP3 ADD SWAP1 POP SWAP2 SWAP1 POP JUMP JUMPDEST PUSH0 PUSH1 0x20 DUP3 ADD SWAP1 POP DUP2 DUP2 SUB PUSH0 DUP4 ADD MSTORE PUSH2 0xD1F DUP2 PUSH2 0xCE6 JUMP JUMPDEST SWAP1 POP SWAP2 SWAP1 POP JUMP JUMPDEST PUSH0 PUSH10 0xFFFFFFFFFFFFFFFFFFFF DUP3 AND SWAP1 POP SWAP2 SWAP1 POP JUMP JUMPDEST PUSH2 0xD44 DUP2 PUSH2 0xD26 JUMP JUMPDEST DUP2 EQ PUSH2 0xD4E JUMPI PUSH0 PUSH0 REVERT JUMPDEST POP JUMP JUMPDEST PUSH0 DUP2 MLOAD SWAP1 POP PUSH2 0xD5F DUP2 PUSH2 0xD3B JUMP JUMPDEST SWAP3 SWAP2 POP POP JUMP JUMPDEST PUSH2 0xD6E DUP2 PUSH2 0x904 JUMP JUMPDEST DUP2 EQ PUSH2 0xD78 JUMPI PUSH0 PUSH0 REVERT JUMPDEST POP JUMP JUMPDEST PUSH0 DUP2 MLOAD SWAP1 POP PUSH2 0xD89 DUP2 PUSH2 0xD65 JUMP JUMPDEST SWAP3 SWAP2 POP POP JUMP JUMPDEST PUSH2 0xD98 DUP2 PUSH2 0x8AB JUMP JUMPDEST DUP2 EQ PUSH2 0xDA2 JUMPI PUSH0 PUSH0 REVERT JUMPDEST POP JUMP JUMPDEST PUSH0 DUP2 MLOAD SWAP1 POP PUSH2 0xDB3 DUP2 PUSH2 0xD8F JUMP JUMPDEST SWAP3 SWAP2 POP POP JUMP JUMPDEST PUSH0 PUSH0 PUSH0 PUSH0 PUSH0 PUSH1 0xA0 DUP7 DUP9 SUB SLT ISZERO PUSH2 0xDD2 JUMPI PUSH2 0xDD1 PUSH2 0x822 JUMP JUMPDEST JUMPDEST PUSH0 PUSH2 0xDDF DUP9 DUP3 DUP10 ADD PUSH2 0xD51 JUMP JUMPDEST SWAP6 POP POP PUSH1 0x20 PUSH2 0xDF0 DUP9 DUP3 DUP10 ADD PUSH2 0xD7B JUMP JUMPDEST SWAP5 POP POP PUSH1 0x40 PUSH2 0xE01 DUP9 DUP3 DUP10 ADD PUSH2 0xDA5 JUMP JUMPDEST SWAP4 POP POP PUSH1 0x60 PUSH2 0xE12 DUP9 DUP3 DUP10 ADD PUSH2 0xDA5 JUMP JUMPDEST SWAP3 POP POP PUSH1 0x80 PUSH2 0xE23 DUP9 DUP3 DUP10 ADD PUSH2 0xD51 JUMP JUMPDEST SWAP2 POP POP SWAP3 SWAP6 POP SWAP3 SWAP6 SWAP1 SWAP4 POP JUMP JUMPDEST PUSH0 PUSH2 0xE3A DUP3 PUSH2 0x8AB JUMP JUMPDEST SWAP2 POP PUSH2 0xE45 DUP4 PUSH2 0x8AB JUMP JUMPDEST SWAP3 POP DUP3 DUP3 MUL PUSH2 0xE53 DUP2 PUSH2 0x8AB JUMP JUMPDEST SWAP2 POP DUP3 DUP3 DIV DUP5 EQ DUP4 ISZERO OR PUSH2 0xE6A JUMPI PUSH2 0xE69 PUSH2 0x935 JUMP JUMPDEST JUMPDEST POP SWAP3 SWAP2 POP POP JUMP INVALID LOG2 PUSH5 0x6970667358 0x22 SLT KECCAK256 0xAA EQ ADDMOD PUSH21 0x470B68D7159D05B6DFA0DA9A38CD5C6ADE972B83DC BLOBBASEFEE 0xB2 CALLVALUE CALLER 0xB1 MUL 0xF6 PUSH5 0x736F6C6343 STOP ADDMOD SHR STOP CALLER "
				},
				"gasEstimates": {
					"creation": {
						"codeDepositCost": "750200",
						"executionCost": "infinite",
						"totalCost": "infinite"
					},
					"external": {
						"fund()": "infinite",
						"funderToAmount(address)": "2803",
						"getChainlinkDataFeedLatestAnswer()": "infinite",
						"getFund()": "infinite",
						"owner()": "2553",
						"refund()": "infinite",
						"transferOwnership(address)": "26950"
					},
					"internal": {
						"convertEthToUsd(uint256)": "infinite"
					}
				},
				"methodIdentifiers": {
					"fund()": "b60d4288",
					"funderToAmount(address)": "4407e1e8",
					"getChainlinkDataFeedLatestAnswer()": "bea4dfb5",
					"getFund()": "8edd6eb6",
					"owner()": "8da5cb5b",
					"refund()": "590e1ae3",
					"transferOwnership(address)": "f2fde38b"
				}
			},
			"storageLayout": {
				"storage": [
					{
						"astId": 52,
						"contract": "FundMe/FundMe.sol:FundMe",
						"label": "dataFeed",
						"offset": 0,
						"slot": "0",
						"type": "t_contract(AggregatorV3Interface)45"
					},
					{
						"astId": 56,
						"contract": "FundMe/FundMe.sol:FundMe",
						"label": "funderToAmount",
						"offset": 0,
						"slot": "1",
						"type": "t_mapping(t_address,t_uint256)"
					},
					{
						"astId": 84,
						"contract": "FundMe/FundMe.sol:FundMe",
						"label": "owner",
						"offset": 0,
						"slot": "2",
						"type": "t_address"
					},
					{
						"astId": 86,
						"contract": "FundMe/FundMe.sol:FundMe",
						"label": "deploymentTime",
						"offset": 0,
						"slot": "3",
						"type": "t_uint256"
					},
					{
						"astId": 88,
						"contract": "FundMe/FundMe.sol:FundMe",
						"label": "lockTime",
						"offset": 0,
						"slot": "4",
						"type": "t_uint256"
					}
				],
				"types": {
					"t_address": {
						"encoding": "inplace",
						"label": "address",
						"numberOfBytes": "20"
					},
					"t_contract(AggregatorV3Interface)45": {
						"encoding": "inplace",
						"label": "contract AggregatorV3Interface",
						"numberOfBytes": "20"
					},
					"t_mapping(t_address,t_uint256)": {
						"encoding": "mapping",
						"key": "t_address",
						"label": "mapping(address => uint256)",
						"numberOfBytes": "32",
						"value": "t_uint256"
					},
					"t_uint256": {
						"encoding": "inplace",
						"label": "uint256",
						"numberOfBytes": "32"
					}
				}
			},
			"userdoc": {
				"kind": "user",
				"methods": {},
				"version": 1
			}
		}
	}
}