{
	"FundMe/FundMe.sol": {
		"FundMe": {
			"abi": [
				{
					"inputs": [
						{
							"internalType": "uint256",
							"name": "_lockTime",
							"type": "uint256"
						}
					],
					"stateMutability": "nonpayable",
					"type": "constructor"
				},
				{
					"inputs": [
						{
							"internalType": "address",
							"name": "addr",
							"type": "address"
						}
					],
					"name": "checkFunderAmount",
					"outputs": [
						{
							"internalType": "uint256",
							"name": "",
							"type": "uint256"
						}
					],
					"stateMutability": "view",
					"type": "function"
				},
				{
					"inputs": [],
					"name": "checkMyAmount",
					"outputs": [
						{
							"internalType": "uint256",
							"name": "",
							"type": "uint256"
						}
					],
					"stateMutability": "view",
					"type": "function"
				},
				{
					"inputs": [],
					"name": "fund",
					"outputs": [],
					"stateMutability": "payable",
					"type": "function"
				},
				{
					"inputs": [
						{
							"internalType": "address",
							"name": "",
							"type": "address"
						}
					],
					"name": "funderToAmount",
					"outputs": [
						{
							"internalType": "uint256",
							"name": "",
							"type": "uint256"
						}
					],
					"stateMutability": "view",
					"type": "function"
				},
				{
					"inputs": [],
					"name": "getChainlinkDataFeedLatestAnswer",
					"outputs": [
						{
							"internalType": "int256",
							"name": "",
							"type": "int256"
						}
					],
					"stateMutability": "view",
					"type": "function"
				},
				{
					"inputs": [],
					"name": "getFund",
					"outputs": [],
					"stateMutability": "nonpayable",
					"type": "function"
				},
				{
					"inputs": [],
					"name": "getFundSuccess",
					"outputs": [
						{
							"internalType": "bool",
							"name": "",
							"type": "bool"
						}
					],
					"stateMutability": "view",
					"type": "function"
				},
				{
					"inputs": [],
					"name": "owner",
					"outputs": [
						{
							"internalType": "address",
							"name": "",
							"type": "address"
						}
					],
					"stateMutability": "view",
					"type": "function"
				},
				{
					"inputs": [],
					"name": "refund",
					"outputs": [],
					"stateMutability": "nonpayable",
					"type": "function"
				},
				{
					"inputs": [
						{
							"internalType": "address",
							"name": "_erc20Addr",
							"type": "address"
						}
					],
					"name": "setErc20Addr",
					"outputs": [],
					"stateMutability": "nonpayable",
					"type": "function"
				},
				{
					"inputs": [
						{
							"internalType": "address",
							"name": "funder",
							"type": "address"
						},
						{
							"internalType": "uint256",
							"name": "amount",
							"type": "uint256"
						}
					],
					"name": "setFunderToAmount",
					"outputs": [],
					"stateMutability": "nonpayable",
					"type": "function"
				},
				{
					"inputs": [
						{
							"internalType": "address",
							"name": "newOwner",
							"type": "address"
						}
					],
					"name": "transferOwnership",
					"outputs": [],
					"stateMutability": "nonpayable",
					"type": "function"
				}
			],
			"devdoc": {
				"kind": "dev",
				"methods": {},
				"version": 1
			},
			"evm": {
				"assembly": "    /* \"FundMe/FundMe.sol\":172:3809  contract FundMe {... */\n  mstore(0x40, 0x80)\n    /* \"FundMe/FundMe.sol\":556:561  false */\n  0x00\n    /* \"FundMe/FundMe.sol\":527:561  bool public getFundSuccess = false */\n  0x06\n  exp(0x0100, 0x00)\n  dup2\n  sload\n  dup2\n  0xff\n  mul\n  not\n  and\n  swap1\n  dup4\n  iszero\n  iszero\n  mul\n  or\n  swap1\n  sstore\n  pop\n    /* \"FundMe/FundMe.sol\":568:923  constructor(uint256 _lockTime) {... */\n  callvalue\n  dup1\n  iszero\n  tag_1\n  jumpi\n  revert(0x00, 0x00)\ntag_1:\n  pop\n  mload(0x40)\n  sub(codesize, bytecodeSize)\n  dup1\n  bytecodeSize\n  dup4\n  codecopy\n  dup2\n  dup2\n  add\n  0x40\n  mstore\n  dup2\n  add\n  swap1\n  tag_2\n  swap2\n  swap1\n  tag_3\n  jump\t// in\ntag_2:\n    /* \"FundMe/FundMe.sol\":629:630  0 */\n  0x00\n    /* \"FundMe/FundMe.sol\":617:626  _lockTime */\n  dup2\n    /* \"FundMe/FundMe.sol\":617:630  _lockTime > 0 */\n  gt\n    /* \"FundMe/FundMe.sol\":609:670  require(_lockTime > 0, \"Lock time must be greater than zero\") */\n  tag_6\n  jumpi\n  mload(0x40)\n  0x08c379a000000000000000000000000000000000000000000000000000000000\n  dup2\n  mstore\n  0x04\n  add\n  tag_7\n  swap1\n  tag_8\n  jump\t// in\ntag_7:\n  mload(0x40)\n  dup1\n  swap2\n  sub\n  swap1\n  revert\ntag_6:\n    /* \"FundMe/FundMe.sol\":688:698  msg.sender */\n  caller\n    /* \"FundMe/FundMe.sol\":680:685  owner */\n  0x02\n  0x00\n    /* \"FundMe/FundMe.sol\":680:698  owner = msg.sender */\n  0x0100\n  exp\n  dup2\n  sload\n  dup2\n  0xffffffffffffffffffffffffffffffffffffffff\n  mul\n  not\n  and\n  swap1\n  dup4\n  0xffffffffffffffffffffffffffffffffffffffff\n  and\n  mul\n  or\n  swap1\n  sstore\n  pop\n    /* \"FundMe/FundMe.sol\":725:740  block.timestamp */\n  timestamp\n    /* \"FundMe/FundMe.sol\":708:722  deploymentTime */\n  0x04\n    /* \"FundMe/FundMe.sol\":708:740  deploymentTime = block.timestamp */\n  dup2\n  swap1\n  sstore\n  pop\n    /* \"FundMe/FundMe.sol\":777:786  _lockTime */\n  dup1\n    /* \"FundMe/FundMe.sol\":766:774  lockTime */\n  0x05\n    /* \"FundMe/FundMe.sol\":766:786  lockTime = _lockTime */\n  dup2\n  swap1\n  sstore\n  pop\n    /* \"FundMe/FundMe.sol\":842:884  0x694AA1769357215DE4FAC081bf1f309aDC325306 */\n  0x694aa1769357215de4fac081bf1f309adc325306\n    /* \"FundMe/FundMe.sol\":796:804  dataFeed */\n  0x00\n  0x00\n    /* \"FundMe/FundMe.sol\":796:894  dataFeed = AggregatorV3Interface(... */\n  0x0100\n  exp\n  dup2\n  sload\n  dup2\n  0xffffffffffffffffffffffffffffffffffffffff\n  mul\n  not\n  and\n  swap1\n  dup4\n  0xffffffffffffffffffffffffffffffffffffffff\n  and\n  mul\n  or\n  swap1\n  sstore\n  pop\n    /* \"FundMe/FundMe.sol\":568:923  constructor(uint256 _lockTime) {... */\n  pop\n    /* \"FundMe/FundMe.sol\":172:3809  contract FundMe {... */\n  jump(tag_9)\n    /* \"#utility.yul\":88:205   */\ntag_11:\n    /* \"#utility.yul\":197:198   */\n  0x00\n    /* \"#utility.yul\":194:195   */\n  0x00\n    /* \"#utility.yul\":187:199   */\n  revert\n    /* \"#utility.yul\":334:411   */\ntag_13:\n    /* \"#utility.yul\":371:378   */\n  0x00\n    /* \"#utility.yul\":400:405   */\n  dup2\n    /* \"#utility.yul\":389:405   */\n  swap1\n  pop\n    /* \"#utility.yul\":334:411   */\n  swap2\n  swap1\n  pop\n  jump\t// out\n    /* \"#utility.yul\":417:539   */\ntag_14:\n    /* \"#utility.yul\":490:514   */\n  tag_25\n    /* \"#utility.yul\":508:513   */\n  dup2\n    /* \"#utility.yul\":490:514   */\n  tag_13\n  jump\t// in\ntag_25:\n    /* \"#utility.yul\":483:488   */\n  dup2\n    /* \"#utility.yul\":480:515   */\n  eq\n    /* \"#utility.yul\":470:533   */\n  tag_26\n  jumpi\n    /* \"#utility.yul\":529:530   */\n  0x00\n    /* \"#utility.yul\":526:527   */\n  0x00\n    /* \"#utility.yul\":519:531   */\n  revert\n    /* \"#utility.yul\":470:533   */\ntag_26:\n    /* \"#utility.yul\":417:539   */\n  pop\n  jump\t// out\n    /* \"#utility.yul\":545:688   */\ntag_15:\n    /* \"#utility.yul\":602:607   */\n  0x00\n    /* \"#utility.yul\":633:639   */\n  dup2\n    /* \"#utility.yul\":627:640   */\n  mload\n    /* \"#utility.yul\":618:640   */\n  swap1\n  pop\n    /* \"#utility.yul\":649:682   */\n  tag_28\n    /* \"#utility.yul\":676:681   */\n  dup2\n    /* \"#utility.yul\":649:682   */\n  tag_14\n  jump\t// in\ntag_28:\n    /* \"#utility.yul\":545:688   */\n  swap3\n  swap2\n  pop\n  pop\n  jump\t// out\n    /* \"#utility.yul\":694:1045   */\ntag_3:\n    /* \"#utility.yul\":764:770   */\n  0x00\n    /* \"#utility.yul\":813:815   */\n  0x20\n    /* \"#utility.yul\":801:810   */\n  dup3\n    /* \"#utility.yul\":792:799   */\n  dup5\n    /* \"#utility.yul\":788:811   */\n  sub\n    /* \"#utility.yul\":784:816   */\n  slt\n    /* \"#utility.yul\":781:900   */\n  iszero\n  tag_30\n  jumpi\n    /* \"#utility.yul\":819:898   */\n  tag_31\n  tag_11\n  jump\t// in\ntag_31:\n    /* \"#utility.yul\":781:900   */\ntag_30:\n    /* \"#utility.yul\":939:940   */\n  0x00\n    /* \"#utility.yul\":964:1028   */\n  tag_32\n    /* \"#utility.yul\":1020:1027   */\n  dup5\n    /* \"#utility.yul\":1011:1017   */\n  dup3\n    /* \"#utility.yul\":1000:1009   */\n  dup6\n    /* \"#utility.yul\":996:1018   */\n  add\n    /* \"#utility.yul\":964:1028   */\n  tag_15\n  jump\t// in\ntag_32:\n    /* \"#utility.yul\":954:1028   */\n  swap2\n  pop\n    /* \"#utility.yul\":910:1038   */\n  pop\n    /* \"#utility.yul\":694:1045   */\n  swap3\n  swap2\n  pop\n  pop\n  jump\t// out\n    /* \"#utility.yul\":1051:1220   */\ntag_16:\n    /* \"#utility.yul\":1135:1146   */\n  0x00\n    /* \"#utility.yul\":1169:1175   */\n  dup3\n    /* \"#utility.yul\":1164:1167   */\n  dup3\n    /* \"#utility.yul\":1157:1176   */\n  mstore\n    /* \"#utility.yul\":1209:1213   */\n  0x20\n    /* \"#utility.yul\":1204:1207   */\n  dup3\n    /* \"#utility.yul\":1200:1214   */\n  add\n    /* \"#utility.yul\":1185:1214   */\n  swap1\n  pop\n    /* \"#utility.yul\":1051:1220   */\n  swap3\n  swap2\n  pop\n  pop\n  jump\t// out\n    /* \"#utility.yul\":1226:1448   */\ntag_17:\n    /* \"#utility.yul\":1366:1400   */\n  0x4c6f636b2074696d65206d7573742062652067726561746572207468616e207a\n    /* \"#utility.yul\":1362:1363   */\n  0x00\n    /* \"#utility.yul\":1354:1360   */\n  dup3\n    /* \"#utility.yul\":1350:1364   */\n  add\n    /* \"#utility.yul\":1343:1401   */\n  mstore\n    /* \"#utility.yul\":1435:1440   */\n  0x65726f0000000000000000000000000000000000000000000000000000000000\n    /* \"#utility.yul\":1430:1432   */\n  0x20\n    /* \"#utility.yul\":1422:1428   */\n  dup3\n    /* \"#utility.yul\":1418:1433   */\n  add\n    /* \"#utility.yul\":1411:1441   */\n  mstore\n    /* \"#utility.yul\":1226:1448   */\n  pop\n  jump\t// out\n    /* \"#utility.yul\":1454:1820   */\ntag_18:\n    /* \"#utility.yul\":1596:1599   */\n  0x00\n    /* \"#utility.yul\":1617:1684   */\n  tag_36\n    /* \"#utility.yul\":1681:1683   */\n  0x23\n    /* \"#utility.yul\":1676:1679   */\n  dup4\n    /* \"#utility.yul\":1617:1684   */\n  tag_16\n  jump\t// in\ntag_36:\n    /* \"#utility.yul\":1610:1684   */\n  swap2\n  pop\n    /* \"#utility.yul\":1693:1786   */\n  tag_37\n    /* \"#utility.yul\":1782:1785   */\n  dup3\n    /* \"#utility.yul\":1693:1786   */\n  tag_17\n  jump\t// in\ntag_37:\n    /* \"#utility.yul\":1811:1813   */\n  0x40\n    /* \"#utility.yul\":1806:1809   */\n  dup3\n    /* \"#utility.yul\":1802:1814   */\n  add\n    /* \"#utility.yul\":1795:1814   */\n  swap1\n  pop\n    /* \"#utility.yul\":1454:1820   */\n  swap2\n  swap1\n  pop\n  jump\t// out\n    /* \"#utility.yul\":1826:2245   */\ntag_8:\n    /* \"#utility.yul\":1992:1996   */\n  0x00\n    /* \"#utility.yul\":2030:2032   */\n  0x20\n    /* \"#utility.yul\":2019:2028   */\n  dup3\n    /* \"#utility.yul\":2015:2033   */\n  add\n    /* \"#utility.yul\":2007:2033   */\n  swap1\n  pop\n    /* \"#utility.yul\":2079:2088   */\n  dup2\n    /* \"#utility.yul\":2073:2077   */\n  dup2\n    /* \"#utility.yul\":2069:2089   */\n  sub\n    /* \"#utility.yul\":2065:2066   */\n  0x00\n    /* \"#utility.yul\":2054:2063   */\n  dup4\n    /* \"#utility.yul\":2050:2067   */\n  add\n    /* \"#utility.yul\":2043:2090   */\n  mstore\n    /* \"#utility.yul\":2107:2238   */\n  tag_39\n    /* \"#utility.yul\":2233:2237   */\n  dup2\n    /* \"#utility.yul\":2107:2238   */\n  tag_18\n  jump\t// in\ntag_39:\n    /* \"#utility.yul\":2099:2238   */\n  swap1\n  pop\n    /* \"#utility.yul\":1826:2245   */\n  swap2\n  swap1\n  pop\n  jump\t// out\n    /* \"FundMe/FundMe.sol\":172:3809  contract FundMe {... */\ntag_9:\n  dataSize(sub_0)\n  dup1\n  dataOffset(sub_0)\n  0x00\n  codecopy\n  0x00\n  return\nstop\n\nsub_0: assembly {\n        /* \"FundMe/FundMe.sol\":172:3809  contract FundMe {... */\n      mstore(0x40, 0x80)\n      jumpi(tag_1, lt(calldatasize, 0x04))\n      shr(0xe0, calldataload(0x00))\n      dup1\n      0xb60d4288\n      gt\n      tag_14\n      jumpi\n      dup1\n      0xb60d4288\n      eq\n      tag_8\n      jumpi\n      dup1\n      0xbea4dfb5\n      eq\n      tag_9\n      jumpi\n      dup1\n      0xd39cf006\n      eq\n      tag_10\n      jumpi\n      dup1\n      0xda4658e0\n      eq\n      tag_11\n      jumpi\n      dup1\n      0xdba244f1\n      eq\n      tag_12\n      jumpi\n      dup1\n      0xf2fde38b\n      eq\n      tag_13\n      jumpi\n      jump(tag_1)\n    tag_14:\n      dup1\n      0x13ffff01\n      eq\n      tag_2\n      jumpi\n      dup1\n      0x4407e1e8\n      eq\n      tag_3\n      jumpi\n      dup1\n      0x590e1ae3\n      eq\n      tag_4\n      jumpi\n      dup1\n      0x7795dc2a\n      eq\n      tag_5\n      jumpi\n      dup1\n      0x8da5cb5b\n      eq\n      tag_6\n      jumpi\n      dup1\n      0x8edd6eb6\n      eq\n      tag_7\n      jumpi\n    tag_1:\n      revert(0x00, 0x00)\n        /* \"FundMe/FundMe.sol\":3445:3543  function setErc20Addr(address _erc20Addr) public onlyOwner {... */\n    tag_2:\n      callvalue\n      dup1\n      iszero\n      tag_15\n      jumpi\n      revert(0x00, 0x00)\n    tag_15:\n      pop\n      tag_16\n      0x04\n      dup1\n      calldatasize\n      sub\n      dup2\n      add\n      swap1\n      tag_17\n      swap2\n      swap1\n      tag_18\n      jump\t// in\n    tag_17:\n      tag_19\n      jump\t// in\n    tag_16:\n      stop\n        /* \"FundMe/FundMe.sol\":240:289  mapping(address => uint256) public funderToAmount */\n    tag_3:\n      callvalue\n      dup1\n      iszero\n      tag_20\n      jumpi\n      revert(0x00, 0x00)\n    tag_20:\n      pop\n      tag_21\n      0x04\n      dup1\n      calldatasize\n      sub\n      dup2\n      add\n      swap1\n      tag_22\n      swap2\n      swap1\n      tag_18\n      jump\t// in\n    tag_22:\n      tag_23\n      jump\t// in\n    tag_21:\n      mload(0x40)\n      tag_24\n      swap2\n      swap1\n      tag_25\n      jump\t// in\n    tag_24:\n      mload(0x40)\n      dup1\n      swap2\n      sub\n      swap1\n      return\n        /* \"FundMe/FundMe.sol\":2502:2954  function refund() external windowClosed {... */\n    tag_4:\n      callvalue\n      dup1\n      iszero\n      tag_26\n      jumpi\n      revert(0x00, 0x00)\n    tag_26:\n      pop\n      tag_27\n      tag_28\n      jump\t// in\n    tag_27:\n      stop\n        /* \"FundMe/FundMe.sol\":2960:3067  function checkMyAmount() external view returns (uint256) {... */\n    tag_5:\n      callvalue\n      dup1\n      iszero\n      tag_29\n      jumpi\n      revert(0x00, 0x00)\n    tag_29:\n      pop\n      tag_30\n      tag_31\n      jump\t// in\n    tag_30:\n      mload(0x40)\n      tag_32\n      swap2\n      swap1\n      tag_25\n      jump\t// in\n    tag_32:\n      mload(0x40)\n      dup1\n      swap2\n      sub\n      swap1\n      return\n        /* \"FundMe/FundMe.sol\":418:438  address public owner */\n    tag_6:\n      callvalue\n      dup1\n      iszero\n      tag_33\n      jumpi\n      revert(0x00, 0x00)\n    tag_33:\n      pop\n      tag_34\n      tag_35\n      jump\t// in\n    tag_34:\n      mload(0x40)\n      tag_36\n      swap2\n      swap1\n      tag_37\n      jump\t// in\n    tag_36:\n      mload(0x40)\n      dup1\n      swap2\n      sub\n      swap1\n      return\n        /* \"FundMe/FundMe.sol\":1911:2496  function getFund() external onlyOwner windowClosed {... */\n    tag_7:\n      callvalue\n      dup1\n      iszero\n      tag_38\n      jumpi\n      revert(0x00, 0x00)\n    tag_38:\n      pop\n      tag_39\n      tag_40\n      jump\t// in\n    tag_39:\n      stop\n        /* \"FundMe/FundMe.sol\":929:1178  function fund() external payable {... */\n    tag_8:\n      tag_41\n      tag_42\n      jump\t// in\n    tag_41:\n      stop\n        /* \"FundMe/FundMe.sol\":1237:1578  function getChainlinkDataFeedLatestAnswer() public view returns (int256) {... */\n    tag_9:\n      callvalue\n      dup1\n      iszero\n      tag_43\n      jumpi\n      revert(0x00, 0x00)\n    tag_43:\n      pop\n      tag_44\n      tag_45\n      jump\t// in\n    tag_44:\n      mload(0x40)\n      tag_46\n      swap2\n      swap1\n      tag_47\n      jump\t// in\n    tag_46:\n      mload(0x40)\n      dup1\n      swap2\n      sub\n      swap1\n      return\n        /* \"FundMe/FundMe.sol\":3196:3439  function setFunderToAmount(address funder, uint256 amount) public {... */\n    tag_10:\n      callvalue\n      dup1\n      iszero\n      tag_48\n      jumpi\n      revert(0x00, 0x00)\n    tag_48:\n      pop\n      tag_49\n      0x04\n      dup1\n      calldatasize\n      sub\n      dup2\n      add\n      swap1\n      tag_50\n      swap2\n      swap1\n      tag_51\n      jump\t// in\n    tag_50:\n      tag_52\n      jump\t// in\n    tag_49:\n      stop\n        /* \"FundMe/FundMe.sol\":527:561  bool public getFundSuccess = false */\n    tag_11:\n      callvalue\n      dup1\n      iszero\n      tag_53\n      jumpi\n      revert(0x00, 0x00)\n    tag_53:\n      pop\n      tag_54\n      tag_55\n      jump\t// in\n    tag_54:\n      mload(0x40)\n      tag_56\n      swap2\n      swap1\n      tag_57\n      jump\t// in\n    tag_56:\n      mload(0x40)\n      dup1\n      swap2\n      sub\n      swap1\n      return\n        /* \"FundMe/FundMe.sol\":3073:3190  function checkFunderAmount(address addr) external view returns (uint256) {... */\n    tag_12:\n      callvalue\n      dup1\n      iszero\n      tag_58\n      jumpi\n      revert(0x00, 0x00)\n    tag_58:\n      pop\n      tag_59\n      0x04\n      dup1\n      calldatasize\n      sub\n      dup2\n      add\n      swap1\n      tag_60\n      swap2\n      swap1\n      tag_18\n      jump\t// in\n    tag_60:\n      tag_61\n      jump\t// in\n    tag_59:\n      mload(0x40)\n      tag_62\n      swap2\n      swap1\n      tag_25\n      jump\t// in\n    tag_62:\n      mload(0x40)\n      dup1\n      swap2\n      sub\n      swap1\n      return\n        /* \"FundMe/FundMe.sol\":1810:1905  function transferOwnership(address newOwner) public onlyOwner {... */\n    tag_13:\n      callvalue\n      dup1\n      iszero\n      tag_63\n      jumpi\n      revert(0x00, 0x00)\n    tag_63:\n      pop\n      tag_64\n      0x04\n      dup1\n      calldatasize\n      sub\n      dup2\n      add\n      swap1\n      tag_65\n      swap2\n      swap1\n      tag_18\n      jump\t// in\n    tag_65:\n      tag_66\n      jump\t// in\n    tag_64:\n      stop\n        /* \"FundMe/FundMe.sol\":3445:3543  function setErc20Addr(address _erc20Addr) public onlyOwner {... */\n    tag_19:\n        /* \"FundMe/FundMe.sol\":3597:3607  msg.sender */\n      caller\n        /* \"FundMe/FundMe.sol\":3588:3607  owner == msg.sender */\n      0xffffffffffffffffffffffffffffffffffffffff\n      and\n        /* \"FundMe/FundMe.sol\":3588:3593  owner */\n      0x02\n      0x00\n      swap1\n      sload\n      swap1\n      0x0100\n      exp\n      swap1\n      div\n      0xffffffffffffffffffffffffffffffffffffffff\n      and\n        /* \"FundMe/FundMe.sol\":3588:3607  owner == msg.sender */\n      0xffffffffffffffffffffffffffffffffffffffff\n      and\n      eq\n        /* \"FundMe/FundMe.sol\":3580:3623  require(owner == msg.sender, \"Owner only!\") */\n      tag_68\n      jumpi\n      mload(0x40)\n      0x08c379a000000000000000000000000000000000000000000000000000000000\n      dup2\n      mstore\n      0x04\n      add\n      tag_69\n      swap1\n      tag_70\n      jump\t// in\n    tag_69:\n      mload(0x40)\n      dup1\n      swap2\n      sub\n      swap1\n      revert\n    tag_68:\n        /* \"FundMe/FundMe.sol\":3526:3536  _erc20Addr */\n      dup1\n        /* \"FundMe/FundMe.sol\":3514:3523  erc20Addr */\n      0x03\n      0x00\n        /* \"FundMe/FundMe.sol\":3514:3536  erc20Addr = _erc20Addr */\n      0x0100\n      exp\n      dup2\n      sload\n      dup2\n      0xffffffffffffffffffffffffffffffffffffffff\n      mul\n      not\n      and\n      swap1\n      dup4\n      0xffffffffffffffffffffffffffffffffffffffff\n      and\n      mul\n      or\n      swap1\n      sstore\n      pop\n        /* \"FundMe/FundMe.sol\":3445:3543  function setErc20Addr(address _erc20Addr) public onlyOwner {... */\n      pop\n      jump\t// out\n        /* \"FundMe/FundMe.sol\":240:289  mapping(address => uint256) public funderToAmount */\n    tag_23:\n      mstore(0x20, 0x01)\n      dup1\n      0x00\n      mstore\n      keccak256(0x00, 0x40)\n      0x00\n      swap2\n      pop\n      swap1\n      pop\n      sload\n      dup2\n      jump\t// out\n        /* \"FundMe/FundMe.sol\":2502:2954  function refund() external windowClosed {... */\n    tag_28:\n        /* \"FundMe/FundMe.sol\":3737:3745  lockTime */\n      sload(0x05)\n        /* \"FundMe/FundMe.sol\":3720:3734  deploymentTime */\n      sload(0x04)\n        /* \"FundMe/FundMe.sol\":3720:3745  deploymentTime + lockTime */\n      tag_73\n      swap2\n      swap1\n      tag_74\n      jump\t// in\n    tag_73:\n        /* \"FundMe/FundMe.sol\":3702:3717  block.timestamp */\n      timestamp\n        /* \"FundMe/FundMe.sol\":3702:3745  block.timestamp > deploymentTime + lockTime */\n      gt\n        /* \"FundMe/FundMe.sol\":3681:3789  require(... */\n      tag_75\n      jumpi\n      mload(0x40)\n      0x08c379a000000000000000000000000000000000000000000000000000000000\n      dup2\n      mstore\n      0x04\n      add\n      tag_76\n      swap1\n      tag_77\n      jump\t// in\n    tag_76:\n      mload(0x40)\n      dup1\n      swap2\n      sub\n      swap1\n      revert\n    tag_75:\n        /* \"FundMe/FundMe.sol\":389:411  1 * (10**18) * (10**8) */\n      0x52b7d2dcc80cd2e4000000\n        /* \"FundMe/FundMe.sol\":2573:2611  convertEthToUsd(address(this).balance) */\n      tag_79\n        /* \"FundMe/FundMe.sol\":2589:2610  address(this).balance */\n      selfbalance\n        /* \"FundMe/FundMe.sol\":2573:2588  convertEthToUsd */\n      tag_80\n        /* \"FundMe/FundMe.sol\":2573:2611  convertEthToUsd(address(this).balance) */\n      jump\t// in\n    tag_79:\n        /* \"FundMe/FundMe.sol\":2573:2620  convertEthToUsd(address(this).balance) < TARGET */\n      lt\n        /* \"FundMe/FundMe.sol\":2552:2664  require(... */\n      tag_81\n      jumpi\n      mload(0x40)\n      0x08c379a000000000000000000000000000000000000000000000000000000000\n      dup2\n      mstore\n      0x04\n      add\n      tag_82\n      swap1\n      tag_83\n      jump\t// in\n    tag_82:\n      mload(0x40)\n      dup1\n      swap2\n      sub\n      swap1\n      revert\n    tag_81:\n        /* \"FundMe/FundMe.sol\":2674:2688  uint256 amount */\n      0x00\n        /* \"FundMe/FundMe.sol\":2691:2705  funderToAmount */\n      0x01\n        /* \"FundMe/FundMe.sol\":2691:2717  funderToAmount[msg.sender] */\n      0x00\n        /* \"FundMe/FundMe.sol\":2706:2716  msg.sender */\n      caller\n        /* \"FundMe/FundMe.sol\":2691:2717  funderToAmount[msg.sender] */\n      0xffffffffffffffffffffffffffffffffffffffff\n      and\n      0xffffffffffffffffffffffffffffffffffffffff\n      and\n      dup2\n      mstore\n      0x20\n      add\n      swap1\n      dup2\n      mstore\n      0x20\n      add\n      0x00\n      keccak256\n      sload\n        /* \"FundMe/FundMe.sol\":2674:2717  uint256 amount = funderToAmount[msg.sender] */\n      swap1\n      pop\n        /* \"FundMe/FundMe.sol\":2745:2746  0 */\n      0x00\n        /* \"FundMe/FundMe.sol\":2735:2741  amount */\n      dup2\n        /* \"FundMe/FundMe.sol\":2735:2746  amount != 0 */\n      sub\n        /* \"FundMe/FundMe.sol\":2727:2768  require(amount != 0, \"You haven't fund!\") */\n      tag_84\n      jumpi\n      mload(0x40)\n      0x08c379a000000000000000000000000000000000000000000000000000000000\n      dup2\n      mstore\n      0x04\n      add\n      tag_85\n      swap1\n      tag_86\n      jump\t// in\n    tag_85:\n      mload(0x40)\n      dup1\n      swap2\n      sub\n      swap1\n      revert\n    tag_84:\n        /* \"FundMe/FundMe.sol\":2779:2791  bool success */\n      0x00\n        /* \"FundMe/FundMe.sol\":2823:2833  msg.sender */\n      caller\n        /* \"FundMe/FundMe.sol\":2815:2839  payable(msg.sender).call */\n      0xffffffffffffffffffffffffffffffffffffffff\n      and\n        /* \"FundMe/FundMe.sol\":2847:2853  amount */\n      dup3\n        /* \"FundMe/FundMe.sol\":2815:2858  payable(msg.sender).call{value: amount}(\"\") */\n      mload(0x40)\n      tag_87\n      swap1\n      tag_88\n      jump\t// in\n    tag_87:\n      0x00\n      mload(0x40)\n      dup1\n      dup4\n      sub\n      dup2\n      dup6\n      dup8\n      gas\n      call\n      swap3\n      pop\n      pop\n      pop\n      returndatasize\n      dup1\n      0x00\n      dup2\n      eq\n      tag_91\n      jumpi\n      mload(0x40)\n      swap2\n      pop\n      and(add(returndatasize, 0x3f), not(0x1f))\n      dup3\n      add\n      0x40\n      mstore\n      returndatasize\n      dup3\n      mstore\n      returndatasize\n      0x00\n      0x20\n      dup5\n      add\n      returndatacopy\n      jump(tag_90)\n    tag_91:\n      0x60\n      swap2\n      pop\n    tag_90:\n      pop\n        /* \"FundMe/FundMe.sol\":2801:2858  (success, ) = payable(msg.sender).call{value: amount}(\"\") */\n      pop\n      dup1\n      swap2\n      pop\n      pop\n        /* \"FundMe/FundMe.sol\":2876:2883  success */\n      dup1\n        /* \"FundMe/FundMe.sol\":2868:2907  require(success, \"Transfer tx failed!\") */\n      tag_92\n      jumpi\n      mload(0x40)\n      0x08c379a000000000000000000000000000000000000000000000000000000000\n      dup2\n      mstore\n      0x04\n      add\n      tag_93\n      swap1\n      tag_94\n      jump\t// in\n    tag_93:\n      mload(0x40)\n      dup1\n      swap2\n      sub\n      swap1\n      revert\n    tag_92:\n        /* \"FundMe/FundMe.sol\":2946:2947  0 */\n      0x00\n        /* \"FundMe/FundMe.sol\":2917:2931  funderToAmount */\n      0x01\n        /* \"FundMe/FundMe.sol\":2917:2943  funderToAmount[msg.sender] */\n      0x00\n        /* \"FundMe/FundMe.sol\":2932:2942  msg.sender */\n      caller\n        /* \"FundMe/FundMe.sol\":2917:2943  funderToAmount[msg.sender] */\n      0xffffffffffffffffffffffffffffffffffffffff\n      and\n      0xffffffffffffffffffffffffffffffffffffffff\n      and\n      dup2\n      mstore\n      0x20\n      add\n      swap1\n      dup2\n      mstore\n      0x20\n      add\n      0x00\n      keccak256\n        /* \"FundMe/FundMe.sol\":2917:2947  funderToAmount[msg.sender] = 0 */\n      dup2\n      swap1\n      sstore\n      pop\n        /* \"FundMe/FundMe.sol\":2542:2954  {... */\n      pop\n      pop\n        /* \"FundMe/FundMe.sol\":2502:2954  function refund() external windowClosed {... */\n      jump\t// out\n        /* \"FundMe/FundMe.sol\":2960:3067  function checkMyAmount() external view returns (uint256) {... */\n    tag_31:\n        /* \"FundMe/FundMe.sol\":3008:3015  uint256 */\n      0x00\n        /* \"FundMe/FundMe.sol\":3034:3048  funderToAmount */\n      0x01\n        /* \"FundMe/FundMe.sol\":3034:3060  funderToAmount[msg.sender] */\n      0x00\n        /* \"FundMe/FundMe.sol\":3049:3059  msg.sender */\n      caller\n        /* \"FundMe/FundMe.sol\":3034:3060  funderToAmount[msg.sender] */\n      0xffffffffffffffffffffffffffffffffffffffff\n      and\n      0xffffffffffffffffffffffffffffffffffffffff\n      and\n      dup2\n      mstore\n      0x20\n      add\n      swap1\n      dup2\n      mstore\n      0x20\n      add\n      0x00\n      keccak256\n      sload\n        /* \"FundMe/FundMe.sol\":3027:3060  return funderToAmount[msg.sender] */\n      swap1\n      pop\n        /* \"FundMe/FundMe.sol\":2960:3067  function checkMyAmount() external view returns (uint256) {... */\n      swap1\n      jump\t// out\n        /* \"FundMe/FundMe.sol\":418:438  address public owner */\n    tag_35:\n      0x02\n      0x00\n      swap1\n      sload\n      swap1\n      0x0100\n      exp\n      swap1\n      div\n      0xffffffffffffffffffffffffffffffffffffffff\n      and\n      dup2\n      jump\t// out\n        /* \"FundMe/FundMe.sol\":1911:2496  function getFund() external onlyOwner windowClosed {... */\n    tag_40:\n        /* \"FundMe/FundMe.sol\":3597:3607  msg.sender */\n      caller\n        /* \"FundMe/FundMe.sol\":3588:3607  owner == msg.sender */\n      0xffffffffffffffffffffffffffffffffffffffff\n      and\n        /* \"FundMe/FundMe.sol\":3588:3593  owner */\n      0x02\n      0x00\n      swap1\n      sload\n      swap1\n      0x0100\n      exp\n      swap1\n      div\n      0xffffffffffffffffffffffffffffffffffffffff\n      and\n        /* \"FundMe/FundMe.sol\":3588:3607  owner == msg.sender */\n      0xffffffffffffffffffffffffffffffffffffffff\n      and\n      eq\n        /* \"FundMe/FundMe.sol\":3580:3623  require(owner == msg.sender, \"Owner only!\") */\n      tag_97\n      jumpi\n      mload(0x40)\n      0x08c379a000000000000000000000000000000000000000000000000000000000\n      dup2\n      mstore\n      0x04\n      add\n      tag_98\n      swap1\n      tag_70\n      jump\t// in\n    tag_98:\n      mload(0x40)\n      dup1\n      swap2\n      sub\n      swap1\n      revert\n    tag_97:\n        /* \"FundMe/FundMe.sol\":3737:3745  lockTime */\n      sload(0x05)\n        /* \"FundMe/FundMe.sol\":3720:3734  deploymentTime */\n      sload(0x04)\n        /* \"FundMe/FundMe.sol\":3720:3745  deploymentTime + lockTime */\n      tag_100\n      swap2\n      swap1\n      tag_74\n      jump\t// in\n    tag_100:\n        /* \"FundMe/FundMe.sol\":3702:3717  block.timestamp */\n      timestamp\n        /* \"FundMe/FundMe.sol\":3702:3745  block.timestamp > deploymentTime + lockTime */\n      gt\n        /* \"FundMe/FundMe.sol\":3681:3789  require(... */\n      tag_101\n      jumpi\n      mload(0x40)\n      0x08c379a000000000000000000000000000000000000000000000000000000000\n      dup2\n      mstore\n      0x04\n      add\n      tag_102\n      swap1\n      tag_77\n      jump\t// in\n    tag_102:\n      mload(0x40)\n      dup1\n      swap2\n      sub\n      swap1\n      revert\n    tag_101:\n        /* \"FundMe/FundMe.sol\":389:411  1 * (10**18) * (10**8) */\n      0x52b7d2dcc80cd2e4000000\n        /* \"FundMe/FundMe.sol\":1993:2031  convertEthToUsd(address(this).balance) */\n      tag_104\n        /* \"FundMe/FundMe.sol\":2009:2030  address(this).balance */\n      selfbalance\n        /* \"FundMe/FundMe.sol\":1993:2008  convertEthToUsd */\n      tag_80\n        /* \"FundMe/FundMe.sol\":1993:2031  convertEthToUsd(address(this).balance) */\n      jump\t// in\n    tag_104:\n        /* \"FundMe/FundMe.sol\":1993:2041  convertEthToUsd(address(this).balance) >= TARGET */\n      lt\n      iszero\n        /* \"FundMe/FundMe.sol\":1972:2089  require(... */\n      tag_105\n      jumpi\n      mload(0x40)\n      0x08c379a000000000000000000000000000000000000000000000000000000000\n      dup2\n      mstore\n      0x04\n      add\n      tag_106\n      swap1\n      tag_107\n      jump\t// in\n    tag_106:\n      mload(0x40)\n      dup1\n      swap2\n      sub\n      swap1\n      revert\n    tag_105:\n        /* \"FundMe/FundMe.sol\":2293:2305  bool success */\n      0x00\n        /* \"FundMe/FundMe.sol\":2337:2347  msg.sender */\n      caller\n        /* \"FundMe/FundMe.sol\":2329:2353  payable(msg.sender).call */\n      0xffffffffffffffffffffffffffffffffffffffff\n      and\n        /* \"FundMe/FundMe.sol\":2361:2382  address(this).balance */\n      selfbalance\n        /* \"FundMe/FundMe.sol\":2329:2409  payable(msg.sender).call{value: address(this).balance}(... */\n      mload(0x40)\n      tag_108\n      swap1\n      tag_88\n      jump\t// in\n    tag_108:\n      0x00\n      mload(0x40)\n      dup1\n      dup4\n      sub\n      dup2\n      dup6\n      dup8\n      gas\n      call\n      swap3\n      pop\n      pop\n      pop\n      returndatasize\n      dup1\n      0x00\n      dup2\n      eq\n      tag_111\n      jumpi\n      mload(0x40)\n      swap2\n      pop\n      and(add(returndatasize, 0x3f), not(0x1f))\n      dup3\n      add\n      0x40\n      mstore\n      returndatasize\n      dup3\n      mstore\n      returndatasize\n      0x00\n      0x20\n      dup5\n      add\n      returndatacopy\n      jump(tag_110)\n    tag_111:\n      0x60\n      swap2\n      pop\n    tag_110:\n      pop\n        /* \"FundMe/FundMe.sol\":2315:2409  (success, ) = payable(msg.sender).call{value: address(this).balance}(... */\n      pop\n      dup1\n      swap2\n      pop\n      pop\n        /* \"FundMe/FundMe.sol\":2427:2434  success */\n      dup1\n        /* \"FundMe/FundMe.sol\":2419:2458  require(success, \"Transfer tx failed!\") */\n      tag_112\n      jumpi\n      mload(0x40)\n      0x08c379a000000000000000000000000000000000000000000000000000000000\n      dup2\n      mstore\n      0x04\n      add\n      tag_113\n      swap1\n      tag_94\n      jump\t// in\n    tag_113:\n      mload(0x40)\n      dup1\n      swap2\n      sub\n      swap1\n      revert\n    tag_112:\n        /* \"FundMe/FundMe.sol\":2485:2489  true */\n      0x01\n        /* \"FundMe/FundMe.sol\":2468:2482  getFundSuccess */\n      0x06\n      0x00\n        /* \"FundMe/FundMe.sol\":2468:2489  getFundSuccess = true */\n      0x0100\n      exp\n      dup2\n      sload\n      dup2\n      0xff\n      mul\n      not\n      and\n      swap1\n      dup4\n      iszero\n      iszero\n      mul\n      or\n      swap1\n      sstore\n      pop\n        /* \"FundMe/FundMe.sol\":1962:2496  {... */\n      pop\n        /* \"FundMe/FundMe.sol\":1911:2496  function getFund() external onlyOwner windowClosed {... */\n      jump\t// out\n        /* \"FundMe/FundMe.sol\":929:1178  function fund() external payable {... */\n    tag_42:\n        /* \"FundMe/FundMe.sol\":1016:1024  lockTime */\n      sload(0x05)\n        /* \"FundMe/FundMe.sol\":999:1013  deploymentTime */\n      sload(0x04)\n        /* \"FundMe/FundMe.sol\":999:1024  deploymentTime + lockTime */\n      tag_115\n      swap2\n      swap1\n      tag_74\n      jump\t// in\n    tag_115:\n        /* \"FundMe/FundMe.sol\":980:995  block.timestamp */\n      timestamp\n        /* \"FundMe/FundMe.sol\":980:1024  block.timestamp <= deploymentTime + lockTime */\n      gt\n      iszero\n        /* \"FundMe/FundMe.sol\":972:1043  require(block.timestamp <= deploymentTime + lockTime, \"Window closed!\") */\n      tag_116\n      jumpi\n      mload(0x40)\n      0x08c379a000000000000000000000000000000000000000000000000000000000\n      dup2\n      mstore\n      0x04\n      add\n      tag_117\n      swap1\n      tag_118\n      jump\t// in\n    tag_117:\n      mload(0x40)\n      dup1\n      swap2\n      sub\n      swap1\n      revert\n    tag_116:\n        /* \"FundMe/FundMe.sol\":324:346  1 * (10**18) * (10**8) */\n      0x52b7d2dcc80cd2e4000000\n        /* \"FundMe/FundMe.sol\":1061:1087  convertEthToUsd(msg.value) */\n      tag_119\n        /* \"FundMe/FundMe.sol\":1077:1086  msg.value */\n      callvalue\n        /* \"FundMe/FundMe.sol\":1061:1076  convertEthToUsd */\n      tag_80\n        /* \"FundMe/FundMe.sol\":1061:1087  convertEthToUsd(msg.value) */\n      jump\t// in\n    tag_119:\n        /* \"FundMe/FundMe.sol\":1061:1100  convertEthToUsd(msg.value) >= MIN_VALUE */\n      lt\n      iszero\n        /* \"FundMe/FundMe.sol\":1053:1122  require(convertEthToUsd(msg.value) >= MIN_VALUE, \"Please send more!\") */\n      tag_120\n      jumpi\n      mload(0x40)\n      0x08c379a000000000000000000000000000000000000000000000000000000000\n      dup2\n      mstore\n      0x04\n      add\n      tag_121\n      swap1\n      tag_122\n      jump\t// in\n    tag_121:\n      mload(0x40)\n      dup1\n      swap2\n      sub\n      swap1\n      revert\n    tag_120:\n        /* \"FundMe/FundMe.sol\":1162:1171  msg.value */\n      callvalue\n        /* \"FundMe/FundMe.sol\":1132:1146  funderToAmount */\n      0x01\n        /* \"FundMe/FundMe.sol\":1132:1158  funderToAmount[msg.sender] */\n      0x00\n        /* \"FundMe/FundMe.sol\":1147:1157  msg.sender */\n      caller\n        /* \"FundMe/FundMe.sol\":1132:1158  funderToAmount[msg.sender] */\n      0xffffffffffffffffffffffffffffffffffffffff\n      and\n      0xffffffffffffffffffffffffffffffffffffffff\n      and\n      dup2\n      mstore\n      0x20\n      add\n      swap1\n      dup2\n      mstore\n      0x20\n      add\n      0x00\n      keccak256\n      0x00\n        /* \"FundMe/FundMe.sol\":1132:1171  funderToAmount[msg.sender] += msg.value */\n      dup3\n      dup3\n      sload\n      tag_123\n      swap2\n      swap1\n      tag_74\n      jump\t// in\n    tag_123:\n      swap3\n      pop\n      pop\n      dup2\n      swap1\n      sstore\n      pop\n        /* \"FundMe/FundMe.sol\":929:1178  function fund() external payable {... */\n      jump\t// out\n        /* \"FundMe/FundMe.sol\":1237:1578  function getChainlinkDataFeedLatestAnswer() public view returns (int256) {... */\n    tag_45:\n        /* \"FundMe/FundMe.sol\":1302:1308  int256 */\n      0x00\n        /* \"FundMe/FundMe.sol\":1395:1405  int answer */\n      0x00\n        /* \"FundMe/FundMe.sol\":1522:1530  dataFeed */\n      0x00\n      0x00\n      swap1\n      sload\n      swap1\n      0x0100\n      exp\n      swap1\n      div\n      0xffffffffffffffffffffffffffffffffffffffff\n      and\n        /* \"FundMe/FundMe.sol\":1522:1546  dataFeed.latestRoundData */\n      0xffffffffffffffffffffffffffffffffffffffff\n      and\n      0xfeaf968c\n        /* \"FundMe/FundMe.sol\":1522:1548  dataFeed.latestRoundData() */\n      mload(0x40)\n      dup2\n      0xffffffff\n      and\n      0xe0\n      shl\n      dup2\n      mstore\n      0x04\n      add\n      0xa0\n      mload(0x40)\n      dup1\n      dup4\n      sub\n      dup2\n      dup7\n      gas\n      staticcall\n      iszero\n      dup1\n      iszero\n      tag_126\n      jumpi\n      returndatacopy(0x00, 0x00, returndatasize)\n      revert(0x00, returndatasize)\n    tag_126:\n      pop\n      pop\n      pop\n      pop\n      mload(0x40)\n      returndatasize\n      not(0x1f)\n      0x1f\n      dup3\n      add\n      and\n      dup3\n      add\n      dup1\n      0x40\n      mstore\n      pop\n      dup2\n      add\n      swap1\n      tag_127\n      swap2\n      swap1\n      tag_128\n      jump\t// in\n    tag_127:\n        /* \"FundMe/FundMe.sol\":1347:1548  (... */\n      pop\n      pop\n      pop\n      swap2\n      pop\n      pop\n        /* \"FundMe/FundMe.sol\":1565:1571  answer */\n      dup1\n        /* \"FundMe/FundMe.sol\":1558:1571  return answer */\n      swap2\n      pop\n      pop\n        /* \"FundMe/FundMe.sol\":1237:1578  function getChainlinkDataFeedLatestAnswer() public view returns (int256) {... */\n      swap1\n      jump\t// out\n        /* \"FundMe/FundMe.sol\":3196:3439  function setFunderToAmount(address funder, uint256 amount) public {... */\n    tag_52:\n        /* \"FundMe/FundMe.sol\":3307:3316  erc20Addr */\n      0x03\n      0x00\n      swap1\n      sload\n      swap1\n      0x0100\n      exp\n      swap1\n      div\n      0xffffffffffffffffffffffffffffffffffffffff\n      and\n        /* \"FundMe/FundMe.sol\":3293:3316  msg.sender == erc20Addr */\n      0xffffffffffffffffffffffffffffffffffffffff\n      and\n        /* \"FundMe/FundMe.sol\":3293:3303  msg.sender */\n      caller\n        /* \"FundMe/FundMe.sol\":3293:3316  msg.sender == erc20Addr */\n      0xffffffffffffffffffffffffffffffffffffffff\n      and\n      eq\n        /* \"FundMe/FundMe.sol\":3272:3391  require(... */\n      tag_130\n      jumpi\n      mload(0x40)\n      0x08c379a000000000000000000000000000000000000000000000000000000000\n      dup2\n      mstore\n      0x04\n      add\n      tag_131\n      swap1\n      tag_132\n      jump\t// in\n    tag_131:\n      mload(0x40)\n      dup1\n      swap2\n      sub\n      swap1\n      revert\n    tag_130:\n        /* \"FundMe/FundMe.sol\":3426:3432  amount */\n      dup1\n        /* \"FundMe/FundMe.sol\":3401:3415  funderToAmount */\n      0x01\n        /* \"FundMe/FundMe.sol\":3401:3423  funderToAmount[funder] */\n      0x00\n        /* \"FundMe/FundMe.sol\":3416:3422  funder */\n      dup5\n        /* \"FundMe/FundMe.sol\":3401:3423  funderToAmount[funder] */\n      0xffffffffffffffffffffffffffffffffffffffff\n      and\n      0xffffffffffffffffffffffffffffffffffffffff\n      and\n      dup2\n      mstore\n      0x20\n      add\n      swap1\n      dup2\n      mstore\n      0x20\n      add\n      0x00\n      keccak256\n        /* \"FundMe/FundMe.sol\":3401:3432  funderToAmount[funder] = amount */\n      dup2\n      swap1\n      sstore\n      pop\n        /* \"FundMe/FundMe.sol\":3196:3439  function setFunderToAmount(address funder, uint256 amount) public {... */\n      pop\n      pop\n      jump\t// out\n        /* \"FundMe/FundMe.sol\":527:561  bool public getFundSuccess = false */\n    tag_55:\n      0x06\n      0x00\n      swap1\n      sload\n      swap1\n      0x0100\n      exp\n      swap1\n      div\n      0xff\n      and\n      dup2\n      jump\t// out\n        /* \"FundMe/FundMe.sol\":3073:3190  function checkFunderAmount(address addr) external view returns (uint256) {... */\n    tag_61:\n        /* \"FundMe/FundMe.sol\":3137:3144  uint256 */\n      0x00\n        /* \"FundMe/FundMe.sol\":3163:3177  funderToAmount */\n      0x01\n        /* \"FundMe/FundMe.sol\":3163:3183  funderToAmount[addr] */\n      0x00\n        /* \"FundMe/FundMe.sol\":3178:3182  addr */\n      dup4\n        /* \"FundMe/FundMe.sol\":3163:3183  funderToAmount[addr] */\n      0xffffffffffffffffffffffffffffffffffffffff\n      and\n      0xffffffffffffffffffffffffffffffffffffffff\n      and\n      dup2\n      mstore\n      0x20\n      add\n      swap1\n      dup2\n      mstore\n      0x20\n      add\n      0x00\n      keccak256\n      sload\n        /* \"FundMe/FundMe.sol\":3156:3183  return funderToAmount[addr] */\n      swap1\n      pop\n        /* \"FundMe/FundMe.sol\":3073:3190  function checkFunderAmount(address addr) external view returns (uint256) {... */\n      swap2\n      swap1\n      pop\n      jump\t// out\n        /* \"FundMe/FundMe.sol\":1810:1905  function transferOwnership(address newOwner) public onlyOwner {... */\n    tag_66:\n        /* \"FundMe/FundMe.sol\":3597:3607  msg.sender */\n      caller\n        /* \"FundMe/FundMe.sol\":3588:3607  owner == msg.sender */\n      0xffffffffffffffffffffffffffffffffffffffff\n      and\n        /* \"FundMe/FundMe.sol\":3588:3593  owner */\n      0x02\n      0x00\n      swap1\n      sload\n      swap1\n      0x0100\n      exp\n      swap1\n      div\n      0xffffffffffffffffffffffffffffffffffffffff\n      and\n        /* \"FundMe/FundMe.sol\":3588:3607  owner == msg.sender */\n      0xffffffffffffffffffffffffffffffffffffffff\n      and\n      eq\n        /* \"FundMe/FundMe.sol\":3580:3623  require(owner == msg.sender, \"Owner only!\") */\n      tag_135\n      jumpi\n      mload(0x40)\n      0x08c379a000000000000000000000000000000000000000000000000000000000\n      dup2\n      mstore\n      0x04\n      add\n      tag_136\n      swap1\n      tag_70\n      jump\t// in\n    tag_136:\n      mload(0x40)\n      dup1\n      swap2\n      sub\n      swap1\n      revert\n    tag_135:\n        /* \"FundMe/FundMe.sol\":1890:1898  newOwner */\n      dup1\n        /* \"FundMe/FundMe.sol\":1882:1887  owner */\n      0x02\n      0x00\n        /* \"FundMe/FundMe.sol\":1882:1898  owner = newOwner */\n      0x0100\n      exp\n      dup2\n      sload\n      dup2\n      0xffffffffffffffffffffffffffffffffffffffff\n      mul\n      not\n      and\n      swap1\n      dup4\n      0xffffffffffffffffffffffffffffffffffffffff\n      and\n      mul\n      or\n      swap1\n      sstore\n      pop\n        /* \"FundMe/FundMe.sol\":1810:1905  function transferOwnership(address newOwner) public onlyOwner {... */\n      pop\n      jump\t// out\n        /* \"FundMe/FundMe.sol\":1584:1804  function convertEthToUsd(uint256 ethAmount)... */\n    tag_80:\n        /* \"FundMe/FundMe.sol\":1675:1682  uint256 */\n      0x00\n        /* \"FundMe/FundMe.sol\":1698:1714  uint256 ethPrice */\n      0x00\n        /* \"FundMe/FundMe.sol\":1725:1759  getChainlinkDataFeedLatestAnswer() */\n      tag_139\n        /* \"FundMe/FundMe.sol\":1725:1757  getChainlinkDataFeedLatestAnswer */\n      tag_45\n        /* \"FundMe/FundMe.sol\":1725:1759  getChainlinkDataFeedLatestAnswer() */\n      jump\t// in\n    tag_139:\n        /* \"FundMe/FundMe.sol\":1698:1760  uint256 ethPrice = uint256(getChainlinkDataFeedLatestAnswer()) */\n      swap1\n      pop\n        /* \"FundMe/FundMe.sol\":1789:1797  ethPrice */\n      dup1\n        /* \"FundMe/FundMe.sol\":1777:1786  ethAmount */\n      dup4\n        /* \"FundMe/FundMe.sol\":1777:1797  ethAmount * ethPrice */\n      tag_140\n      swap2\n      swap1\n      tag_141\n      jump\t// in\n    tag_140:\n        /* \"FundMe/FundMe.sol\":1770:1797  return ethAmount * ethPrice */\n      swap2\n      pop\n      pop\n        /* \"FundMe/FundMe.sol\":1584:1804  function convertEthToUsd(uint256 ethAmount)... */\n      swap2\n      swap1\n      pop\n      jump\t// out\n        /* \"#utility.yul\":88:205   */\n    tag_143:\n        /* \"#utility.yul\":197:198   */\n      0x00\n        /* \"#utility.yul\":194:195   */\n      0x00\n        /* \"#utility.yul\":187:199   */\n      revert\n        /* \"#utility.yul\":334:460   */\n    tag_145:\n        /* \"#utility.yul\":371:378   */\n      0x00\n        /* \"#utility.yul\":411:453   */\n      0xffffffffffffffffffffffffffffffffffffffff\n        /* \"#utility.yul\":404:409   */\n      dup3\n        /* \"#utility.yul\":400:454   */\n      and\n        /* \"#utility.yul\":389:454   */\n      swap1\n      pop\n        /* \"#utility.yul\":334:460   */\n      swap2\n      swap1\n      pop\n      jump\t// out\n        /* \"#utility.yul\":466:562   */\n    tag_146:\n        /* \"#utility.yul\":503:510   */\n      0x00\n        /* \"#utility.yul\":532:556   */\n      tag_193\n        /* \"#utility.yul\":550:555   */\n      dup3\n        /* \"#utility.yul\":532:556   */\n      tag_145\n      jump\t// in\n    tag_193:\n        /* \"#utility.yul\":521:556   */\n      swap1\n      pop\n        /* \"#utility.yul\":466:562   */\n      swap2\n      swap1\n      pop\n      jump\t// out\n        /* \"#utility.yul\":568:690   */\n    tag_147:\n        /* \"#utility.yul\":641:665   */\n      tag_195\n        /* \"#utility.yul\":659:664   */\n      dup2\n        /* \"#utility.yul\":641:665   */\n      tag_146\n      jump\t// in\n    tag_195:\n        /* \"#utility.yul\":634:639   */\n      dup2\n        /* \"#utility.yul\":631:666   */\n      eq\n        /* \"#utility.yul\":621:684   */\n      tag_196\n      jumpi\n        /* \"#utility.yul\":680:681   */\n      0x00\n        /* \"#utility.yul\":677:678   */\n      0x00\n        /* \"#utility.yul\":670:682   */\n      revert\n        /* \"#utility.yul\":621:684   */\n    tag_196:\n        /* \"#utility.yul\":568:690   */\n      pop\n      jump\t// out\n        /* \"#utility.yul\":696:835   */\n    tag_148:\n        /* \"#utility.yul\":742:747   */\n      0x00\n        /* \"#utility.yul\":780:786   */\n      dup2\n        /* \"#utility.yul\":767:787   */\n      calldataload\n        /* \"#utility.yul\":758:787   */\n      swap1\n      pop\n        /* \"#utility.yul\":796:829   */\n      tag_198\n        /* \"#utility.yul\":823:828   */\n      dup2\n        /* \"#utility.yul\":796:829   */\n      tag_147\n      jump\t// in\n    tag_198:\n        /* \"#utility.yul\":696:835   */\n      swap3\n      swap2\n      pop\n      pop\n      jump\t// out\n        /* \"#utility.yul\":841:1170   */\n    tag_18:\n        /* \"#utility.yul\":900:906   */\n      0x00\n        /* \"#utility.yul\":949:951   */\n      0x20\n        /* \"#utility.yul\":937:946   */\n      dup3\n        /* \"#utility.yul\":928:935   */\n      dup5\n        /* \"#utility.yul\":924:947   */\n      sub\n        /* \"#utility.yul\":920:952   */\n      slt\n        /* \"#utility.yul\":917:1036   */\n      iszero\n      tag_200\n      jumpi\n        /* \"#utility.yul\":955:1034   */\n      tag_201\n      tag_143\n      jump\t// in\n    tag_201:\n        /* \"#utility.yul\":917:1036   */\n    tag_200:\n        /* \"#utility.yul\":1075:1076   */\n      0x00\n        /* \"#utility.yul\":1100:1153   */\n      tag_202\n        /* \"#utility.yul\":1145:1152   */\n      dup5\n        /* \"#utility.yul\":1136:1142   */\n      dup3\n        /* \"#utility.yul\":1125:1134   */\n      dup6\n        /* \"#utility.yul\":1121:1143   */\n      add\n        /* \"#utility.yul\":1100:1153   */\n      tag_148\n      jump\t// in\n    tag_202:\n        /* \"#utility.yul\":1090:1153   */\n      swap2\n      pop\n        /* \"#utility.yul\":1046:1163   */\n      pop\n        /* \"#utility.yul\":841:1170   */\n      swap3\n      swap2\n      pop\n      pop\n      jump\t// out\n        /* \"#utility.yul\":1176:1253   */\n    tag_149:\n        /* \"#utility.yul\":1213:1220   */\n      0x00\n        /* \"#utility.yul\":1242:1247   */\n      dup2\n        /* \"#utility.yul\":1231:1247   */\n      swap1\n      pop\n        /* \"#utility.yul\":1176:1253   */\n      swap2\n      swap1\n      pop\n      jump\t// out\n        /* \"#utility.yul\":1259:1377   */\n    tag_150:\n        /* \"#utility.yul\":1346:1370   */\n      tag_205\n        /* \"#utility.yul\":1364:1369   */\n      dup2\n        /* \"#utility.yul\":1346:1370   */\n      tag_149\n      jump\t// in\n    tag_205:\n        /* \"#utility.yul\":1341:1344   */\n      dup3\n        /* \"#utility.yul\":1334:1371   */\n      mstore\n        /* \"#utility.yul\":1259:1377   */\n      pop\n      pop\n      jump\t// out\n        /* \"#utility.yul\":1383:1605   */\n    tag_25:\n        /* \"#utility.yul\":1476:1480   */\n      0x00\n        /* \"#utility.yul\":1514:1516   */\n      0x20\n        /* \"#utility.yul\":1503:1512   */\n      dup3\n        /* \"#utility.yul\":1499:1517   */\n      add\n        /* \"#utility.yul\":1491:1517   */\n      swap1\n      pop\n        /* \"#utility.yul\":1527:1598   */\n      tag_207\n        /* \"#utility.yul\":1595:1596   */\n      0x00\n        /* \"#utility.yul\":1584:1593   */\n      dup4\n        /* \"#utility.yul\":1580:1597   */\n      add\n        /* \"#utility.yul\":1571:1577   */\n      dup5\n        /* \"#utility.yul\":1527:1598   */\n      tag_150\n      jump\t// in\n    tag_207:\n        /* \"#utility.yul\":1383:1605   */\n      swap3\n      swap2\n      pop\n      pop\n      jump\t// out\n        /* \"#utility.yul\":1611:1729   */\n    tag_151:\n        /* \"#utility.yul\":1698:1722   */\n      tag_209\n        /* \"#utility.yul\":1716:1721   */\n      dup2\n        /* \"#utility.yul\":1698:1722   */\n      tag_146\n      jump\t// in\n    tag_209:\n        /* \"#utility.yul\":1693:1696   */\n      dup3\n        /* \"#utility.yul\":1686:1723   */\n      mstore\n        /* \"#utility.yul\":1611:1729   */\n      pop\n      pop\n      jump\t// out\n        /* \"#utility.yul\":1735:1957   */\n    tag_37:\n        /* \"#utility.yul\":1828:1832   */\n      0x00\n        /* \"#utility.yul\":1866:1868   */\n      0x20\n        /* \"#utility.yul\":1855:1864   */\n      dup3\n        /* \"#utility.yul\":1851:1869   */\n      add\n        /* \"#utility.yul\":1843:1869   */\n      swap1\n      pop\n        /* \"#utility.yul\":1879:1950   */\n      tag_211\n        /* \"#utility.yul\":1947:1948   */\n      0x00\n        /* \"#utility.yul\":1936:1945   */\n      dup4\n        /* \"#utility.yul\":1932:1949   */\n      add\n        /* \"#utility.yul\":1923:1929   */\n      dup5\n        /* \"#utility.yul\":1879:1950   */\n      tag_151\n      jump\t// in\n    tag_211:\n        /* \"#utility.yul\":1735:1957   */\n      swap3\n      swap2\n      pop\n      pop\n      jump\t// out\n        /* \"#utility.yul\":1963:2039   */\n    tag_152:\n        /* \"#utility.yul\":1999:2006   */\n      0x00\n        /* \"#utility.yul\":2028:2033   */\n      dup2\n        /* \"#utility.yul\":2017:2033   */\n      swap1\n      pop\n        /* \"#utility.yul\":1963:2039   */\n      swap2\n      swap1\n      pop\n      jump\t// out\n        /* \"#utility.yul\":2045:2160   */\n    tag_153:\n        /* \"#utility.yul\":2130:2153   */\n      tag_214\n        /* \"#utility.yul\":2147:2152   */\n      dup2\n        /* \"#utility.yul\":2130:2153   */\n      tag_152\n      jump\t// in\n    tag_214:\n        /* \"#utility.yul\":2125:2128   */\n      dup3\n        /* \"#utility.yul\":2118:2154   */\n      mstore\n        /* \"#utility.yul\":2045:2160   */\n      pop\n      pop\n      jump\t// out\n        /* \"#utility.yul\":2166:2384   */\n    tag_47:\n        /* \"#utility.yul\":2257:2261   */\n      0x00\n        /* \"#utility.yul\":2295:2297   */\n      0x20\n        /* \"#utility.yul\":2284:2293   */\n      dup3\n        /* \"#utility.yul\":2280:2298   */\n      add\n        /* \"#utility.yul\":2272:2298   */\n      swap1\n      pop\n        /* \"#utility.yul\":2308:2377   */\n      tag_216\n        /* \"#utility.yul\":2374:2375   */\n      0x00\n        /* \"#utility.yul\":2363:2372   */\n      dup4\n        /* \"#utility.yul\":2359:2376   */\n      add\n        /* \"#utility.yul\":2350:2356   */\n      dup5\n        /* \"#utility.yul\":2308:2377   */\n      tag_153\n      jump\t// in\n    tag_216:\n        /* \"#utility.yul\":2166:2384   */\n      swap3\n      swap2\n      pop\n      pop\n      jump\t// out\n        /* \"#utility.yul\":2390:2512   */\n    tag_154:\n        /* \"#utility.yul\":2463:2487   */\n      tag_218\n        /* \"#utility.yul\":2481:2486   */\n      dup2\n        /* \"#utility.yul\":2463:2487   */\n      tag_149\n      jump\t// in\n    tag_218:\n        /* \"#utility.yul\":2456:2461   */\n      dup2\n        /* \"#utility.yul\":2453:2488   */\n      eq\n        /* \"#utility.yul\":2443:2506   */\n      tag_219\n      jumpi\n        /* \"#utility.yul\":2502:2503   */\n      0x00\n        /* \"#utility.yul\":2499:2500   */\n      0x00\n        /* \"#utility.yul\":2492:2504   */\n      revert\n        /* \"#utility.yul\":2443:2506   */\n    tag_219:\n        /* \"#utility.yul\":2390:2512   */\n      pop\n      jump\t// out\n        /* \"#utility.yul\":2518:2657   */\n    tag_155:\n        /* \"#utility.yul\":2564:2569   */\n      0x00\n        /* \"#utility.yul\":2602:2608   */\n      dup2\n        /* \"#utility.yul\":2589:2609   */\n      calldataload\n        /* \"#utility.yul\":2580:2609   */\n      swap1\n      pop\n        /* \"#utility.yul\":2618:2651   */\n      tag_221\n        /* \"#utility.yul\":2645:2650   */\n      dup2\n        /* \"#utility.yul\":2618:2651   */\n      tag_154\n      jump\t// in\n    tag_221:\n        /* \"#utility.yul\":2518:2657   */\n      swap3\n      swap2\n      pop\n      pop\n      jump\t// out\n        /* \"#utility.yul\":2663:3137   */\n    tag_51:\n        /* \"#utility.yul\":2731:2737   */\n      0x00\n        /* \"#utility.yul\":2739:2745   */\n      0x00\n        /* \"#utility.yul\":2788:2790   */\n      0x40\n        /* \"#utility.yul\":2776:2785   */\n      dup4\n        /* \"#utility.yul\":2767:2774   */\n      dup6\n        /* \"#utility.yul\":2763:2786   */\n      sub\n        /* \"#utility.yul\":2759:2791   */\n      slt\n        /* \"#utility.yul\":2756:2875   */\n      iszero\n      tag_223\n      jumpi\n        /* \"#utility.yul\":2794:2873   */\n      tag_224\n      tag_143\n      jump\t// in\n    tag_224:\n        /* \"#utility.yul\":2756:2875   */\n    tag_223:\n        /* \"#utility.yul\":2914:2915   */\n      0x00\n        /* \"#utility.yul\":2939:2992   */\n      tag_225\n        /* \"#utility.yul\":2984:2991   */\n      dup6\n        /* \"#utility.yul\":2975:2981   */\n      dup3\n        /* \"#utility.yul\":2964:2973   */\n      dup7\n        /* \"#utility.yul\":2960:2982   */\n      add\n        /* \"#utility.yul\":2939:2992   */\n      tag_148\n      jump\t// in\n    tag_225:\n        /* \"#utility.yul\":2929:2992   */\n      swap3\n      pop\n        /* \"#utility.yul\":2885:3002   */\n      pop\n        /* \"#utility.yul\":3041:3043   */\n      0x20\n        /* \"#utility.yul\":3067:3120   */\n      tag_226\n        /* \"#utility.yul\":3112:3119   */\n      dup6\n        /* \"#utility.yul\":3103:3109   */\n      dup3\n        /* \"#utility.yul\":3092:3101   */\n      dup7\n        /* \"#utility.yul\":3088:3110   */\n      add\n        /* \"#utility.yul\":3067:3120   */\n      tag_155\n      jump\t// in\n    tag_226:\n        /* \"#utility.yul\":3057:3120   */\n      swap2\n      pop\n        /* \"#utility.yul\":3012:3130   */\n      pop\n        /* \"#utility.yul\":2663:3137   */\n      swap3\n      pop\n      swap3\n      swap1\n      pop\n      jump\t// out\n        /* \"#utility.yul\":3143:3233   */\n    tag_156:\n        /* \"#utility.yul\":3177:3184   */\n      0x00\n        /* \"#utility.yul\":3220:3225   */\n      dup2\n        /* \"#utility.yul\":3213:3226   */\n      iszero\n        /* \"#utility.yul\":3206:3227   */\n      iszero\n        /* \"#utility.yul\":3195:3227   */\n      swap1\n      pop\n        /* \"#utility.yul\":3143:3233   */\n      swap2\n      swap1\n      pop\n      jump\t// out\n        /* \"#utility.yul\":3239:3348   */\n    tag_157:\n        /* \"#utility.yul\":3320:3341   */\n      tag_229\n        /* \"#utility.yul\":3335:3340   */\n      dup2\n        /* \"#utility.yul\":3320:3341   */\n      tag_156\n      jump\t// in\n    tag_229:\n        /* \"#utility.yul\":3315:3318   */\n      dup3\n        /* \"#utility.yul\":3308:3342   */\n      mstore\n        /* \"#utility.yul\":3239:3348   */\n      pop\n      pop\n      jump\t// out\n        /* \"#utility.yul\":3354:3564   */\n    tag_57:\n        /* \"#utility.yul\":3441:3445   */\n      0x00\n        /* \"#utility.yul\":3479:3481   */\n      0x20\n        /* \"#utility.yul\":3468:3477   */\n      dup3\n        /* \"#utility.yul\":3464:3482   */\n      add\n        /* \"#utility.yul\":3456:3482   */\n      swap1\n      pop\n        /* \"#utility.yul\":3492:3557   */\n      tag_231\n        /* \"#utility.yul\":3554:3555   */\n      0x00\n        /* \"#utility.yul\":3543:3552   */\n      dup4\n        /* \"#utility.yul\":3539:3556   */\n      add\n        /* \"#utility.yul\":3530:3536   */\n      dup5\n        /* \"#utility.yul\":3492:3557   */\n      tag_157\n      jump\t// in\n    tag_231:\n        /* \"#utility.yul\":3354:3564   */\n      swap3\n      swap2\n      pop\n      pop\n      jump\t// out\n        /* \"#utility.yul\":3570:3739   */\n    tag_158:\n        /* \"#utility.yul\":3654:3665   */\n      0x00\n        /* \"#utility.yul\":3688:3694   */\n      dup3\n        /* \"#utility.yul\":3683:3686   */\n      dup3\n        /* \"#utility.yul\":3676:3695   */\n      mstore\n        /* \"#utility.yul\":3728:3732   */\n      0x20\n        /* \"#utility.yul\":3723:3726   */\n      dup3\n        /* \"#utility.yul\":3719:3733   */\n      add\n        /* \"#utility.yul\":3704:3733   */\n      swap1\n      pop\n        /* \"#utility.yul\":3570:3739   */\n      swap3\n      swap2\n      pop\n      pop\n      jump\t// out\n        /* \"#utility.yul\":3745:3906   */\n    tag_159:\n        /* \"#utility.yul\":3885:3898   */\n      0x4f776e6572206f6e6c7921000000000000000000000000000000000000000000\n        /* \"#utility.yul\":3881:3882   */\n      0x00\n        /* \"#utility.yul\":3873:3879   */\n      dup3\n        /* \"#utility.yul\":3869:3883   */\n      add\n        /* \"#utility.yul\":3862:3899   */\n      mstore\n        /* \"#utility.yul\":3745:3906   */\n      pop\n      jump\t// out\n        /* \"#utility.yul\":3912:4278   */\n    tag_160:\n        /* \"#utility.yul\":4054:4057   */\n      0x00\n        /* \"#utility.yul\":4075:4142   */\n      tag_235\n        /* \"#utility.yul\":4139:4141   */\n      0x0b\n        /* \"#utility.yul\":4134:4137   */\n      dup4\n        /* \"#utility.yul\":4075:4142   */\n      tag_158\n      jump\t// in\n    tag_235:\n        /* \"#utility.yul\":4068:4142   */\n      swap2\n      pop\n        /* \"#utility.yul\":4151:4244   */\n      tag_236\n        /* \"#utility.yul\":4240:4243   */\n      dup3\n        /* \"#utility.yul\":4151:4244   */\n      tag_159\n      jump\t// in\n    tag_236:\n        /* \"#utility.yul\":4269:4271   */\n      0x20\n        /* \"#utility.yul\":4264:4267   */\n      dup3\n        /* \"#utility.yul\":4260:4272   */\n      add\n        /* \"#utility.yul\":4253:4272   */\n      swap1\n      pop\n        /* \"#utility.yul\":3912:4278   */\n      swap2\n      swap1\n      pop\n      jump\t// out\n        /* \"#utility.yul\":4284:4703   */\n    tag_70:\n        /* \"#utility.yul\":4450:4454   */\n      0x00\n        /* \"#utility.yul\":4488:4490   */\n      0x20\n        /* \"#utility.yul\":4477:4486   */\n      dup3\n        /* \"#utility.yul\":4473:4491   */\n      add\n        /* \"#utility.yul\":4465:4491   */\n      swap1\n      pop\n        /* \"#utility.yul\":4537:4546   */\n      dup2\n        /* \"#utility.yul\":4531:4535   */\n      dup2\n        /* \"#utility.yul\":4527:4547   */\n      sub\n        /* \"#utility.yul\":4523:4524   */\n      0x00\n        /* \"#utility.yul\":4512:4521   */\n      dup4\n        /* \"#utility.yul\":4508:4525   */\n      add\n        /* \"#utility.yul\":4501:4548   */\n      mstore\n        /* \"#utility.yul\":4565:4696   */\n      tag_238\n        /* \"#utility.yul\":4691:4695   */\n      dup2\n        /* \"#utility.yul\":4565:4696   */\n      tag_160\n      jump\t// in\n    tag_238:\n        /* \"#utility.yul\":4557:4696   */\n      swap1\n      pop\n        /* \"#utility.yul\":4284:4703   */\n      swap2\n      swap1\n      pop\n      jump\t// out\n        /* \"#utility.yul\":4709:4889   */\n    tag_161:\n        /* \"#utility.yul\":4757:4834   */\n      0x4e487b7100000000000000000000000000000000000000000000000000000000\n        /* \"#utility.yul\":4754:4755   */\n      0x00\n        /* \"#utility.yul\":4747:4835   */\n      mstore\n        /* \"#utility.yul\":4854:4858   */\n      0x11\n        /* \"#utility.yul\":4851:4852   */\n      0x04\n        /* \"#utility.yul\":4844:4859   */\n      mstore\n        /* \"#utility.yul\":4878:4882   */\n      0x24\n        /* \"#utility.yul\":4875:4876   */\n      0x00\n        /* \"#utility.yul\":4868:4883   */\n      revert\n        /* \"#utility.yul\":4895:5086   */\n    tag_74:\n        /* \"#utility.yul\":4935:4938   */\n      0x00\n        /* \"#utility.yul\":4954:4974   */\n      tag_241\n        /* \"#utility.yul\":4972:4973   */\n      dup3\n        /* \"#utility.yul\":4954:4974   */\n      tag_149\n      jump\t// in\n    tag_241:\n        /* \"#utility.yul\":4949:4974   */\n      swap2\n      pop\n        /* \"#utility.yul\":4988:5008   */\n      tag_242\n        /* \"#utility.yul\":5006:5007   */\n      dup4\n        /* \"#utility.yul\":4988:5008   */\n      tag_149\n      jump\t// in\n    tag_242:\n        /* \"#utility.yul\":4983:5008   */\n      swap3\n      pop\n        /* \"#utility.yul\":5031:5032   */\n      dup3\n        /* \"#utility.yul\":5028:5029   */\n      dup3\n        /* \"#utility.yul\":5024:5033   */\n      add\n        /* \"#utility.yul\":5017:5033   */\n      swap1\n      pop\n        /* \"#utility.yul\":5052:5055   */\n      dup1\n        /* \"#utility.yul\":5049:5050   */\n      dup3\n        /* \"#utility.yul\":5046:5056   */\n      gt\n        /* \"#utility.yul\":5043:5079   */\n      iszero\n      tag_243\n      jumpi\n        /* \"#utility.yul\":5059:5077   */\n      tag_244\n      tag_161\n      jump\t// in\n    tag_244:\n        /* \"#utility.yul\":5043:5079   */\n    tag_243:\n        /* \"#utility.yul\":4895:5086   */\n      swap3\n      swap2\n      pop\n      pop\n      jump\t// out\n        /* \"#utility.yul\":5092:5260   */\n    tag_162:\n        /* \"#utility.yul\":5232:5252   */\n      0x57696e646f77206e6f7420636c6f736564210000000000000000000000000000\n        /* \"#utility.yul\":5228:5229   */\n      0x00\n        /* \"#utility.yul\":5220:5226   */\n      dup3\n        /* \"#utility.yul\":5216:5230   */\n      add\n        /* \"#utility.yul\":5209:5253   */\n      mstore\n        /* \"#utility.yul\":5092:5260   */\n      pop\n      jump\t// out\n        /* \"#utility.yul\":5266:5632   */\n    tag_163:\n        /* \"#utility.yul\":5408:5411   */\n      0x00\n        /* \"#utility.yul\":5429:5496   */\n      tag_247\n        /* \"#utility.yul\":5493:5495   */\n      0x12\n        /* \"#utility.yul\":5488:5491   */\n      dup4\n        /* \"#utility.yul\":5429:5496   */\n      tag_158\n      jump\t// in\n    tag_247:\n        /* \"#utility.yul\":5422:5496   */\n      swap2\n      pop\n        /* \"#utility.yul\":5505:5598   */\n      tag_248\n        /* \"#utility.yul\":5594:5597   */\n      dup3\n        /* \"#utility.yul\":5505:5598   */\n      tag_162\n      jump\t// in\n    tag_248:\n        /* \"#utility.yul\":5623:5625   */\n      0x20\n        /* \"#utility.yul\":5618:5621   */\n      dup3\n        /* \"#utility.yul\":5614:5626   */\n      add\n        /* \"#utility.yul\":5607:5626   */\n      swap1\n      pop\n        /* \"#utility.yul\":5266:5632   */\n      swap2\n      swap1\n      pop\n      jump\t// out\n        /* \"#utility.yul\":5638:6057   */\n    tag_77:\n        /* \"#utility.yul\":5804:5808   */\n      0x00\n        /* \"#utility.yul\":5842:5844   */\n      0x20\n        /* \"#utility.yul\":5831:5840   */\n      dup3\n        /* \"#utility.yul\":5827:5845   */\n      add\n        /* \"#utility.yul\":5819:5845   */\n      swap1\n      pop\n        /* \"#utility.yul\":5891:5900   */\n      dup2\n        /* \"#utility.yul\":5885:5889   */\n      dup2\n        /* \"#utility.yul\":5881:5901   */\n      sub\n        /* \"#utility.yul\":5877:5878   */\n      0x00\n        /* \"#utility.yul\":5866:5875   */\n      dup4\n        /* \"#utility.yul\":5862:5879   */\n      add\n        /* \"#utility.yul\":5855:5902   */\n      mstore\n        /* \"#utility.yul\":5919:6050   */\n      tag_250\n        /* \"#utility.yul\":6045:6049   */\n      dup2\n        /* \"#utility.yul\":5919:6050   */\n      tag_163\n      jump\t// in\n    tag_250:\n        /* \"#utility.yul\":5911:6050   */\n      swap1\n      pop\n        /* \"#utility.yul\":5638:6057   */\n      swap2\n      swap1\n      pop\n      jump\t// out\n        /* \"#utility.yul\":6063:6231   */\n    tag_164:\n        /* \"#utility.yul\":6203:6223   */\n      0x5461726765742069732072656163686564210000000000000000000000000000\n        /* \"#utility.yul\":6199:6200   */\n      0x00\n        /* \"#utility.yul\":6191:6197   */\n      dup3\n        /* \"#utility.yul\":6187:6201   */\n      add\n        /* \"#utility.yul\":6180:6224   */\n      mstore\n        /* \"#utility.yul\":6063:6231   */\n      pop\n      jump\t// out\n        /* \"#utility.yul\":6237:6603   */\n    tag_165:\n        /* \"#utility.yul\":6379:6382   */\n      0x00\n        /* \"#utility.yul\":6400:6467   */\n      tag_253\n        /* \"#utility.yul\":6464:6466   */\n      0x12\n        /* \"#utility.yul\":6459:6462   */\n      dup4\n        /* \"#utility.yul\":6400:6467   */\n      tag_158\n      jump\t// in\n    tag_253:\n        /* \"#utility.yul\":6393:6467   */\n      swap2\n      pop\n        /* \"#utility.yul\":6476:6569   */\n      tag_254\n        /* \"#utility.yul\":6565:6568   */\n      dup3\n        /* \"#utility.yul\":6476:6569   */\n      tag_164\n      jump\t// in\n    tag_254:\n        /* \"#utility.yul\":6594:6596   */\n      0x20\n        /* \"#utility.yul\":6589:6592   */\n      dup3\n        /* \"#utility.yul\":6585:6597   */\n      add\n        /* \"#utility.yul\":6578:6597   */\n      swap1\n      pop\n        /* \"#utility.yul\":6237:6603   */\n      swap2\n      swap1\n      pop\n      jump\t// out\n        /* \"#utility.yul\":6609:7028   */\n    tag_83:\n        /* \"#utility.yul\":6775:6779   */\n      0x00\n        /* \"#utility.yul\":6813:6815   */\n      0x20\n        /* \"#utility.yul\":6802:6811   */\n      dup3\n        /* \"#utility.yul\":6798:6816   */\n      add\n        /* \"#utility.yul\":6790:6816   */\n      swap1\n      pop\n        /* \"#utility.yul\":6862:6871   */\n      dup2\n        /* \"#utility.yul\":6856:6860   */\n      dup2\n        /* \"#utility.yul\":6852:6872   */\n      sub\n        /* \"#utility.yul\":6848:6849   */\n      0x00\n        /* \"#utility.yul\":6837:6846   */\n      dup4\n        /* \"#utility.yul\":6833:6850   */\n      add\n        /* \"#utility.yul\":6826:6873   */\n      mstore\n        /* \"#utility.yul\":6890:7021   */\n      tag_256\n        /* \"#utility.yul\":7016:7020   */\n      dup2\n        /* \"#utility.yul\":6890:7021   */\n      tag_165\n      jump\t// in\n    tag_256:\n        /* \"#utility.yul\":6882:7021   */\n      swap1\n      pop\n        /* \"#utility.yul\":6609:7028   */\n      swap2\n      swap1\n      pop\n      jump\t// out\n        /* \"#utility.yul\":7034:7201   */\n    tag_166:\n        /* \"#utility.yul\":7174:7193   */\n      0x596f7520686176656e27742066756e6421000000000000000000000000000000\n        /* \"#utility.yul\":7170:7171   */\n      0x00\n        /* \"#utility.yul\":7162:7168   */\n      dup3\n        /* \"#utility.yul\":7158:7172   */\n      add\n        /* \"#utility.yul\":7151:7194   */\n      mstore\n        /* \"#utility.yul\":7034:7201   */\n      pop\n      jump\t// out\n        /* \"#utility.yul\":7207:7573   */\n    tag_167:\n        /* \"#utility.yul\":7349:7352   */\n      0x00\n        /* \"#utility.yul\":7370:7437   */\n      tag_259\n        /* \"#utility.yul\":7434:7436   */\n      0x11\n        /* \"#utility.yul\":7429:7432   */\n      dup4\n        /* \"#utility.yul\":7370:7437   */\n      tag_158\n      jump\t// in\n    tag_259:\n        /* \"#utility.yul\":7363:7437   */\n      swap2\n      pop\n        /* \"#utility.yul\":7446:7539   */\n      tag_260\n        /* \"#utility.yul\":7535:7538   */\n      dup3\n        /* \"#utility.yul\":7446:7539   */\n      tag_166\n      jump\t// in\n    tag_260:\n        /* \"#utility.yul\":7564:7566   */\n      0x20\n        /* \"#utility.yul\":7559:7562   */\n      dup3\n        /* \"#utility.yul\":7555:7567   */\n      add\n        /* \"#utility.yul\":7548:7567   */\n      swap1\n      pop\n        /* \"#utility.yul\":7207:7573   */\n      swap2\n      swap1\n      pop\n      jump\t// out\n        /* \"#utility.yul\":7579:7998   */\n    tag_86:\n        /* \"#utility.yul\":7745:7749   */\n      0x00\n        /* \"#utility.yul\":7783:7785   */\n      0x20\n        /* \"#utility.yul\":7772:7781   */\n      dup3\n        /* \"#utility.yul\":7768:7786   */\n      add\n        /* \"#utility.yul\":7760:7786   */\n      swap1\n      pop\n        /* \"#utility.yul\":7832:7841   */\n      dup2\n        /* \"#utility.yul\":7826:7830   */\n      dup2\n        /* \"#utility.yul\":7822:7842   */\n      sub\n        /* \"#utility.yul\":7818:7819   */\n      0x00\n        /* \"#utility.yul\":7807:7816   */\n      dup4\n        /* \"#utility.yul\":7803:7820   */\n      add\n        /* \"#utility.yul\":7796:7843   */\n      mstore\n        /* \"#utility.yul\":7860:7991   */\n      tag_262\n        /* \"#utility.yul\":7986:7990   */\n      dup2\n        /* \"#utility.yul\":7860:7991   */\n      tag_167\n      jump\t// in\n    tag_262:\n        /* \"#utility.yul\":7852:7991   */\n      swap1\n      pop\n        /* \"#utility.yul\":7579:7998   */\n      swap2\n      swap1\n      pop\n      jump\t// out\n        /* \"#utility.yul\":8004:8151   */\n    tag_168:\n        /* \"#utility.yul\":8105:8116   */\n      0x00\n        /* \"#utility.yul\":8142:8145   */\n      dup2\n        /* \"#utility.yul\":8127:8145   */\n      swap1\n      pop\n        /* \"#utility.yul\":8004:8151   */\n      swap3\n      swap2\n      pop\n      pop\n      jump\t// out\n        /* \"#utility.yul\":8157:8271   */\n    tag_169:\n      pop\n      jump\t// out\n        /* \"#utility.yul\":8277:8675   */\n    tag_170:\n        /* \"#utility.yul\":8436:8439   */\n      0x00\n        /* \"#utility.yul\":8457:8540   */\n      tag_266\n        /* \"#utility.yul\":8538:8539   */\n      0x00\n        /* \"#utility.yul\":8533:8536   */\n      dup4\n        /* \"#utility.yul\":8457:8540   */\n      tag_168\n      jump\t// in\n    tag_266:\n        /* \"#utility.yul\":8450:8540   */\n      swap2\n      pop\n        /* \"#utility.yul\":8549:8642   */\n      tag_267\n        /* \"#utility.yul\":8638:8641   */\n      dup3\n        /* \"#utility.yul\":8549:8642   */\n      tag_169\n      jump\t// in\n    tag_267:\n        /* \"#utility.yul\":8667:8668   */\n      0x00\n        /* \"#utility.yul\":8662:8665   */\n      dup3\n        /* \"#utility.yul\":8658:8669   */\n      add\n        /* \"#utility.yul\":8651:8669   */\n      swap1\n      pop\n        /* \"#utility.yul\":8277:8675   */\n      swap2\n      swap1\n      pop\n      jump\t// out\n        /* \"#utility.yul\":8681:9060   */\n    tag_88:\n        /* \"#utility.yul\":8865:8868   */\n      0x00\n        /* \"#utility.yul\":8887:9034   */\n      tag_269\n        /* \"#utility.yul\":9030:9033   */\n      dup3\n        /* \"#utility.yul\":8887:9034   */\n      tag_170\n      jump\t// in\n    tag_269:\n        /* \"#utility.yul\":8880:9034   */\n      swap2\n      pop\n        /* \"#utility.yul\":9051:9054   */\n      dup2\n        /* \"#utility.yul\":9044:9054   */\n      swap1\n      pop\n        /* \"#utility.yul\":8681:9060   */\n      swap2\n      swap1\n      pop\n      jump\t// out\n        /* \"#utility.yul\":9066:9235   */\n    tag_171:\n        /* \"#utility.yul\":9206:9227   */\n      0x5472616e73666572207478206661696c65642100000000000000000000000000\n        /* \"#utility.yul\":9202:9203   */\n      0x00\n        /* \"#utility.yul\":9194:9200   */\n      dup3\n        /* \"#utility.yul\":9190:9204   */\n      add\n        /* \"#utility.yul\":9183:9228   */\n      mstore\n        /* \"#utility.yul\":9066:9235   */\n      pop\n      jump\t// out\n        /* \"#utility.yul\":9241:9607   */\n    tag_172:\n        /* \"#utility.yul\":9383:9386   */\n      0x00\n        /* \"#utility.yul\":9404:9471   */\n      tag_272\n        /* \"#utility.yul\":9468:9470   */\n      0x13\n        /* \"#utility.yul\":9463:9466   */\n      dup4\n        /* \"#utility.yul\":9404:9471   */\n      tag_158\n      jump\t// in\n    tag_272:\n        /* \"#utility.yul\":9397:9471   */\n      swap2\n      pop\n        /* \"#utility.yul\":9480:9573   */\n      tag_273\n        /* \"#utility.yul\":9569:9572   */\n      dup3\n        /* \"#utility.yul\":9480:9573   */\n      tag_171\n      jump\t// in\n    tag_273:\n        /* \"#utility.yul\":9598:9600   */\n      0x20\n        /* \"#utility.yul\":9593:9596   */\n      dup3\n        /* \"#utility.yul\":9589:9601   */\n      add\n        /* \"#utility.yul\":9582:9601   */\n      swap1\n      pop\n        /* \"#utility.yul\":9241:9607   */\n      swap2\n      swap1\n      pop\n      jump\t// out\n        /* \"#utility.yul\":9613:10032   */\n    tag_94:\n        /* \"#utility.yul\":9779:9783   */\n      0x00\n        /* \"#utility.yul\":9817:9819   */\n      0x20\n        /* \"#utility.yul\":9806:9815   */\n      dup3\n        /* \"#utility.yul\":9802:9820   */\n      add\n        /* \"#utility.yul\":9794:9820   */\n      swap1\n      pop\n        /* \"#utility.yul\":9866:9875   */\n      dup2\n        /* \"#utility.yul\":9860:9864   */\n      dup2\n        /* \"#utility.yul\":9856:9876   */\n      sub\n        /* \"#utility.yul\":9852:9853   */\n      0x00\n        /* \"#utility.yul\":9841:9850   */\n      dup4\n        /* \"#utility.yul\":9837:9854   */\n      add\n        /* \"#utility.yul\":9830:9877   */\n      mstore\n        /* \"#utility.yul\":9894:10025   */\n      tag_275\n        /* \"#utility.yul\":10020:10024   */\n      dup2\n        /* \"#utility.yul\":9894:10025   */\n      tag_172\n      jump\t// in\n    tag_275:\n        /* \"#utility.yul\":9886:10025   */\n      swap1\n      pop\n        /* \"#utility.yul\":9613:10032   */\n      swap2\n      swap1\n      pop\n      jump\t// out\n        /* \"#utility.yul\":10038:10210   */\n    tag_173:\n        /* \"#utility.yul\":10178:10202   */\n      0x546172676574206973206e6f7420726561636865642100000000000000000000\n        /* \"#utility.yul\":10174:10175   */\n      0x00\n        /* \"#utility.yul\":10166:10172   */\n      dup3\n        /* \"#utility.yul\":10162:10176   */\n      add\n        /* \"#utility.yul\":10155:10203   */\n      mstore\n        /* \"#utility.yul\":10038:10210   */\n      pop\n      jump\t// out\n        /* \"#utility.yul\":10216:10582   */\n    tag_174:\n        /* \"#utility.yul\":10358:10361   */\n      0x00\n        /* \"#utility.yul\":10379:10446   */\n      tag_278\n        /* \"#utility.yul\":10443:10445   */\n      0x16\n        /* \"#utility.yul\":10438:10441   */\n      dup4\n        /* \"#utility.yul\":10379:10446   */\n      tag_158\n      jump\t// in\n    tag_278:\n        /* \"#utility.yul\":10372:10446   */\n      swap2\n      pop\n        /* \"#utility.yul\":10455:10548   */\n      tag_279\n        /* \"#utility.yul\":10544:10547   */\n      dup3\n        /* \"#utility.yul\":10455:10548   */\n      tag_173\n      jump\t// in\n    tag_279:\n        /* \"#utility.yul\":10573:10575   */\n      0x20\n        /* \"#utility.yul\":10568:10571   */\n      dup3\n        /* \"#utility.yul\":10564:10576   */\n      add\n        /* \"#utility.yul\":10557:10576   */\n      swap1\n      pop\n        /* \"#utility.yul\":10216:10582   */\n      swap2\n      swap1\n      pop\n      jump\t// out\n        /* \"#utility.yul\":10588:11007   */\n    tag_107:\n        /* \"#utility.yul\":10754:10758   */\n      0x00\n        /* \"#utility.yul\":10792:10794   */\n      0x20\n        /* \"#utility.yul\":10781:10790   */\n      dup3\n        /* \"#utility.yul\":10777:10795   */\n      add\n        /* \"#utility.yul\":10769:10795   */\n      swap1\n      pop\n        /* \"#utility.yul\":10841:10850   */\n      dup2\n        /* \"#utility.yul\":10835:10839   */\n      dup2\n        /* \"#utility.yul\":10831:10851   */\n      sub\n        /* \"#utility.yul\":10827:10828   */\n      0x00\n        /* \"#utility.yul\":10816:10825   */\n      dup4\n        /* \"#utility.yul\":10812:10829   */\n      add\n        /* \"#utility.yul\":10805:10852   */\n      mstore\n        /* \"#utility.yul\":10869:11000   */\n      tag_281\n        /* \"#utility.yul\":10995:10999   */\n      dup2\n        /* \"#utility.yul\":10869:11000   */\n      tag_174\n      jump\t// in\n    tag_281:\n        /* \"#utility.yul\":10861:11000   */\n      swap1\n      pop\n        /* \"#utility.yul\":10588:11007   */\n      swap2\n      swap1\n      pop\n      jump\t// out\n        /* \"#utility.yul\":11013:11177   */\n    tag_175:\n        /* \"#utility.yul\":11153:11169   */\n      0x57696e646f7720636c6f73656421000000000000000000000000000000000000\n        /* \"#utility.yul\":11149:11150   */\n      0x00\n        /* \"#utility.yul\":11141:11147   */\n      dup3\n        /* \"#utility.yul\":11137:11151   */\n      add\n        /* \"#utility.yul\":11130:11170   */\n      mstore\n        /* \"#utility.yul\":11013:11177   */\n      pop\n      jump\t// out\n        /* \"#utility.yul\":11183:11549   */\n    tag_176:\n        /* \"#utility.yul\":11325:11328   */\n      0x00\n        /* \"#utility.yul\":11346:11413   */\n      tag_284\n        /* \"#utility.yul\":11410:11412   */\n      0x0e\n        /* \"#utility.yul\":11405:11408   */\n      dup4\n        /* \"#utility.yul\":11346:11413   */\n      tag_158\n      jump\t// in\n    tag_284:\n        /* \"#utility.yul\":11339:11413   */\n      swap2\n      pop\n        /* \"#utility.yul\":11422:11515   */\n      tag_285\n        /* \"#utility.yul\":11511:11514   */\n      dup3\n        /* \"#utility.yul\":11422:11515   */\n      tag_175\n      jump\t// in\n    tag_285:\n        /* \"#utility.yul\":11540:11542   */\n      0x20\n        /* \"#utility.yul\":11535:11538   */\n      dup3\n        /* \"#utility.yul\":11531:11543   */\n      add\n        /* \"#utility.yul\":11524:11543   */\n      swap1\n      pop\n        /* \"#utility.yul\":11183:11549   */\n      swap2\n      swap1\n      pop\n      jump\t// out\n        /* \"#utility.yul\":11555:11974   */\n    tag_118:\n        /* \"#utility.yul\":11721:11725   */\n      0x00\n        /* \"#utility.yul\":11759:11761   */\n      0x20\n        /* \"#utility.yul\":11748:11757   */\n      dup3\n        /* \"#utility.yul\":11744:11762   */\n      add\n        /* \"#utility.yul\":11736:11762   */\n      swap1\n      pop\n        /* \"#utility.yul\":11808:11817   */\n      dup2\n        /* \"#utility.yul\":11802:11806   */\n      dup2\n        /* \"#utility.yul\":11798:11818   */\n      sub\n        /* \"#utility.yul\":11794:11795   */\n      0x00\n        /* \"#utility.yul\":11783:11792   */\n      dup4\n        /* \"#utility.yul\":11779:11796   */\n      add\n        /* \"#utility.yul\":11772:11819   */\n      mstore\n        /* \"#utility.yul\":11836:11967   */\n      tag_287\n        /* \"#utility.yul\":11962:11966   */\n      dup2\n        /* \"#utility.yul\":11836:11967   */\n      tag_176\n      jump\t// in\n    tag_287:\n        /* \"#utility.yul\":11828:11967   */\n      swap1\n      pop\n        /* \"#utility.yul\":11555:11974   */\n      swap2\n      swap1\n      pop\n      jump\t// out\n        /* \"#utility.yul\":11980:12147   */\n    tag_177:\n        /* \"#utility.yul\":12120:12139   */\n      0x506c656173652073656e64206d6f726521000000000000000000000000000000\n        /* \"#utility.yul\":12116:12117   */\n      0x00\n        /* \"#utility.yul\":12108:12114   */\n      dup3\n        /* \"#utility.yul\":12104:12118   */\n      add\n        /* \"#utility.yul\":12097:12140   */\n      mstore\n        /* \"#utility.yul\":11980:12147   */\n      pop\n      jump\t// out\n        /* \"#utility.yul\":12153:12519   */\n    tag_178:\n        /* \"#utility.yul\":12295:12298   */\n      0x00\n        /* \"#utility.yul\":12316:12383   */\n      tag_290\n        /* \"#utility.yul\":12380:12382   */\n      0x11\n        /* \"#utility.yul\":12375:12378   */\n      dup4\n        /* \"#utility.yul\":12316:12383   */\n      tag_158\n      jump\t// in\n    tag_290:\n        /* \"#utility.yul\":12309:12383   */\n      swap2\n      pop\n        /* \"#utility.yul\":12392:12485   */\n      tag_291\n        /* \"#utility.yul\":12481:12484   */\n      dup3\n        /* \"#utility.yul\":12392:12485   */\n      tag_177\n      jump\t// in\n    tag_291:\n        /* \"#utility.yul\":12510:12512   */\n      0x20\n        /* \"#utility.yul\":12505:12508   */\n      dup3\n        /* \"#utility.yul\":12501:12513   */\n      add\n        /* \"#utility.yul\":12494:12513   */\n      swap1\n      pop\n        /* \"#utility.yul\":12153:12519   */\n      swap2\n      swap1\n      pop\n      jump\t// out\n        /* \"#utility.yul\":12525:12944   */\n    tag_122:\n        /* \"#utility.yul\":12691:12695   */\n      0x00\n        /* \"#utility.yul\":12729:12731   */\n      0x20\n        /* \"#utility.yul\":12718:12727   */\n      dup3\n        /* \"#utility.yul\":12714:12732   */\n      add\n        /* \"#utility.yul\":12706:12732   */\n      swap1\n      pop\n        /* \"#utility.yul\":12778:12787   */\n      dup2\n        /* \"#utility.yul\":12772:12776   */\n      dup2\n        /* \"#utility.yul\":12768:12788   */\n      sub\n        /* \"#utility.yul\":12764:12765   */\n      0x00\n        /* \"#utility.yul\":12753:12762   */\n      dup4\n        /* \"#utility.yul\":12749:12766   */\n      add\n        /* \"#utility.yul\":12742:12789   */\n      mstore\n        /* \"#utility.yul\":12806:12937   */\n      tag_293\n        /* \"#utility.yul\":12932:12936   */\n      dup2\n        /* \"#utility.yul\":12806:12937   */\n      tag_178\n      jump\t// in\n    tag_293:\n        /* \"#utility.yul\":12798:12937   */\n      swap1\n      pop\n        /* \"#utility.yul\":12525:12944   */\n      swap2\n      swap1\n      pop\n      jump\t// out\n        /* \"#utility.yul\":12950:13055   */\n    tag_179:\n        /* \"#utility.yul\":12986:12993   */\n      0x00\n        /* \"#utility.yul\":13026:13048   */\n      0xffffffffffffffffffff\n        /* \"#utility.yul\":13019:13024   */\n      dup3\n        /* \"#utility.yul\":13015:13049   */\n      and\n        /* \"#utility.yul\":13004:13049   */\n      swap1\n      pop\n        /* \"#utility.yul\":12950:13055   */\n      swap2\n      swap1\n      pop\n      jump\t// out\n        /* \"#utility.yul\":13061:13181   */\n    tag_180:\n        /* \"#utility.yul\":13133:13156   */\n      tag_296\n        /* \"#utility.yul\":13150:13155   */\n      dup2\n        /* \"#utility.yul\":13133:13156   */\n      tag_179\n      jump\t// in\n    tag_296:\n        /* \"#utility.yul\":13126:13131   */\n      dup2\n        /* \"#utility.yul\":13123:13157   */\n      eq\n        /* \"#utility.yul\":13113:13175   */\n      tag_297\n      jumpi\n        /* \"#utility.yul\":13171:13172   */\n      0x00\n        /* \"#utility.yul\":13168:13169   */\n      0x00\n        /* \"#utility.yul\":13161:13173   */\n      revert\n        /* \"#utility.yul\":13113:13175   */\n    tag_297:\n        /* \"#utility.yul\":13061:13181   */\n      pop\n      jump\t// out\n        /* \"#utility.yul\":13187:13328   */\n    tag_181:\n        /* \"#utility.yul\":13243:13248   */\n      0x00\n        /* \"#utility.yul\":13274:13280   */\n      dup2\n        /* \"#utility.yul\":13268:13281   */\n      mload\n        /* \"#utility.yul\":13259:13281   */\n      swap1\n      pop\n        /* \"#utility.yul\":13290:13322   */\n      tag_299\n        /* \"#utility.yul\":13316:13321   */\n      dup2\n        /* \"#utility.yul\":13290:13322   */\n      tag_180\n      jump\t// in\n    tag_299:\n        /* \"#utility.yul\":13187:13328   */\n      swap3\n      swap2\n      pop\n      pop\n      jump\t// out\n        /* \"#utility.yul\":13334:13454   */\n    tag_182:\n        /* \"#utility.yul\":13406:13429   */\n      tag_301\n        /* \"#utility.yul\":13423:13428   */\n      dup2\n        /* \"#utility.yul\":13406:13429   */\n      tag_152\n      jump\t// in\n    tag_301:\n        /* \"#utility.yul\":13399:13404   */\n      dup2\n        /* \"#utility.yul\":13396:13430   */\n      eq\n        /* \"#utility.yul\":13386:13448   */\n      tag_302\n      jumpi\n        /* \"#utility.yul\":13444:13445   */\n      0x00\n        /* \"#utility.yul\":13441:13442   */\n      0x00\n        /* \"#utility.yul\":13434:13446   */\n      revert\n        /* \"#utility.yul\":13386:13448   */\n    tag_302:\n        /* \"#utility.yul\":13334:13454   */\n      pop\n      jump\t// out\n        /* \"#utility.yul\":13460:13601   */\n    tag_183:\n        /* \"#utility.yul\":13516:13521   */\n      0x00\n        /* \"#utility.yul\":13547:13553   */\n      dup2\n        /* \"#utility.yul\":13541:13554   */\n      mload\n        /* \"#utility.yul\":13532:13554   */\n      swap1\n      pop\n        /* \"#utility.yul\":13563:13595   */\n      tag_304\n        /* \"#utility.yul\":13589:13594   */\n      dup2\n        /* \"#utility.yul\":13563:13595   */\n      tag_182\n      jump\t// in\n    tag_304:\n        /* \"#utility.yul\":13460:13601   */\n      swap3\n      swap2\n      pop\n      pop\n      jump\t// out\n        /* \"#utility.yul\":13607:13750   */\n    tag_184:\n        /* \"#utility.yul\":13664:13669   */\n      0x00\n        /* \"#utility.yul\":13695:13701   */\n      dup2\n        /* \"#utility.yul\":13689:13702   */\n      mload\n        /* \"#utility.yul\":13680:13702   */\n      swap1\n      pop\n        /* \"#utility.yul\":13711:13744   */\n      tag_306\n        /* \"#utility.yul\":13738:13743   */\n      dup2\n        /* \"#utility.yul\":13711:13744   */\n      tag_154\n      jump\t// in\n    tag_306:\n        /* \"#utility.yul\":13607:13750   */\n      swap3\n      swap2\n      pop\n      pop\n      jump\t// out\n        /* \"#utility.yul\":13756:14727   */\n    tag_128:\n        /* \"#utility.yul\":13859:13865   */\n      0x00\n        /* \"#utility.yul\":13867:13873   */\n      0x00\n        /* \"#utility.yul\":13875:13881   */\n      0x00\n        /* \"#utility.yul\":13883:13889   */\n      0x00\n        /* \"#utility.yul\":13891:13897   */\n      0x00\n        /* \"#utility.yul\":13940:13943   */\n      0xa0\n        /* \"#utility.yul\":13928:13937   */\n      dup7\n        /* \"#utility.yul\":13919:13926   */\n      dup9\n        /* \"#utility.yul\":13915:13938   */\n      sub\n        /* \"#utility.yul\":13911:13944   */\n      slt\n        /* \"#utility.yul\":13908:14028   */\n      iszero\n      tag_308\n      jumpi\n        /* \"#utility.yul\":13947:14026   */\n      tag_309\n      tag_143\n      jump\t// in\n    tag_309:\n        /* \"#utility.yul\":13908:14028   */\n    tag_308:\n        /* \"#utility.yul\":14067:14068   */\n      0x00\n        /* \"#utility.yul\":14092:14155   */\n      tag_310\n        /* \"#utility.yul\":14147:14154   */\n      dup9\n        /* \"#utility.yul\":14138:14144   */\n      dup3\n        /* \"#utility.yul\":14127:14136   */\n      dup10\n        /* \"#utility.yul\":14123:14145   */\n      add\n        /* \"#utility.yul\":14092:14155   */\n      tag_181\n      jump\t// in\n    tag_310:\n        /* \"#utility.yul\":14082:14155   */\n      swap6\n      pop\n        /* \"#utility.yul\":14038:14165   */\n      pop\n        /* \"#utility.yul\":14204:14206   */\n      0x20\n        /* \"#utility.yul\":14230:14293   */\n      tag_311\n        /* \"#utility.yul\":14285:14292   */\n      dup9\n        /* \"#utility.yul\":14276:14282   */\n      dup3\n        /* \"#utility.yul\":14265:14274   */\n      dup10\n        /* \"#utility.yul\":14261:14283   */\n      add\n        /* \"#utility.yul\":14230:14293   */\n      tag_183\n      jump\t// in\n    tag_311:\n        /* \"#utility.yul\":14220:14293   */\n      swap5\n      pop\n        /* \"#utility.yul\":14175:14303   */\n      pop\n        /* \"#utility.yul\":14342:14344   */\n      0x40\n        /* \"#utility.yul\":14368:14432   */\n      tag_312\n        /* \"#utility.yul\":14424:14431   */\n      dup9\n        /* \"#utility.yul\":14415:14421   */\n      dup3\n        /* \"#utility.yul\":14404:14413   */\n      dup10\n        /* \"#utility.yul\":14400:14422   */\n      add\n        /* \"#utility.yul\":14368:14432   */\n      tag_184\n      jump\t// in\n    tag_312:\n        /* \"#utility.yul\":14358:14432   */\n      swap4\n      pop\n        /* \"#utility.yul\":14313:14442   */\n      pop\n        /* \"#utility.yul\":14481:14483   */\n      0x60\n        /* \"#utility.yul\":14507:14571   */\n      tag_313\n        /* \"#utility.yul\":14563:14570   */\n      dup9\n        /* \"#utility.yul\":14554:14560   */\n      dup3\n        /* \"#utility.yul\":14543:14552   */\n      dup10\n        /* \"#utility.yul\":14539:14561   */\n      add\n        /* \"#utility.yul\":14507:14571   */\n      tag_184\n      jump\t// in\n    tag_313:\n        /* \"#utility.yul\":14497:14571   */\n      swap3\n      pop\n        /* \"#utility.yul\":14452:14581   */\n      pop\n        /* \"#utility.yul\":14620:14623   */\n      0x80\n        /* \"#utility.yul\":14647:14710   */\n      tag_314\n        /* \"#utility.yul\":14702:14709   */\n      dup9\n        /* \"#utility.yul\":14693:14699   */\n      dup3\n        /* \"#utility.yul\":14682:14691   */\n      dup10\n        /* \"#utility.yul\":14678:14700   */\n      add\n        /* \"#utility.yul\":14647:14710   */\n      tag_181\n      jump\t// in\n    tag_314:\n        /* \"#utility.yul\":14637:14710   */\n      swap2\n      pop\n        /* \"#utility.yul\":14591:14720   */\n      pop\n        /* \"#utility.yul\":13756:14727   */\n      swap3\n      swap6\n      pop\n      swap3\n      swap6\n      swap1\n      swap4\n      pop\n      jump\t// out\n        /* \"#utility.yul\":14733:14969   */\n    tag_185:\n        /* \"#utility.yul\":14873:14907   */\n      0x596f7520646f6e7427742068617665207065726d697373696f6e20746f206361\n        /* \"#utility.yul\":14869:14870   */\n      0x00\n        /* \"#utility.yul\":14861:14867   */\n      dup3\n        /* \"#utility.yul\":14857:14871   */\n      add\n        /* \"#utility.yul\":14850:14908   */\n      mstore\n        /* \"#utility.yul\":14942:14961   */\n      0x6c6c20746869732066756e6374696f6e21000000000000000000000000000000\n        /* \"#utility.yul\":14937:14939   */\n      0x20\n        /* \"#utility.yul\":14929:14935   */\n      dup3\n        /* \"#utility.yul\":14925:14940   */\n      add\n        /* \"#utility.yul\":14918:14962   */\n      mstore\n        /* \"#utility.yul\":14733:14969   */\n      pop\n      jump\t// out\n        /* \"#utility.yul\":14975:15341   */\n    tag_186:\n        /* \"#utility.yul\":15117:15120   */\n      0x00\n        /* \"#utility.yul\":15138:15205   */\n      tag_317\n        /* \"#utility.yul\":15202:15204   */\n      0x31\n        /* \"#utility.yul\":15197:15200   */\n      dup4\n        /* \"#utility.yul\":15138:15205   */\n      tag_158\n      jump\t// in\n    tag_317:\n        /* \"#utility.yul\":15131:15205   */\n      swap2\n      pop\n        /* \"#utility.yul\":15214:15307   */\n      tag_318\n        /* \"#utility.yul\":15303:15306   */\n      dup3\n        /* \"#utility.yul\":15214:15307   */\n      tag_185\n      jump\t// in\n    tag_318:\n        /* \"#utility.yul\":15332:15334   */\n      0x40\n        /* \"#utility.yul\":15327:15330   */\n      dup3\n        /* \"#utility.yul\":15323:15335   */\n      add\n        /* \"#utility.yul\":15316:15335   */\n      swap1\n      pop\n        /* \"#utility.yul\":14975:15341   */\n      swap2\n      swap1\n      pop\n      jump\t// out\n        /* \"#utility.yul\":15347:15766   */\n    tag_132:\n        /* \"#utility.yul\":15513:15517   */\n      0x00\n        /* \"#utility.yul\":15551:15553   */\n      0x20\n        /* \"#utility.yul\":15540:15549   */\n      dup3\n        /* \"#utility.yul\":15536:15554   */\n      add\n        /* \"#utility.yul\":15528:15554   */\n      swap1\n      pop\n        /* \"#utility.yul\":15600:15609   */\n      dup2\n        /* \"#utility.yul\":15594:15598   */\n      dup2\n        /* \"#utility.yul\":15590:15610   */\n      sub\n        /* \"#utility.yul\":15586:15587   */\n      0x00\n        /* \"#utility.yul\":15575:15584   */\n      dup4\n        /* \"#utility.yul\":15571:15588   */\n      add\n        /* \"#utility.yul\":15564:15611   */\n      mstore\n        /* \"#utility.yul\":15628:15759   */\n      tag_320\n        /* \"#utility.yul\":15754:15758   */\n      dup2\n        /* \"#utility.yul\":15628:15759   */\n      tag_186\n      jump\t// in\n    tag_320:\n        /* \"#utility.yul\":15620:15759   */\n      swap1\n      pop\n        /* \"#utility.yul\":15347:15766   */\n      swap2\n      swap1\n      pop\n      jump\t// out\n        /* \"#utility.yul\":15772:16182   */\n    tag_141:\n        /* \"#utility.yul\":15812:15819   */\n      0x00\n        /* \"#utility.yul\":15835:15855   */\n      tag_322\n        /* \"#utility.yul\":15853:15854   */\n      dup3\n        /* \"#utility.yul\":15835:15855   */\n      tag_149\n      jump\t// in\n    tag_322:\n        /* \"#utility.yul\":15830:15855   */\n      swap2\n      pop\n        /* \"#utility.yul\":15869:15889   */\n      tag_323\n        /* \"#utility.yul\":15887:15888   */\n      dup4\n        /* \"#utility.yul\":15869:15889   */\n      tag_149\n      jump\t// in\n    tag_323:\n        /* \"#utility.yul\":15864:15889   */\n      swap3\n      pop\n        /* \"#utility.yul\":15924:15925   */\n      dup3\n        /* \"#utility.yul\":15921:15922   */\n      dup3\n        /* \"#utility.yul\":15917:15926   */\n      mul\n        /* \"#utility.yul\":15946:15976   */\n      tag_324\n        /* \"#utility.yul\":15964:15975   */\n      dup2\n        /* \"#utility.yul\":15946:15976   */\n      tag_149\n      jump\t// in\n    tag_324:\n        /* \"#utility.yul\":15935:15976   */\n      swap2\n      pop\n        /* \"#utility.yul\":16125:16126   */\n      dup3\n        /* \"#utility.yul\":16116:16123   */\n      dup3\n        /* \"#utility.yul\":16112:16127   */\n      div\n        /* \"#utility.yul\":16109:16110   */\n      dup5\n        /* \"#utility.yul\":16106:16128   */\n      eq\n        /* \"#utility.yul\":16086:16087   */\n      dup4\n        /* \"#utility.yul\":16079:16088   */\n      iszero\n        /* \"#utility.yul\":16059:16142   */\n      or\n        /* \"#utility.yul\":16036:16175   */\n      tag_325\n      jumpi\n        /* \"#utility.yul\":16155:16173   */\n      tag_326\n      tag_161\n      jump\t// in\n    tag_326:\n        /* \"#utility.yul\":16036:16175   */\n    tag_325:\n        /* \"#utility.yul\":15820:16182   */\n      pop\n        /* \"#utility.yul\":15772:16182   */\n      swap3\n      swap2\n      pop\n      pop\n      jump\t// out\n\n    auxdata: 0xa26469706673582212201cf09d6f6fa5ce406025289be5df7d3e4281c4745be2ffa107c0d6b770137f0864736f6c634300081c0033\n}\n",
				"bytecode": {
					"linkReferences": {},
					"object": "60806040525f60065f6101000a81548160ff021916908315150217905550348015610028575f5ffd5b5060405161156e38038061156e833981810160405281019061004a919061016a565b5f811161008c576040517f08c379a000000000000000000000000000000000000000000000000000000000815260040161008390610215565b60405180910390fd5b3360025f6101000a81548173ffffffffffffffffffffffffffffffffffffffff021916908373ffffffffffffffffffffffffffffffffffffffff160217905550426004819055508060058190555073694aa1769357215de4fac081bf1f309adc3253065f5f6101000a81548173ffffffffffffffffffffffffffffffffffffffff021916908373ffffffffffffffffffffffffffffffffffffffff16021790555050610233565b5f5ffd5b5f819050919050565b61014981610137565b8114610153575f5ffd5b50565b5f8151905061016481610140565b92915050565b5f6020828403121561017f5761017e610133565b5b5f61018c84828501610156565b91505092915050565b5f82825260208201905092915050565b7f4c6f636b2074696d65206d7573742062652067726561746572207468616e207a5f8201527f65726f0000000000000000000000000000000000000000000000000000000000602082015250565b5f6101ff602383610195565b915061020a826101a5565b604082019050919050565b5f6020820190508181035f83015261022c816101f3565b9050919050565b61132e806102405f395ff3fe6080604052600436106100a6575f3560e01c8063b60d428811610063578063b60d42881461018e578063bea4dfb514610198578063d39cf006146101c2578063da4658e0146101ea578063dba244f114610214578063f2fde38b14610250576100a6565b806313ffff01146100aa5780634407e1e8146100d2578063590e1ae31461010e5780637795dc2a146101245780638da5cb5b1461014e5780638edd6eb614610178575b5f5ffd5b3480156100b5575f5ffd5b506100d060048036038101906100cb9190610bf4565b610278565b005b3480156100dd575f5ffd5b506100f860048036038101906100f39190610bf4565b61034a565b6040516101059190610c37565b60405180910390f35b348015610119575f5ffd5b5061012261035f565b005b34801561012f575f5ffd5b50610138610578565b6040516101459190610c37565b60405180910390f35b348015610159575f5ffd5b506101626105bc565b60405161016f9190610c5f565b60405180910390f35b348015610183575f5ffd5b5061018c6105e1565b005b6101966107de565b005b3480156101a3575f5ffd5b506101ac6108db565b6040516101b99190610c90565b60405180910390f35b3480156101cd575f5ffd5b506101e860048036038101906101e39190610cd3565b610977565b005b3480156101f5575f5ffd5b506101fe610a4c565b60405161020b9190610d2b565b60405180910390f35b34801561021f575f5ffd5b5061023a60048036038101906102359190610bf4565b610a5e565b6040516102479190610c37565b60405180910390f35b34801561025b575f5ffd5b5061027660048036038101906102719190610bf4565b610aa4565b005b3373ffffffffffffffffffffffffffffffffffffffff1660025f9054906101000a900473ffffffffffffffffffffffffffffffffffffffff1673ffffffffffffffffffffffffffffffffffffffff1614610307576040517f08c379a00000000000000000000000000000000000000000000000000000000081526004016102fe90610d9e565b60405180910390fd5b8060035f6101000a81548173ffffffffffffffffffffffffffffffffffffffff021916908373ffffffffffffffffffffffffffffffffffffffff16021790555050565b6001602052805f5260405f205f915090505481565b60055460045461036f9190610de9565b42116103b0576040517f08c379a00000000000000000000000000000000000000000000000000000000081526004016103a790610e66565b60405180910390fd5b6a52b7d2dcc80cd2e40000006103c547610b76565b10610405576040517f08c379a00000000000000000000000000000000000000000000000000000000081526004016103fc90610ece565b60405180910390fd5b5f60015f3373ffffffffffffffffffffffffffffffffffffffff1673ffffffffffffffffffffffffffffffffffffffff1681526020019081526020015f205490505f8103610488576040517f08c379a000000000000000000000000000000000000000000000000000000000815260040161047f90610f36565b60405180910390fd5b5f3373ffffffffffffffffffffffffffffffffffffffff16826040516104ad90610f81565b5f6040518083038185875af1925050503d805f81146104e7576040519150601f19603f3d011682016040523d82523d5f602084013e6104ec565b606091505b50508091505080610532576040517f08c379a000000000000000000000000000000000000000000000000000000000815260040161052990610fdf565b60405180910390fd5b5f60015f3373ffffffffffffffffffffffffffffffffffffffff1673ffffffffffffffffffffffffffffffffffffffff1681526020019081526020015f20819055505050565b5f60015f3373ffffffffffffffffffffffffffffffffffffffff1673ffffffffffffffffffffffffffffffffffffffff1681526020019081526020015f2054905090565b60025f9054906101000a900473ffffffffffffffffffffffffffffffffffffffff1681565b3373ffffffffffffffffffffffffffffffffffffffff1660025f9054906101000a900473ffffffffffffffffffffffffffffffffffffffff1673ffffffffffffffffffffffffffffffffffffffff1614610670576040517f08c379a000000000000000000000000000000000000000000000000000000000815260040161066790610d9e565b60405180910390fd5b6005546004546106809190610de9565b42116106c1576040517f08c379a00000000000000000000000000000000000000000000000000000000081526004016106b890610e66565b60405180910390fd5b6a52b7d2dcc80cd2e40000006106d647610b76565b1015610717576040517f08c379a000000000000000000000000000000000000000000000000000000000815260040161070e90611047565b60405180910390fd5b5f3373ffffffffffffffffffffffffffffffffffffffff164760405161073c90610f81565b5f6040518083038185875af1925050503d805f8114610776576040519150601f19603f3d011682016040523d82523d5f602084013e61077b565b606091505b505080915050806107c1576040517f08c379a00000000000000000000000000000000000000000000000000000000081526004016107b890610fdf565b60405180910390fd5b600160065f6101000a81548160ff02191690831515021790555050565b6005546004546107ee9190610de9565b421115610830576040517f08c379a0000000000000000000000000000000000000000000000000000000008152600401610827906110af565b60405180910390fd5b6a52b7d2dcc80cd2e400000061084534610b76565b1015610886576040517f08c379a000000000000000000000000000000000000000000000000000000000815260040161087d90611117565b60405180910390fd5b3460015f3373ffffffffffffffffffffffffffffffffffffffff1673ffffffffffffffffffffffffffffffffffffffff1681526020019081526020015f205f8282546108d29190610de9565b92505081905550565b5f5f5f5f9054906101000a900473ffffffffffffffffffffffffffffffffffffffff1673ffffffffffffffffffffffffffffffffffffffff1663feaf968c6040518163ffffffff1660e01b815260040160a060405180830381865afa158015610946573d5f5f3e3d5ffd5b505050506040513d601f19601f8201168201806040525081019061096a91906111b2565b5050509150508091505090565b60035f9054906101000a900473ffffffffffffffffffffffffffffffffffffffff1673ffffffffffffffffffffffffffffffffffffffff163373ffffffffffffffffffffffffffffffffffffffff1614610a06576040517f08c379a00000000000000000000000000000000000000000000000000000000081526004016109fd90611299565b60405180910390fd5b8060015f8473ffffffffffffffffffffffffffffffffffffffff1673ffffffffffffffffffffffffffffffffffffffff1681526020019081526020015f20819055505050565b60065f9054906101000a900460ff1681565b5f60015f8373ffffffffffffffffffffffffffffffffffffffff1673ffffffffffffffffffffffffffffffffffffffff1681526020019081526020015f20549050919050565b3373ffffffffffffffffffffffffffffffffffffffff1660025f9054906101000a900473ffffffffffffffffffffffffffffffffffffffff1673ffffffffffffffffffffffffffffffffffffffff1614610b33576040517f08c379a0000000000000000000000000000000000000000000000000000000008152600401610b2a90610d9e565b60405180910390fd5b8060025f6101000a81548173ffffffffffffffffffffffffffffffffffffffff021916908373ffffffffffffffffffffffffffffffffffffffff16021790555050565b5f5f610b806108db565b90508083610b8e91906112b7565b915050919050565b5f5ffd5b5f73ffffffffffffffffffffffffffffffffffffffff82169050919050565b5f610bc382610b9a565b9050919050565b610bd381610bb9565b8114610bdd575f5ffd5b50565b5f81359050610bee81610bca565b92915050565b5f60208284031215610c0957610c08610b96565b5b5f610c1684828501610be0565b91505092915050565b5f819050919050565b610c3181610c1f565b82525050565b5f602082019050610c4a5f830184610c28565b92915050565b610c5981610bb9565b82525050565b5f602082019050610c725f830184610c50565b92915050565b5f819050919050565b610c8a81610c78565b82525050565b5f602082019050610ca35f830184610c81565b92915050565b610cb281610c1f565b8114610cbc575f5ffd5b50565b5f81359050610ccd81610ca9565b92915050565b5f5f60408385031215610ce957610ce8610b96565b5b5f610cf685828601610be0565b9250506020610d0785828601610cbf565b9150509250929050565b5f8115159050919050565b610d2581610d11565b82525050565b5f602082019050610d3e5f830184610d1c565b92915050565b5f82825260208201905092915050565b7f4f776e6572206f6e6c79210000000000000000000000000000000000000000005f82015250565b5f610d88600b83610d44565b9150610d9382610d54565b602082019050919050565b5f6020820190508181035f830152610db581610d7c565b9050919050565b7f4e487b71000000000000000000000000000000000000000000000000000000005f52601160045260245ffd5b5f610df382610c1f565b9150610dfe83610c1f565b9250828201905080821115610e1657610e15610dbc565b5b92915050565b7f57696e646f77206e6f7420636c6f7365642100000000000000000000000000005f82015250565b5f610e50601283610d44565b9150610e5b82610e1c565b602082019050919050565b5f6020820190508181035f830152610e7d81610e44565b9050919050565b7f54617267657420697320726561636865642100000000000000000000000000005f82015250565b5f610eb8601283610d44565b9150610ec382610e84565b602082019050919050565b5f6020820190508181035f830152610ee581610eac565b9050919050565b7f596f7520686176656e27742066756e64210000000000000000000000000000005f82015250565b5f610f20601183610d44565b9150610f2b82610eec565b602082019050919050565b5f6020820190508181035f830152610f4d81610f14565b9050919050565b5f81905092915050565b50565b5f610f6c5f83610f54565b9150610f7782610f5e565b5f82019050919050565b5f610f8b82610f61565b9150819050919050565b7f5472616e73666572207478206661696c656421000000000000000000000000005f82015250565b5f610fc9601383610d44565b9150610fd482610f95565b602082019050919050565b5f6020820190508181035f830152610ff681610fbd565b9050919050565b7f546172676574206973206e6f74207265616368656421000000000000000000005f82015250565b5f611031601683610d44565b915061103c82610ffd565b602082019050919050565b5f6020820190508181035f83015261105e81611025565b9050919050565b7f57696e646f7720636c6f736564210000000000000000000000000000000000005f82015250565b5f611099600e83610d44565b91506110a482611065565b602082019050919050565b5f6020820190508181035f8301526110c68161108d565b9050919050565b7f506c656173652073656e64206d6f7265210000000000000000000000000000005f82015250565b5f611101601183610d44565b915061110c826110cd565b602082019050919050565b5f6020820190508181035f83015261112e816110f5565b9050919050565b5f69ffffffffffffffffffff82169050919050565b61115381611135565b811461115d575f5ffd5b50565b5f8151905061116e8161114a565b92915050565b61117d81610c78565b8114611187575f5ffd5b50565b5f8151905061119881611174565b92915050565b5f815190506111ac81610ca9565b92915050565b5f5f5f5f5f60a086880312156111cb576111ca610b96565b5b5f6111d888828901611160565b95505060206111e98882890161118a565b94505060406111fa8882890161119e565b935050606061120b8882890161119e565b925050608061121c88828901611160565b9150509295509295909350565b7f596f7520646f6e7427742068617665207065726d697373696f6e20746f2063615f8201527f6c6c20746869732066756e6374696f6e21000000000000000000000000000000602082015250565b5f611283603183610d44565b915061128e82611229565b604082019050919050565b5f6020820190508181035f8301526112b081611277565b9050919050565b5f6112c182610c1f565b91506112cc83610c1f565b92508282026112da81610c1f565b915082820484148315176112f1576112f0610dbc565b5b509291505056fea26469706673582212201cf09d6f6fa5ce406025289be5df7d3e4281c4745be2ffa107c0d6b770137f0864736f6c634300081c0033",
					"opcodes": "PUSH1 0x80 PUSH1 0x40 MSTORE PUSH0 PUSH1 0x6 PUSH0 PUSH2 0x100 EXP DUP2 SLOAD DUP2 PUSH1 0xFF MUL NOT AND SWAP1 DUP4 ISZERO ISZERO MUL OR SWAP1 SSTORE POP CALLVALUE DUP1 ISZERO PUSH2 0x28 JUMPI PUSH0 PUSH0 REVERT JUMPDEST POP PUSH1 0x40 MLOAD PUSH2 0x156E CODESIZE SUB DUP1 PUSH2 0x156E DUP4 CODECOPY DUP2 DUP2 ADD PUSH1 0x40 MSTORE DUP2 ADD SWAP1 PUSH2 0x4A SWAP2 SWAP1 PUSH2 0x16A JUMP JUMPDEST PUSH0 DUP2 GT PUSH2 0x8C JUMPI PUSH1 0x40 MLOAD PUSH32 0x8C379A000000000000000000000000000000000000000000000000000000000 DUP2 MSTORE PUSH1 0x4 ADD PUSH2 0x83 SWAP1 PUSH2 0x215 JUMP JUMPDEST PUSH1 0x40 MLOAD DUP1 SWAP2 SUB SWAP1 REVERT JUMPDEST CALLER PUSH1 0x2 PUSH0 PUSH2 0x100 EXP DUP2 SLOAD DUP2 PUSH20 0xFFFFFFFFFFFFFFFFFFFFFFFFFFFFFFFFFFFFFFFF MUL NOT AND SWAP1 DUP4 PUSH20 0xFFFFFFFFFFFFFFFFFFFFFFFFFFFFFFFFFFFFFFFF AND MUL OR SWAP1 SSTORE POP TIMESTAMP PUSH1 0x4 DUP2 SWAP1 SSTORE POP DUP1 PUSH1 0x5 DUP2 SWAP1 SSTORE POP PUSH20 0x694AA1769357215DE4FAC081BF1F309ADC325306 PUSH0 PUSH0 PUSH2 0x100 EXP DUP2 SLOAD DUP2 PUSH20 0xFFFFFFFFFFFFFFFFFFFFFFFFFFFFFFFFFFFFFFFF MUL NOT AND SWAP1 DUP4 PUSH20 0xFFFFFFFFFFFFFFFFFFFFFFFFFFFFFFFFFFFFFFFF AND MUL OR SWAP1 SSTORE POP POP PUSH2 0x233 JUMP JUMPDEST PUSH0 PUSH0 REVERT JUMPDEST PUSH0 DUP2 SWAP1 POP SWAP2 SWAP1 POP JUMP JUMPDEST PUSH2 0x149 DUP2 PUSH2 0x137 JUMP JUMPDEST DUP2 EQ PUSH2 0x153 JUMPI PUSH0 PUSH0 REVERT JUMPDEST POP JUMP JUMPDEST PUSH0 DUP2 MLOAD SWAP1 POP PUSH2 0x164 DUP2 PUSH2 0x140 JUMP JUMPDEST SWAP3 SWAP2 POP POP JUMP JUMPDEST PUSH0 PUSH1 0x20 DUP3 DUP5 SUB SLT ISZERO PUSH2 0x17F JUMPI PUSH2 0x17E PUSH2 0x133 JUMP JUMPDEST JUMPDEST PUSH0 PUSH2 0x18C DUP5 DUP3 DUP6 ADD PUSH2 0x156 JUMP JUMPDEST SWAP2 POP POP SWAP3 SWAP2 POP POP JUMP JUMPDEST PUSH0 DUP3 DUP3 MSTORE PUSH1 0x20 DUP3 ADD SWAP1 POP SWAP3 SWAP2 POP POP JUMP JUMPDEST PUSH32 0x4C6F636B2074696D65206D7573742062652067726561746572207468616E207A PUSH0 DUP3 ADD MSTORE PUSH32 0x65726F0000000000000000000000000000000000000000000000000000000000 PUSH1 0x20 DUP3 ADD MSTORE POP JUMP JUMPDEST PUSH0 PUSH2 0x1FF PUSH1 0x23 DUP4 PUSH2 0x195 JUMP JUMPDEST SWAP2 POP PUSH2 0x20A DUP3 PUSH2 0x1A5 JUMP JUMPDEST PUSH1 0x40 DUP3 ADD SWAP1 POP SWAP2 SWAP1 POP JUMP JUMPDEST PUSH0 PUSH1 0x20 DUP3 ADD SWAP1 POP DUP2 DUP2 SUB PUSH0 DUP4 ADD MSTORE PUSH2 0x22C DUP2 PUSH2 0x1F3 JUMP JUMPDEST SWAP1 POP SWAP2 SWAP1 POP JUMP JUMPDEST PUSH2 0x132E DUP1 PUSH2 0x240 PUSH0 CODECOPY PUSH0 RETURN INVALID PUSH1 0x80 PUSH1 0x40 MSTORE PUSH1 0x4 CALLDATASIZE LT PUSH2 0xA6 JUMPI PUSH0 CALLDATALOAD PUSH1 0xE0 SHR DUP1 PUSH4 0xB60D4288 GT PUSH2 0x63 JUMPI DUP1 PUSH4 0xB60D4288 EQ PUSH2 0x18E JUMPI DUP1 PUSH4 0xBEA4DFB5 EQ PUSH2 0x198 JUMPI DUP1 PUSH4 0xD39CF006 EQ PUSH2 0x1C2 JUMPI DUP1 PUSH4 0xDA4658E0 EQ PUSH2 0x1EA JUMPI DUP1 PUSH4 0xDBA244F1 EQ PUSH2 0x214 JUMPI DUP1 PUSH4 0xF2FDE38B EQ PUSH2 0x250 JUMPI PUSH2 0xA6 JUMP JUMPDEST DUP1 PUSH4 0x13FFFF01 EQ PUSH2 0xAA JUMPI DUP1 PUSH4 0x4407E1E8 EQ PUSH2 0xD2 JUMPI DUP1 PUSH4 0x590E1AE3 EQ PUSH2 0x10E JUMPI DUP1 PUSH4 0x7795DC2A EQ PUSH2 0x124 JUMPI DUP1 PUSH4 0x8DA5CB5B EQ PUSH2 0x14E JUMPI DUP1 PUSH4 0x8EDD6EB6 EQ PUSH2 0x178 JUMPI JUMPDEST PUSH0 PUSH0 REVERT JUMPDEST CALLVALUE DUP1 ISZERO PUSH2 0xB5 JUMPI PUSH0 PUSH0 REVERT JUMPDEST POP PUSH2 0xD0 PUSH1 0x4 DUP1 CALLDATASIZE SUB DUP2 ADD SWAP1 PUSH2 0xCB SWAP2 SWAP1 PUSH2 0xBF4 JUMP JUMPDEST PUSH2 0x278 JUMP JUMPDEST STOP JUMPDEST CALLVALUE DUP1 ISZERO PUSH2 0xDD JUMPI PUSH0 PUSH0 REVERT JUMPDEST POP PUSH2 0xF8 PUSH1 0x4 DUP1 CALLDATASIZE SUB DUP2 ADD SWAP1 PUSH2 0xF3 SWAP2 SWAP1 PUSH2 0xBF4 JUMP JUMPDEST PUSH2 0x34A JUMP JUMPDEST PUSH1 0x40 MLOAD PUSH2 0x105 SWAP2 SWAP1 PUSH2 0xC37 JUMP JUMPDEST PUSH1 0x40 MLOAD DUP1 SWAP2 SUB SWAP1 RETURN JUMPDEST CALLVALUE DUP1 ISZERO PUSH2 0x119 JUMPI PUSH0 PUSH0 REVERT JUMPDEST POP PUSH2 0x122 PUSH2 0x35F JUMP JUMPDEST STOP JUMPDEST CALLVALUE DUP1 ISZERO PUSH2 0x12F JUMPI PUSH0 PUSH0 REVERT JUMPDEST POP PUSH2 0x138 PUSH2 0x578 JUMP JUMPDEST PUSH1 0x40 MLOAD PUSH2 0x145 SWAP2 SWAP1 PUSH2 0xC37 JUMP JUMPDEST PUSH1 0x40 MLOAD DUP1 SWAP2 SUB SWAP1 RETURN JUMPDEST CALLVALUE DUP1 ISZERO PUSH2 0x159 JUMPI PUSH0 PUSH0 REVERT JUMPDEST POP PUSH2 0x162 PUSH2 0x5BC JUMP JUMPDEST PUSH1 0x40 MLOAD PUSH2 0x16F SWAP2 SWAP1 PUSH2 0xC5F JUMP JUMPDEST PUSH1 0x40 MLOAD DUP1 SWAP2 SUB SWAP1 RETURN JUMPDEST CALLVALUE DUP1 ISZERO PUSH2 0x183 JUMPI PUSH0 PUSH0 REVERT JUMPDEST POP PUSH2 0x18C PUSH2 0x5E1 JUMP JUMPDEST STOP JUMPDEST PUSH2 0x196 PUSH2 0x7DE JUMP JUMPDEST STOP JUMPDEST CALLVALUE DUP1 ISZERO PUSH2 0x1A3 JUMPI PUSH0 PUSH0 REVERT JUMPDEST POP PUSH2 0x1AC PUSH2 0x8DB JUMP JUMPDEST PUSH1 0x40 MLOAD PUSH2 0x1B9 SWAP2 SWAP1 PUSH2 0xC90 JUMP JUMPDEST PUSH1 0x40 MLOAD DUP1 SWAP2 SUB SWAP1 RETURN JUMPDEST CALLVALUE DUP1 ISZERO PUSH2 0x1CD JUMPI PUSH0 PUSH0 REVERT JUMPDEST POP PUSH2 0x1E8 PUSH1 0x4 DUP1 CALLDATASIZE SUB DUP2 ADD SWAP1 PUSH2 0x1E3 SWAP2 SWAP1 PUSH2 0xCD3 JUMP JUMPDEST PUSH2 0x977 JUMP JUMPDEST STOP JUMPDEST CALLVALUE DUP1 ISZERO PUSH2 0x1F5 JUMPI PUSH0 PUSH0 REVERT JUMPDEST POP PUSH2 0x1FE PUSH2 0xA4C JUMP JUMPDEST PUSH1 0x40 MLOAD PUSH2 0x20B SWAP2 SWAP1 PUSH2 0xD2B JUMP JUMPDEST PUSH1 0x40 MLOAD DUP1 SWAP2 SUB SWAP1 RETURN JUMPDEST CALLVALUE DUP1 ISZERO PUSH2 0x21F JUMPI PUSH0 PUSH0 REVERT JUMPDEST POP PUSH2 0x23A PUSH1 0x4 DUP1 CALLDATASIZE SUB DUP2 ADD SWAP1 PUSH2 0x235 SWAP2 SWAP1 PUSH2 0xBF4 JUMP JUMPDEST PUSH2 0xA5E JUMP JUMPDEST PUSH1 0x40 MLOAD PUSH2 0x247 SWAP2 SWAP1 PUSH2 0xC37 JUMP JUMPDEST PUSH1 0x40 MLOAD DUP1 SWAP2 SUB SWAP1 RETURN JUMPDEST CALLVALUE DUP1 ISZERO PUSH2 0x25B JUMPI PUSH0 PUSH0 REVERT JUMPDEST POP PUSH2 0x276 PUSH1 0x4 DUP1 CALLDATASIZE SUB DUP2 ADD SWAP1 PUSH2 0x271 SWAP2 SWAP1 PUSH2 0xBF4 JUMP JUMPDEST PUSH2 0xAA4 JUMP JUMPDEST STOP JUMPDEST CALLER PUSH20 0xFFFFFFFFFFFFFFFFFFFFFFFFFFFFFFFFFFFFFFFF AND PUSH1 0x2 PUSH0 SWAP1 SLOAD SWAP1 PUSH2 0x100 EXP SWAP1 DIV PUSH20 0xFFFFFFFFFFFFFFFFFFFFFFFFFFFFFFFFFFFFFFFF AND PUSH20 0xFFFFFFFFFFFFFFFFFFFFFFFFFFFFFFFFFFFFFFFF AND EQ PUSH2 0x307 JUMPI PUSH1 0x40 MLOAD PUSH32 0x8C379A000000000000000000000000000000000000000000000000000000000 DUP2 MSTORE PUSH1 0x4 ADD PUSH2 0x2FE SWAP1 PUSH2 0xD9E JUMP JUMPDEST PUSH1 0x40 MLOAD DUP1 SWAP2 SUB SWAP1 REVERT JUMPDEST DUP1 PUSH1 0x3 PUSH0 PUSH2 0x100 EXP DUP2 SLOAD DUP2 PUSH20 0xFFFFFFFFFFFFFFFFFFFFFFFFFFFFFFFFFFFFFFFF MUL NOT AND SWAP1 DUP4 PUSH20 0xFFFFFFFFFFFFFFFFFFFFFFFFFFFFFFFFFFFFFFFF AND MUL OR SWAP1 SSTORE POP POP JUMP JUMPDEST PUSH1 0x1 PUSH1 0x20 MSTORE DUP1 PUSH0 MSTORE PUSH1 0x40 PUSH0 KECCAK256 PUSH0 SWAP2 POP SWAP1 POP SLOAD DUP2 JUMP JUMPDEST PUSH1 0x5 SLOAD PUSH1 0x4 SLOAD PUSH2 0x36F SWAP2 SWAP1 PUSH2 0xDE9 JUMP JUMPDEST TIMESTAMP GT PUSH2 0x3B0 JUMPI PUSH1 0x40 MLOAD PUSH32 0x8C379A000000000000000000000000000000000000000000000000000000000 DUP2 MSTORE PUSH1 0x4 ADD PUSH2 0x3A7 SWAP1 PUSH2 0xE66 JUMP JUMPDEST PUSH1 0x40 MLOAD DUP1 SWAP2 SUB SWAP1 REVERT JUMPDEST PUSH11 0x52B7D2DCC80CD2E4000000 PUSH2 0x3C5 SELFBALANCE PUSH2 0xB76 JUMP JUMPDEST LT PUSH2 0x405 JUMPI PUSH1 0x40 MLOAD PUSH32 0x8C379A000000000000000000000000000000000000000000000000000000000 DUP2 MSTORE PUSH1 0x4 ADD PUSH2 0x3FC SWAP1 PUSH2 0xECE JUMP JUMPDEST PUSH1 0x40 MLOAD DUP1 SWAP2 SUB SWAP1 REVERT JUMPDEST PUSH0 PUSH1 0x1 PUSH0 CALLER PUSH20 0xFFFFFFFFFFFFFFFFFFFFFFFFFFFFFFFFFFFFFFFF AND PUSH20 0xFFFFFFFFFFFFFFFFFFFFFFFFFFFFFFFFFFFFFFFF AND DUP2 MSTORE PUSH1 0x20 ADD SWAP1 DUP2 MSTORE PUSH1 0x20 ADD PUSH0 KECCAK256 SLOAD SWAP1 POP PUSH0 DUP2 SUB PUSH2 0x488 JUMPI PUSH1 0x40 MLOAD PUSH32 0x8C379A000000000000000000000000000000000000000000000000000000000 DUP2 MSTORE PUSH1 0x4 ADD PUSH2 0x47F SWAP1 PUSH2 0xF36 JUMP JUMPDEST PUSH1 0x40 MLOAD DUP1 SWAP2 SUB SWAP1 REVERT JUMPDEST PUSH0 CALLER PUSH20 0xFFFFFFFFFFFFFFFFFFFFFFFFFFFFFFFFFFFFFFFF AND DUP3 PUSH1 0x40 MLOAD PUSH2 0x4AD SWAP1 PUSH2 0xF81 JUMP JUMPDEST PUSH0 PUSH1 0x40 MLOAD DUP1 DUP4 SUB DUP2 DUP6 DUP8 GAS CALL SWAP3 POP POP POP RETURNDATASIZE DUP1 PUSH0 DUP2 EQ PUSH2 0x4E7 JUMPI PUSH1 0x40 MLOAD SWAP2 POP PUSH1 0x1F NOT PUSH1 0x3F RETURNDATASIZE ADD AND DUP3 ADD PUSH1 0x40 MSTORE RETURNDATASIZE DUP3 MSTORE RETURNDATASIZE PUSH0 PUSH1 0x20 DUP5 ADD RETURNDATACOPY PUSH2 0x4EC JUMP JUMPDEST PUSH1 0x60 SWAP2 POP JUMPDEST POP POP DUP1 SWAP2 POP POP DUP1 PUSH2 0x532 JUMPI PUSH1 0x40 MLOAD PUSH32 0x8C379A000000000000000000000000000000000000000000000000000000000 DUP2 MSTORE PUSH1 0x4 ADD PUSH2 0x529 SWAP1 PUSH2 0xFDF JUMP JUMPDEST PUSH1 0x40 MLOAD DUP1 SWAP2 SUB SWAP1 REVERT JUMPDEST PUSH0 PUSH1 0x1 PUSH0 CALLER PUSH20 0xFFFFFFFFFFFFFFFFFFFFFFFFFFFFFFFFFFFFFFFF AND PUSH20 0xFFFFFFFFFFFFFFFFFFFFFFFFFFFFFFFFFFFFFFFF AND DUP2 MSTORE PUSH1 0x20 ADD SWAP1 DUP2 MSTORE PUSH1 0x20 ADD PUSH0 KECCAK256 DUP2 SWAP1 SSTORE POP POP POP JUMP JUMPDEST PUSH0 PUSH1 0x1 PUSH0 CALLER PUSH20 0xFFFFFFFFFFFFFFFFFFFFFFFFFFFFFFFFFFFFFFFF AND PUSH20 0xFFFFFFFFFFFFFFFFFFFFFFFFFFFFFFFFFFFFFFFF AND DUP2 MSTORE PUSH1 0x20 ADD SWAP1 DUP2 MSTORE PUSH1 0x20 ADD PUSH0 KECCAK256 SLOAD SWAP1 POP SWAP1 JUMP JUMPDEST PUSH1 0x2 PUSH0 SWAP1 SLOAD SWAP1 PUSH2 0x100 EXP SWAP1 DIV PUSH20 0xFFFFFFFFFFFFFFFFFFFFFFFFFFFFFFFFFFFFFFFF AND DUP2 JUMP JUMPDEST CALLER PUSH20 0xFFFFFFFFFFFFFFFFFFFFFFFFFFFFFFFFFFFFFFFF AND PUSH1 0x2 PUSH0 SWAP1 SLOAD SWAP1 PUSH2 0x100 EXP SWAP1 DIV PUSH20 0xFFFFFFFFFFFFFFFFFFFFFFFFFFFFFFFFFFFFFFFF AND PUSH20 0xFFFFFFFFFFFFFFFFFFFFFFFFFFFFFFFFFFFFFFFF AND EQ PUSH2 0x670 JUMPI PUSH1 0x40 MLOAD PUSH32 0x8C379A000000000000000000000000000000000000000000000000000000000 DUP2 MSTORE PUSH1 0x4 ADD PUSH2 0x667 SWAP1 PUSH2 0xD9E JUMP JUMPDEST PUSH1 0x40 MLOAD DUP1 SWAP2 SUB SWAP1 REVERT JUMPDEST PUSH1 0x5 SLOAD PUSH1 0x4 SLOAD PUSH2 0x680 SWAP2 SWAP1 PUSH2 0xDE9 JUMP JUMPDEST TIMESTAMP GT PUSH2 0x6C1 JUMPI PUSH1 0x40 MLOAD PUSH32 0x8C379A000000000000000000000000000000000000000000000000000000000 DUP2 MSTORE PUSH1 0x4 ADD PUSH2 0x6B8 SWAP1 PUSH2 0xE66 JUMP JUMPDEST PUSH1 0x40 MLOAD DUP1 SWAP2 SUB SWAP1 REVERT JUMPDEST PUSH11 0x52B7D2DCC80CD2E4000000 PUSH2 0x6D6 SELFBALANCE PUSH2 0xB76 JUMP JUMPDEST LT ISZERO PUSH2 0x717 JUMPI PUSH1 0x40 MLOAD PUSH32 0x8C379A000000000000000000000000000000000000000000000000000000000 DUP2 MSTORE PUSH1 0x4 ADD PUSH2 0x70E SWAP1 PUSH2 0x1047 JUMP JUMPDEST PUSH1 0x40 MLOAD DUP1 SWAP2 SUB SWAP1 REVERT JUMPDEST PUSH0 CALLER PUSH20 0xFFFFFFFFFFFFFFFFFFFFFFFFFFFFFFFFFFFFFFFF AND SELFBALANCE PUSH1 0x40 MLOAD PUSH2 0x73C SWAP1 PUSH2 0xF81 JUMP JUMPDEST PUSH0 PUSH1 0x40 MLOAD DUP1 DUP4 SUB DUP2 DUP6 DUP8 GAS CALL SWAP3 POP POP POP RETURNDATASIZE DUP1 PUSH0 DUP2 EQ PUSH2 0x776 JUMPI PUSH1 0x40 MLOAD SWAP2 POP PUSH1 0x1F NOT PUSH1 0x3F RETURNDATASIZE ADD AND DUP3 ADD PUSH1 0x40 MSTORE RETURNDATASIZE DUP3 MSTORE RETURNDATASIZE PUSH0 PUSH1 0x20 DUP5 ADD RETURNDATACOPY PUSH2 0x77B JUMP JUMPDEST PUSH1 0x60 SWAP2 POP JUMPDEST POP POP DUP1 SWAP2 POP POP DUP1 PUSH2 0x7C1 JUMPI PUSH1 0x40 MLOAD PUSH32 0x8C379A000000000000000000000000000000000000000000000000000000000 DUP2 MSTORE PUSH1 0x4 ADD PUSH2 0x7B8 SWAP1 PUSH2 0xFDF JUMP JUMPDEST PUSH1 0x40 MLOAD DUP1 SWAP2 SUB SWAP1 REVERT JUMPDEST PUSH1 0x1 PUSH1 0x6 PUSH0 PUSH2 0x100 EXP DUP2 SLOAD DUP2 PUSH1 0xFF MUL NOT AND SWAP1 DUP4 ISZERO ISZERO MUL OR SWAP1 SSTORE POP POP JUMP JUMPDEST PUSH1 0x5 SLOAD PUSH1 0x4 SLOAD PUSH2 0x7EE SWAP2 SWAP1 PUSH2 0xDE9 JUMP JUMPDEST TIMESTAMP GT ISZERO PUSH2 0x830 JUMPI PUSH1 0x40 MLOAD PUSH32 0x8C379A000000000000000000000000000000000000000000000000000000000 DUP2 MSTORE PUSH1 0x4 ADD PUSH2 0x827 SWAP1 PUSH2 0x10AF JUMP JUMPDEST PUSH1 0x40 MLOAD DUP1 SWAP2 SUB SWAP1 REVERT JUMPDEST PUSH11 0x52B7D2DCC80CD2E4000000 PUSH2 0x845 CALLVALUE PUSH2 0xB76 JUMP JUMPDEST LT ISZERO PUSH2 0x886 JUMPI PUSH1 0x40 MLOAD PUSH32 0x8C379A000000000000000000000000000000000000000000000000000000000 DUP2 MSTORE PUSH1 0x4 ADD PUSH2 0x87D SWAP1 PUSH2 0x1117 JUMP JUMPDEST PUSH1 0x40 MLOAD DUP1 SWAP2 SUB SWAP1 REVERT JUMPDEST CALLVALUE PUSH1 0x1 PUSH0 CALLER PUSH20 0xFFFFFFFFFFFFFFFFFFFFFFFFFFFFFFFFFFFFFFFF AND PUSH20 0xFFFFFFFFFFFFFFFFFFFFFFFFFFFFFFFFFFFFFFFF AND DUP2 MSTORE PUSH1 0x20 ADD SWAP1 DUP2 MSTORE PUSH1 0x20 ADD PUSH0 KECCAK256 PUSH0 DUP3 DUP3 SLOAD PUSH2 0x8D2 SWAP2 SWAP1 PUSH2 0xDE9 JUMP JUMPDEST SWAP3 POP POP DUP2 SWAP1 SSTORE POP JUMP JUMPDEST PUSH0 PUSH0 PUSH0 PUSH0 SWAP1 SLOAD SWAP1 PUSH2 0x100 EXP SWAP1 DIV PUSH20 0xFFFFFFFFFFFFFFFFFFFFFFFFFFFFFFFFFFFFFFFF AND PUSH20 0xFFFFFFFFFFFFFFFFFFFFFFFFFFFFFFFFFFFFFFFF AND PUSH4 0xFEAF968C PUSH1 0x40 MLOAD DUP2 PUSH4 0xFFFFFFFF AND PUSH1 0xE0 SHL DUP2 MSTORE PUSH1 0x4 ADD PUSH1 0xA0 PUSH1 0x40 MLOAD DUP1 DUP4 SUB DUP2 DUP7 GAS STATICCALL ISZERO DUP1 ISZERO PUSH2 0x946 JUMPI RETURNDATASIZE PUSH0 PUSH0 RETURNDATACOPY RETURNDATASIZE PUSH0 REVERT JUMPDEST POP POP POP POP PUSH1 0x40 MLOAD RETURNDATASIZE PUSH1 0x1F NOT PUSH1 0x1F DUP3 ADD AND DUP3 ADD DUP1 PUSH1 0x40 MSTORE POP DUP2 ADD SWAP1 PUSH2 0x96A SWAP2 SWAP1 PUSH2 0x11B2 JUMP JUMPDEST POP POP POP SWAP2 POP POP DUP1 SWAP2 POP POP SWAP1 JUMP JUMPDEST PUSH1 0x3 PUSH0 SWAP1 SLOAD SWAP1 PUSH2 0x100 EXP SWAP1 DIV PUSH20 0xFFFFFFFFFFFFFFFFFFFFFFFFFFFFFFFFFFFFFFFF AND PUSH20 0xFFFFFFFFFFFFFFFFFFFFFFFFFFFFFFFFFFFFFFFF AND CALLER PUSH20 0xFFFFFFFFFFFFFFFFFFFFFFFFFFFFFFFFFFFFFFFF AND EQ PUSH2 0xA06 JUMPI PUSH1 0x40 MLOAD PUSH32 0x8C379A000000000000000000000000000000000000000000000000000000000 DUP2 MSTORE PUSH1 0x4 ADD PUSH2 0x9FD SWAP1 PUSH2 0x1299 JUMP JUMPDEST PUSH1 0x40 MLOAD DUP1 SWAP2 SUB SWAP1 REVERT JUMPDEST DUP1 PUSH1 0x1 PUSH0 DUP5 PUSH20 0xFFFFFFFFFFFFFFFFFFFFFFFFFFFFFFFFFFFFFFFF AND PUSH20 0xFFFFFFFFFFFFFFFFFFFFFFFFFFFFFFFFFFFFFFFF AND DUP2 MSTORE PUSH1 0x20 ADD SWAP1 DUP2 MSTORE PUSH1 0x20 ADD PUSH0 KECCAK256 DUP2 SWAP1 SSTORE POP POP POP JUMP JUMPDEST PUSH1 0x6 PUSH0 SWAP1 SLOAD SWAP1 PUSH2 0x100 EXP SWAP1 DIV PUSH1 0xFF AND DUP2 JUMP JUMPDEST PUSH0 PUSH1 0x1 PUSH0 DUP4 PUSH20 0xFFFFFFFFFFFFFFFFFFFFFFFFFFFFFFFFFFFFFFFF AND PUSH20 0xFFFFFFFFFFFFFFFFFFFFFFFFFFFFFFFFFFFFFFFF AND DUP2 MSTORE PUSH1 0x20 ADD SWAP1 DUP2 MSTORE PUSH1 0x20 ADD PUSH0 KECCAK256 SLOAD SWAP1 POP SWAP2 SWAP1 POP JUMP JUMPDEST CALLER PUSH20 0xFFFFFFFFFFFFFFFFFFFFFFFFFFFFFFFFFFFFFFFF AND PUSH1 0x2 PUSH0 SWAP1 SLOAD SWAP1 PUSH2 0x100 EXP SWAP1 DIV PUSH20 0xFFFFFFFFFFFFFFFFFFFFFFFFFFFFFFFFFFFFFFFF AND PUSH20 0xFFFFFFFFFFFFFFFFFFFFFFFFFFFFFFFFFFFFFFFF AND EQ PUSH2 0xB33 JUMPI PUSH1 0x40 MLOAD PUSH32 0x8C379A000000000000000000000000000000000000000000000000000000000 DUP2 MSTORE PUSH1 0x4 ADD PUSH2 0xB2A SWAP1 PUSH2 0xD9E JUMP JUMPDEST PUSH1 0x40 MLOAD DUP1 SWAP2 SUB SWAP1 REVERT JUMPDEST DUP1 PUSH1 0x2 PUSH0 PUSH2 0x100 EXP DUP2 SLOAD DUP2 PUSH20 0xFFFFFFFFFFFFFFFFFFFFFFFFFFFFFFFFFFFFFFFF MUL NOT AND SWAP1 DUP4 PUSH20 0xFFFFFFFFFFFFFFFFFFFFFFFFFFFFFFFFFFFFFFFF AND MUL OR SWAP1 SSTORE POP POP JUMP JUMPDEST PUSH0 PUSH0 PUSH2 0xB80 PUSH2 0x8DB JUMP JUMPDEST SWAP1 POP DUP1 DUP4 PUSH2 0xB8E SWAP2 SWAP1 PUSH2 0x12B7 JUMP JUMPDEST SWAP2 POP POP SWAP2 SWAP1 POP JUMP JUMPDEST PUSH0 PUSH0 REVERT JUMPDEST PUSH0 PUSH20 0xFFFFFFFFFFFFFFFFFFFFFFFFFFFFFFFFFFFFFFFF DUP3 AND SWAP1 POP SWAP2 SWAP1 POP JUMP JUMPDEST PUSH0 PUSH2 0xBC3 DUP3 PUSH2 0xB9A JUMP JUMPDEST SWAP1 POP SWAP2 SWAP1 POP JUMP JUMPDEST PUSH2 0xBD3 DUP2 PUSH2 0xBB9 JUMP JUMPDEST DUP2 EQ PUSH2 0xBDD JUMPI PUSH0 PUSH0 REVERT JUMPDEST POP JUMP JUMPDEST PUSH0 DUP2 CALLDATALOAD SWAP1 POP PUSH2 0xBEE DUP2 PUSH2 0xBCA JUMP JUMPDEST SWAP3 SWAP2 POP POP JUMP JUMPDEST PUSH0 PUSH1 0x20 DUP3 DUP5 SUB SLT ISZERO PUSH2 0xC09 JUMPI PUSH2 0xC08 PUSH2 0xB96 JUMP JUMPDEST JUMPDEST PUSH0 PUSH2 0xC16 DUP5 DUP3 DUP6 ADD PUSH2 0xBE0 JUMP JUMPDEST SWAP2 POP POP SWAP3 SWAP2 POP POP JUMP JUMPDEST PUSH0 DUP2 SWAP1 POP SWAP2 SWAP1 POP JUMP JUMPDEST PUSH2 0xC31 DUP2 PUSH2 0xC1F JUMP JUMPDEST DUP3 MSTORE POP POP JUMP JUMPDEST PUSH0 PUSH1 0x20 DUP3 ADD SWAP1 POP PUSH2 0xC4A PUSH0 DUP4 ADD DUP5 PUSH2 0xC28 JUMP JUMPDEST SWAP3 SWAP2 POP POP JUMP JUMPDEST PUSH2 0xC59 DUP2 PUSH2 0xBB9 JUMP JUMPDEST DUP3 MSTORE POP POP JUMP JUMPDEST PUSH0 PUSH1 0x20 DUP3 ADD SWAP1 POP PUSH2 0xC72 PUSH0 DUP4 ADD DUP5 PUSH2 0xC50 JUMP JUMPDEST SWAP3 SWAP2 POP POP JUMP JUMPDEST PUSH0 DUP2 SWAP1 POP SWAP2 SWAP1 POP JUMP JUMPDEST PUSH2 0xC8A DUP2 PUSH2 0xC78 JUMP JUMPDEST DUP3 MSTORE POP POP JUMP JUMPDEST PUSH0 PUSH1 0x20 DUP3 ADD SWAP1 POP PUSH2 0xCA3 PUSH0 DUP4 ADD DUP5 PUSH2 0xC81 JUMP JUMPDEST SWAP3 SWAP2 POP POP JUMP JUMPDEST PUSH2 0xCB2 DUP2 PUSH2 0xC1F JUMP JUMPDEST DUP2 EQ PUSH2 0xCBC JUMPI PUSH0 PUSH0 REVERT JUMPDEST POP JUMP JUMPDEST PUSH0 DUP2 CALLDATALOAD SWAP1 POP PUSH2 0xCCD DUP2 PUSH2 0xCA9 JUMP JUMPDEST SWAP3 SWAP2 POP POP JUMP JUMPDEST PUSH0 PUSH0 PUSH1 0x40 DUP4 DUP6 SUB SLT ISZERO PUSH2 0xCE9 JUMPI PUSH2 0xCE8 PUSH2 0xB96 JUMP JUMPDEST JUMPDEST PUSH0 PUSH2 0xCF6 DUP6 DUP3 DUP7 ADD PUSH2 0xBE0 JUMP JUMPDEST SWAP3 POP POP PUSH1 0x20 PUSH2 0xD07 DUP6 DUP3 DUP7 ADD PUSH2 0xCBF JUMP JUMPDEST SWAP2 POP POP SWAP3 POP SWAP3 SWAP1 POP JUMP JUMPDEST PUSH0 DUP2 ISZERO ISZERO SWAP1 POP SWAP2 SWAP1 POP JUMP JUMPDEST PUSH2 0xD25 DUP2 PUSH2 0xD11 JUMP JUMPDEST DUP3 MSTORE POP POP JUMP JUMPDEST PUSH0 PUSH1 0x20 DUP3 ADD SWAP1 POP PUSH2 0xD3E PUSH0 DUP4 ADD DUP5 PUSH2 0xD1C JUMP JUMPDEST SWAP3 SWAP2 POP POP JUMP JUMPDEST PUSH0 DUP3 DUP3 MSTORE PUSH1 0x20 DUP3 ADD SWAP1 POP SWAP3 SWAP2 POP POP JUMP JUMPDEST PUSH32 0x4F776E6572206F6E6C7921000000000000000000000000000000000000000000 PUSH0 DUP3 ADD MSTORE POP JUMP JUMPDEST PUSH0 PUSH2 0xD88 PUSH1 0xB DUP4 PUSH2 0xD44 JUMP JUMPDEST SWAP2 POP PUSH2 0xD93 DUP3 PUSH2 0xD54 JUMP JUMPDEST PUSH1 0x20 DUP3 ADD SWAP1 POP SWAP2 SWAP1 POP JUMP JUMPDEST PUSH0 PUSH1 0x20 DUP3 ADD SWAP1 POP DUP2 DUP2 SUB PUSH0 DUP4 ADD MSTORE PUSH2 0xDB5 DUP2 PUSH2 0xD7C JUMP JUMPDEST SWAP1 POP SWAP2 SWAP1 POP JUMP JUMPDEST PUSH32 0x4E487B7100000000000000000000000000000000000000000000000000000000 PUSH0 MSTORE PUSH1 0x11 PUSH1 0x4 MSTORE PUSH1 0x24 PUSH0 REVERT JUMPDEST PUSH0 PUSH2 0xDF3 DUP3 PUSH2 0xC1F JUMP JUMPDEST SWAP2 POP PUSH2 0xDFE DUP4 PUSH2 0xC1F JUMP JUMPDEST SWAP3 POP DUP3 DUP3 ADD SWAP1 POP DUP1 DUP3 GT ISZERO PUSH2 0xE16 JUMPI PUSH2 0xE15 PUSH2 0xDBC JUMP JUMPDEST JUMPDEST SWAP3 SWAP2 POP POP JUMP JUMPDEST PUSH32 0x57696E646F77206E6F7420636C6F736564210000000000000000000000000000 PUSH0 DUP3 ADD MSTORE POP JUMP JUMPDEST PUSH0 PUSH2 0xE50 PUSH1 0x12 DUP4 PUSH2 0xD44 JUMP JUMPDEST SWAP2 POP PUSH2 0xE5B DUP3 PUSH2 0xE1C JUMP JUMPDEST PUSH1 0x20 DUP3 ADD SWAP1 POP SWAP2 SWAP1 POP JUMP JUMPDEST PUSH0 PUSH1 0x20 DUP3 ADD SWAP1 POP DUP2 DUP2 SUB PUSH0 DUP4 ADD MSTORE PUSH2 0xE7D DUP2 PUSH2 0xE44 JUMP JUMPDEST SWAP1 POP SWAP2 SWAP1 POP JUMP JUMPDEST PUSH32 0x5461726765742069732072656163686564210000000000000000000000000000 PUSH0 DUP3 ADD MSTORE POP JUMP JUMPDEST PUSH0 PUSH2 0xEB8 PUSH1 0x12 DUP4 PUSH2 0xD44 JUMP JUMPDEST SWAP2 POP PUSH2 0xEC3 DUP3 PUSH2 0xE84 JUMP JUMPDEST PUSH1 0x20 DUP3 ADD SWAP1 POP SWAP2 SWAP1 POP JUMP JUMPDEST PUSH0 PUSH1 0x20 DUP3 ADD SWAP1 POP DUP2 DUP2 SUB PUSH0 DUP4 ADD MSTORE PUSH2 0xEE5 DUP2 PUSH2 0xEAC JUMP JUMPDEST SWAP1 POP SWAP2 SWAP1 POP JUMP JUMPDEST PUSH32 0x596F7520686176656E27742066756E6421000000000000000000000000000000 PUSH0 DUP3 ADD MSTORE POP JUMP JUMPDEST PUSH0 PUSH2 0xF20 PUSH1 0x11 DUP4 PUSH2 0xD44 JUMP JUMPDEST SWAP2 POP PUSH2 0xF2B DUP3 PUSH2 0xEEC JUMP JUMPDEST PUSH1 0x20 DUP3 ADD SWAP1 POP SWAP2 SWAP1 POP JUMP JUMPDEST PUSH0 PUSH1 0x20 DUP3 ADD SWAP1 POP DUP2 DUP2 SUB PUSH0 DUP4 ADD MSTORE PUSH2 0xF4D DUP2 PUSH2 0xF14 JUMP JUMPDEST SWAP1 POP SWAP2 SWAP1 POP JUMP JUMPDEST PUSH0 DUP2 SWAP1 POP SWAP3 SWAP2 POP POP JUMP JUMPDEST POP JUMP JUMPDEST PUSH0 PUSH2 0xF6C PUSH0 DUP4 PUSH2 0xF54 JUMP JUMPDEST SWAP2 POP PUSH2 0xF77 DUP3 PUSH2 0xF5E JUMP JUMPDEST PUSH0 DUP3 ADD SWAP1 POP SWAP2 SWAP1 POP JUMP JUMPDEST PUSH0 PUSH2 0xF8B DUP3 PUSH2 0xF61 JUMP JUMPDEST SWAP2 POP DUP2 SWAP1 POP SWAP2 SWAP1 POP JUMP JUMPDEST PUSH32 0x5472616E73666572207478206661696C65642100000000000000000000000000 PUSH0 DUP3 ADD MSTORE POP JUMP JUMPDEST PUSH0 PUSH2 0xFC9 PUSH1 0x13 DUP4 PUSH2 0xD44 JUMP JUMPDEST SWAP2 POP PUSH2 0xFD4 DUP3 PUSH2 0xF95 JUMP JUMPDEST PUSH1 0x20 DUP3 ADD SWAP1 POP SWAP2 SWAP1 POP JUMP JUMPDEST PUSH0 PUSH1 0x20 DUP3 ADD SWAP1 POP DUP2 DUP2 SUB PUSH0 DUP4 ADD MSTORE PUSH2 0xFF6 DUP2 PUSH2 0xFBD JUMP JUMPDEST SWAP1 POP SWAP2 SWAP1 POP JUMP JUMPDEST PUSH32 0x546172676574206973206E6F7420726561636865642100000000000000000000 PUSH0 DUP3 ADD MSTORE POP JUMP JUMPDEST PUSH0 PUSH2 0x1031 PUSH1 0x16 DUP4 PUSH2 0xD44 JUMP JUMPDEST SWAP2 POP PUSH2 0x103C DUP3 PUSH2 0xFFD JUMP JUMPDEST PUSH1 0x20 DUP3 ADD SWAP1 POP SWAP2 SWAP1 POP JUMP JUMPDEST PUSH0 PUSH1 0x20 DUP3 ADD SWAP1 POP DUP2 DUP2 SUB PUSH0 DUP4 ADD MSTORE PUSH2 0x105E DUP2 PUSH2 0x1025 JUMP JUMPDEST SWAP1 POP SWAP2 SWAP1 POP JUMP JUMPDEST PUSH32 0x57696E646F7720636C6F73656421000000000000000000000000000000000000 PUSH0 DUP3 ADD MSTORE POP JUMP JUMPDEST PUSH0 PUSH2 0x1099 PUSH1 0xE DUP4 PUSH2 0xD44 JUMP JUMPDEST SWAP2 POP PUSH2 0x10A4 DUP3 PUSH2 0x1065 JUMP JUMPDEST PUSH1 0x20 DUP3 ADD SWAP1 POP SWAP2 SWAP1 POP JUMP JUMPDEST PUSH0 PUSH1 0x20 DUP3 ADD SWAP1 POP DUP2 DUP2 SUB PUSH0 DUP4 ADD MSTORE PUSH2 0x10C6 DUP2 PUSH2 0x108D JUMP JUMPDEST SWAP1 POP SWAP2 SWAP1 POP JUMP JUMPDEST PUSH32 0x506C656173652073656E64206D6F726521000000000000000000000000000000 PUSH0 DUP3 ADD MSTORE POP JUMP JUMPDEST PUSH0 PUSH2 0x1101 PUSH1 0x11 DUP4 PUSH2 0xD44 JUMP JUMPDEST SWAP2 POP PUSH2 0x110C DUP3 PUSH2 0x10CD JUMP JUMPDEST PUSH1 0x20 DUP3 ADD SWAP1 POP SWAP2 SWAP1 POP JUMP JUMPDEST PUSH0 PUSH1 0x20 DUP3 ADD SWAP1 POP DUP2 DUP2 SUB PUSH0 DUP4 ADD MSTORE PUSH2 0x112E DUP2 PUSH2 0x10F5 JUMP JUMPDEST SWAP1 POP SWAP2 SWAP1 POP JUMP JUMPDEST PUSH0 PUSH10 0xFFFFFFFFFFFFFFFFFFFF DUP3 AND SWAP1 POP SWAP2 SWAP1 POP JUMP JUMPDEST PUSH2 0x1153 DUP2 PUSH2 0x1135 JUMP JUMPDEST DUP2 EQ PUSH2 0x115D JUMPI PUSH0 PUSH0 REVERT JUMPDEST POP JUMP JUMPDEST PUSH0 DUP2 MLOAD SWAP1 POP PUSH2 0x116E DUP2 PUSH2 0x114A JUMP JUMPDEST SWAP3 SWAP2 POP POP JUMP JUMPDEST PUSH2 0x117D DUP2 PUSH2 0xC78 JUMP JUMPDEST DUP2 EQ PUSH2 0x1187 JUMPI PUSH0 PUSH0 REVERT JUMPDEST POP JUMP JUMPDEST PUSH0 DUP2 MLOAD SWAP1 POP PUSH2 0x1198 DUP2 PUSH2 0x1174 JUMP JUMPDEST SWAP3 SWAP2 POP POP JUMP JUMPDEST PUSH0 DUP2 MLOAD SWAP1 POP PUSH2 0x11AC DUP2 PUSH2 0xCA9 JUMP JUMPDEST SWAP3 SWAP2 POP POP JUMP JUMPDEST PUSH0 PUSH0 PUSH0 PUSH0 PUSH0 PUSH1 0xA0 DUP7 DUP9 SUB SLT ISZERO PUSH2 0x11CB JUMPI PUSH2 0x11CA PUSH2 0xB96 JUMP JUMPDEST JUMPDEST PUSH0 PUSH2 0x11D8 DUP9 DUP3 DUP10 ADD PUSH2 0x1160 JUMP JUMPDEST SWAP6 POP POP PUSH1 0x20 PUSH2 0x11E9 DUP9 DUP3 DUP10 ADD PUSH2 0x118A JUMP JUMPDEST SWAP5 POP POP PUSH1 0x40 PUSH2 0x11FA DUP9 DUP3 DUP10 ADD PUSH2 0x119E JUMP JUMPDEST SWAP4 POP POP PUSH1 0x60 PUSH2 0x120B DUP9 DUP3 DUP10 ADD PUSH2 0x119E JUMP JUMPDEST SWAP3 POP POP PUSH1 0x80 PUSH2 0x121C DUP9 DUP3 DUP10 ADD PUSH2 0x1160 JUMP JUMPDEST SWAP2 POP POP SWAP3 SWAP6 POP SWAP3 SWAP6 SWAP1 SWAP4 POP JUMP JUMPDEST PUSH32 0x596F7520646F6E7427742068617665207065726D697373696F6E20746F206361 PUSH0 DUP3 ADD MSTORE PUSH32 0x6C6C20746869732066756E6374696F6E21000000000000000000000000000000 PUSH1 0x20 DUP3 ADD MSTORE POP JUMP JUMPDEST PUSH0 PUSH2 0x1283 PUSH1 0x31 DUP4 PUSH2 0xD44 JUMP JUMPDEST SWAP2 POP PUSH2 0x128E DUP3 PUSH2 0x1229 JUMP JUMPDEST PUSH1 0x40 DUP3 ADD SWAP1 POP SWAP2 SWAP1 POP JUMP JUMPDEST PUSH0 PUSH1 0x20 DUP3 ADD SWAP1 POP DUP2 DUP2 SUB PUSH0 DUP4 ADD MSTORE PUSH2 0x12B0 DUP2 PUSH2 0x1277 JUMP JUMPDEST SWAP1 POP SWAP2 SWAP1 POP JUMP JUMPDEST PUSH0 PUSH2 0x12C1 DUP3 PUSH2 0xC1F JUMP JUMPDEST SWAP2 POP PUSH2 0x12CC DUP4 PUSH2 0xC1F JUMP JUMPDEST SWAP3 POP DUP3 DUP3 MUL PUSH2 0x12DA DUP2 PUSH2 0xC1F JUMP JUMPDEST SWAP2 POP DUP3 DUP3 DIV DUP5 EQ DUP4 ISZERO OR PUSH2 0x12F1 JUMPI PUSH2 0x12F0 PUSH2 0xDBC JUMP JUMPDEST JUMPDEST POP SWAP3 SWAP2 POP POP JUMP INVALID LOG2 PUSH5 0x6970667358 0x22 SLT KECCAK256 SHR CREATE SWAP14 PUSH16 0x6FA5CE406025289BE5DF7D3E4281C474 JUMPDEST 0xE2 SELFDESTRUCT LOG1 SMOD 0xC0 0xD6 0xB7 PUSH17 0x137F0864736F6C634300081C0033000000 "
				},
				"gasEstimates": {
					"creation": {
						"codeDepositCost": "982000",
						"executionCost": "infinite",
						"totalCost": "infinite"
					},
					"external": {
						"checkFunderAmount(address)": "2917",
						"checkMyAmount()": "2586",
						"fund()": "infinite",
						"funderToAmount(address)": "2825",
						"getChainlinkDataFeedLatestAnswer()": "infinite",
						"getFund()": "infinite",
						"getFundSuccess()": "2532",
						"owner()": "2597",
						"refund()": "infinite",
						"setErc20Addr(address)": "26885",
						"setFunderToAmount(address,uint256)": "25034",
						"transferOwnership(address)": "26994"
					},
					"internal": {
						"convertEthToUsd(uint256)": "infinite"
					}
				},
				"methodIdentifiers": {
					"checkFunderAmount(address)": "dba244f1",
					"checkMyAmount()": "7795dc2a",
					"fund()": "b60d4288",
					"funderToAmount(address)": "4407e1e8",
					"getChainlinkDataFeedLatestAnswer()": "bea4dfb5",
					"getFund()": "8edd6eb6",
					"getFundSuccess()": "da4658e0",
					"owner()": "8da5cb5b",
					"refund()": "590e1ae3",
					"setErc20Addr(address)": "13ffff01",
					"setFunderToAmount(address,uint256)": "d39cf006",
					"transferOwnership(address)": "f2fde38b"
				}
			},
			"storageLayout": {
				"storage": [
					{
						"astId": 52,
						"contract": "FundMe/FundMe.sol:FundMe",
						"label": "dataFeed",
						"offset": 0,
						"slot": "0",
						"type": "t_contract(AggregatorV3Interface)45"
					},
					{
						"astId": 56,
						"contract": "FundMe/FundMe.sol:FundMe",
						"label": "funderToAmount",
						"offset": 0,
						"slot": "1",
						"type": "t_mapping(t_address,t_uint256)"
					},
					{
						"astId": 84,
						"contract": "FundMe/FundMe.sol:FundMe",
						"label": "owner",
						"offset": 0,
						"slot": "2",
						"type": "t_address"
					},
					{
						"astId": 86,
						"contract": "FundMe/FundMe.sol:FundMe",
						"label": "erc20Addr",
						"offset": 0,
						"slot": "3",
						"type": "t_address"
					},
					{
						"astId": 88,
						"contract": "FundMe/FundMe.sol:FundMe",
						"label": "deploymentTime",
						"offset": 0,
						"slot": "4",
						"type": "t_uint256"
					},
					{
						"astId": 90,
						"contract": "FundMe/FundMe.sol:FundMe",
						"label": "lockTime",
						"offset": 0,
						"slot": "5",
						"type": "t_uint256"
					},
					{
						"astId": 93,
						"contract": "FundMe/FundMe.sol:FundMe",
						"label": "getFundSuccess",
						"offset": 0,
						"slot": "6",
						"type": "t_bool"
					}
				],
				"types": {
					"t_address": {
						"encoding": "inplace",
						"label": "address",
						"numberOfBytes": "20"
					},
					"t_bool": {
						"encoding": "inplace",
						"label": "bool",
						"numberOfBytes": "1"
					},
					"t_contract(AggregatorV3Interface)45": {
						"encoding": "inplace",
						"label": "contract AggregatorV3Interface",
						"numberOfBytes": "20"
					},
					"t_mapping(t_address,t_uint256)": {
						"encoding": "mapping",
						"key": "t_address",
						"label": "mapping(address => uint256)",
						"numberOfBytes": "32",
						"value": "t_uint256"
					},
					"t_uint256": {
						"encoding": "inplace",
						"label": "uint256",
						"numberOfBytes": "32"
					}
				}
			},
			"userdoc": {
				"kind": "user",
				"methods": {},
				"version": 1
			}
		}
	}
}