{
	"data": {
		"bytecode": {
			"linkReferences": {},
			"object": "60806040526a52b7d2dcc80cd2e4000000600255348015601d575f5ffd5b5073694aa1769357215de4fac081bf1f309adc3253065f5f6101000a81548173ffffffffffffffffffffffffffffffffffffffff021916908373ffffffffffffffffffffffffffffffffffffffff16021790555061051a8061007e5f395ff3fe608060405260043610610033575f3560e01c80634407e1e814610037578063b60d428814610073578063bea4dfb51461007d575b5f5ffd5b348015610042575f5ffd5b5061005d60048036038101906100589190610267565b6100a7565b60405161006a91906102aa565b60405180910390f35b61007b6100bc565b005b348015610088575f5ffd5b5061009161014d565b60405161009e91906102db565b60405180910390f35b6001602052805f5260405f205f915090505481565b6002546100c8346101e9565b1015610109576040517f08c379a00000000000000000000000000000000000000000000000000000000081526004016101009061034e565b60405180910390fd5b3460015f3373ffffffffffffffffffffffffffffffffffffffff1673ffffffffffffffffffffffffffffffffffffffff1681526020019081526020015f2081905550565b5f5f5f5f9054906101000a900473ffffffffffffffffffffffffffffffffffffffff1673ffffffffffffffffffffffffffffffffffffffff1663feaf968c6040518163ffffffff1660e01b815260040160a060405180830381865afa1580156101b8573d5f5f3e3d5ffd5b505050506040513d601f19601f820116820180604052508101906101dc91906103ff565b5050509150508091505090565b5f5f6101f361014d565b9050808361020191906104a3565b915050919050565b5f5ffd5b5f73ffffffffffffffffffffffffffffffffffffffff82169050919050565b5f6102368261020d565b9050919050565b6102468161022c565b8114610250575f5ffd5b50565b5f813590506102618161023d565b92915050565b5f6020828403121561027c5761027b610209565b5b5f61028984828501610253565b91505092915050565b5f819050919050565b6102a481610292565b82525050565b5f6020820190506102bd5f83018461029b565b92915050565b5f819050919050565b6102d5816102c3565b82525050565b5f6020820190506102ee5f8301846102cc565b92915050565b5f82825260208201905092915050565b7f506c656173652073656e64206d6f7265210000000000000000000000000000005f82015250565b5f6103386011836102f4565b915061034382610304565b602082019050919050565b5f6020820190508181035f8301526103658161032c565b9050919050565b5f69ffffffffffffffffffff82169050919050565b61038a8161036c565b8114610394575f5ffd5b50565b5f815190506103a581610381565b92915050565b6103b4816102c3565b81146103be575f5ffd5b50565b5f815190506103cf816103ab565b92915050565b6103de81610292565b81146103e8575f5ffd5b50565b5f815190506103f9816103d5565b92915050565b5f5f5f5f5f60a0868803121561041857610417610209565b5b5f61042588828901610397565b9550506020610436888289016103c1565b9450506040610447888289016103eb565b9350506060610458888289016103eb565b925050608061046988828901610397565b9150509295509295909350565b7f4e487b71000000000000000000000000000000000000000000000000000000005f52601160045260245ffd5b5f6104ad82610292565b91506104b883610292565b92508282026104c681610292565b915082820484148315176104dd576104dc610476565b5b509291505056fea26469706673582212206beccd732ac9623066e2ee15b651de30a5a50bf06567a178c3bfff717b54969764736f6c634300081c0033",
			"opcodes": "PUSH1 0x80 PUSH1 0x40 MSTORE PUSH11 0x52B7D2DCC80CD2E4000000 PUSH1 0x2 SSTORE CALLVALUE DUP1 ISZERO PUSH1 0x1D JUMPI PUSH0 PUSH0 REVERT JUMPDEST POP PUSH20 0x694AA1769357215DE4FAC081BF1F309ADC325306 PUSH0 PUSH0 PUSH2 0x100 EXP DUP2 SLOAD DUP2 PUSH20 0xFFFFFFFFFFFFFFFFFFFFFFFFFFFFFFFFFFFFFFFF MUL NOT AND SWAP1 DUP4 PUSH20 0xFFFFFFFFFFFFFFFFFFFFFFFFFFFFFFFFFFFFFFFF AND MUL OR SWAP1 SSTORE POP PUSH2 0x51A DUP1 PUSH2 0x7E PUSH0 CODECOPY PUSH0 RETURN INVALID PUSH1 0x80 PUSH1 0x40 MSTORE PUSH1 0x4 CALLDATASIZE LT PUSH2 0x33 JUMPI PUSH0 CALLDATALOAD PUSH1 0xE0 SHR DUP1 PUSH4 0x4407E1E8 EQ PUSH2 0x37 JUMPI DUP1 PUSH4 0xB60D4288 EQ PUSH2 0x73 JUMPI DUP1 PUSH4 0xBEA4DFB5 EQ PUSH2 0x7D JUMPI JUMPDEST PUSH0 PUSH0 REVERT JUMPDEST CALLVALUE DUP1 ISZERO PUSH2 0x42 JUMPI PUSH0 PUSH0 REVERT JUMPDEST POP PUSH2 0x5D PUSH1 0x4 DUP1 CALLDATASIZE SUB DUP2 ADD SWAP1 PUSH2 0x58 SWAP2 SWAP1 PUSH2 0x267 JUMP JUMPDEST PUSH2 0xA7 JUMP JUMPDEST PUSH1 0x40 MLOAD PUSH2 0x6A SWAP2 SWAP1 PUSH2 0x2AA JUMP JUMPDEST PUSH1 0x40 MLOAD DUP1 SWAP2 SUB SWAP1 RETURN JUMPDEST PUSH2 0x7B PUSH2 0xBC JUMP JUMPDEST STOP JUMPDEST CALLVALUE DUP1 ISZERO PUSH2 0x88 JUMPI PUSH0 PUSH0 REVERT JUMPDEST POP PUSH2 0x91 PUSH2 0x14D JUMP JUMPDEST PUSH1 0x40 MLOAD PUSH2 0x9E SWAP2 SWAP1 PUSH2 0x2DB JUMP JUMPDEST PUSH1 0x40 MLOAD DUP1 SWAP2 SUB SWAP1 RETURN JUMPDEST PUSH1 0x1 PUSH1 0x20 MSTORE DUP1 PUSH0 MSTORE PUSH1 0x40 PUSH0 KECCAK256 PUSH0 SWAP2 POP SWAP1 POP SLOAD DUP2 JUMP JUMPDEST PUSH1 0x2 SLOAD PUSH2 0xC8 CALLVALUE PUSH2 0x1E9 JUMP JUMPDEST LT ISZERO PUSH2 0x109 JUMPI PUSH1 0x40 MLOAD PUSH32 0x8C379A000000000000000000000000000000000000000000000000000000000 DUP2 MSTORE PUSH1 0x4 ADD PUSH2 0x100 SWAP1 PUSH2 0x34E JUMP JUMPDEST PUSH1 0x40 MLOAD DUP1 SWAP2 SUB SWAP1 REVERT JUMPDEST CALLVALUE PUSH1 0x1 PUSH0 CALLER PUSH20 0xFFFFFFFFFFFFFFFFFFFFFFFFFFFFFFFFFFFFFFFF AND PUSH20 0xFFFFFFFFFFFFFFFFFFFFFFFFFFFFFFFFFFFFFFFF AND DUP2 MSTORE PUSH1 0x20 ADD SWAP1 DUP2 MSTORE PUSH1 0x20 ADD PUSH0 KECCAK256 DUP2 SWAP1 SSTORE POP JUMP JUMPDEST PUSH0 PUSH0 PUSH0 PUSH0 SWAP1 SLOAD SWAP1 PUSH2 0x100 EXP SWAP1 DIV PUSH20 0xFFFFFFFFFFFFFFFFFFFFFFFFFFFFFFFFFFFFFFFF AND PUSH20 0xFFFFFFFFFFFFFFFFFFFFFFFFFFFFFFFFFFFFFFFF AND PUSH4 0xFEAF968C PUSH1 0x40 MLOAD DUP2 PUSH4 0xFFFFFFFF AND PUSH1 0xE0 SHL DUP2 MSTORE PUSH1 0x4 ADD PUSH1 0xA0 PUSH1 0x40 MLOAD DUP1 DUP4 SUB DUP2 DUP7 GAS STATICCALL ISZERO DUP1 ISZERO PUSH2 0x1B8 JUMPI RETURNDATASIZE PUSH0 PUSH0 RETURNDATACOPY RETURNDATASIZE PUSH0 REVERT JUMPDEST POP POP POP POP PUSH1 0x40 MLOAD RETURNDATASIZE PUSH1 0x1F NOT PUSH1 0x1F DUP3 ADD AND DUP3 ADD DUP1 PUSH1 0x40 MSTORE POP DUP2 ADD SWAP1 PUSH2 0x1DC SWAP2 SWAP1 PUSH2 0x3FF JUMP JUMPDEST POP POP POP SWAP2 POP POP DUP1 SWAP2 POP POP SWAP1 JUMP JUMPDEST PUSH0 PUSH0 PUSH2 0x1F3 PUSH2 0x14D JUMP JUMPDEST SWAP1 POP DUP1 DUP4 PUSH2 0x201 SWAP2 SWAP1 PUSH2 0x4A3 JUMP JUMPDEST SWAP2 POP POP SWAP2 SWAP1 POP JUMP JUMPDEST PUSH0 PUSH0 REVERT JUMPDEST PUSH0 PUSH20 0xFFFFFFFFFFFFFFFFFFFFFFFFFFFFFFFFFFFFFFFF DUP3 AND SWAP1 POP SWAP2 SWAP1 POP JUMP JUMPDEST PUSH0 PUSH2 0x236 DUP3 PUSH2 0x20D JUMP JUMPDEST SWAP1 POP SWAP2 SWAP1 POP JUMP JUMPDEST PUSH2 0x246 DUP2 PUSH2 0x22C JUMP JUMPDEST DUP2 EQ PUSH2 0x250 JUMPI PUSH0 PUSH0 REVERT JUMPDEST POP JUMP JUMPDEST PUSH0 DUP2 CALLDATALOAD SWAP1 POP PUSH2 0x261 DUP2 PUSH2 0x23D JUMP JUMPDEST SWAP3 SWAP2 POP POP JUMP JUMPDEST PUSH0 PUSH1 0x20 DUP3 DUP5 SUB SLT ISZERO PUSH2 0x27C JUMPI PUSH2 0x27B PUSH2 0x209 JUMP JUMPDEST JUMPDEST PUSH0 PUSH2 0x289 DUP5 DUP3 DUP6 ADD PUSH2 0x253 JUMP JUMPDEST SWAP2 POP POP SWAP3 SWAP2 POP POP JUMP JUMPDEST PUSH0 DUP2 SWAP1 POP SWAP2 SWAP1 POP JUMP JUMPDEST PUSH2 0x2A4 DUP2 PUSH2 0x292 JUMP JUMPDEST DUP3 MSTORE POP POP JUMP JUMPDEST PUSH0 PUSH1 0x20 DUP3 ADD SWAP1 POP PUSH2 0x2BD PUSH0 DUP4 ADD DUP5 PUSH2 0x29B JUMP JUMPDEST SWAP3 SWAP2 POP POP JUMP JUMPDEST PUSH0 DUP2 SWAP1 POP SWAP2 SWAP1 POP JUMP JUMPDEST PUSH2 0x2D5 DUP2 PUSH2 0x2C3 JUMP JUMPDEST DUP3 MSTORE POP POP JUMP JUMPDEST PUSH0 PUSH1 0x20 DUP3 ADD SWAP1 POP PUSH2 0x2EE PUSH0 DUP4 ADD DUP5 PUSH2 0x2CC JUMP JUMPDEST SWAP3 SWAP2 POP POP JUMP JUMPDEST PUSH0 DUP3 DUP3 MSTORE PUSH1 0x20 DUP3 ADD SWAP1 POP SWAP3 SWAP2 POP POP JUMP JUMPDEST PUSH32 0x506C656173652073656E64206D6F726521000000000000000000000000000000 PUSH0 DUP3 ADD MSTORE POP JUMP JUMPDEST PUSH0 PUSH2 0x338 PUSH1 0x11 DUP4 PUSH2 0x2F4 JUMP JUMPDEST SWAP2 POP PUSH2 0x343 DUP3 PUSH2 0x304 JUMP JUMPDEST PUSH1 0x20 DUP3 ADD SWAP1 POP SWAP2 SWAP1 POP JUMP JUMPDEST PUSH0 PUSH1 0x20 DUP3 ADD SWAP1 POP DUP2 DUP2 SUB PUSH0 DUP4 ADD MSTORE PUSH2 0x365 DUP2 PUSH2 0x32C JUMP JUMPDEST SWAP1 POP SWAP2 SWAP1 POP JUMP JUMPDEST PUSH0 PUSH10 0xFFFFFFFFFFFFFFFFFFFF DUP3 AND SWAP1 POP SWAP2 SWAP1 POP JUMP JUMPDEST PUSH2 0x38A DUP2 PUSH2 0x36C JUMP JUMPDEST DUP2 EQ PUSH2 0x394 JUMPI PUSH0 PUSH0 REVERT JUMPDEST POP JUMP JUMPDEST PUSH0 DUP2 MLOAD SWAP1 POP PUSH2 0x3A5 DUP2 PUSH2 0x381 JUMP JUMPDEST SWAP3 SWAP2 POP POP JUMP JUMPDEST PUSH2 0x3B4 DUP2 PUSH2 0x2C3 JUMP JUMPDEST DUP2 EQ PUSH2 0x3BE JUMPI PUSH0 PUSH0 REVERT JUMPDEST POP JUMP JUMPDEST PUSH0 DUP2 MLOAD SWAP1 POP PUSH2 0x3CF DUP2 PUSH2 0x3AB JUMP JUMPDEST SWAP3 SWAP2 POP POP JUMP JUMPDEST PUSH2 0x3DE DUP2 PUSH2 0x292 JUMP JUMPDEST DUP2 EQ PUSH2 0x3E8 JUMPI PUSH0 PUSH0 REVERT JUMPDEST POP JUMP JUMPDEST PUSH0 DUP2 MLOAD SWAP1 POP PUSH2 0x3F9 DUP2 PUSH2 0x3D5 JUMP JUMPDEST SWAP3 SWAP2 POP POP JUMP JUMPDEST PUSH0 PUSH0 PUSH0 PUSH0 PUSH0 PUSH1 0xA0 DUP7 DUP9 SUB SLT ISZERO PUSH2 0x418 JUMPI PUSH2 0x417 PUSH2 0x209 JUMP JUMPDEST JUMPDEST PUSH0 PUSH2 0x425 DUP9 DUP3 DUP10 ADD PUSH2 0x397 JUMP JUMPDEST SWAP6 POP POP PUSH1 0x20 PUSH2 0x436 DUP9 DUP3 DUP10 ADD PUSH2 0x3C1 JUMP JUMPDEST SWAP5 POP POP PUSH1 0x40 PUSH2 0x447 DUP9 DUP3 DUP10 ADD PUSH2 0x3EB JUMP JUMPDEST SWAP4 POP POP PUSH1 0x60 PUSH2 0x458 DUP9 DUP3 DUP10 ADD PUSH2 0x3EB JUMP JUMPDEST SWAP3 POP POP PUSH1 0x80 PUSH2 0x469 DUP9 DUP3 DUP10 ADD PUSH2 0x397 JUMP JUMPDEST SWAP2 POP POP SWAP3 SWAP6 POP SWAP3 SWAP6 SWAP1 SWAP4 POP JUMP JUMPDEST PUSH32 0x4E487B7100000000000000000000000000000000000000000000000000000000 PUSH0 MSTORE PUSH1 0x11 PUSH1 0x4 MSTORE PUSH1 0x24 PUSH0 REVERT JUMPDEST PUSH0 PUSH2 0x4AD DUP3 PUSH2 0x292 JUMP JUMPDEST SWAP2 POP PUSH2 0x4B8 DUP4 PUSH2 0x292 JUMP JUMPDEST SWAP3 POP DUP3 DUP3 MUL PUSH2 0x4C6 DUP2 PUSH2 0x292 JUMP JUMPDEST SWAP2 POP DUP3 DUP3 DIV DUP5 EQ DUP4 ISZERO OR PUSH2 0x4DD JUMPI PUSH2 0x4DC PUSH2 0x476 JUMP JUMPDEST JUMPDEST POP SWAP3 SWAP2 POP POP JUMP INVALID LOG2 PUSH5 0x6970667358 0x22 SLT KECCAK256 PUSH12 0xECCD732AC9623066E2EE15B6 MLOAD 0xDE ADDRESS 0xA5 0xA5 SIGNEXTEND CREATE PUSH6 0x67A178C3BFFF PUSH18 0x7B54969764736F6C634300081C0033000000 "
		},
		"gasEstimates": {
			"creation": {
				"codeDepositCost": "261200",
				"executionCost": "46669",
				"totalCost": "307869"
			},
			"external": {
				"fund()": "infinite",
				"funderToAmount(address)": "2780",
				"getChainlinkDataFeedLatestAnswer()": "infinite"
			},
			"internal": {
				"convertEthToUsd(uint256)": "infinite"
			}
		},
		"methodIdentifiers": {
			"fund()": "b60d4288",
			"funderToAmount(address)": "4407e1e8",
			"getChainlinkDataFeedLatestAnswer()": "bea4dfb5"
		}
	},
	"abi": [
		{
			"inputs": [],
			"stateMutability": "nonpayable",
			"type": "constructor"
		},
		{
			"inputs": [],
			"name": "fund",
			"outputs": [],
			"stateMutability": "payable",
			"type": "function"
		},
		{
			"inputs": [
				{
					"internalType": "address",
					"name": "",
					"type": "address"
				}
			],
			"name": "funderToAmount",
			"outputs": [
				{
					"internalType": "uint256",
					"name": "",
					"type": "uint256"
				}
			],
			"stateMutability": "view",
			"type": "function"
		},
		{
			"inputs": [],
			"name": "getChainlinkDataFeedLatestAnswer",
			"outputs": [
				{
					"internalType": "int256",
					"name": "",
					"type": "int256"
				}
			],
			"stateMutability": "view",
			"type": "function"
		}
	]
}